{
  "contractName": "BancorFormula",
  "abi": [
    {
      "constant": true,
      "inputs": [],
      "name": "MAX_WEIGHT",
      "outputs": [
        {
          "internalType": "uint32",
          "name": "",
          "type": "uint32"
        }
      ],
      "payable": false,
      "stateMutability": "view",
      "type": "function"
    },
    {
      "constant": true,
      "inputs": [],
      "name": "version",
      "outputs": [
        {
          "internalType": "string",
          "name": "",
          "type": "string"
        }
      ],
      "payable": false,
      "stateMutability": "view",
      "type": "function"
    },
    {
      "constant": false,
      "inputs": [],
      "name": "initialize",
      "outputs": [],
      "payable": false,
      "stateMutability": "nonpayable",
      "type": "function"
    },
    {
      "constant": true,
      "inputs": [
        {
          "internalType": "uint256",
          "name": "_supply",
          "type": "uint256"
        },
        {
          "internalType": "uint256",
          "name": "_connectorBalance",
          "type": "uint256"
        },
        {
          "internalType": "uint32",
          "name": "_connectorWeight",
          "type": "uint32"
        },
        {
          "internalType": "uint256",
          "name": "_depositAmount",
          "type": "uint256"
        }
      ],
      "name": "calculatePurchaseReturn",
      "outputs": [
        {
          "internalType": "uint256",
          "name": "",
          "type": "uint256"
        }
      ],
      "payable": false,
      "stateMutability": "view",
      "type": "function"
    },
    {
      "constant": true,
      "inputs": [
        {
          "internalType": "uint256",
          "name": "_supply",
          "type": "uint256"
        },
        {
          "internalType": "uint256",
          "name": "_connectorBalance",
          "type": "uint256"
        },
        {
          "internalType": "uint32",
          "name": "_connectorWeight",
          "type": "uint32"
        },
        {
          "internalType": "uint256",
          "name": "_sellAmount",
          "type": "uint256"
        }
      ],
      "name": "calculateSaleReturn",
      "outputs": [
        {
          "internalType": "uint256",
          "name": "",
          "type": "uint256"
        }
      ],
      "payable": false,
      "stateMutability": "view",
      "type": "function"
    }
  ],
  "bytecode": "0x60806040526040518060400160405280600381526020017f302e330000000000000000000000000000000000000000000000000000000000815250603390805190602001906200005192919062000e87565b50701c35fedd14ffffffffffffffffffffffff60346020608081106200007357fe5b0181905550701b0ce43b323fffffffffffffffffffffff60346021608081106200009957fe5b01819055507019f0028ec1ffffffffffffffffffffffff6034602260808110620000bf57fe5b01819055507018ded91f0e7fffffffffffffffffffffff6034602360808110620000e557fe5b01819055507017d8ec7f0417ffffffffffffffffffffff60346024608081106200010b57fe5b01819055507016ddc6556cdbffffffffffffffffffffff60346025608081106200013157fe5b01819055507015ecf52776a1ffffffffffffffffffffff60346026608081106200015757fe5b01819055507015060c256cb2ffffffffffffffffffffff60346027608081106200017d57fe5b0181905550701428a2f98d72ffffffffffffffffffffff6034602860808110620001a357fe5b01819055507013545598e5c23fffffffffffffffffffff6034602960808110620001c957fe5b0181905550701288c4161ce1dfffffffffffffffffffff6034602a60808110620001ef57fe5b01819055507011c592761c666fffffffffffffffffffff6034602b608081106200021557fe5b018190555070110a688680a757ffffffffffffffffffff6034602c608081106200023b57fe5b0181905550701056f1b5bedf77ffffffffffffffffffff6034602d608081106200026157fe5b0181905550700faadceceeff8bffffffffffffffffffff6034602e608081106200028757fe5b0181905550700f05dc6b27edadffffffffffffffffffff6034602f60808110620002ad57fe5b0181905550700e67a5a25da4107fffffffffffffffffff6034603060808110620002d357fe5b0181905550700dcff115b14eedffffffffffffffffffff6034603160808110620002f957fe5b0181905550700d3e7a392431239fffffffffffffffffff60346032608081106200031f57fe5b0181905550700cb2ff529eb71e4fffffffffffffffffff60346033608081106200034557fe5b0181905550700c2d415c3db974afffffffffffffffffff603480608081106200036a57fe5b0181905550700bad03e7d883f69bffffffffffffffffff60346035608081106200039057fe5b0181905550700b320d03b2c343d5ffffffffffffffffff6034603660808110620003b657fe5b0181905550700abc25204e02828dffffffffffffffffff6034603760808110620003dc57fe5b0181905550700a4b16f74ee4bb207fffffffffffffffff60346038608081106200040257fe5b01819055507009deaf736ac1f569ffffffffffffffffff60346039608081106200042857fe5b0181905550700976bd9952c7aa957fffffffffffffffff6034603a608081106200044e57fe5b01819055507009131271922eaa606fffffffffffffffff6034603b608081106200047457fe5b01819055507008b380f3558668c46fffffffffffffffff6034603c608081106200049a57fe5b0181905550700857ddf0117efa215bffffffffffffffff6034603d60808110620004c057fe5b01819055507007ffffffffffffffffffffffffffffffff6034603e60808110620004e657fe5b01819055507007abbf6f6abb9d087fffffffffffffffff6034603f608081106200050c57fe5b018190555070075af62cbac95f7dfa7fffffffffffffff60346040608081106200053257fe5b018190555070070d7fb7452e187ac13fffffffffffffff60346041608081106200055857fe5b01819055507006c3390ecc8af379295fffffffffffffff60346042608081106200057e57fe5b018190555070067c00a3b07ffc01fd6fffffffffffffff6034604360808110620005a457fe5b0181905550700637b647c39cbb9d3d27ffffffffffffff6034604460808110620005ca57fe5b01819055507005f63b1fc104dbd39587ffffffffffffff6034604560808110620005f057fe5b01819055507005b771955b36e12f7235ffffffffffffff60346046608081106200061657fe5b018190555070057b3d49dda84556d6f6ffffffffffffff60346047608081106200063c57fe5b018190555070054183095b2c8ececf30ffffffffffffff60346048608081106200066257fe5b018190555070050a28be635ca2b888f77fffffffffffff60346049608081106200068857fe5b01819055507004d5156639708c9db33c3fffffffffffff6034604a60808110620006ae57fe5b01819055507004a23105873875bd52dfdfffffffffffff6034604b60808110620006d457fe5b0181905550700471649d87199aa990756fffffffffffff6034604c60808110620006fa57fe5b01819055507004429a21a029d4c1457cfbffffffffffff6034604d608081106200072057fe5b0181905550700415bc6d6fb7dd71af2cb3ffffffffffff6034604e608081106200074657fe5b01819055507003eab73b3bbfe282243ce1ffffffffffff6034604f608081106200076c57fe5b01819055507003c1771ac9fb6b4c18e229ffffffffffff60346050608081106200079257fe5b0181905550700399e96897690418f785257fffffffffff6034605160808110620007b857fe5b0181905550700373fc456c53bb779bf0ea9fffffffffff6034605260808110620007de57fe5b018190555070034f9e8e490c48e67e6ab8bfffffffffff60346053608081106200080457fe5b018190555070032cbfd4a7adc790560b3337ffffffffff60346054608081106200082a57fe5b018190555070030b50570f6e5d2acca94613ffffffffff60346055608081106200085057fe5b01819055507002eb40f9f620fda6b56c2861ffffffffff60346056608081106200087657fe5b01819055507002cc8340ecb0d0f520a6af58ffffffffff60346057608081106200089c57fe5b01819055507002af09481380a0a35cf1ba02ffffffffff6034605860808110620008c257fe5b0181905550700292c5bdd3b92ec810287b1b3fffffffff6034605960808110620008e857fe5b0181905550700277abdcdab07d5a77ac6d6b9fffffffff6034605a608081106200090e57fe5b018190555070025daf6654b1eaa55fd64df5efffffffff6034605b608081106200093457fe5b0181905550700244c49c648baa98192dce88b7ffffffff6034605c608081106200095a57fe5b018190555070022ce03cd5619a311b2471268bffffffff6034605d608081106200098057fe5b0181905550700215f77c045fbe885654a44a0fffffffff6034605e60808110620009a657fe5b01819055507001ffffffffffffffffffffffffffffffff6034605f60808110620009cc57fe5b01819055507001eaefdbdaaee7421fc4d3ede5ffffffff6034606060808110620009f257fe5b01819055507001d6bd8b2eb257df7e8ca57b09bfffffff603460616080811062000a1857fe5b01819055507001c35fedd14b861eb0443f7f133fffffff603460626080811062000a3e57fe5b01819055507001b0ce43b322bcde4a56e8ada5afffffff603460636080811062000a6457fe5b018190555070019f0028ec1fff007f5a195a39dfffffff603460646080811062000a8a57fe5b018190555070018ded91f0e72ee74f49b15ba527ffffff603460656080811062000ab057fe5b018190555070017d8ec7f04136f4e5615fd41a63ffffff603460666080811062000ad657fe5b018190555070016ddc6556cdb84bdc8d12d22e6fffffff603460676080811062000afc57fe5b018190555070015ecf52776a1155b5bd8395814f7fffff603460686080811062000b2257fe5b018190555070015060c256cb23b3b3cc3754cf40ffffff603460696080811062000b4857fe5b01819055507001428a2f98d728ae223ddab715be3fffff6034606a6080811062000b6e57fe5b018190555070013545598e5c23276ccf0ede68034fffff6034606b6080811062000b9457fe5b01819055507001288c4161ce1d6f54b7f61081194fffff6034606c6080811062000bba57fe5b018190555070011c592761c666aa641d5a01a40f17ffff6034606d6080811062000be057fe5b0181905550700110a688680a7530515f3e6e6cfdcdffff6034606e6080811062000c0657fe5b01819055507001056f1b5bedf75c6bcb2ce8aed428ffff6034606f6080811062000c2c57fe5b01819055506ffaadceceeff8a0890f3875f008277fff603460706080811062000c5157fe5b01819055506ff05dc6b27edad306388a600f6ba0bfff603460716080811062000c7657fe5b01819055506fe67a5a25da41063de1495d5b18cdbfff603460726080811062000c9b57fe5b01819055506fdcff115b14eedde6fc3aa5353f2e4fff603460736080811062000cc057fe5b01819055506fd3e7a3924312399f9aae2e0f868f8fff603460746080811062000ce557fe5b01819055506fcb2ff529eb71e41582cccd5a1ee26fff603460756080811062000d0a57fe5b01819055506fc2d415c3db974ab32a51840c0b67edff603460766080811062000d2f57fe5b01819055506fbad03e7d883f69ad5b0a186184e06bff603460776080811062000d5457fe5b01819055506fb320d03b2c343d4829abd6075f0cc5ff603460786080811062000d7957fe5b01819055506fabc25204e02828d73c6e80bcdb1a95bf603460796080811062000d9e57fe5b01819055506fa4b16f74ee4bb2040a1ec6c15fbbf2df6034607a6080811062000dc357fe5b01819055506f9deaf736ac1f569deb1b5ae3f36c130f6034607b6080811062000de857fe5b01819055506f976bd9952c7aa957f5937d790ef650376034607c6080811062000e0d57fe5b01819055506f9131271922eaa6064b73a22d0bd4f2bf6034607d6080811062000e3257fe5b01819055506f8b380f3558668c46c91c49a2f8e967b96034607e6080811062000e5757fe5b01819055506f857ddf0117efa215952912839f6473e66034607f6080811062000e7c57fe5b018190555062000f36565b828054600181600116156101000203166002900490600052602060002090601f016020900481019282601f1062000eca57805160ff191683800117855562000efb565b8280016001018555821562000efb579182015b8281111562000efa57825182559160200191906001019062000edd565b5b50905062000f0a919062000f0e565b5090565b62000f3391905b8082111562000f2f57600081600090555060010162000f15565b5090565b90565b611d5f8062000f466000396000f3fe608060405234801561001057600080fd5b50600436106100575760003560e01c806329a00e7c1461005c57806349f9b0f7146100c257806354fd4d50146101285780638129fc1c146101ab578063e4a28a52146101b5575b600080fd5b6100ac6004803603608081101561007257600080fd5b810190808035906020019092919080359060200190929190803563ffffffff169060200190929190803590602001909291905050506101df565b6040518082815260200191505060405180910390f35b610112600480360360808110156100d857600080fd5b810190808035906020019092919080359060200190929190803563ffffffff16906020019092919080359060200190929190505050610308565b6040518082815260200191505060405180910390f35b610130610465565b6040518080602001828103825283818151815260200191508051906020019080838360005b83811015610170578082015181840152602081019050610155565b50505050905090810190601f16801561019d5780820380516001836020036101000a031916815260200191505b509250505060405180910390f35b6101b3610503565b005b6101bd610672565b604051808263ffffffff1663ffffffff16815260200191505060405180910390f35b600080851180156101f05750600084115b8015610202575060008363ffffffff16115b801561022c575060b560009054906101000a900463ffffffff1663ffffffff168363ffffffff1611155b61023557600080fd5b60008214156102475760009050610300565b60b560009054906101000a900463ffffffff1663ffffffff168363ffffffff1614156102995761029284610284848861068890919063ffffffff16565b61070e90919063ffffffff16565b9050610300565b60008060006102b1878661075890919063ffffffff16565b90506102d181888860b560009054906101000a900463ffffffff166107e0565b809350819450505060008260ff166102f2858b61068890919063ffffffff16565b901c90508881039450505050505b949350505050565b600080851180156103195750600084115b801561032b575060008363ffffffff16115b8015610355575060b560009054906101000a900463ffffffff1663ffffffff168363ffffffff1611155b80156103615750848211155b61036a57600080fd5b600082141561037c576000905061045d565b8482141561038c5783905061045d565b60b560009054906101000a900463ffffffff1663ffffffff168363ffffffff1614156103de576103d7856103c9848761068890919063ffffffff16565b61070e90919063ffffffff16565b905061045d565b60008060008488039050610406888260b560009054906101000a900463ffffffff16896107e0565b80935081945050506000610423848961068890919063ffffffff16565b905060008360ff1689901b905061045585610447838561094890919063ffffffff16565b61070e90919063ffffffff16565b955050505050505b949350505050565b60b48054600181600116156101000203166002900480601f0160208091040260200160405190810160405280929190818152602001828054600181600116156101000203166002900480156104fb5780601f106104d0576101008083540402835291602001916104fb565b820191906000526020600020905b8154815290600101906020018083116104de57829003601f168201915b505050505081565b600060019054906101000a900460ff16806105225750610521610992565b5b8061053957506000809054906101000a900460ff16155b61058e576040517f08c379a000000000000000000000000000000000000000000000000000000000815260040180806020018281038252602e815260200180611cfd602e913960400191505060405180910390fd5b60008060019054906101000a900460ff1615905080156105de576001600060016101000a81548160ff02191690831515021790555060016000806101000a81548160ff0219169083151502179055505b620f424060b560006101000a81548163ffffffff021916908363ffffffff1602179055506040518060400160405280600381526020017f302e33000000000000000000000000000000000000000000000000000000000081525060b4908051906020019061064d929190611c36565b50801561066f5760008060016101000a81548160ff0219169083151502179055505b50565b60b560009054906101000a900463ffffffff1681565b60008083141561069b5760009050610708565b60008284029050828482816106ac57fe5b0414610703576040517f08c379a0000000000000000000000000000000000000000000000000000000008152600401808060200182810382526021815260200180611cdc6021913960400191505060405180910390fd5b809150505b92915050565b600061075083836040518060400160405280601a81526020017f536166654d6174683a206469766973696f6e206279207a65726f0000000000008152506109a9565b905092915050565b6000808284019050838110156107d6576040517f08c379a000000000000000000000000000000000000000000000000000000000815260040180806020018281038252601b8152602001807f536166654d6174683a206164646974696f6e206f766572666c6f77000000000081525060200191505060405180910390fd5b8091505092915050565b60008070020000000000000000000000000000000086106107fd57fe5b84861015610873576040517f08c379a000000000000000000000000000000000000000000000000000000000815260040180806020018281038252601c8152602001807f4261736573203c203120617265206e6f7420737570706f727465642e0000000081525060200191505060405180910390fd5b600080866f8000000000000000000000000000000089028161089157fe5b04905070015bf0a8b1457695355fb8ac404e7a79e38110156108bd576108b681610a6f565b91506108c9565b6108c681610fff565b91505b60008563ffffffff168763ffffffff168402816108e257fe5b0490507008000000000000000000000000000000008110156109155761090781611127565b607f9450945050505061093f565b6000610920826116a1565b905061093581607f0360ff1683901c82611756565b8195509550505050505b94509492505050565b600061098a83836040518060400160405280601e81526020017f536166654d6174683a207375627472616374696f6e206f766572666c6f770000815250611af4565b905092915050565b6000803090506000813b9050600081149250505090565b60008083118290610a55576040517f08c379a00000000000000000000000000000000000000000000000000000000081526004018080602001828103825283818151815260200191508051906020019080838360005b83811015610a1a5780820151818401526020810190506109ff565b50505050905090810190601f168015610a475780820380516001836020036101000a031916815260200191505b509250505060405180910390fd5b506000838581610a6157fe5b049050809150509392505050565b6000806000905060008060006fd3094c70f034de4b96ff7d5b6f99fcd88610610ad6576f40000000000000000000000000000000840193506fd3094c70f034de4b96ff7d5b6f99fcd86f80000000000000000000000000000000870281610ad257fe5b0495505b6fa45af1e1f40c333b3de1db4dd55f29a78610610b31576f20000000000000000000000000000000840193506fa45af1e1f40c333b3de1db4dd55f29a76f80000000000000000000000000000000870281610b2d57fe5b0495505b6f910b022db7ae67ce76b441c27035c6a18610610b8c576f10000000000000000000000000000000840193506f910b022db7ae67ce76b441c27035c6a16f80000000000000000000000000000000870281610b8857fe5b0495505b6f88415abbe9a76bead8d00cf112e4d4a88610610be7576f08000000000000000000000000000000840193506f88415abbe9a76bead8d00cf112e4d4a86f80000000000000000000000000000000870281610be357fe5b0495505b6f84102b00893f64c705e841d5d4064bd38610610c42576f04000000000000000000000000000000840193506f84102b00893f64c705e841d5d4064bd36f80000000000000000000000000000000870281610c3e57fe5b0495505b6f8204055aaef1c8bd5c3259f4822735a28610610c9d576f02000000000000000000000000000000840193506f8204055aaef1c8bd5c3259f4822735a26f80000000000000000000000000000000870281610c9957fe5b0495505b6f810100ab00222d861931c15e39b44e998610610cf8576f01000000000000000000000000000000840193506f810100ab00222d861931c15e39b44e996f80000000000000000000000000000000870281610cf457fe5b0495505b6f808040155aabbbe9451521693554f7338610610d52576e800000000000000000000000000000840193506f808040155aabbbe9451521693554f7336f80000000000000000000000000000000870281610d4e57fe5b0495505b6f80000000000000000000000000000000860392508291506f8000000000000000000000000000000083840281610d8557fe5b0490507001000000000000000000000000000000008370010000000000000000000000000000000003830281610db757fe5b04840193506f8000000000000000000000000000000081830281610dd757fe5b049150700200000000000000000000000000000000836faaaaaaaaaaaaaaaaaaaaaaaaaaaaaaaa03830281610e0857fe5b04840193506f8000000000000000000000000000000081830281610e2857fe5b049150700300000000000000000000000000000000836f9999999999999999999999999999999903830281610e5957fe5b04840193506f8000000000000000000000000000000081830281610e7957fe5b049150700400000000000000000000000000000000836f9249249249249249249249249249249203830281610eaa57fe5b04840193506f8000000000000000000000000000000081830281610eca57fe5b049150700500000000000000000000000000000000836f8e38e38e38e38e38e38e38e38e38e38e03830281610efb57fe5b04840193506f8000000000000000000000000000000081830281610f1b57fe5b049150700600000000000000000000000000000000836f8ba2e8ba2e8ba2e8ba2e8ba2e8ba2e8b03830281610f4c57fe5b04840193506f8000000000000000000000000000000081830281610f6c57fe5b049150700700000000000000000000000000000000836f89d89d89d89d89d89d89d89d89d89d8903830281610f9d57fe5b04840193506f8000000000000000000000000000000081830281610fbd57fe5b049150700800000000000000000000000000000000836f8888888888888888888888888888888803830281610fee57fe5b048401935083945050505050919050565b600080600090506000839050700100000000000000000000000000000000811061106c5760006110476f80000000000000000000000000000000838161104157fe5b04611bb4565b90508060ff1682901c91506f800000000000000000000000000000008160ff16029250505b6f800000000000000000000000000000008111156110f2576000607f90505b60008160ff1611156110f0576f80000000000000000000000000000000828302816110b257fe5b04915070010000000000000000000000000000000082106110e457600182901c91506001810360ff166001901b830192505b8060019003905061108b565b505b6f05b9de1d10bf4103d647b0955897ba806f03f80fe03f80fe03f80fe03f80fe03f883028161111d57fe5b0492505050919050565b600080600090506000806f10000000000000000000000000000000858161114a57fe5b0691508190506f800000000000000000000000000000008282028161116b57fe5b0490506710e1b3be415a00008102830192506f800000000000000000000000000000008282028161119857fe5b0490506705a0913f6b1e00008102830192506f80000000000000000000000000000000828202816111c557fe5b049050670168244fdac780008102830192506f80000000000000000000000000000000828202816111f257fe5b049050664807432bc180008102830192506f800000000000000000000000000000008282028161121e57fe5b049050660c0135dca040008102830192506f800000000000000000000000000000008282028161124a57fe5b0490506601b707b1cdc0008102830192506f800000000000000000000000000000008282028161127657fe5b0490506536e0f639b8008102830192506f80000000000000000000000000000000828202816112a157fe5b049050650618fee9f8008102830192506f80000000000000000000000000000000828202816112cc57fe5b049050649c197dcc008102830192506f80000000000000000000000000000000828202816112f657fe5b049050640e30dce4008102830192506f800000000000000000000000000000008282028161132057fe5b04905064012ebd13008102830192506f800000000000000000000000000000008282028161134a57fe5b0490506317499f008102830192506f800000000000000000000000000000008282028161137357fe5b0490506301a9d4808102830192506f800000000000000000000000000000008282028161139c57fe5b049050621c63808102830192506f80000000000000000000000000000000828202816113c457fe5b0490506201c6388102830192506f80000000000000000000000000000000828202816113ec57fe5b049050611ab88102830192506f800000000000000000000000000000008282028161141357fe5b04905061017c8102830192506f800000000000000000000000000000008282028161143a57fe5b04905060148102830192506f800000000000000000000000000000008282028161146057fe5b04905060018102830192506f80000000000000000000000000000000826721c3677c82b40000858161148e57fe5b040101925060006f100000000000000000000000000000008616146114de5770018ebef9eac820ae8682b9793ac6d1e7767001c3d6a24ed82218787d624d3e5eba95f98402816114da57fe5b0492505b60006f20000000000000000000000000000000861614611529577001368b2fc6f9609fe7aceb46aa619baed470018ebef9eac820ae8682b9793ac6d1e77884028161152557fe5b0492505b60006f40000000000000000000000000000000861614611573576fbc5ab1b16779be3575bd8f0520a9f21f7001368b2fc6f9609fe7aceb46aa619baed584028161156f57fe5b0492505b60006f800000000000000000000000000000008616146115bc576f454aaa8efe072e7f6ddbab84b40a55c96fbc5ab1b16779be3575bd8f0520a9f21e8402816115b857fe5b0492505b6000700100000000000000000000000000000000861614611606576f0960aadc109e7a3bf4578099615711ea6f454aaa8efe072e7f6ddbab84b40a55c584028161160257fe5b0492505b600070020000000000000000000000000000000086161461164f576e2bf84208204f5977f9a8cf01fdce3d6f0960aadc109e7a3bf4578099615711d784028161164b57fe5b0492505b6000700400000000000000000000000000000000861614611696576d03c6ab775dd0b95b4cbee7e65d116e2bf84208204f5977f9a8cf01fdc30784028161169257fe5b0492505b829350505050919050565b600080602090506000607f90505b8060ff166001830160ff1610156116fe576000600282840160ff16816116d157fe5b0490508460348260ff16608081106116e557fe5b0154106116f4578092506116f8565b8091505b506116af565b8360348260ff166080811061170f57fe5b015410611720578092505050611751565b8360348360ff166080811061173157fe5b015410611742578192505050611751565b600061174a57fe5b6000925050505b919050565b60008083905060008090508360ff16858302901c91506f03442c4e6074a82f1797f72ac00000008202810190508360ff16858302901c91506f0116b96f757c380fb287fd0e400000008202810190508360ff16858302901c91506e45ae5bdd5f0e03eca1ff43900000008202810190508360ff16858302901c91506e0defabf91302cd95b9ffda500000008202810190508360ff16858302901c91506e02529ca9832b22439efff9b80000008202810190508360ff16858302901c91506d54f1cf12bd04e516b6da880000008202810190508360ff16858302901c91506d0a9e39e257a09ca2d6db510000008202810190508360ff16858302901c91506d012e066e7b839fa050c3090000008202810190508360ff16858302901c91506c1e33d7d926c329a1ad1a8000008202810190508360ff16858302901c91506c02bee513bdb4a6b19b5f8000008202810190508360ff16858302901c91506b3a9316fa79b88eccf2a000008202810190508360ff16858302901c91506b048177ebe1fa8123752000008202810190508360ff16858302901c91506a5263fe90242dcbacf000008202810190508360ff16858302901c91506a057e22099c030d941000008202810190508360ff16858302901c91506957e22099c030d94100008202810190508360ff16858302901c915069052b6b545699763100008202810190508360ff16858302901c9150684985f67696bf7480008202810190508360ff16858302901c91506803dea12ea99e4980008202810190508360ff16858302901c91506731880f2214b6e0008202810190508360ff16858302901c915067025bcff56eb360008202810190508360ff16858302901c9150661b722e10ab10008202810190508360ff16858302901c91506601317c700770008202810190508360ff16858302901c9150650cba84aafa008202810190508360ff16858302901c91506482573a0a008202810190508360ff16858302901c91506405035ad9008202810190508360ff16858302901c9150632f881b008202810190508360ff16858302901c91506301b293408202810190508360ff16858302901c9150620efc408202810190508360ff16858302901c9150617fe08202810190508360ff16858302901c91506104208202810190508360ff16858302901c915060218202810190508360ff16858302901c915060018202810190508360ff166001901b856f0688589cc0e9505e2f2fee55800000008381611ae757fe5b0401019250505092915050565b6000838311158290611ba1576040517f08c379a00000000000000000000000000000000000000000000000000000000081526004018080602001828103825283818151815260200191508051906020019080838360005b83811015611b66578082015181840152602081019050611b4b565b50505050905090810190601f168015611b935780820380516001836020036101000a031916815260200191505b509250505060405180910390fd5b5060008385039050809150509392505050565b600080600090506000839050610100811015611beb575b6001811115611be657600181901c9050600182019150611bcb565b611c2c565b6000608090505b60008160ff161115611c2a578060ff166001901b8210611c1b578060ff1682901c915080831792505b60018160ff16901c9050611bf2565b505b8192505050919050565b828054600181600116156101000203166002900490600052602060002090601f016020900481019282601f10611c7757805160ff1916838001178555611ca5565b82800160010185558215611ca5579182015b82811115611ca4578251825591602001919060010190611c89565b5b509050611cb29190611cb6565b5090565b611cd891905b80821115611cd4576000816000905550600101611cbc565b5090565b9056fe536166654d6174683a206d756c7469706c69636174696f6e206f766572666c6f77436f6e747261637420696e7374616e63652068617320616c7265616479206265656e20696e697469616c697a6564a265627a7a72315820649f2d55ac2c62411c5356fd92da1824b81828b19308c6e2def5d82dc98cc7e164736f6c63430005100032",
  "source": "pragma solidity ^0.5.0;\nimport \"@openzeppelin/upgrades/contracts/Initializable.sol\";\nimport \"@openzeppelin/contracts-ethereum-package/contracts/math/SafeMath.sol\";\nimport \"./Power.sol\";\n\n /**\n * @title Bancor formula by Bancor\n * @dev Modified from the original by Slava Balasanov\n * https://github.com/bancorprotocol/contracts\n * Split Power.sol out from BancorFormula.sol and replace SafeMath formulas with zeppelin's SafeMath\n * Licensed to the Apache Software Foundation (ASF) under one or more contributor license agreements;\n * and to You under the Apache License, Version 2.0. \"\n */\ncontract BancorFormula is Initializable, Power {\n  using SafeMath for uint256;\n   string public version;\n   uint32 public MAX_WEIGHT;\n\n\n   function initialize() public initializer {\n     MAX_WEIGHT = 1000000;\n     version = \"0.3\";\n\n   }\n\n\n   /**\n   * @dev given a token supply, connector balance, weight and a deposit amount (in the connector token),\n   * calculates the return for a given conversion (in the main token)\n   *\n   * Formula:\n   * Return = _supply * ((1 + _depositAmount / _connectorBalance) ^ (_connectorWeight / 1000000) - 1)\n   *\n   * @param _supply              token total supply\n   * @param _connectorBalance    total connector balance\n   * @param _connectorWeight     connector weight, represented in ppm, 1-1000000\n   * @param _depositAmount       deposit amount, in connector token\n   *\n   *  @return purchase return amount\n  */\n  function calculatePurchaseReturn(\n    uint256 _supply,\n    uint256 _connectorBalance,\n    uint32 _connectorWeight,\n    uint256 _depositAmount) public view returns (uint256)\n  {\n    // validate input\n    require(_supply > 0 && _connectorBalance > 0 && _connectorWeight > 0 && _connectorWeight <= MAX_WEIGHT);\n     // special case for 0 deposit amount\n    if (_depositAmount == 0) {\n      return 0;\n    }\n     // special case if the weight = 100%\n    if (_connectorWeight == MAX_WEIGHT) {\n      return _supply.mul(_depositAmount).div(_connectorBalance);\n    }\n     uint256 result;\n    uint8 precision;\n    uint256 baseN = _depositAmount.add(_connectorBalance);\n    (result, precision) = power(\n      baseN, _connectorBalance, _connectorWeight, MAX_WEIGHT\n    );\n    uint256 newTokenSupply = _supply.mul(result) >> precision;\n    return newTokenSupply - _supply;\n  }\n   /**\n   * @dev given a token supply, connector balance, weight and a sell amount (in the main token),\n   * calculates the return for a given conversion (in the connector token)\n   *\n   * Formula:\n   * Return = _connectorBalance * (1 - (1 - _sellAmount / _supply) ^ (1 / (_connectorWeight / 1000000)))\n   *\n   * @param _supply              token total supply\n   * @param _connectorBalance    total connector\n   * @param _connectorWeight     constant connector Weight, represented in ppm, 1-1000000\n   * @param _sellAmount          sell amount, in the token itself\n   *\n   * @return sale return amount\n  */\n  function calculateSaleReturn(\n    uint256 _supply,\n    uint256 _connectorBalance,\n    uint32 _connectorWeight,\n    uint256 _sellAmount) public view returns (uint256)\n  {\n    // validate input\n    require(_supply > 0 && _connectorBalance > 0 && _connectorWeight > 0 && _connectorWeight <= MAX_WEIGHT && _sellAmount <= _supply);\n     // special case for 0 sell amount\n    if (_sellAmount == 0) {\n      return 0;\n    }\n     // special case for selling the entire supply\n    if (_sellAmount == _supply) {\n      return _connectorBalance;\n    }\n     // special case if the weight = 100%\n    if (_connectorWeight == MAX_WEIGHT) {\n      return _connectorBalance.mul(_sellAmount).div(_supply);\n    }\n     uint256 result;\n    uint8 precision;\n    uint256 baseD = _supply - _sellAmount;\n    (result, precision) = power(\n      _supply, baseD, MAX_WEIGHT, _connectorWeight\n    );\n    uint256 oldBalance = _connectorBalance.mul(result);\n    uint256 newBalance = _connectorBalance << precision;\n    return oldBalance.sub(newBalance).div(result);\n  }\n}\n",
  "sourcePath": "/home/stan36/repos/DecentraCorpContracts/contracts/utils/BancorFormula.sol",
  "compiler": {
    "name": "solc",
    "version": "0.5.16+commit.9c3226ce.Emscripten.clang"
  },
  "schemaVersion": "3.0.23",
  "updatedAt": "2020-03-29T22:27:53.959Z",
  "devdoc": {
    "details": "Modified from the original by Slava Balasanov https://github.com/bancorprotocol/contracts Split Power.sol out from BancorFormula.sol and replace SafeMath formulas with zeppelin's SafeMath Licensed to the Apache Software Foundation (ASF) under one or more contributor license agreements; and to You under the Apache License, Version 2.0. \"",
    "methods": {
      "calculatePurchaseReturn(uint256,uint256,uint32,uint256)": {
        "details": "given a token supply, connector balance, weight and a deposit amount (in the connector token), calculates the return for a given conversion (in the main token)   * Formula: Return = _supply * ((1 + _depositAmount / _connectorBalance) ^ (_connectorWeight / 1000000) - 1)",
        "params": {
          "_connectorBalance": "total connector balance",
          "_connectorWeight": "connector weight, represented in ppm, 1-1000000",
          "_depositAmount": "deposit amount, in connector token",
          "_supply": "token total supply"
        },
        "return": "purchase return amount"
      },
      "calculateSaleReturn(uint256,uint256,uint32,uint256)": {
        "details": "given a token supply, connector balance, weight and a sell amount (in the main token), calculates the return for a given conversion (in the connector token)   * Formula: Return = _connectorBalance * (1 - (1 - _sellAmount / _supply) ^ (1 / (_connectorWeight / 1000000)))",
        "params": {
          "_connectorBalance": "total connector",
          "_connectorWeight": "constant connector Weight, represented in ppm, 1-1000000",
          "_sellAmount": "sell amount, in the token itself",
          "_supply": "token total supply"
        },
        "return": "sale return amount"
      }
    },
    "title": "Bancor formula by Bancor"
  },
  "userdoc": {
    "methods": {}
  }
}