{
  "contractName": "ChaosCasino",
  "abi": [
    {
      "constant": true,
      "inputs": [],
      "name": "CC",
      "outputs": [
        {
          "name": "",
          "type": "address"
        }
      ],
      "payable": false,
      "stateMutability": "view",
      "type": "function"
    },
    {
      "constant": false,
      "inputs": [],
      "name": "renounceOwnership",
      "outputs": [],
      "payable": false,
      "stateMutability": "nonpayable",
      "type": "function"
    },
    {
      "constant": true,
      "inputs": [],
      "name": "decentraCorp",
      "outputs": [
        {
          "name": "",
          "type": "address"
        }
      ],
      "payable": false,
      "stateMutability": "view",
      "type": "function"
    },
    {
      "constant": true,
      "inputs": [],
      "name": "RBG",
      "outputs": [
        {
          "name": "",
          "type": "address"
        }
      ],
      "payable": false,
      "stateMutability": "view",
      "type": "function"
    },
    {
      "constant": true,
      "inputs": [],
      "name": "owner",
      "outputs": [
        {
          "name": "",
          "type": "address"
        }
      ],
      "payable": false,
      "stateMutability": "view",
      "type": "function"
    },
    {
      "constant": false,
      "inputs": [
        {
          "name": "_newOwner",
          "type": "address"
        }
      ],
      "name": "transferOwnership",
      "outputs": [],
      "payable": false,
      "stateMutability": "nonpayable",
      "type": "function"
    },
    {
      "inputs": [
        {
          "name": "_DCP",
          "type": "address"
        },
        {
          "name": "_RBG",
          "type": "address"
        },
        {
          "name": "_CC",
          "type": "address"
        }
      ],
      "payable": false,
      "stateMutability": "nonpayable",
      "type": "constructor"
    },
    {
      "anonymous": false,
      "inputs": [
        {
          "indexed": false,
          "name": "_number",
          "type": "uint256"
        }
      ],
      "name": "RandomNumberSet",
      "type": "event"
    },
    {
      "anonymous": false,
      "inputs": [
        {
          "indexed": true,
          "name": "previousOwner",
          "type": "address"
        }
      ],
      "name": "OwnershipRenounced",
      "type": "event"
    },
    {
      "anonymous": false,
      "inputs": [
        {
          "indexed": true,
          "name": "previousOwner",
          "type": "address"
        },
        {
          "indexed": true,
          "name": "newOwner",
          "type": "address"
        }
      ],
      "name": "OwnershipTransferred",
      "type": "event"
    },
    {
      "constant": false,
      "inputs": [
        {
          "name": "_add",
          "type": "address"
        }
      ],
      "name": "setRepGBAdd",
      "outputs": [],
      "payable": false,
      "stateMutability": "nonpayable",
      "type": "function"
    },
    {
      "constant": false,
      "inputs": [
        {
          "name": "_add",
          "type": "address"
        }
      ],
      "name": "setDCadd",
      "outputs": [],
      "payable": false,
      "stateMutability": "nonpayable",
      "type": "function"
    },
    {
      "constant": false,
      "inputs": [],
      "name": "buyChaosCoin",
      "outputs": [],
      "payable": true,
      "stateMutability": "payable",
      "type": "function"
    },
    {
      "constant": false,
      "inputs": [
        {
          "name": "_amount",
          "type": "uint256"
        }
      ],
      "name": "cashOut",
      "outputs": [],
      "payable": false,
      "stateMutability": "nonpayable",
      "type": "function"
    },
    {
      "constant": false,
      "inputs": [
        {
          "name": "_randNum",
          "type": "uint256"
        }
      ],
      "name": "setRandomNum",
      "outputs": [],
      "payable": false,
      "stateMutability": "nonpayable",
      "type": "function"
    },
    {
      "constant": true,
      "inputs": [],
      "name": "getRandomNum",
      "outputs": [
        {
          "name": "",
          "type": "uint256"
        }
      ],
      "payable": false,
      "stateMutability": "view",
      "type": "function"
    },
    {
      "constant": false,
      "inputs": [
        {
          "name": "_bet",
          "type": "uint256"
        }
      ],
      "name": "placeBet",
      "outputs": [],
      "payable": false,
      "stateMutability": "nonpayable",
      "type": "function"
    },
    {
      "constant": false,
      "inputs": [
        {
          "name": "_won",
          "type": "bool"
        }
      ],
      "name": "updateUserBalance",
      "outputs": [],
      "payable": false,
      "stateMutability": "nonpayable",
      "type": "function"
    }
  ],
  "bytecode": "0x6080604052675f68a446aff2397c60045534801561001c57600080fd5b5060405160608061125c833981018060405281019080805190602001909291908051906020019092919080519060200190929190505050336000806101000a81548173ffffffffffffffffffffffffffffffffffffffff021916908373ffffffffffffffffffffffffffffffffffffffff16021790555082600160006101000a81548173ffffffffffffffffffffffffffffffffffffffff021916908373ffffffffffffffffffffffffffffffffffffffff16021790555081600260006101000a81548173ffffffffffffffffffffffffffffffffffffffff021916908373ffffffffffffffffffffffffffffffffffffffff16021790555080600360006101000a81548173ffffffffffffffffffffffffffffffffffffffff021916908373ffffffffffffffffffffffffffffffffffffffff1602179055505050506110f4806101686000396000f3006080604052600436106100d0576000357c0100000000000000000000000000000000000000000000000000000000900463ffffffff16806307a88ed8146100d557806310fe7c4814610104578063166b92b41461013157806325b814f41461013b57806348bb9943146101665780635c7b79f5146101a95780636509e776146101d6578063715018a61461022d5780637499d0a2146102445780637e81347d1461029b5780638da5cb5b146102f2578063c035697914610349578063ca80cd341461038c578063f2fde38b146103b9575b600080fd5b3480156100e157600080fd5b506101026004803603810190808035151590602001909291905050506103fc565b005b34801561011057600080fd5b5061012f6004803603810190808035906020019092919050505061057c565b005b6101396107a6565b005b34801561014757600080fd5b506101506108a4565b6040518082815260200191505060405180910390f35b34801561017257600080fd5b506101a7600480360381019080803573ffffffffffffffffffffffffffffffffffffffff1690602001909291905050506108ae565b005b3480156101b557600080fd5b506101d46004803603810190808035906020019092919050505061094d565b005b3480156101e257600080fd5b506101eb610b94565b604051808273ffffffffffffffffffffffffffffffffffffffff1673ffffffffffffffffffffffffffffffffffffffff16815260200191505060405180910390f35b34801561023957600080fd5b50610242610bba565b005b34801561025057600080fd5b50610259610cbc565b604051808273ffffffffffffffffffffffffffffffffffffffff1673ffffffffffffffffffffffffffffffffffffffff16815260200191505060405180910390f35b3480156102a757600080fd5b506102b0610ce2565b604051808273ffffffffffffffffffffffffffffffffffffffff1673ffffffffffffffffffffffffffffffffffffffff16815260200191505060405180910390f35b3480156102fe57600080fd5b50610307610d08565b604051808273ffffffffffffffffffffffffffffffffffffffff1673ffffffffffffffffffffffffffffffffffffffff16815260200191505060405180910390f35b34801561035557600080fd5b5061038a600480360381019080803573ffffffffffffffffffffffffffffffffffffffff169060200190929190505050610d2d565b005b34801561039857600080fd5b506103b760048036038101908080359060200190929190505050610dcc565b005b3480156103c557600080fd5b506103fa600480360381019080803573ffffffffffffffffffffffffffffffffffffffff169060200190929190505050610f19565b005b6000600560003373ffffffffffffffffffffffffffffffffffffffff1673ffffffffffffffffffffffffffffffffffffffff16815260200190815260200160002054905060011515821515141561053257600160009054906101000a900473ffffffffffffffffffffffffffffffffffffffff1673ffffffffffffffffffffffffffffffffffffffff1663efcbd8d333600284026040518363ffffffff167c0100000000000000000000000000000000000000000000000000000000028152600401808373ffffffffffffffffffffffffffffffffffffffff1673ffffffffffffffffffffffffffffffffffffffff16815260200182815260200192505050600060405180830381600087803b15801561051557600080fd5b505af1158015610529573d6000803e3d6000fd5b50505050610578565b6000600560003373ffffffffffffffffffffffffffffffffffffffff1673ffffffffffffffffffffffffffffffffffffffff168152602001908152602001600020819055505b5050565b80600360009054906101000a900473ffffffffffffffffffffffffffffffffffffffff1673ffffffffffffffffffffffffffffffffffffffff166370a08231336040518263ffffffff167c0100000000000000000000000000000000000000000000000000000000028152600401808273ffffffffffffffffffffffffffffffffffffffff1673ffffffffffffffffffffffffffffffffffffffff168152602001915050602060405180830381600087803b15801561063a57600080fd5b505af115801561064e573d6000803e3d6000fd5b505050506040513d602081101561066457600080fd5b81019080805190602001909291905050501015151561068257600080fd5b600160009054906101000a900473ffffffffffffffffffffffffffffffffffffffff1673ffffffffffffffffffffffffffffffffffffffff1663e9e2b98633836040518363ffffffff167c0100000000000000000000000000000000000000000000000000000000028152600401808373ffffffffffffffffffffffffffffffffffffffff1673ffffffffffffffffffffffffffffffffffffffff16815260200182815260200192505050600060405180830381600087803b15801561074757600080fd5b505af115801561075b573d6000803e3d6000fd5b5050505080600560003373ffffffffffffffffffffffffffffffffffffffff1673ffffffffffffffffffffffffffffffffffffffff1681526020019081526020016000208190555050565b6000803491506107c16103e883610f8090919063ffffffff16565b9050600160009054906101000a900473ffffffffffffffffffffffffffffffffffffffff1673ffffffffffffffffffffffffffffffffffffffff1663efcbd8d333836040518363ffffffff167c0100000000000000000000000000000000000000000000000000000000028152600401808373ffffffffffffffffffffffffffffffffffffffff1673ffffffffffffffffffffffffffffffffffffffff16815260200182815260200192505050600060405180830381600087803b15801561088857600080fd5b505af115801561089c573d6000803e3d6000fd5b505050505050565b6000600454905090565b6000809054906101000a900473ffffffffffffffffffffffffffffffffffffffff1673ffffffffffffffffffffffffffffffffffffffff163373ffffffffffffffffffffffffffffffffffffffff1614151561090957600080fd5b80600160006101000a81548173ffffffffffffffffffffffffffffffffffffffff021916908373ffffffffffffffffffffffffffffffffffffffff16021790555050565b600081600360009054906101000a900473ffffffffffffffffffffffffffffffffffffffff1673ffffffffffffffffffffffffffffffffffffffff166370a08231336040518263ffffffff167c0100000000000000000000000000000000000000000000000000000000028152600401808273ffffffffffffffffffffffffffffffffffffffff1673ffffffffffffffffffffffffffffffffffffffff168152602001915050602060405180830381600087803b158015610a0d57600080fd5b505af1158015610a21573d6000803e3d6000fd5b505050506040513d6020811015610a3757600080fd5b810190808051906020019092919050505010151515610a5557600080fd5b600160009054906101000a900473ffffffffffffffffffffffffffffffffffffffff1673ffffffffffffffffffffffffffffffffffffffff1663e9e2b98633846040518363ffffffff167c0100000000000000000000000000000000000000000000000000000000028152600401808373ffffffffffffffffffffffffffffffffffffffff1673ffffffffffffffffffffffffffffffffffffffff16815260200182815260200192505050600060405180830381600087803b158015610b1a57600080fd5b505af1158015610b2e573d6000803e3d6000fd5b50505050610b476103e883610fb890919063ffffffff16565b90503373ffffffffffffffffffffffffffffffffffffffff166108fc829081150290604051600060405180830381858888f19350505050158015610b8f573d6000803e3d6000fd5b505050565b600360009054906101000a900473ffffffffffffffffffffffffffffffffffffffff1681565b6000809054906101000a900473ffffffffffffffffffffffffffffffffffffffff1673ffffffffffffffffffffffffffffffffffffffff163373ffffffffffffffffffffffffffffffffffffffff16141515610c1557600080fd5b6000809054906101000a900473ffffffffffffffffffffffffffffffffffffffff1673ffffffffffffffffffffffffffffffffffffffff167ff8df31144d9c2f0f6b59d69b8b98abd5459d07f2742c4df920b25aae33c6482060405160405180910390a260008060006101000a81548173ffffffffffffffffffffffffffffffffffffffff021916908373ffffffffffffffffffffffffffffffffffffffff160217905550565b600160009054906101000a900473ffffffffffffffffffffffffffffffffffffffff1681565b600260009054906101000a900473ffffffffffffffffffffffffffffffffffffffff1681565b6000809054906101000a900473ffffffffffffffffffffffffffffffffffffffff1681565b6000809054906101000a900473ffffffffffffffffffffffffffffffffffffffff1673ffffffffffffffffffffffffffffffffffffffff163373ffffffffffffffffffffffffffffffffffffffff16141515610d8857600080fd5b80600260006101000a81548173ffffffffffffffffffffffffffffffffffffffff021916908373ffffffffffffffffffffffffffffffffffffffff16021790555050565b60011515600260009054906101000a900473ffffffffffffffffffffffffffffffffffffffff1673ffffffffffffffffffffffffffffffffffffffff16638eb5b913336040518263ffffffff167c0100000000000000000000000000000000000000000000000000000000028152600401808273ffffffffffffffffffffffffffffffffffffffff1673ffffffffffffffffffffffffffffffffffffffff168152602001915050602060405180830381600087803b158015610e8d57600080fd5b505af1158015610ea1573d6000803e3d6000fd5b505050506040513d6020811015610eb757600080fd5b81019080805190602001909291905050501515141515610ed657600080fd5b806004819055507f7fa77116a36cb6fb5f4212a76325e5e58d9fa670a506e725d01bcb6576c5f45f6004546040518082815260200191505060405180910390a150565b6000809054906101000a900473ffffffffffffffffffffffffffffffffffffffff1673ffffffffffffffffffffffffffffffffffffffff163373ffffffffffffffffffffffffffffffffffffffff16141515610f7457600080fd5b610f7d81610fce565b50565b600080831415610f935760009050610fb2565b8183029050818382811515610fa457fe5b04141515610fae57fe5b8090505b92915050565b60008183811515610fc557fe5b04905092915050565b600073ffffffffffffffffffffffffffffffffffffffff168173ffffffffffffffffffffffffffffffffffffffff161415151561100a57600080fd5b8073ffffffffffffffffffffffffffffffffffffffff166000809054906101000a900473ffffffffffffffffffffffffffffffffffffffff1673ffffffffffffffffffffffffffffffffffffffff167f8be0079c531659141344cd1fd0a4f28419497f9722a3daafe3b4186f6b6457e060405160405180910390a3806000806101000a81548173ffffffffffffffffffffffffffffffffffffffff021916908373ffffffffffffffffffffffffffffffffffffffff160217905550505600a165627a7a7230582082c93b423501754918f8a79074ede91a939a32566db600c70a3bd68cd0e21aeb0029",
  "source": "pragma solidity ^0.4.21;\nimport \"zeppelin-solidity/contracts/ownership/Ownable.sol\";\nimport 'zeppelin-solidity/contracts/math/SafeMath.sol';\n////////////////////////////////////////////////////////////////////////////////////////////\n/// @title ChaosCasino\n/// @author DecentraCorp\n/// @notice this contract is used in conjunction with the CryptoPatent Blockchain\n/// @dev All function calls are currently implement without side effects\n////////////////////////////////////////////////////////////////////////////////////////////\n/// @author Christopher Dixon\n/////////////////////////////////////////////////////////////////////////////////////////////\ncontract DecentraCorpPoA {\n  function proxyCCMint(address _add, uint _amount) external;\n  function proxyCCBurn(address _add, uint _amount) external;\n}\n//DecentraCorpPoA interface\n/////////////////////////////////////////////////////////////////////////////////////////////\ncontract CryptoPatentBlockGenerator {\n  function checkIfRep(address _add) external returns(bool);\n}\n//CryptoPatentBlockGenerator interface\n/////////////////////////////////////////////////////////////////////////////////////////////\ncontract ChaosCoin {\n    function balanceOf(address _addr) public constant returns (uint);\n}\n//ChaosCoin interface\n/////////////////////////////////////////////////////////////////////////////////////////////\ncontract ChaosCasino is Ownable {\n\n  using SafeMath for uint256;\n///@params below are used to import the contracts as usable objects\n  DecentraCorpPoA public decentraCorp;\n  CryptoPatentBlockGenerator public RBG;\n  ChaosCoin public CC;\n///@param randNum is set by ChaosMiners, preset for testing\n  uint randNum = 6874925454687615356;\n///@param bets stores the bets of an address\n///@dev this will need to be updated for multiple games\n  mapping(address => uint) bets;\n///@param _number is used by front end games and Chaos Miners\n  event RandomNumberSet(uint _number);\n\n\n///@notice modifier requires that the address calling a function is a replication\n///@dev this imports function from replication block generator\n  modifier onlyReplication() {\n    require(RBG.checkIfRep(msg.sender) == true);\n    _;\n  }\n\n///@notice constructor sets up outside contract addresses at deployemnt through truffle dark arts\n  constructor( DecentraCorpPoA _DCP, CryptoPatentBlockGenerator _RBG, ChaosCoin _CC) public {\n    decentraCorp = DecentraCorpPoA(_DCP);\n    RBG = CryptoPatentBlockGenerator(_RBG);\n    CC = ChaosCoin(_CC);\n  }\n\n///@notice folowing three function allow for contract upgrades\n  function setRepGBAdd(address _add) public onlyOwner {\n    RBG = CryptoPatentBlockGenerator(_add);\n  }\n  function setDCadd(address _add) public onlyOwner {\n    decentraCorp = DecentraCorpPoA(_add);\n  }\n\n\n///@notice buyChaosCoin allows anyone to exchange ether for ChaosCoin\n  function buyChaosCoin() public payable {\n    uint amount = msg.value;\n    uint _amount = amount.mul(1000);\n    decentraCorp.proxyCCMint(msg.sender, _amount);\n  }\n\n///@notice cahsOut allows ChaosCoin to be cashed out into ether\n  function cashOut(uint _amount) public {\n    require(CC.balanceOf(msg.sender) >= _amount);\n    decentraCorp.proxyCCBurn(msg.sender, _amount);\n    uint amount = _amount.div(1000);\n    msg.sender.transfer(amount);\n  }\n\n///@notice setRandomNum allows a replication to set a random number in the ChaosCasino\n  function setRandomNum(uint _randNum) external onlyReplication {\n      randNum = _randNum;\n      emit RandomNumberSet(randNum);\n  }\n\n///@notice getRandomNum is used by the front end to get a random Number\n  function getRandomNum() public view returns(uint) {\n      return randNum;\n  }\n\n///@notice placeBet Allows a User to place a bet\n  function placeBet(uint _bet) public {\n    require(CC.balanceOf(msg.sender) >= _bet);\n    decentraCorp.proxyCCBurn(msg.sender, _bet);\n    bets[msg.sender] = _bet;\n  }\n\n///@notice updateUserBalance allows a front end game to update a users balance\n///@dev this function will need to change, or the chaos casino,s front end structure will\n  function updateUserBalance( bool _won) public {\n    uint currentBalance = bets[msg.sender];\n    if(_won == true){\n      decentraCorp.proxyCCMint(msg.sender, currentBalance * 2);\n    }else{\n      bets[msg.sender] = 0;\n    }\n  }\n\n}\n/////////////////////////////////////////////////////////////////////////////////////////////\n",
  "sourcePath": "/home/stan36/repos/DecentraCorpContracts/contracts/ChaosCasino/ChaosCasino.sol",
  "compiler": {
    "name": "solc",
    "version": "0.4.24+commit.e67f0147.Emscripten.clang"
  },
  "schemaVersion": "2.0.1",
  "updatedAt": "2019-03-27T02:46:54.074Z"
}