{
  "contractName": "CryptoPatentBlockchain",
  "abi": [
    {
      "constant": true,
      "inputs": [
        {
          "name": "",
          "type": "address"
        }
      ],
      "name": "localMiningtimeTracker",
      "outputs": [
        {
          "name": "",
          "type": "uint256"
        }
      ],
      "payable": false,
      "stateMutability": "view",
      "type": "function"
    },
    {
      "constant": true,
      "inputs": [
        {
          "name": "",
          "type": "uint256"
        }
      ],
      "name": "ideaProposals",
      "outputs": [
        {
          "name": "IdeaIPFS",
          "type": "string"
        },
        {
          "name": "executed",
          "type": "bool"
        },
        {
          "name": "proposalPassed",
          "type": "bool"
        },
        {
          "name": "globalUseBlockAmount",
          "type": "uint256"
        },
        {
          "name": "royalty",
          "type": "uint256"
        },
        {
          "name": "miningTime",
          "type": "uint256"
        },
        {
          "name": "stakeAmount",
          "type": "uint256"
        },
        {
          "name": "levelRequirement",
          "type": "uint256"
        },
        {
          "name": "inventorAddress",
          "type": "address"
        },
        {
          "name": "inventionAddress",
          "type": "address"
        }
      ],
      "payable": false,
      "stateMutability": "view",
      "type": "function"
    },
    {
      "constant": true,
      "inputs": [],
      "name": "ideaBlockReward",
      "outputs": [
        {
          "name": "",
          "type": "uint256"
        }
      ],
      "payable": false,
      "stateMutability": "view",
      "type": "function"
    },
    {
      "constant": true,
      "inputs": [],
      "name": "globalBlockHalfTime",
      "outputs": [
        {
          "name": "",
          "type": "uint256"
        }
      ],
      "payable": false,
      "stateMutability": "view",
      "type": "function"
    },
    {
      "constant": true,
      "inputs": [
        {
          "name": "",
          "type": "address"
        },
        {
          "name": "",
          "type": "uint256"
        }
      ],
      "name": "repOwnes",
      "outputs": [
        {
          "name": "",
          "type": "uint256"
        }
      ],
      "payable": false,
      "stateMutability": "view",
      "type": "function"
    },
    {
      "constant": true,
      "inputs": [
        {
          "name": "",
          "type": "uint256"
        }
      ],
      "name": "ideaVariables",
      "outputs": [
        {
          "name": "globalUseBlockAmount",
          "type": "uint256"
        },
        {
          "name": "royalty",
          "type": "uint256"
        },
        {
          "name": "miningTime",
          "type": "uint256"
        },
        {
          "name": "stakeAmount",
          "type": "uint256"
        },
        {
          "name": "levelRequirement",
          "type": "uint256"
        },
        {
          "name": "inventorAddress",
          "type": "address"
        },
        {
          "name": "inventionAddress",
          "type": "address"
        },
        {
          "name": "IPFShash",
          "type": "string"
        }
      ],
      "payable": false,
      "stateMutability": "view",
      "type": "function"
    },
    {
      "constant": true,
      "inputs": [],
      "name": "globalIdeaCount",
      "outputs": [
        {
          "name": "",
          "type": "uint256"
        }
      ],
      "payable": false,
      "stateMutability": "view",
      "type": "function"
    },
    {
      "constant": true,
      "inputs": [
        {
          "name": "",
          "type": "address"
        }
      ],
      "name": "IdeaAddToId",
      "outputs": [
        {
          "name": "",
          "type": "uint256"
        }
      ],
      "payable": false,
      "stateMutability": "view",
      "type": "function"
    },
    {
      "constant": true,
      "inputs": [
        {
          "name": "",
          "type": "address"
        }
      ],
      "name": "repInfo",
      "outputs": [
        {
          "name": "BlockReward",
          "type": "uint256"
        },
        {
          "name": "IdeaID",
          "type": "uint256"
        },
        {
          "name": "Royalty",
          "type": "uint256"
        },
        {
          "name": "RepID",
          "type": "uint256"
        },
        {
          "name": "InventorsAddress",
          "type": "address"
        },
        {
          "name": "ReplicationAddress",
          "type": "address"
        },
        {
          "name": "OwnersAddress",
          "type": "address"
        },
        {
          "name": "DeviceLockHash",
          "type": "string"
        }
      ],
      "payable": false,
      "stateMutability": "view",
      "type": "function"
    },
    {
      "constant": false,
      "inputs": [],
      "name": "renounceOwnership",
      "outputs": [],
      "payable": false,
      "stateMutability": "nonpayable",
      "type": "function"
    },
    {
      "constant": true,
      "inputs": [],
      "name": "globalUseBlock",
      "outputs": [
        {
          "name": "",
          "type": "uint256"
        }
      ],
      "payable": false,
      "stateMutability": "view",
      "type": "function"
    },
    {
      "constant": true,
      "inputs": [
        {
          "name": "",
          "type": "uint256"
        }
      ],
      "name": "weightTracker",
      "outputs": [
        {
          "name": "",
          "type": "uint256"
        }
      ],
      "payable": false,
      "stateMutability": "view",
      "type": "function"
    },
    {
      "constant": true,
      "inputs": [],
      "name": "owner",
      "outputs": [
        {
          "name": "",
          "type": "address"
        }
      ],
      "payable": false,
      "stateMutability": "view",
      "type": "function"
    },
    {
      "constant": true,
      "inputs": [],
      "name": "isOwner",
      "outputs": [
        {
          "name": "",
          "type": "bool"
        }
      ],
      "payable": false,
      "stateMutability": "view",
      "type": "function"
    },
    {
      "constant": false,
      "inputs": [
        {
          "name": "_ideaId",
          "type": "uint256"
        },
        {
          "name": "_repAdd",
          "type": "address"
        },
        {
          "name": "_userId",
          "type": "string"
        },
        {
          "name": "_DLhash",
          "type": "string"
        }
      ],
      "name": "generateReplicationBlock",
      "outputs": [],
      "payable": false,
      "stateMutability": "nonpayable",
      "type": "function"
    },
    {
      "constant": true,
      "inputs": [],
      "name": "globalRepCount",
      "outputs": [
        {
          "name": "",
          "type": "uint256"
        }
      ],
      "payable": false,
      "stateMutability": "view",
      "type": "function"
    },
    {
      "constant": true,
      "inputs": [
        {
          "name": "",
          "type": "address"
        }
      ],
      "name": "localWeightTracker",
      "outputs": [
        {
          "name": "",
          "type": "uint256"
        }
      ],
      "payable": false,
      "stateMutability": "view",
      "type": "function"
    },
    {
      "constant": true,
      "inputs": [
        {
          "name": "",
          "type": "address"
        }
      ],
      "name": "replications",
      "outputs": [
        {
          "name": "",
          "type": "bool"
        }
      ],
      "payable": false,
      "stateMutability": "view",
      "type": "function"
    },
    {
      "constant": true,
      "inputs": [],
      "name": "DCPoA",
      "outputs": [
        {
          "name": "",
          "type": "address"
        }
      ],
      "payable": false,
      "stateMutability": "view",
      "type": "function"
    },
    {
      "constant": false,
      "inputs": [
        {
          "name": "_DLhash",
          "type": "string"
        }
      ],
      "name": "generateUseBlockWeight",
      "outputs": [],
      "payable": false,
      "stateMutability": "nonpayable",
      "type": "function"
    },
    {
      "constant": false,
      "inputs": [
        {
          "name": "newOwner",
          "type": "address"
        }
      ],
      "name": "transferOwnership",
      "outputs": [],
      "payable": false,
      "stateMutability": "nonpayable",
      "type": "function"
    },
    {
      "constant": true,
      "inputs": [
        {
          "name": "",
          "type": "uint256"
        }
      ],
      "name": "ideaRepCounter",
      "outputs": [
        {
          "name": "",
          "type": "uint256"
        }
      ],
      "payable": false,
      "stateMutability": "view",
      "type": "function"
    },
    {
      "constant": true,
      "inputs": [],
      "name": "Validators",
      "outputs": [
        {
          "name": "",
          "type": "address"
        }
      ],
      "payable": false,
      "stateMutability": "view",
      "type": "function"
    },
    {
      "constant": true,
      "inputs": [],
      "name": "globalIdeaPropCount",
      "outputs": [
        {
          "name": "",
          "type": "uint256"
        }
      ],
      "payable": false,
      "stateMutability": "view",
      "type": "function"
    },
    {
      "anonymous": false,
      "inputs": [
        {
          "indexed": false,
          "name": "IPFS",
          "type": "string"
        }
      ],
      "name": "IdeaProposed",
      "type": "event"
    },
    {
      "anonymous": false,
      "inputs": [
        {
          "indexed": false,
          "name": "member",
          "type": "address"
        }
      ],
      "name": "NewMember",
      "type": "event"
    },
    {
      "anonymous": false,
      "inputs": [
        {
          "indexed": false,
          "name": "IPFS",
          "type": "string"
        },
        {
          "indexed": false,
          "name": "Inventor",
          "type": "address"
        }
      ],
      "name": "IdeaApproved",
      "type": "event"
    },
    {
      "anonymous": false,
      "inputs": [
        {
          "indexed": false,
          "name": "_voter",
          "type": "address"
        },
        {
          "indexed": false,
          "name": "inSupport",
          "type": "bool"
        }
      ],
      "name": "Voted",
      "type": "event"
    },
    {
      "anonymous": false,
      "inputs": [
        {
          "indexed": false,
          "name": "_repAdd",
          "type": "address"
        },
        {
          "indexed": false,
          "name": "repOwner",
          "type": "address"
        }
      ],
      "name": "NewReplication",
      "type": "event"
    },
    {
      "anonymous": false,
      "inputs": [
        {
          "indexed": false,
          "name": "repAdd",
          "type": "address"
        },
        {
          "indexed": false,
          "name": "reOwner",
          "type": "address"
        },
        {
          "indexed": false,
          "name": "repWeight",
          "type": "uint256"
        }
      ],
      "name": "LocalUseWeight",
      "type": "event"
    },
    {
      "anonymous": false,
      "inputs": [
        {
          "indexed": false,
          "name": "repAdd",
          "type": "address"
        },
        {
          "indexed": false,
          "name": "reOwner",
          "type": "address"
        },
        {
          "indexed": false,
          "name": "ideaId",
          "type": "uint256"
        }
      ],
      "name": "GlobalUseBlock",
      "type": "event"
    },
    {
      "anonymous": false,
      "inputs": [
        {
          "indexed": true,
          "name": "previousOwner",
          "type": "address"
        },
        {
          "indexed": true,
          "name": "newOwner",
          "type": "address"
        }
      ],
      "name": "OwnershipTransferred",
      "type": "event"
    },
    {
      "constant": false,
      "inputs": [
        {
          "name": "sender",
          "type": "address"
        }
      ],
      "name": "initialize",
      "outputs": [],
      "payable": false,
      "stateMutability": "nonpayable",
      "type": "function"
    },
    {
      "constant": false,
      "inputs": [],
      "name": "initialize",
      "outputs": [],
      "payable": false,
      "stateMutability": "nonpayable",
      "type": "function"
    },
    {
      "constant": false,
      "inputs": [],
      "name": "initializeT",
      "outputs": [],
      "payable": false,
      "stateMutability": "nonpayable",
      "type": "function"
    },
    {
      "constant": false,
      "inputs": [
        {
          "name": "_ideaIPFS",
          "type": "string"
        },
        {
          "name": "_globalUseBlockAmount",
          "type": "uint256"
        },
        {
          "name": "_miningTime",
          "type": "uint256"
        },
        {
          "name": "_royalty",
          "type": "uint256"
        },
        {
          "name": "_stakeAmount",
          "type": "uint256"
        },
        {
          "name": "_levelRequirement",
          "type": "uint256"
        },
        {
          "name": "_inventor",
          "type": "address"
        },
        {
          "name": "_invention",
          "type": "address"
        }
      ],
      "name": "proposeIdea",
      "outputs": [],
      "payable": false,
      "stateMutability": "nonpayable",
      "type": "function"
    },
    {
      "constant": false,
      "inputs": [
        {
          "name": "_ideaProposalID",
          "type": "uint256"
        },
        {
          "name": "supportsProposal",
          "type": "bool"
        }
      ],
      "name": "ideaVote",
      "outputs": [],
      "payable": false,
      "stateMutability": "nonpayable",
      "type": "function"
    },
    {
      "constant": false,
      "inputs": [
        {
          "name": "_hash",
          "type": "string"
        },
        {
          "name": "_userId",
          "type": "string"
        }
      ],
      "name": "stakeReplicatorWallet",
      "outputs": [],
      "payable": false,
      "stateMutability": "nonpayable",
      "type": "function"
    },
    {
      "constant": true,
      "inputs": [
        {
          "name": "_add",
          "type": "address"
        }
      ],
      "name": "checkIfRep",
      "outputs": [
        {
          "name": "",
          "type": "bool"
        }
      ],
      "payable": false,
      "stateMutability": "view",
      "type": "function"
    },
    {
      "constant": true,
      "inputs": [
        {
          "name": "_ideaAdd",
          "type": "address"
        }
      ],
      "name": "getID",
      "outputs": [
        {
          "name": "",
          "type": "uint256"
        }
      ],
      "payable": false,
      "stateMutability": "view",
      "type": "function"
    },
    {
      "constant": false,
      "inputs": [
        {
          "name": "_valCon",
          "type": "address"
        }
      ],
      "name": "setValidatorContract",
      "outputs": [],
      "payable": false,
      "stateMutability": "nonpayable",
      "type": "function"
    },
    {
      "constant": false,
      "inputs": [
        {
          "name": "_dcpoa",
          "type": "address"
        }
      ],
      "name": "setDCPoA",
      "outputs": [],
      "payable": false,
      "stateMutability": "nonpayable",
      "type": "function"
    },
    {
      "constant": true,
      "inputs": [
        {
          "name": "_add",
          "type": "address"
        },
        {
          "name": "_ideaProposalID",
          "type": "uint256"
        }
      ],
      "name": "checkIfVotedIdea",
      "outputs": [
        {
          "name": "",
          "type": "bool"
        }
      ],
      "payable": false,
      "stateMutability": "view",
      "type": "function"
    },
    {
      "constant": true,
      "inputs": [
        {
          "name": "hash",
          "type": "string"
        }
      ],
      "name": "getPropID",
      "outputs": [
        {
          "name": "",
          "type": "uint256"
        }
      ],
      "payable": false,
      "stateMutability": "view",
      "type": "function"
    },
    {
      "constant": true,
      "inputs": [
        {
          "name": "_mem",
          "type": "address"
        }
      ],
      "name": "getOwnedIB",
      "outputs": [
        {
          "name": "",
          "type": "uint256[]"
        }
      ],
      "payable": false,
      "stateMutability": "view",
      "type": "function"
    }
  ],
  "bytecode": "0x608060405234801561001057600080fd5b50615182806100206000396000f3fe6080604052600436106101cd576000357c0100000000000000000000000000000000000000000000000000000000900463ffffffff16806310734e43146101d257806311e65844146102ae57806314111141146103135780631855efa61461035a5780631ad8a201146104ad5780631ddc883b1461055357806328a6e47c1461057e5780632e858cce146105a95780634242779f1461061857806343110e6f146107555780634cfa2409146107a65780634e6a3630146107d15780634f214e841461084457806350ae535d146108a9578063519fffbc14610a08578063649298b414610a1f5780636849e79514610b5a578063715018a614610cd95780637582497414610cf05780638129fc1c14610d1b57806381cbb67714610d325780638da5cb5b14610d815780638eb5b91314610dd85780638f32d59b14610e4157806399f826a514610e705780639b65ce8114610ed5578063be6cbbcf1461105e578063c4d66de814611089578063cdf64a76146110da578063ce87d3ee1461112b578063d436b5e914611190578063e026daa1146111f9578063f2bedeff14611250578063f2fde38b14611318578063f54a012914611369578063f6919774146113b8578063f7e1e4f01461140f575b600080fd5b3480156101de57600080fd5b50610298600480360360208110156101f557600080fd5b810190808035906020019064010000000081111561021257600080fd5b82018360208201111561022457600080fd5b8035906020019184600183028401116401000000008311171561024657600080fd5b91908080601f016020809104026020016040519081016040528093929190818152602001838380828437600081840152601f19601f82011690508083019250505050505050919291929050505061143a565b6040518082815260200191505060405180910390f35b3480156102ba57600080fd5b506102fd600480360360208110156102d157600080fd5b81019080803573ffffffffffffffffffffffffffffffffffffffff1690602001909291905050506114af565b6040518082815260200191505060405180910390f35b34801561031f57600080fd5b506103586004803603604081101561033657600080fd5b81019080803590602001909291908035151590602001909291905050506114c7565b005b34801561036657600080fd5b506103936004803603602081101561037d57600080fd5b81019080803590602001909291905050506119c0565b60405180806020018b1515151581526020018a1515151581526020018981526020018881526020018781526020018681526020018581526020018473ffffffffffffffffffffffffffffffffffffffff1673ffffffffffffffffffffffffffffffffffffffff1681526020018373ffffffffffffffffffffffffffffffffffffffff1673ffffffffffffffffffffffffffffffffffffffff16815260200182810382528c818151815260200191508051906020019080838360005b8381101561046957808201518184015260208101905061044e565b50505050905090810190601f1680156104965780820380516001836020036101000a031916815260200191505b509b50505050505050505050505060405180910390f35b3480156104b957600080fd5b506104fc600480360360208110156104d057600080fd5b81019080803573ffffffffffffffffffffffffffffffffffffffff169060200190929190505050611b06565b6040518080602001828103825283818151815260200191508051906020019060200280838360005b8381101561053f578082015181840152602081019050610524565b505050509050019250505060405180910390f35b34801561055f57600080fd5b50610568611b9d565b6040518082815260200191505060405180910390f35b34801561058a57600080fd5b50610593611ba3565b6040518082815260200191505060405180910390f35b3480156105b557600080fd5b50610602600480360360408110156105cc57600080fd5b81019080803573ffffffffffffffffffffffffffffffffffffffff16906020019092919080359060200190929190505050611ba9565b6040518082815260200191505060405180910390f35b34801561062457600080fd5b506106516004803603602081101561063b57600080fd5b8101908080359060200190929190505050611bce565b604051808981526020018881526020018781526020018681526020018581526020018473ffffffffffffffffffffffffffffffffffffffff1673ffffffffffffffffffffffffffffffffffffffff1681526020018373ffffffffffffffffffffffffffffffffffffffff1673ffffffffffffffffffffffffffffffffffffffff16815260200180602001828103825283818151815260200191508051906020019080838360005b838110156107135780820151818401526020810190506106f8565b50505050905090810190601f1680156107405780820380516001836020036101000a031916815260200191505b50995050505050505050505060405180910390f35b34801561076157600080fd5b506107a46004803603602081101561077857600080fd5b81019080803573ffffffffffffffffffffffffffffffffffffffff169060200190929190505050611cee565b005b3480156107b257600080fd5b506107bb611d45565b6040518082815260200191505060405180910390f35b3480156107dd57600080fd5b5061082a600480360360408110156107f457600080fd5b81019080803573ffffffffffffffffffffffffffffffffffffffff16906020019092919080359060200190929190505050611d4b565b604051808215151515815260200191505060405180910390f35b34801561085057600080fd5b506108936004803603602081101561086757600080fd5b81019080803573ffffffffffffffffffffffffffffffffffffffff169060200190929190505050611dbb565b6040518082815260200191505060405180910390f35b3480156108b557600080fd5b50610a06600480360360408110156108cc57600080fd5b81019080803590602001906401000000008111156108e957600080fd5b8201836020820111156108fb57600080fd5b8035906020019184600183028401116401000000008311171561091d57600080fd5b91908080601f016020809104026020016040519081016040528093929190818152602001838380828437600081840152601f19601f8201169050808301925050505050505091929192908035906020019064010000000081111561098057600080fd5b82018360208201111561099257600080fd5b803590602001918460018302840111640100000000831117156109b457600080fd5b91908080601f016020809104026020016040519081016040528093929190818152602001838380828437600081840152601f19601f820116905080830192505050505050509192919290505050611dd3565b005b348015610a1457600080fd5b50610a1d6121a4565b005b348015610a2b57600080fd5b50610b586004803603610100811015610a4357600080fd5b8101908080359060200190640100000000811115610a6057600080fd5b820183602082011115610a7257600080fd5b80359060200191846001830284011164010000000083111715610a9457600080fd5b91908080601f016020809104026020016040519081016040528093929190818152602001838380828437600081840152601f19601f8201169050808301925050505050505091929192908035906020019092919080359060200190929190803590602001909291908035906020019092919080359060200190929190803573ffffffffffffffffffffffffffffffffffffffff169060200190929190803573ffffffffffffffffffffffffffffffffffffffff1690602001909291905050506123ad565b005b348015610b6657600080fd5b50610ba960048036036020811015610b7d57600080fd5b81019080803573ffffffffffffffffffffffffffffffffffffffff1690602001909291905050506125fb565b604051808981526020018881526020018781526020018681526020018573ffffffffffffffffffffffffffffffffffffffff1673ffffffffffffffffffffffffffffffffffffffff1681526020018473ffffffffffffffffffffffffffffffffffffffff1673ffffffffffffffffffffffffffffffffffffffff1681526020018373ffffffffffffffffffffffffffffffffffffffff1673ffffffffffffffffffffffffffffffffffffffff16815260200180602001828103825283818151815260200191508051906020019080838360005b83811015610c97578082015181840152602081019050610c7c565b50505050905090810190601f168015610cc45780820380516001836020036101000a031916815260200191505b50995050505050505050505060405180910390f35b348015610ce557600080fd5b50610cee61273b565b005b348015610cfc57600080fd5b50610d0561280f565b6040518082815260200191505060405180910390f35b348015610d2757600080fd5b50610d30612815565b005b348015610d3e57600080fd5b50610d6b60048036036020811015610d5557600080fd5b810190808035906020019092919050505061296a565b6040518082815260200191505060405180910390f35b348015610d8d57600080fd5b50610d96612982565b604051808273ffffffffffffffffffffffffffffffffffffffff1673ffffffffffffffffffffffffffffffffffffffff16815260200191505060405180910390f35b348015610de457600080fd5b50610e2760048036036020811015610dfb57600080fd5b81019080803573ffffffffffffffffffffffffffffffffffffffff1690602001909291905050506129ac565b604051808215151515815260200191505060405180910390f35b348015610e4d57600080fd5b50610e56612a02565b604051808215151515815260200191505060405180910390f35b348015610e7c57600080fd5b50610ebf60048036036020811015610e9357600080fd5b81019080803573ffffffffffffffffffffffffffffffffffffffff169060200190929190505050612a5a565b6040518082815260200191505060405180910390f35b348015610ee157600080fd5b5061105c60048036036080811015610ef857600080fd5b8101908080359060200190929190803573ffffffffffffffffffffffffffffffffffffffff16906020019092919080359060200190640100000000811115610f3f57600080fd5b820183602082011115610f5157600080fd5b80359060200191846001830284011164010000000083111715610f7357600080fd5b91908080601f016020809104026020016040519081016040528093929190818152602001838380828437600081840152601f19601f82011690508083019250505050505050919291929080359060200190640100000000811115610fd657600080fd5b820183602082011115610fe857600080fd5b8035906020019184600183028401116401000000008311171561100a57600080fd5b91908080601f016020809104026020016040519081016040528093929190818152602001838380828437600081840152601f19601f820116905080830192505050505050509192919290505050612aa3565b005b34801561106a57600080fd5b50611073613591565b6040518082815260200191505060405180910390f35b34801561109557600080fd5b506110d8600480360360208110156110ac57600080fd5b81019080803573ffffffffffffffffffffffffffffffffffffffff169060200190929190505050613597565b005b3480156110e657600080fd5b50611129600480360360208110156110fd57600080fd5b81019080803573ffffffffffffffffffffffffffffffffffffffff16906020019092919050505061378b565b005b34801561113757600080fd5b5061117a6004803603602081101561114e57600080fd5b81019080803573ffffffffffffffffffffffffffffffffffffffff1690602001909291905050506137e2565b6040518082815260200191505060405180910390f35b34801561119c57600080fd5b506111df600480360360208110156111b357600080fd5b81019080803573ffffffffffffffffffffffffffffffffffffffff1690602001909291905050506137fa565b604051808215151515815260200191505060405180910390f35b34801561120557600080fd5b5061120e61381a565b604051808273ffffffffffffffffffffffffffffffffffffffff1673ffffffffffffffffffffffffffffffffffffffff16815260200191505060405180910390f35b34801561125c57600080fd5b506113166004803603602081101561127357600080fd5b810190808035906020019064010000000081111561129057600080fd5b8201836020820111156112a257600080fd5b803590602001918460018302840111640100000000831117156112c457600080fd5b91908080601f016020809104026020016040519081016040528093929190818152602001838380828437600081840152601f19601f820116905080830192505050505050509192919290505050613840565b005b34801561132457600080fd5b506113676004803603602081101561133b57600080fd5b81019080803573ffffffffffffffffffffffffffffffffffffffff169060200190929190505050614003565b005b34801561137557600080fd5b506113a26004803603602081101561138c57600080fd5b8101908080359060200190929190505050614022565b6040518082815260200191505060405180910390f35b3480156113c457600080fd5b506113cd61403a565b604051808273ffffffffffffffffffffffffffffffffffffffff1673ffffffffffffffffffffffffffffffffffffffff16815260200191505060405180910390f35b34801561141b57600080fd5b50611424614060565b6040518082815260200191505060405180910390f35b60006078826040518082805190602001908083835b602083101515611474578051825260208201915060208101905060208303925061144f565b6001836020036101000a0380198251168184511680821785525050505050509050019150509081526020016040518091039020549050919050565b60746020528060005260406000206000915090505481565b60011515606660009054906101000a900473ffffffffffffffffffffffffffffffffffffffff1673ffffffffffffffffffffffffffffffffffffffff1663aaa746bb336040518263ffffffff167c0100000000000000000000000000000000000000000000000000000000028152600401808273ffffffffffffffffffffffffffffffffffffffff1673ffffffffffffffffffffffffffffffffffffffff16815260200191505060206040518083038186803b15801561158657600080fd5b505afa15801561159a573d6000803e3d6000fd5b505050506040513d60208110156115b057600080fd5b810190808051906020019092919050505015151415156115cf57600080fd5b60006070600084815260200190815260200160002090506001151581600a0160003373ffffffffffffffffffffffffffffffffffffffff1673ffffffffffffffffffffffffffffffffffffffff16815260200190815260200160002060009054906101000a900460ff1615151415151561164857600080fd5b600115158160010160009054906101000a900460ff1615151415151561166d57600080fd5b60008160090180548091906001016116859190614eb1565b9050604080519081016040528084151581526020013373ffffffffffffffffffffffffffffffffffffffff1681525082600901828154811015156116c557fe5b9060005260206000200160008201518160000160006101000a81548160ff02191690831515021790555060208201518160000160016101000a81548173ffffffffffffffffffffffffffffffffffffffff021916908373ffffffffffffffffffffffffffffffffffffffff160217905550905050600182600a0160003373ffffffffffffffffffffffffffffffffffffffff1673ffffffffffffffffffffffffffffffffffffffff16815260200190815260200160002060006101000a81548160ff021916908315150217905550606660009054906101000a900473ffffffffffffffffffffffffffffffffffffffff1673ffffffffffffffffffffffffffffffffffffffff16634777e8ea336040518263ffffffff167c0100000000000000000000000000000000000000000000000000000000028152600401808273ffffffffffffffffffffffffffffffffffffffff1673ffffffffffffffffffffffffffffffffffffffff168152602001915050600060405180830381600087803b15801561185057600080fd5b505af1158015611864573d6000803e3d6000fd5b505050507f8eb81cb806dbb3d8a2f94981614331a55dfd90e06a42fdc362ca3ca96981d92f3384604051808373ffffffffffffffffffffffffffffffffffffffff1673ffffffffffffffffffffffffffffffffffffffff168152602001821515151581526020019250505060405180910390a16000606660009054906101000a900473ffffffffffffffffffffffffffffffffffffffff1673ffffffffffffffffffffffffffffffffffffffff1663997072f76040518163ffffffff167c010000000000000000000000000000000000000000000000000000000002815260040160206040518083038186803b15801561195d57600080fd5b505afa158015611971573d6000803e3d6000fd5b505050506040513d602081101561198757600080fd5b8101908080519060200190929190505050905060006119a68383614066565b905080156119b8576119b786614097565b5b505050505050565b6070602052806000526040600020600091509050806000018054600181600116156101000203166002900480601f016020809104026020016040519081016040528092919081815260200182805460018160011615610100020316600290048015611a6c5780601f10611a4157610100808354040283529160200191611a6c565b820191906000526020600020905b815481529060010190602001808311611a4f57829003601f168201915b5050505050908060010160009054906101000a900460ff16908060010160019054906101000a900460ff16908060020154908060030154908060040154908060050154908060060154908060070160009054906101000a900473ffffffffffffffffffffffffffffffffffffffff16908060080160009054906101000a900473ffffffffffffffffffffffffffffffffffffffff1690508a565b6060607960008373ffffffffffffffffffffffffffffffffffffffff1673ffffffffffffffffffffffffffffffffffffffff168152602001908152602001600020805480602002602001604051908101604052809291908181526020018280548015611b9157602002820191906000526020600020905b815481526020019060010190808311611b7d575b50505050509050919050565b606a5481565b60695481565b6077602052816000526040600020602052806000526040600020600091509150505481565b606e6020528060005260406000206000915090508060000154908060010154908060020154908060030154908060040154908060050160009054906101000a900473ffffffffffffffffffffffffffffffffffffffff16908060060160009054906101000a900473ffffffffffffffffffffffffffffffffffffffff1690806007018054600181600116156101000203166002900480601f016020809104026020016040519081016040528092919081815260200182805460018160011615610100020316600290048015611ce45780601f10611cb957610100808354040283529160200191611ce4565b820191906000526020600020905b815481529060010190602001808311611cc757829003601f168201915b5050505050905088565b611cf6612a02565b1515611d0157600080fd5b80606660006101000a81548173ffffffffffffffffffffffffffffffffffffffff021916908373ffffffffffffffffffffffffffffffffffffffff16021790555050565b60685481565b60008060706000848152602001908152602001600020905080600a0160008573ffffffffffffffffffffffffffffffffffffffff1673ffffffffffffffffffffffffffffffffffffffff16815260200190815260200160002060009054906101000a900460ff1691505092915050565b606f6020528060005260406000206000915090505481565b606660009054906101000a900473ffffffffffffffffffffffffffffffffffffffff1673ffffffffffffffffffffffffffffffffffffffff1663c812a6013368056bc75e2d631000006040518363ffffffff167c0100000000000000000000000000000000000000000000000000000000028152600401808373ffffffffffffffffffffffffffffffffffffffff1673ffffffffffffffffffffffffffffffffffffffff16815260200182815260200192505050600060405180830381600087803b158015611ea157600080fd5b505af1158015611eb5573d6000803e3d6000fd5b50505050606660009054906101000a900473ffffffffffffffffffffffffffffffffffffffff1673ffffffffffffffffffffffffffffffffffffffff166389e22a5233836040518363ffffffff167c0100000000000000000000000000000000000000000000000000000000028152600401808373ffffffffffffffffffffffffffffffffffffffff1673ffffffffffffffffffffffffffffffffffffffff16815260200180602001828103825283818151815260200191508051906020019080838360005b83811015611f96578082015181840152602081019050611f7b565b50505050905090810190601f168015611fc35780820380516001836020036101000a031916815260200191505b509350505050600060405180830381600087803b158015611fe357600080fd5b505af1158015611ff7573d6000803e3d6000fd5b50505050606660009054906101000a900473ffffffffffffffffffffffffffffffffffffffff1673ffffffffffffffffffffffffffffffffffffffff1663afa879d133846040518363ffffffff167c0100000000000000000000000000000000000000000000000000000000028152600401808373ffffffffffffffffffffffffffffffffffffffff1673ffffffffffffffffffffffffffffffffffffffff16815260200180602001828103825283818151815260200191508051906020019080838360005b838110156120d85780820151818401526020810190506120bd565b50505050905090810190601f1680156121055780820380516001836020036101000a031916815260200191505b509350505050600060405180830381600087803b15801561212557600080fd5b505af1158015612139573d6000803e3d6000fd5b505050507fb4dcb6dd550f27b5917ebf674899ea7046ff91790c6f9f01431617ad39819db233604051808273ffffffffffffffffffffffffffffffffffffffff1673ffffffffffffffffffffffffffffffffffffffff16815260200191505060405180910390a15050565b600060019054906101000a900460ff16806121c357506121c26143b7565b5b806121da57506000809054906101000a900460ff16155b1515612274576040517f08c379a000000000000000000000000000000000000000000000000000000000815260040180806020018281038252602e8152602001807f436f6e747261637420696e7374616e63652068617320616c726561647920626581526020017f656e20696e697469616c697a656400000000000000000000000000000000000081525060400191505060405180910390fd5b60008060019054906101000a900460ff1690506001600060016101000a81548160ff02191690831515021790555060016000806101000a81548160ff021916908315150217905550607960003373ffffffffffffffffffffffffffffffffffffffff1673ffffffffffffffffffffffffffffffffffffffff16815260200190815260200160002060019080600181540180825580915050906001820390600052602060002001600090919290919091505550607960003373ffffffffffffffffffffffffffffffffffffffff1673ffffffffffffffffffffffffffffffffffffffff1681526020019081526020016000206002908060018154018082558091505090600182039060005260206000200160009091929091909150555080600060016101000a81548160ff02191690831515021790555050565b606b600081548092919060010191905055506000606b5490508060788a6040518082805190602001908083835b6020831015156123ff57805182526020820191506020810190506020830392506123da565b6001836020036101000a038019825116818451168082178552505050505050905001915050908152602001604051809103902081905550600060706000838152602001908152602001600020905089816000019080519060200190612465929190614edd565b5060008160010160006101000a81548160ff02191690831515021790555060008160010160016101000a81548160ff021916908315150217905550888160020181905550868160030181905550858160050181905550848160060181905550878160040181905550838160070160006101000a81548173ffffffffffffffffffffffffffffffffffffffff021916908373ffffffffffffffffffffffffffffffffffffffff160217905550828160080160006101000a81548173ffffffffffffffffffffffffffffffffffffffff021916908373ffffffffffffffffffffffffffffffffffffffff1602179055507f544a88757adcb29711e2e12a617fb44221880d5013615cf2dbbdb37f5d5059738a6040518080602001828103825283818151815260200191508051906020019080838360005b838110156125b557808201518184015260208101905061259a565b50505050905090810190601f1680156125e25780820380516001836020036101000a031916815260200191505b509250505060405180910390a150505050505050505050565b60766020528060005260406000206000915090508060000154908060010154908060020154908060030154908060040160009054906101000a900473ffffffffffffffffffffffffffffffffffffffff16908060050160009054906101000a900473ffffffffffffffffffffffffffffffffffffffff16908060060160009054906101000a900473ffffffffffffffffffffffffffffffffffffffff1690806007018054600181600116156101000203166002900480601f0160208091040260200160405190810160405280929190818152602001828054600181600116156101000203166002900480156127315780601f1061270657610100808354040283529160200191612731565b820191906000526020600020905b81548152906001019060200180831161271457829003601f168201915b5050505050905088565b612743612a02565b151561274e57600080fd5b600073ffffffffffffffffffffffffffffffffffffffff16603360009054906101000a900473ffffffffffffffffffffffffffffffffffffffff1673ffffffffffffffffffffffffffffffffffffffff167f8be0079c531659141344cd1fd0a4f28419497f9722a3daafe3b4186f6b6457e060405160405180910390a36000603360006101000a81548173ffffffffffffffffffffffffffffffffffffffff021916908373ffffffffffffffffffffffffffffffffffffffff160217905550565b606d5481565b600060019054906101000a900460ff168061283457506128336143b7565b5b8061284b57506000809054906101000a900460ff16155b15156128e5576040517f08c379a000000000000000000000000000000000000000000000000000000000815260040180806020018281038252602e8152602001807f436f6e747261637420696e7374616e63652068617320616c726561647920626581526020017f656e20696e697469616c697a656400000000000000000000000000000000000081525060400191505060405180910390fd5b60008060019054906101000a900460ff1690506001600060016101000a81548160ff02191690831515021790555060016000806101000a81548160ff02191690831515021790555061293633613597565b683635c9adc5dea00000606a819055504260698190555080600060016101000a81548160ff02191690831515021790555050565b60716020528060005260406000206000915090505481565b6000603360009054906101000a900473ffffffffffffffffffffffffffffffffffffffff16905090565b6000607560008373ffffffffffffffffffffffffffffffffffffffff1673ffffffffffffffffffffffffffffffffffffffff16815260200190815260200160002060009054906101000a900460ff169050919050565b6000603360009054906101000a900473ffffffffffffffffffffffffffffffffffffffff1673ffffffffffffffffffffffffffffffffffffffff163373ffffffffffffffffffffffffffffffffffffffff1614905090565b6000606f60008373ffffffffffffffffffffffffffffffffffffffff1673ffffffffffffffffffffffffffffffffffffffff168152602001908152602001600020549050919050565b6000606660009054906101000a900473ffffffffffffffffffffffffffffffffffffffff1673ffffffffffffffffffffffffffffffffffffffff1663dc8e79fb846040518263ffffffff167c01000000000000000000000000000000000000000000000000000000000281526004018080602001828103825283818151815260200191508051906020019080838360005b83811015612b4f578082015181840152602081019050612b34565b50505050905090810190601f168015612b7c5780820380516001836020036101000a031916815260200191505b509250505060206040518083038186803b158015612b9957600080fd5b505afa158015612bad573d6000803e3d6000fd5b505050506040513d6020811015612bc357600080fd5b810190808051906020019092919050505090506000606660009054906101000a900473ffffffffffffffffffffffffffffffffffffffff1673ffffffffffffffffffffffffffffffffffffffff1663817c8966836040518263ffffffff167c0100000000000000000000000000000000000000000000000000000000028152600401808273ffffffffffffffffffffffffffffffffffffffff1673ffffffffffffffffffffffffffffffffffffffff16815260200191505060206040518083038186803b158015612c9357600080fd5b505afa158015612ca7573d6000803e3d6000fd5b505050506040513d6020811015612cbd57600080fd5b81019080805190602001909291905050509050612cd8614f5d565b606e6000888152602001908152602001600020610100604051908101604052908160008201548152602001600182015481526020016002820154815260200160038201548152602001600482015481526020016005820160009054906101000a900473ffffffffffffffffffffffffffffffffffffffff1673ffffffffffffffffffffffffffffffffffffffff1673ffffffffffffffffffffffffffffffffffffffff1681526020016006820160009054906101000a900473ffffffffffffffffffffffffffffffffffffffff1673ffffffffffffffffffffffffffffffffffffffff1673ffffffffffffffffffffffffffffffffffffffff168152602001600782018054600181600116156101000203166002900480601f016020809104026020016040519081016040528092919081815260200182805460018160011615610100020316600290048015612e6f5780601f10612e4457610100808354040283529160200191612e6f565b820191906000526020600020905b815481529060010190602001808311612e5257829003601f168201915b5050505050815250509050606660009054906101000a900473ffffffffffffffffffffffffffffffffffffffff1673ffffffffffffffffffffffffffffffffffffffff1663aaa746bb846040518263ffffffff167c0100000000000000000000000000000000000000000000000000000000028152600401808273ffffffffffffffffffffffffffffffffffffffff1673ffffffffffffffffffffffffffffffffffffffff16815260200191505060206040518083038186803b158015612f3557600080fd5b505afa158015612f49573d6000803e3d6000fd5b505050506040513d6020811015612f5f57600080fd5b81019080805190602001909291905050501515612f7b57600080fd5b80608001518210151515612f8e57600080fd5b606660009054906101000a900473ffffffffffffffffffffffffffffffffffffffff1673ffffffffffffffffffffffffffffffffffffffff1663c812a6018483606001516040518363ffffffff167c0100000000000000000000000000000000000000000000000000000000028152600401808373ffffffffffffffffffffffffffffffffffffffff1673ffffffffffffffffffffffffffffffffffffffff16815260200182815260200192505050600060405180830381600087803b15801561305757600080fd5b505af115801561306b573d6000803e3d6000fd5b50505050606c600081548092919060010191905055506000816000015190506000826020015190506000818303905060008460a0015190506000606c5490506130b2614fcf565b610100604051908101604052808581526020018e81526020018681526020018381526020018473ffffffffffffffffffffffffffffffffffffffff1681526020018d73ffffffffffffffffffffffffffffffffffffffff1681526020018a73ffffffffffffffffffffffffffffffffffffffff1681526020018b815250905080607660008e73ffffffffffffffffffffffffffffffffffffffff1673ffffffffffffffffffffffffffffffffffffffff1681526020019081526020016000206000820151816000015560208201518160010155604082015181600201556060820151816003015560808201518160040160006101000a81548173ffffffffffffffffffffffffffffffffffffffff021916908373ffffffffffffffffffffffffffffffffffffffff16021790555060a08201518160050160006101000a81548173ffffffffffffffffffffffffffffffffffffffff021916908373ffffffffffffffffffffffffffffffffffffffff16021790555060c08201518160060160006101000a81548173ffffffffffffffffffffffffffffffffffffffff021916908373ffffffffffffffffffffffffffffffffffffffff16021790555060e082015181600701908051906020019061328a929190615057565b50905050607360008e8152602001908152602001600020600081548092919060010191905055607360008f8152602001908152602001600020819055506001607560008e73ffffffffffffffffffffffffffffffffffffffff1673ffffffffffffffffffffffffffffffffffffffff16815260200190815260200160002060006101000a81548160ff021916908315150217905550607760008a73ffffffffffffffffffffffffffffffffffffffff1673ffffffffffffffffffffffffffffffffffffffff16815260200190815260200160002060008e8152602001908152602001600020600081548092919060010191905055607760008b73ffffffffffffffffffffffffffffffffffffffff1673ffffffffffffffffffffffffffffffffffffffff16815260200190815260200160002060008f815260200190815260200160002081905550606660009054906101000a900473ffffffffffffffffffffffffffffffffffffffff1673ffffffffffffffffffffffffffffffffffffffff16634777e8ea8a6040518263ffffffff167c0100000000000000000000000000000000000000000000000000000000028152600401808273ffffffffffffffffffffffffffffffffffffffff1673ffffffffffffffffffffffffffffffffffffffff168152602001915050600060405180830381600087803b15801561348f57600080fd5b505af11580156134a3573d6000803e3d6000fd5b5050505042607460008e73ffffffffffffffffffffffffffffffffffffffff1673ffffffffffffffffffffffffffffffffffffffff168152602001908152602001600020819055507f5f3846e5f661cdab5e659252fcf86d485b1390b32b8445afbc165881296513338c8a604051808373ffffffffffffffffffffffffffffffffffffffff1673ffffffffffffffffffffffffffffffffffffffff1681526020018273ffffffffffffffffffffffffffffffffffffffff1673ffffffffffffffffffffffffffffffffffffffff1681526020019250505060405180910390a150505050505050505050505050565b606c5481565b600060019054906101000a900460ff16806135b657506135b56143b7565b5b806135cd57506000809054906101000a900460ff16155b1515613667576040517f08c379a000000000000000000000000000000000000000000000000000000000815260040180806020018281038252602e8152602001807f436f6e747261637420696e7374616e63652068617320616c726561647920626581526020017f656e20696e697469616c697a656400000000000000000000000000000000000081525060400191505060405180910390fd5b60008060019054906101000a900460ff1690506001600060016101000a81548160ff02191690831515021790555060016000806101000a81548160ff02191690831515021790555081603360006101000a81548173ffffffffffffffffffffffffffffffffffffffff021916908373ffffffffffffffffffffffffffffffffffffffff160217905550603360009054906101000a900473ffffffffffffffffffffffffffffffffffffffff1673ffffffffffffffffffffffffffffffffffffffff16600073ffffffffffffffffffffffffffffffffffffffff167f8be0079c531659141344cd1fd0a4f28419497f9722a3daafe3b4186f6b6457e060405160405180910390a380600060016101000a81548160ff0219169083151502179055505050565b613793612a02565b151561379e57600080fd5b80606760006101000a81548173ffffffffffffffffffffffffffffffffffffffff021916908373ffffffffffffffffffffffffffffffffffffffff16021790555050565b60726020528060005260406000206000915090505481565b60756020528060005260406000206000915054906101000a900460ff1681565b606660009054906101000a900473ffffffffffffffffffffffffffffffffffffffff1681565b607560003373ffffffffffffffffffffffffffffffffffffffff1673ffffffffffffffffffffffffffffffffffffffff16815260200190815260200160002060009054906101000a900460ff16151561389857600080fd5b60003390506138a5614fcf565b607660008373ffffffffffffffffffffffffffffffffffffffff1673ffffffffffffffffffffffffffffffffffffffff1681526020019081526020016000206101006040519081016040529081600082015481526020016001820154815260200160028201548152602001600382015481526020016004820160009054906101000a900473ffffffffffffffffffffffffffffffffffffffff1673ffffffffffffffffffffffffffffffffffffffff1673ffffffffffffffffffffffffffffffffffffffff1681526020016005820160009054906101000a900473ffffffffffffffffffffffffffffffffffffffff1673ffffffffffffffffffffffffffffffffffffffff1673ffffffffffffffffffffffffffffffffffffffff1681526020016006820160009054906101000a900473ffffffffffffffffffffffffffffffffffffffff1673ffffffffffffffffffffffffffffffffffffffff1673ffffffffffffffffffffffffffffffffffffffff168152602001600782018054600181600116156101000203166002900480601f016020809104026020016040519081016040528092919081815260200182805460018160011615610100020316600290048015613ab45780601f10613a8957610100808354040283529160200191613ab4565b820191906000526020600020905b815481529060010190602001808311613a9757829003601f168201915b50505050508152505090508060e001516040516020018082805190602001908083835b602083101515613afc5780518252602082019150602081019050602083039250613ad7565b6001836020036101000a03801982511681845116808217855250505050505090500191505060405160208183030381529060405280519060200120836040516020018082805190602001908083835b602083101515613b705780518252602082019150602081019050602083039250613b4b565b6001836020036101000a03801982511681845116808217855250505050505090500191505060405160208183030381529060405280519060200120141515613bb757600080fd5b600081602001519050613bc8614f5d565b606e6000838152602001908152602001600020610100604051908101604052908160008201548152602001600182015481526020016002820154815260200160038201548152602001600482015481526020016005820160009054906101000a900473ffffffffffffffffffffffffffffffffffffffff1673ffffffffffffffffffffffffffffffffffffffff1673ffffffffffffffffffffffffffffffffffffffff1681526020016006820160009054906101000a900473ffffffffffffffffffffffffffffffffffffffff1673ffffffffffffffffffffffffffffffffffffffff1673ffffffffffffffffffffffffffffffffffffffff168152602001600782018054600181600116156101000203166002900480601f016020809104026020016040519081016040528092919081815260200182805460018160011615610100020316600290048015613d5f5780601f10613d3457610100808354040283529160200191613d5f565b820191906000526020600020905b815481529060010190602001808311613d4257829003601f168201915b505050505081525050905060006001607260008773ffffffffffffffffffffffffffffffffffffffff1673ffffffffffffffffffffffffffffffffffffffff168152602001908152602001600020540190508160400151607460008773ffffffffffffffffffffffffffffffffffffffff1673ffffffffffffffffffffffffffffffffffffffff16815260200190815260200160002054014210151515613e0557600080fd5b6071600084815260200190815260200160002054811115613ecf57613e29856143c8565b42607460008773ffffffffffffffffffffffffffffffffffffffff1673ffffffffffffffffffffffffffffffffffffffff168152602001908152602001600020819055508060716000858152602001908152602001600020819055506000607260008773ffffffffffffffffffffffffffffffffffffffff1673ffffffffffffffffffffffffffffffffffffffff16815260200190815260200160002081905550613ffb565b42607460008773ffffffffffffffffffffffffffffffffffffffff1673ffffffffffffffffffffffffffffffffffffffff1681526020019081526020016000208190555080607260008773ffffffffffffffffffffffffffffffffffffffff1673ffffffffffffffffffffffffffffffffffffffff168152602001908152602001600020819055507f7e0163293172761353775ed5413c5650c56917cf163cbd6293a4636b6a87a6e6858560c0015183604051808473ffffffffffffffffffffffffffffffffffffffff1673ffffffffffffffffffffffffffffffffffffffff1681526020018373ffffffffffffffffffffffffffffffffffffffff1673ffffffffffffffffffffffffffffffffffffffff168152602001828152602001935050505060405180910390a15b505050505050565b61400b612a02565b151561401657600080fd5b61401f81614871565b50565b60736020528060005260406000206000915090505481565b606760009054906101000a900473ffffffffffffffffffffffffffffffffffffffff1681565b606b5481565b6000806140758484600261496d565b9050603c8110151561408b576001915050614091565b60009150505b92915050565b60006070600083815260200190815260200160002090506060816000018054600181600116156101000203166002900480601f0160208091040260200160405190810160405280929190818152602001828054600181600116156101000203166002900480156141485780601f1061411d57610100808354040283529160200191614148565b820191906000526020600020905b81548152906001019060200180831161412b57829003601f168201915b5050505050905060008260020154905060008360040154905060008460030154905060008560050154905060008660060154905060008760070160009054906101000a900473ffffffffffffffffffffffffffffffffffffffff16905060008860080160009054906101000a900473ffffffffffffffffffffffffffffffffffffffff1690506000809050600080905060008090505b8b600901805490508110156142465760008c6009018281548110151561420057fe5b9060005260206000200190506000600190508160000160009054906101000a900460ff1615614233578085019450614239565b80840193505b50508060010190506141de565b508082111561436e5760018b60010160006101000a81548160ff02191690831515021790555060018b60010160016101000a81548160ff0219169083151502179055506142998a8a8a8a8a8a8a8a6149a6565b7f8e83e1ec5969ae12ba675f003533b12076070b84710d8e23b9d1aee5b48b02e18a8560405180806020018373ffffffffffffffffffffffffffffffffffffffff1673ffffffffffffffffffffffffffffffffffffffff168152602001828103825284818151815260200191508051906020019080838360005b8381101561432e578082015181840152602081019050614313565b50505050905090810190601f16801561435b5780820380516001836020036101000a031916815260200191505b50935050505060405180910390a16143a9565b60008b60010160016101000a81548160ff02191690831515021790555060018b60010160006101000a81548160ff0219169083151502179055505b505050505050505050505050565b600080303b90506000811491505090565b6143d0614fcf565b607660008373ffffffffffffffffffffffffffffffffffffffff1673ffffffffffffffffffffffffffffffffffffffff1681526020019081526020016000206101006040519081016040529081600082015481526020016001820154815260200160028201548152602001600382015481526020016004820160009054906101000a900473ffffffffffffffffffffffffffffffffffffffff1673ffffffffffffffffffffffffffffffffffffffff1673ffffffffffffffffffffffffffffffffffffffff1681526020016005820160009054906101000a900473ffffffffffffffffffffffffffffffffffffffff1673ffffffffffffffffffffffffffffffffffffffff1673ffffffffffffffffffffffffffffffffffffffff1681526020016006820160009054906101000a900473ffffffffffffffffffffffffffffffffffffffff1673ffffffffffffffffffffffffffffffffffffffff1673ffffffffffffffffffffffffffffffffffffffff168152602001600782018054600181600116156101000203166002900480601f0160208091040260200160405190810160405280929190818152602001828054600181600116156101000203166002900480156145df5780601f106145b4576101008083540402835291602001916145df565b820191906000526020600020905b8154815290600101906020018083116145c257829003601f168201915b5050505050815250509050606d60008154809291906001019190505550606660009054906101000a900473ffffffffffffffffffffffffffffffffffffffff1673ffffffffffffffffffffffffffffffffffffffff16636326e4ce8260c0015183600001516040518363ffffffff167c0100000000000000000000000000000000000000000000000000000000028152600401808373ffffffffffffffffffffffffffffffffffffffff1673ffffffffffffffffffffffffffffffffffffffff16815260200182815260200192505050600060405180830381600087803b1580156146c957600080fd5b505af11580156146dd573d6000803e3d6000fd5b50505050606660009054906101000a900473ffffffffffffffffffffffffffffffffffffffff1673ffffffffffffffffffffffffffffffffffffffff16636326e4ce826080015183604001516040518363ffffffff167c0100000000000000000000000000000000000000000000000000000000028152600401808373ffffffffffffffffffffffffffffffffffffffff1673ffffffffffffffffffffffffffffffffffffffff16815260200182815260200192505050600060405180830381600087803b1580156147ae57600080fd5b505af11580156147c2573d6000803e3d6000fd5b505050507f8a950e000c348dbaa89e6f160262461c978e369ad1596e8697d08cd54d851540828260c001518360200151604051808473ffffffffffffffffffffffffffffffffffffffff1673ffffffffffffffffffffffffffffffffffffffff1681526020018373ffffffffffffffffffffffffffffffffffffffff1673ffffffffffffffffffffffffffffffffffffffff168152602001828152602001935050505060405180910390a15050565b600073ffffffffffffffffffffffffffffffffffffffff168173ffffffffffffffffffffffffffffffffffffffff16141515156148ad57600080fd5b8073ffffffffffffffffffffffffffffffffffffffff16603360009054906101000a900473ffffffffffffffffffffffffffffffffffffffff1673ffffffffffffffffffffffffffffffffffffffff167f8be0079c531659141344cd1fd0a4f28419497f9722a3daafe3b4186f6b6457e060405160405180910390a380603360006101000a81548173ffffffffffffffffffffffffffffffffffffffff021916908373ffffffffffffffffffffffffffffffffffffffff16021790555050565b60008060018301600a0a850290506000600a6005868481151561498c57fe5b040181151561499757fe5b04905080925050509392505050565b606860008154809291906001019190505550600060685490506149c7614f5d565b610100604051908101604052808a81526020018881526020018981526020018781526020018681526020018573ffffffffffffffffffffffffffffffffffffffff1681526020018473ffffffffffffffffffffffffffffffffffffffff1681526020018b815250905081606f60008573ffffffffffffffffffffffffffffffffffffffff1673ffffffffffffffffffffffffffffffffffffffff1681526020019081526020016000208190555080606e6000848152602001908152602001600020600082015181600001556020820151816001015560408201518160020155606082015181600301556080820151816004015560a08201518160050160006101000a81548173ffffffffffffffffffffffffffffffffffffffff021916908373ffffffffffffffffffffffffffffffffffffffff16021790555060c08201518160060160006101000a81548173ffffffffffffffffffffffffffffffffffffffff021916908373ffffffffffffffffffffffffffffffffffffffff16021790555060e0820151816007019080519060200190614b64929190615057565b50905050606760009054906101000a900473ffffffffffffffffffffffffffffffffffffffff1673ffffffffffffffffffffffffffffffffffffffff16634d238c8e846040518263ffffffff167c0100000000000000000000000000000000000000000000000000000000028152600401808273ffffffffffffffffffffffffffffffffffffffff1673ffffffffffffffffffffffffffffffffffffffff168152602001915050600060405180830381600087803b158015614c2557600080fd5b505af1158015614c39573d6000803e3d6000fd5b50505050614c45614e6f565b50606660009054906101000a900473ffffffffffffffffffffffffffffffffffffffff1673ffffffffffffffffffffffffffffffffffffffff16636326e4ce85606a546040518363ffffffff167c0100000000000000000000000000000000000000000000000000000000028152600401808373ffffffffffffffffffffffffffffffffffffffff1673ffffffffffffffffffffffffffffffffffffffff16815260200182815260200192505050600060405180830381600087803b158015614d0d57600080fd5b505af1158015614d21573d6000803e3d6000fd5b50505050606660009054906101000a900473ffffffffffffffffffffffffffffffffffffffff1673ffffffffffffffffffffffffffffffffffffffff16634777e8ea856040518263ffffffff167c0100000000000000000000000000000000000000000000000000000000028152600401808273ffffffffffffffffffffffffffffffffffffffff1673ffffffffffffffffffffffffffffffffffffffff168152602001915050600060405180830381600087803b158015614de257600080fd5b505af1158015614df6573d6000803e3d6000fd5b50505050607960008573ffffffffffffffffffffffffffffffffffffffff1673ffffffffffffffffffffffffffffffffffffffff16815260200190815260200160002082908060018154018082558091505090600182039060005260206000200160009091929091909150555050505050505050505050565b60006305a48fba6069540142101515614ea8576002606a54811515614e9057fe5b04606a8190555042606981905550606a549050614eae565b606a5490505b90565b815481835581811115614ed857818360005260206000209182019101614ed791906150d7565b5b505050565b828054600181600116156101000203166002900490600052602060002090601f016020900481019282601f10614f1e57805160ff1916838001178555614f4c565b82800160010185558215614f4c579182015b82811115614f4b578251825591602001919060010190614f30565b5b509050614f599190615131565b5090565b610100604051908101604052806000815260200160008152602001600081526020016000815260200160008152602001600073ffffffffffffffffffffffffffffffffffffffff168152602001600073ffffffffffffffffffffffffffffffffffffffff168152602001606081525090565b6101006040519081016040528060008152602001600081526020016000815260200160008152602001600073ffffffffffffffffffffffffffffffffffffffff168152602001600073ffffffffffffffffffffffffffffffffffffffff168152602001600073ffffffffffffffffffffffffffffffffffffffff168152602001606081525090565b828054600181600116156101000203166002900490600052602060002090601f016020900481019282601f1061509857805160ff19168380011785556150c6565b828001600101855582156150c6579182015b828111156150c55782518255916020019190600101906150aa565b5b5090506150d39190615131565b5090565b61512e91905b8082111561512a57600080820160006101000a81549060ff02191690556000820160016101000a81549073ffffffffffffffffffffffffffffffffffffffff0219169055506001016150dd565b5090565b90565b61515391905b8082111561514f576000816000905550600101615137565b5090565b9056fea165627a7a72305820150637316148c3cd1689bb00c9ec499b167784ab75cdc08e5182aeace3b339d80029",
  "source": "pragma solidity ^0.5.0;\n\nimport './UseBlockLogic.sol';\n\ncontract CryptoPatentBlockchain is UseBlockLogic {\n\n\n  function initialize() public initializer {\n    Ownable.initialize(msg.sender);\n    ideaBlockReward = 1000000000000000000000;\n    globalBlockHalfTime = now;\n  }\n\n  function initializeT() public initializer {\n    ideaBlocksOwned[msg.sender].push(1);\n    ideaBlocksOwned[msg.sender].push(2);\n  }\n\n  ///@notice proposeIdea is used to allow ANYONE to petition the community for idea approval\n  ///@dev the struct for this is set in interface.solidity\n  ///@dev idea proposals are put up for community approval\n  function proposeIdea(\n    string memory _ideaIPFS,\n    uint _globalUseBlockAmount,\n    uint _miningTime,\n    uint _royalty,\n    uint _stakeAmount,\n    uint _levelRequirement,\n    address _inventor,\n    address _invention\n  ) public {\n          globalIdeaPropCount++;\n          uint IdeaProposalID = globalIdeaPropCount;\n          getHash[_ideaIPFS] = IdeaProposalID;\n\n          IdeaProposal storage p = ideaProposals[IdeaProposalID];\n          p.IdeaIPFS = _ideaIPFS;\n          p.executed = false;\n          p.proposalPassed = false;\n          p.globalUseBlockAmount = _globalUseBlockAmount;\n          p.royalty = _royalty;\n          p.stakeAmount = _stakeAmount;\n          p.levelRequirement = _levelRequirement;\n          p.miningTime = _miningTime;\n          p.inventorAddress = _inventor;\n          p.inventionAddress = _invention;\n          emit IdeaProposed(_ideaIPFS);\n  }\n\n\n\n  ///@notice vote is a member only function which allows DecentraCorp members to vote on proposalPassed\n\n   function ideaVote(\n          uint _ideaProposalID,\n          bool supportsProposal\n      )\n          public\n\n      {\n          require(DCPoA._checkIfMember(msg.sender) == true);\n          IdeaProposal storage p = ideaProposals[_ideaProposalID];\n          //makes the proposal an object, p\n          require(p.voted[msg.sender] != true);\n          //requires that the person calling the function hasnt voted yet\n          require(p.executed != true);\n          //requires the proposal hasnt been executed yet\n          uint voteID = p.votes.length++;\n          //sets voteID to the length of the votes array for that proposal\n          p.votes[voteID] = Vote({inSupport: supportsProposal, voter: msg.sender});\n          //sets the individual Vote struct  properties to a voteID within votes struct array\n          p.voted[msg.sender] = true;\n          //sets the voter to true so they cant vote twice\n          DCPoA.increaseMemLev(msg.sender);\n          //increases the members level for voting\n          emit Voted(msg.sender, supportsProposal);\n          //emits Voted event\n          uint maxQuorum = DCPoA.getMemberCount();\n          //sets maxQuorum equal to total # of members\n          bool tally = set_Quorum(voteID, maxQuorum);\n          //sets tally to either true of false depending if the # of votes is\n          //greater than 60% of the total # of members\n          if(tally) {\n            ideaBlockVote(_ideaProposalID);\n            //fires of the vote tally function\n          }\n      }\n\n\n  // allows members to vote on proposals\n  ///@notice ideaBlockVote counts the votes and executes and Idea Proposal, adding an idea to the cryptopatent Blockchain\n  ///@dev seperate but similiar structures will need to be implemented in the future to stream line voting on different subjects(beta)\n  function ideaBlockVote(uint _ideaProposalID) internal {\n          IdeaProposal storage p = ideaProposals[_ideaProposalID];\n               // sets p equal to the specific proposalNumbers struct\n          string memory _ideahash = p.IdeaIPFS;\n          uint _globalUseBlockAmount = p.globalUseBlockAmount;\n          uint _miningTime = p.miningTime;\n          uint _royalty = p.royalty;\n          uint _stakeAmount = p.stakeAmount;\n          uint _levelRequirement = p.levelRequirement;\n          address _inventor = p.inventorAddress;\n          address _invention = p.inventionAddress;\n\n          uint yea = 0;\n          uint nay = 0;\n\n      for (uint i = 0; i <  p.votes.length; ++i) {\n          Vote storage v = p.votes[i];\n          uint voteWeight = 1;\n          if (v.inSupport) {\n            yea += voteWeight;\n               } else {\n             nay += voteWeight;\n                   }\n               }\n\n               if (yea > nay ) {\n                   // Proposal passed; execute the transaction\n                 p.executed = true;\n                 p.proposalPassed = true;\n                 generateIdeaBlock( _ideahash, _globalUseBlockAmount, _miningTime, _royalty, _stakeAmount, _levelRequirement, _inventor, _invention);\n                 emit IdeaApproved( _ideahash, _inventor);\n             } else {\n                   // Proposal failed\n                 p.proposalPassed = false;\n                 p.executed = true;\n             }\n        }\n\n        ///@notice stakeReplicatorWallet function allows for the activation of a replication wallet by\n        ///        burning Notio from the msg.sender\n        ///@dev stakeReplicatorWallet costs 100 DCPoA and burns them from existence\n          function stakeReplicatorWallet(string memory _hash, string memory _userId) public {\n            DCPoA.proxyNTCBurn(msg.sender, 100000000000000000000);\n            DCPoA._addMember(msg.sender, _userId);\n            DCPoA.setProfileHash(msg.sender, _hash);\n            emit NewMember(msg.sender);\n          }\n\n            ///@notice the following functions allow for easier access to info by both the front end and other contracts\n            ///@dev all the following contracts allow for the retreval of token block information\n              function checkIfRep(address _add) external view returns(bool) {\n                return replications[_add];\n              }\n\n\n              function getID(address _ideaAdd) public view returns(uint){\n                return IdeaAddToId[_ideaAdd];\n              }\n\n              function setValidatorContract(address _valCon) public onlyOwner {\n                    Validators = RelayedOwnedSet(_valCon);\n              }\n\n              function setDCPoA(DecentraCorp _dcpoa) public onlyOwner {\n                DCPoA = DecentraCorp(_dcpoa);\n              }\n\n              function checkIfVotedIdea(address _add, uint _ideaProposalID) public view returns(bool) {\n                IdeaProposal storage p = ideaProposals[_ideaProposalID];\n                return p.voted[_add];\n              }\n\n              ///@notice getPropID function allows one to rerieve a proposal ID by its ipfs hash\n///@dev getPropID is made for easier front end interaction\nfunction getPropID(string memory hash) public view returns(uint){\n  return getHash[hash];\n}\n\nfunction getOwnedIB(address _mem) public view returns(uint[] memory){\n  return ideaBlocksOwned[_mem];\n}\n\n}\n",
  "sourcePath": "/home/stan36/repos/DecentraCorpContracts/contracts/CryptoPatent/CryptoPatentBlockchain.sol",
  "compiler": {
    "name": "solc",
    "version": "0.5.0+commit.1d4f565a.Emscripten.clang"
  },
  "schemaVersion": "3.0.2",
  "updatedAt": "2019-06-13T00:47:39.919Z",
  "devdoc": {
    "methods": {
      "checkIfRep(address)": {
        "details": "all the following contracts allow for the retreval of token block information"
      },
      "generateReplicationBlock(uint256,address,string,string)": {
        "details": "this requires the replicator has enough Notio to meet the stake amount and burns it from existenceit also adds the replicator as a member of DecentraCorpfinally, this contract calls the Proof of Replication Ownership contract and mints a PoRO token to the msg.sender"
      },
      "generateUseBlockWeight(string)": {
        "details": "this is called by generateUseBlockWeight"
      },
      "getPropID(string)": {
        "details": "getPropID is made for easier front end interaction"
      },
      "initialize(address)": {
        "details": "The Ownable constructor sets the original `owner` of the contract to the sender account."
      },
      "isOwner()": {
        "return": "true if `msg.sender` is the owner of the contract."
      },
      "owner()": {
        "return": "the address of the owner."
      },
      "proposeIdea(string,uint256,uint256,uint256,uint256,uint256,address,address)": {
        "details": "the struct for this is set in interface.solidityidea proposals are put up for community approval"
      },
      "renounceOwnership()": {
        "details": "Allows the current owner to relinquish control of the contract."
      },
      "stakeReplicatorWallet(string,string)": {
        "details": "stakeReplicatorWallet costs 100 DCPoA and burns them from existence"
      },
      "transferOwnership(address)": {
        "details": "Allows the current owner to transfer control of the contract to a newOwner.",
        "params": {
          "newOwner": "The address to transfer ownership to."
        }
      }
    }
  },
  "userdoc": {
    "methods": {
      "checkIfRep(address)": {
        "notice": "the following functions allow for easier access to info by both the front end and other contracts"
      },
      "generateReplicationBlock(uint256,address,string,string)": {
        "notice": "generateReplicationBlock is used to generate a replication block when someone sucessfully replicates an Idea"
      },
      "generateUseBlockWeight(string)": {
        "notice": "UseBlockWeight is an internal function that tracks loacal use weightTracker"
      },
      "getPropID(string)": {
        "notice": "getPropID function allows one to rerieve a proposal ID by its ipfs hash"
      },
      "ideaVote(uint256,bool)": {
        "notice": "vote is a member only function which allows DecentraCorp members to vote on proposalPassed"
      },
      "proposeIdea(string,uint256,uint256,uint256,uint256,uint256,address,address)": {
        "notice": "proposeIdea is used to allow ANYONE to petition the community for idea approval"
      },
      "renounceOwnership()": {
        "notice": "Renouncing to ownership will leave the contract without an owner. It will not be possible to call the functions with the `onlyOwner` modifier anymore."
      },
      "stakeReplicatorWallet(string,string)": {
        "notice": "stakeReplicatorWallet function allows for the activation of a replication wallet by        burning Notio from the msg.sender"
      }
    }
  }
}