{
  "contractName": "CryptoPatentBlockchain",
  "abi": [
    {
      "constant": true,
      "inputs": [
        {
          "name": "",
          "type": "address"
        }
      ],
      "name": "localMiningtimeTracker",
      "outputs": [
        {
          "name": "",
          "type": "uint256"
        }
      ],
      "payable": false,
      "stateMutability": "view",
      "type": "function"
    },
    {
      "constant": true,
      "inputs": [
        {
          "name": "",
          "type": "uint256"
        }
      ],
      "name": "ideaProposals",
      "outputs": [
        {
          "name": "IdeaIPFS",
          "type": "string"
        },
        {
          "name": "executed",
          "type": "bool"
        },
        {
          "name": "proposalPassed",
          "type": "bool"
        },
        {
          "name": "globalUseBlockAmount",
          "type": "uint256"
        },
        {
          "name": "royalty",
          "type": "uint256"
        },
        {
          "name": "miningTime",
          "type": "uint256"
        },
        {
          "name": "stakeAmount",
          "type": "uint256"
        },
        {
          "name": "inventorAddress",
          "type": "address"
        },
        {
          "name": "inventionAddress",
          "type": "address"
        }
      ],
      "payable": false,
      "stateMutability": "view",
      "type": "function"
    },
    {
      "constant": true,
      "inputs": [],
      "name": "ideaBlockReward",
      "outputs": [
        {
          "name": "",
          "type": "uint256"
        }
      ],
      "payable": false,
      "stateMutability": "view",
      "type": "function"
    },
    {
      "constant": true,
      "inputs": [],
      "name": "globalBlockHalfTime",
      "outputs": [
        {
          "name": "",
          "type": "uint256"
        }
      ],
      "payable": false,
      "stateMutability": "view",
      "type": "function"
    },
    {
      "constant": true,
      "inputs": [
        {
          "name": "",
          "type": "address"
        },
        {
          "name": "",
          "type": "uint256"
        }
      ],
      "name": "repOwnes",
      "outputs": [
        {
          "name": "",
          "type": "uint256"
        }
      ],
      "payable": false,
      "stateMutability": "view",
      "type": "function"
    },
    {
      "constant": true,
      "inputs": [
        {
          "name": "",
          "type": "uint256"
        }
      ],
      "name": "ideaVariables",
      "outputs": [
        {
          "name": "globalUseBlockAmount",
          "type": "uint256"
        },
        {
          "name": "royalty",
          "type": "uint256"
        },
        {
          "name": "miningTime",
          "type": "uint256"
        },
        {
          "name": "stakeAmount",
          "type": "uint256"
        },
        {
          "name": "inventorAddress",
          "type": "address"
        },
        {
          "name": "inventionAddress",
          "type": "address"
        },
        {
          "name": "IPFShash",
          "type": "string"
        }
      ],
      "payable": false,
      "stateMutability": "view",
      "type": "function"
    },
    {
      "constant": true,
      "inputs": [],
      "name": "globalIdeaCount",
      "outputs": [
        {
          "name": "",
          "type": "uint256"
        }
      ],
      "payable": false,
      "stateMutability": "view",
      "type": "function"
    },
    {
      "constant": true,
      "inputs": [
        {
          "name": "",
          "type": "address"
        }
      ],
      "name": "IdeaAddToId",
      "outputs": [
        {
          "name": "",
          "type": "uint256"
        }
      ],
      "payable": false,
      "stateMutability": "view",
      "type": "function"
    },
    {
      "constant": true,
      "inputs": [
        {
          "name": "",
          "type": "address"
        }
      ],
      "name": "repInfo",
      "outputs": [
        {
          "name": "BlockReward",
          "type": "uint256"
        },
        {
          "name": "OwnersAddress",
          "type": "address"
        },
        {
          "name": "IdeaID",
          "type": "uint256"
        },
        {
          "name": "Royalty",
          "type": "uint256"
        },
        {
          "name": "RepID",
          "type": "uint256"
        },
        {
          "name": "InventorsAddress",
          "type": "address"
        },
        {
          "name": "ReplicationAddress",
          "type": "address"
        }
      ],
      "payable": false,
      "stateMutability": "view",
      "type": "function"
    },
    {
      "constant": false,
      "inputs": [],
      "name": "renounceOwnership",
      "outputs": [],
      "payable": false,
      "stateMutability": "nonpayable",
      "type": "function"
    },
    {
      "constant": true,
      "inputs": [],
      "name": "globalUseBlock",
      "outputs": [
        {
          "name": "",
          "type": "uint256"
        }
      ],
      "payable": false,
      "stateMutability": "view",
      "type": "function"
    },
    {
      "constant": true,
      "inputs": [
        {
          "name": "",
          "type": "uint256"
        }
      ],
      "name": "weightTracker",
      "outputs": [
        {
          "name": "",
          "type": "uint256"
        }
      ],
      "payable": false,
      "stateMutability": "view",
      "type": "function"
    },
    {
      "constant": true,
      "inputs": [],
      "name": "owner",
      "outputs": [
        {
          "name": "",
          "type": "address"
        }
      ],
      "payable": false,
      "stateMutability": "view",
      "type": "function"
    },
    {
      "constant": true,
      "inputs": [],
      "name": "isOwner",
      "outputs": [
        {
          "name": "",
          "type": "bool"
        }
      ],
      "payable": false,
      "stateMutability": "view",
      "type": "function"
    },
    {
      "constant": false,
      "inputs": [],
      "name": "generateUseBlockWeight",
      "outputs": [],
      "payable": false,
      "stateMutability": "nonpayable",
      "type": "function"
    },
    {
      "constant": false,
      "inputs": [
        {
          "name": "_ideaId",
          "type": "uint256"
        },
        {
          "name": "_repAdd",
          "type": "address"
        },
        {
          "name": "_userId",
          "type": "string"
        }
      ],
      "name": "generateReplicationBlock",
      "outputs": [],
      "payable": false,
      "stateMutability": "nonpayable",
      "type": "function"
    },
    {
      "constant": true,
      "inputs": [],
      "name": "globalRepCount",
      "outputs": [
        {
          "name": "",
          "type": "uint256"
        }
      ],
      "payable": false,
      "stateMutability": "view",
      "type": "function"
    },
    {
      "constant": true,
      "inputs": [
        {
          "name": "",
          "type": "address"
        }
      ],
      "name": "localWeightTracker",
      "outputs": [
        {
          "name": "",
          "type": "uint256"
        }
      ],
      "payable": false,
      "stateMutability": "view",
      "type": "function"
    },
    {
      "constant": true,
      "inputs": [
        {
          "name": "",
          "type": "address"
        }
      ],
      "name": "replications",
      "outputs": [
        {
          "name": "",
          "type": "bool"
        }
      ],
      "payable": false,
      "stateMutability": "view",
      "type": "function"
    },
    {
      "constant": true,
      "inputs": [],
      "name": "DCPoA",
      "outputs": [
        {
          "name": "",
          "type": "address"
        }
      ],
      "payable": false,
      "stateMutability": "view",
      "type": "function"
    },
    {
      "constant": false,
      "inputs": [
        {
          "name": "newOwner",
          "type": "address"
        }
      ],
      "name": "transferOwnership",
      "outputs": [],
      "payable": false,
      "stateMutability": "nonpayable",
      "type": "function"
    },
    {
      "constant": true,
      "inputs": [
        {
          "name": "",
          "type": "uint256"
        }
      ],
      "name": "ideaRepCounter",
      "outputs": [
        {
          "name": "",
          "type": "uint256"
        }
      ],
      "payable": false,
      "stateMutability": "view",
      "type": "function"
    },
    {
      "constant": true,
      "inputs": [],
      "name": "Validators",
      "outputs": [
        {
          "name": "",
          "type": "address"
        }
      ],
      "payable": false,
      "stateMutability": "view",
      "type": "function"
    },
    {
      "constant": true,
      "inputs": [],
      "name": "globalIdeaPropCount",
      "outputs": [
        {
          "name": "",
          "type": "uint256"
        }
      ],
      "payable": false,
      "stateMutability": "view",
      "type": "function"
    },
    {
      "anonymous": false,
      "inputs": [
        {
          "indexed": false,
          "name": "IPFS",
          "type": "string"
        }
      ],
      "name": "IdeaProposed",
      "type": "event"
    },
    {
      "anonymous": false,
      "inputs": [
        {
          "indexed": false,
          "name": "member",
          "type": "address"
        }
      ],
      "name": "NewMember",
      "type": "event"
    },
    {
      "anonymous": false,
      "inputs": [
        {
          "indexed": false,
          "name": "IPFS",
          "type": "string"
        }
      ],
      "name": "IdeaApproved",
      "type": "event"
    },
    {
      "anonymous": false,
      "inputs": [
        {
          "indexed": false,
          "name": "_voter",
          "type": "address"
        },
        {
          "indexed": false,
          "name": "inSupport",
          "type": "bool"
        }
      ],
      "name": "Voted",
      "type": "event"
    },
    {
      "anonymous": false,
      "inputs": [
        {
          "indexed": false,
          "name": "_repAdd",
          "type": "address"
        }
      ],
      "name": "NewReplication",
      "type": "event"
    },
    {
      "anonymous": false,
      "inputs": [
        {
          "indexed": false,
          "name": "repAdd",
          "type": "address"
        },
        {
          "indexed": false,
          "name": "repWeight",
          "type": "uint256"
        }
      ],
      "name": "LocalUseWeight",
      "type": "event"
    },
    {
      "anonymous": false,
      "inputs": [
        {
          "indexed": false,
          "name": "repAdd",
          "type": "address"
        },
        {
          "indexed": false,
          "name": "ideaId",
          "type": "uint256"
        }
      ],
      "name": "GlobalUseBlock",
      "type": "event"
    },
    {
      "anonymous": false,
      "inputs": [
        {
          "indexed": true,
          "name": "previousOwner",
          "type": "address"
        },
        {
          "indexed": true,
          "name": "newOwner",
          "type": "address"
        }
      ],
      "name": "OwnershipTransferred",
      "type": "event"
    },
    {
      "constant": false,
      "inputs": [
        {
          "name": "sender",
          "type": "address"
        }
      ],
      "name": "initialize",
      "outputs": [],
      "payable": false,
      "stateMutability": "nonpayable",
      "type": "function"
    },
    {
      "constant": false,
      "inputs": [],
      "name": "initialize",
      "outputs": [],
      "payable": false,
      "stateMutability": "nonpayable",
      "type": "function"
    },
    {
      "constant": false,
      "inputs": [
        {
          "name": "_ideaIPFS",
          "type": "string"
        },
        {
          "name": "_globalUseBlockAmount",
          "type": "uint256"
        },
        {
          "name": "_miningTime",
          "type": "uint256"
        },
        {
          "name": "_royalty",
          "type": "uint256"
        },
        {
          "name": "_stakeAmount",
          "type": "uint256"
        },
        {
          "name": "_inventor",
          "type": "address"
        },
        {
          "name": "_invention",
          "type": "address"
        }
      ],
      "name": "proposeIdea",
      "outputs": [],
      "payable": false,
      "stateMutability": "nonpayable",
      "type": "function"
    },
    {
      "constant": false,
      "inputs": [
        {
          "name": "_ideaProposalID",
          "type": "uint256"
        },
        {
          "name": "supportsProposal",
          "type": "bool"
        }
      ],
      "name": "ideaVote",
      "outputs": [],
      "payable": false,
      "stateMutability": "nonpayable",
      "type": "function"
    },
    {
      "constant": false,
      "inputs": [
        {
          "name": "_hash",
          "type": "string"
        },
        {
          "name": "_userId",
          "type": "string"
        }
      ],
      "name": "stakeReplicatorWallet",
      "outputs": [],
      "payable": false,
      "stateMutability": "nonpayable",
      "type": "function"
    },
    {
      "constant": true,
      "inputs": [
        {
          "name": "_add",
          "type": "address"
        }
      ],
      "name": "checkIfRep",
      "outputs": [
        {
          "name": "",
          "type": "bool"
        }
      ],
      "payable": false,
      "stateMutability": "view",
      "type": "function"
    },
    {
      "constant": true,
      "inputs": [
        {
          "name": "_ideaAdd",
          "type": "address"
        }
      ],
      "name": "getID",
      "outputs": [
        {
          "name": "",
          "type": "uint256"
        }
      ],
      "payable": false,
      "stateMutability": "view",
      "type": "function"
    },
    {
      "constant": false,
      "inputs": [
        {
          "name": "_valCon",
          "type": "address"
        }
      ],
      "name": "setValidatorContract",
      "outputs": [],
      "payable": false,
      "stateMutability": "nonpayable",
      "type": "function"
    },
    {
      "constant": false,
      "inputs": [
        {
          "name": "_dcpoa",
          "type": "address"
        }
      ],
      "name": "setDCPoA",
      "outputs": [],
      "payable": false,
      "stateMutability": "nonpayable",
      "type": "function"
    },
    {
      "constant": true,
      "inputs": [
        {
          "name": "_add",
          "type": "address"
        },
        {
          "name": "_ideaProposalID",
          "type": "uint256"
        }
      ],
      "name": "checkIfVotedIdea",
      "outputs": [
        {
          "name": "",
          "type": "bool"
        }
      ],
      "payable": false,
      "stateMutability": "view",
      "type": "function"
    },
    {
      "constant": true,
      "inputs": [
        {
          "name": "hash",
          "type": "string"
        }
      ],
      "name": "getPropID",
      "outputs": [
        {
          "name": "",
          "type": "uint256"
        }
      ],
      "payable": false,
      "stateMutability": "view",
      "type": "function"
    }
  ],
  "bytecode": "0x608060405234801561001057600080fd5b506146f4806100206000396000f3fe6080604052600436106101b7576000357c0100000000000000000000000000000000000000000000000000000000900463ffffffff16806310734e43146101bc57806311e658441461029857806314111141146102fd5780631855efa61461034457806318fcc7fd146104905780631ddc883b146105c057806328a6e47c146105eb5780632e858cce146106165780634242779f1461068557806343110e6f146107bb5780634cfa24091461080c5780634e6a3630146108375780634f214e84146108aa57806350ae535d1461090f5780636849e79514610a6e578063715018a614610b815780637582497414610b985780638129fc1c14610bc357806381cbb67714610bda5780638da5cb5b14610c295780638eb5b91314610c805780638f32d59b14610ce957806399f826a514610d18578063a416ecd714610d7d578063b4fdd85d14610d94578063be6cbbcf14610e86578063c4d66de814610eb1578063cdf64a7614610f02578063ce87d3ee14610f53578063d436b5e914610fb8578063e026daa114611021578063f2fde38b14611078578063f54a0129146110c9578063f691977414611118578063f7e1e4f01461116f575b600080fd5b3480156101c857600080fd5b50610282600480360360208110156101df57600080fd5b81019080803590602001906401000000008111156101fc57600080fd5b82018360208201111561020e57600080fd5b8035906020019184600183028401116401000000008311171561023057600080fd5b91908080601f016020809104026020016040519081016040528093929190818152602001838380828437600081840152601f19601f82011690508083019250505050505050919291929050505061119a565b6040518082815260200191505060405180910390f35b3480156102a457600080fd5b506102e7600480360360208110156102bb57600080fd5b81019080803573ffffffffffffffffffffffffffffffffffffffff16906020019092919050505061120f565b6040518082815260200191505060405180910390f35b34801561030957600080fd5b506103426004803603604081101561032057600080fd5b8101908080359060200190929190803515159060200190929190505050611227565b005b34801561035057600080fd5b5061037d6004803603602081101561036757600080fd5b8101908080359060200190929190505050611720565b60405180806020018a151515158152602001891515151581526020018881526020018781526020018681526020018581526020018473ffffffffffffffffffffffffffffffffffffffff1673ffffffffffffffffffffffffffffffffffffffff1681526020018373ffffffffffffffffffffffffffffffffffffffff1673ffffffffffffffffffffffffffffffffffffffff16815260200182810382528b818151815260200191508051906020019080838360005b8381101561044d578082015181840152602081019050610432565b50505050905090810190601f16801561047a5780820380516001836020036101000a031916815260200191505b509a505050505050505050505060405180910390f35b34801561049c57600080fd5b506105be600480360360e08110156104b357600080fd5b81019080803590602001906401000000008111156104d057600080fd5b8201836020820111156104e257600080fd5b8035906020019184600183028401116401000000008311171561050457600080fd5b91908080601f016020809104026020016040519081016040528093929190818152602001838380828437600081840152601f19601f82011690508083019250505050505050919291929080359060200190929190803590602001909291908035906020019092919080359060200190929190803573ffffffffffffffffffffffffffffffffffffffff169060200190929190803573ffffffffffffffffffffffffffffffffffffffff169060200190929190505050611860565b005b3480156105cc57600080fd5b506105d5611aa4565b6040518082815260200191505060405180910390f35b3480156105f757600080fd5b50610600611aaa565b6040518082815260200191505060405180910390f35b34801561062257600080fd5b5061066f6004803603604081101561063957600080fd5b81019080803573ffffffffffffffffffffffffffffffffffffffff16906020019092919080359060200190929190505050611ab0565b6040518082815260200191505060405180910390f35b34801561069157600080fd5b506106be600480360360208110156106a857600080fd5b8101908080359060200190929190505050611ad5565b604051808881526020018781526020018681526020018581526020018473ffffffffffffffffffffffffffffffffffffffff1673ffffffffffffffffffffffffffffffffffffffff1681526020018373ffffffffffffffffffffffffffffffffffffffff1673ffffffffffffffffffffffffffffffffffffffff16815260200180602001828103825283818151815260200191508051906020019080838360005b8381101561077a57808201518184015260208101905061075f565b50505050905090810190601f1680156107a75780820380516001836020036101000a031916815260200191505b509850505050505050505060405180910390f35b3480156107c757600080fd5b5061080a600480360360208110156107de57600080fd5b81019080803573ffffffffffffffffffffffffffffffffffffffff169060200190929190505050611bef565b005b34801561081857600080fd5b50610821611c46565b6040518082815260200191505060405180910390f35b34801561084357600080fd5b506108906004803603604081101561085a57600080fd5b81019080803573ffffffffffffffffffffffffffffffffffffffff16906020019092919080359060200190929190505050611c4c565b604051808215151515815260200191505060405180910390f35b3480156108b657600080fd5b506108f9600480360360208110156108cd57600080fd5b81019080803573ffffffffffffffffffffffffffffffffffffffff169060200190929190505050611cbc565b6040518082815260200191505060405180910390f35b34801561091b57600080fd5b50610a6c6004803603604081101561093257600080fd5b810190808035906020019064010000000081111561094f57600080fd5b82018360208201111561096157600080fd5b8035906020019184600183028401116401000000008311171561098357600080fd5b91908080601f016020809104026020016040519081016040528093929190818152602001838380828437600081840152601f19601f820116905080830192505050505050509192919290803590602001906401000000008111156109e657600080fd5b8201836020820111156109f857600080fd5b80359060200191846001830284011164010000000083111715610a1a57600080fd5b91908080601f016020809104026020016040519081016040528093929190818152602001838380828437600081840152601f19601f820116905080830192505050505050509192919290505050611cd4565b005b348015610a7a57600080fd5b50610abd60048036036020811015610a9157600080fd5b81019080803573ffffffffffffffffffffffffffffffffffffffff1690602001909291905050506120a5565b604051808881526020018773ffffffffffffffffffffffffffffffffffffffff1673ffffffffffffffffffffffffffffffffffffffff1681526020018681526020018581526020018481526020018373ffffffffffffffffffffffffffffffffffffffff1673ffffffffffffffffffffffffffffffffffffffff1681526020018273ffffffffffffffffffffffffffffffffffffffff1673ffffffffffffffffffffffffffffffffffffffff16815260200197505050505050505060405180910390f35b348015610b8d57600080fd5b50610b96612147565b005b348015610ba457600080fd5b50610bad61221b565b6040518082815260200191505060405180910390f35b348015610bcf57600080fd5b50610bd8612221565b005b348015610be657600080fd5b50610c1360048036036020811015610bfd57600080fd5b8101908080359060200190929190505050612376565b6040518082815260200191505060405180910390f35b348015610c3557600080fd5b50610c3e61238e565b604051808273ffffffffffffffffffffffffffffffffffffffff1673ffffffffffffffffffffffffffffffffffffffff16815260200191505060405180910390f35b348015610c8c57600080fd5b50610ccf60048036036020811015610ca357600080fd5b81019080803573ffffffffffffffffffffffffffffffffffffffff1690602001909291905050506123b8565b604051808215151515815260200191505060405180910390f35b348015610cf557600080fd5b50610cfe61240e565b604051808215151515815260200191505060405180910390f35b348015610d2457600080fd5b50610d6760048036036020811015610d3b57600080fd5b81019080803573ffffffffffffffffffffffffffffffffffffffff169060200190929190505050612466565b6040518082815260200191505060405180910390f35b348015610d8957600080fd5b50610d926124af565b005b348015610da057600080fd5b50610e8460048036036060811015610db757600080fd5b8101908080359060200190929190803573ffffffffffffffffffffffffffffffffffffffff16906020019092919080359060200190640100000000811115610dfe57600080fd5b820183602082011115610e1057600080fd5b80359060200191846001830284011164010000000083111715610e3257600080fd5b91908080601f016020809104026020016040519081016040528093929190818152602001838380828437600081840152601f19601f820116905080830192505050505050509192919290505050612a93565b005b348015610e9257600080fd5b50610e9b61340b565b6040518082815260200191505060405180910390f35b348015610ebd57600080fd5b50610f0060048036036020811015610ed457600080fd5b81019080803573ffffffffffffffffffffffffffffffffffffffff169060200190929190505050613411565b005b348015610f0e57600080fd5b50610f5160048036036020811015610f2557600080fd5b81019080803573ffffffffffffffffffffffffffffffffffffffff169060200190929190505050613605565b005b348015610f5f57600080fd5b50610fa260048036036020811015610f7657600080fd5b81019080803573ffffffffffffffffffffffffffffffffffffffff16906020019092919050505061365c565b6040518082815260200191505060405180910390f35b348015610fc457600080fd5b5061100760048036036020811015610fdb57600080fd5b81019080803573ffffffffffffffffffffffffffffffffffffffff169060200190929190505050613674565b604051808215151515815260200191505060405180910390f35b34801561102d57600080fd5b50611036613694565b604051808273ffffffffffffffffffffffffffffffffffffffff1673ffffffffffffffffffffffffffffffffffffffff16815260200191505060405180910390f35b34801561108457600080fd5b506110c76004803603602081101561109b57600080fd5b81019080803573ffffffffffffffffffffffffffffffffffffffff1690602001909291905050506136ba565b005b3480156110d557600080fd5b50611102600480360360208110156110ec57600080fd5b81019080803590602001909291905050506136d9565b6040518082815260200191505060405180910390f35b34801561112457600080fd5b5061112d6136f1565b604051808273ffffffffffffffffffffffffffffffffffffffff1673ffffffffffffffffffffffffffffffffffffffff16815260200191505060405180910390f35b34801561117b57600080fd5b50611184613717565b6040518082815260200191505060405180910390f35b60006078826040518082805190602001908083835b6020831015156111d457805182526020820191506020810190506020830392506111af565b6001836020036101000a0380198251168184511680821785525050505050509050019150509081526020016040518091039020549050919050565b60746020528060005260406000206000915090505481565b60011515606660009054906101000a900473ffffffffffffffffffffffffffffffffffffffff1673ffffffffffffffffffffffffffffffffffffffff1663aaa746bb336040518263ffffffff167c0100000000000000000000000000000000000000000000000000000000028152600401808273ffffffffffffffffffffffffffffffffffffffff1673ffffffffffffffffffffffffffffffffffffffff16815260200191505060206040518083038186803b1580156112e657600080fd5b505afa1580156112fa573d6000803e3d6000fd5b505050506040513d602081101561131057600080fd5b8101908080519060200190929190505050151514151561132f57600080fd5b6000607060008481526020019081526020016000209050600115158160090160003373ffffffffffffffffffffffffffffffffffffffff1673ffffffffffffffffffffffffffffffffffffffff16815260200190815260200160002060009054906101000a900460ff161515141515156113a857600080fd5b600115158160010160009054906101000a900460ff161515141515156113cd57600080fd5b60008160080180548091906001016113e59190614433565b9050604080519081016040528084151581526020013373ffffffffffffffffffffffffffffffffffffffff16815250826008018281548110151561142557fe5b9060005260206000200160008201518160000160006101000a81548160ff02191690831515021790555060208201518160000160016101000a81548173ffffffffffffffffffffffffffffffffffffffff021916908373ffffffffffffffffffffffffffffffffffffffff16021790555090505060018260090160003373ffffffffffffffffffffffffffffffffffffffff1673ffffffffffffffffffffffffffffffffffffffff16815260200190815260200160002060006101000a81548160ff021916908315150217905550606660009054906101000a900473ffffffffffffffffffffffffffffffffffffffff1673ffffffffffffffffffffffffffffffffffffffff16634777e8ea336040518263ffffffff167c0100000000000000000000000000000000000000000000000000000000028152600401808273ffffffffffffffffffffffffffffffffffffffff1673ffffffffffffffffffffffffffffffffffffffff168152602001915050600060405180830381600087803b1580156115b057600080fd5b505af11580156115c4573d6000803e3d6000fd5b505050507f8eb81cb806dbb3d8a2f94981614331a55dfd90e06a42fdc362ca3ca96981d92f3384604051808373ffffffffffffffffffffffffffffffffffffffff1673ffffffffffffffffffffffffffffffffffffffff168152602001821515151581526020019250505060405180910390a16000606660009054906101000a900473ffffffffffffffffffffffffffffffffffffffff1673ffffffffffffffffffffffffffffffffffffffff1663997072f76040518163ffffffff167c010000000000000000000000000000000000000000000000000000000002815260040160206040518083038186803b1580156116bd57600080fd5b505afa1580156116d1573d6000803e3d6000fd5b505050506040513d60208110156116e757600080fd5b810190808051906020019092919050505090506000611706838361371d565b90508015611718576117178661374e565b5b505050505050565b6070602052806000526040600020600091509050806000018054600181600116156101000203166002900480601f0160208091040260200160405190810160405280929190818152602001828054600181600116156101000203166002900480156117cc5780601f106117a1576101008083540402835291602001916117cc565b820191906000526020600020905b8154815290600101906020018083116117af57829003601f168201915b5050505050908060010160009054906101000a900460ff16908060010160019054906101000a900460ff16908060020154908060030154908060040154908060050154908060060160009054906101000a900473ffffffffffffffffffffffffffffffffffffffff16908060070160009054906101000a900473ffffffffffffffffffffffffffffffffffffffff16905089565b606b600081548092919060010191905055506000606b549050806078896040518082805190602001908083835b6020831015156118b2578051825260208201915060208101905060208303925061188d565b6001836020036101000a03801982511681845116808217855250505050505090500191505090815260200160405180910390208190555060006070600083815260200190815260200160002090508881600001908051906020019061191892919061445f565b5060008160010160006101000a81548160ff02191690831515021790555060008160010160016101000a81548160ff021916908315150217905550878160020181905550858160030181905550848160050181905550868160040181905550838160060160006101000a81548173ffffffffffffffffffffffffffffffffffffffff021916908373ffffffffffffffffffffffffffffffffffffffff160217905550828160070160006101000a81548173ffffffffffffffffffffffffffffffffffffffff021916908373ffffffffffffffffffffffffffffffffffffffff1602179055507f544a88757adcb29711e2e12a617fb44221880d5013615cf2dbbdb37f5d505973896040518080602001828103825283818151815260200191508051906020019080838360005b83811015611a5f578082015181840152602081019050611a44565b50505050905090810190601f168015611a8c5780820380516001836020036101000a031916815260200191505b509250505060405180910390a1505050505050505050565b606a5481565b60695481565b6077602052816000526040600020602052806000526040600020600091509150505481565b606e6020528060005260406000206000915090508060000154908060010154908060020154908060030154908060040160009054906101000a900473ffffffffffffffffffffffffffffffffffffffff16908060050160009054906101000a900473ffffffffffffffffffffffffffffffffffffffff1690806006018054600181600116156101000203166002900480601f016020809104026020016040519081016040528092919081815260200182805460018160011615610100020316600290048015611be55780601f10611bba57610100808354040283529160200191611be5565b820191906000526020600020905b815481529060010190602001808311611bc857829003601f168201915b5050505050905087565b611bf761240e565b1515611c0257600080fd5b80606660006101000a81548173ffffffffffffffffffffffffffffffffffffffff021916908373ffffffffffffffffffffffffffffffffffffffff16021790555050565b60685481565b6000806070600084815260200190815260200160002090508060090160008573ffffffffffffffffffffffffffffffffffffffff1673ffffffffffffffffffffffffffffffffffffffff16815260200190815260200160002060009054906101000a900460ff1691505092915050565b606f6020528060005260406000206000915090505481565b606660009054906101000a900473ffffffffffffffffffffffffffffffffffffffff1673ffffffffffffffffffffffffffffffffffffffff1663c812a6013368056bc75e2d631000006040518363ffffffff167c0100000000000000000000000000000000000000000000000000000000028152600401808373ffffffffffffffffffffffffffffffffffffffff1673ffffffffffffffffffffffffffffffffffffffff16815260200182815260200192505050600060405180830381600087803b158015611da257600080fd5b505af1158015611db6573d6000803e3d6000fd5b50505050606660009054906101000a900473ffffffffffffffffffffffffffffffffffffffff1673ffffffffffffffffffffffffffffffffffffffff166389e22a5233836040518363ffffffff167c0100000000000000000000000000000000000000000000000000000000028152600401808373ffffffffffffffffffffffffffffffffffffffff1673ffffffffffffffffffffffffffffffffffffffff16815260200180602001828103825283818151815260200191508051906020019080838360005b83811015611e97578082015181840152602081019050611e7c565b50505050905090810190601f168015611ec45780820380516001836020036101000a031916815260200191505b509350505050600060405180830381600087803b158015611ee457600080fd5b505af1158015611ef8573d6000803e3d6000fd5b50505050606660009054906101000a900473ffffffffffffffffffffffffffffffffffffffff1673ffffffffffffffffffffffffffffffffffffffff1663afa879d133846040518363ffffffff167c0100000000000000000000000000000000000000000000000000000000028152600401808373ffffffffffffffffffffffffffffffffffffffff1673ffffffffffffffffffffffffffffffffffffffff16815260200180602001828103825283818151815260200191508051906020019080838360005b83811015611fd9578082015181840152602081019050611fbe565b50505050905090810190601f1680156120065780820380516001836020036101000a031916815260200191505b509350505050600060405180830381600087803b15801561202657600080fd5b505af115801561203a573d6000803e3d6000fd5b505050507fb4dcb6dd550f27b5917ebf674899ea7046ff91790c6f9f01431617ad39819db233604051808273ffffffffffffffffffffffffffffffffffffffff1673ffffffffffffffffffffffffffffffffffffffff16815260200191505060405180910390a15050565b60766020528060005260406000206000915090508060000154908060010160009054906101000a900473ffffffffffffffffffffffffffffffffffffffff16908060020154908060030154908060040154908060050160009054906101000a900473ffffffffffffffffffffffffffffffffffffffff16908060060160009054906101000a900473ffffffffffffffffffffffffffffffffffffffff16905087565b61214f61240e565b151561215a57600080fd5b600073ffffffffffffffffffffffffffffffffffffffff16603360009054906101000a900473ffffffffffffffffffffffffffffffffffffffff1673ffffffffffffffffffffffffffffffffffffffff167f8be0079c531659141344cd1fd0a4f28419497f9722a3daafe3b4186f6b6457e060405160405180910390a36000603360006101000a81548173ffffffffffffffffffffffffffffffffffffffff021916908373ffffffffffffffffffffffffffffffffffffffff160217905550565b606d5481565b600060019054906101000a900460ff1680612240575061223f613a2f565b5b8061225757506000809054906101000a900460ff16155b15156122f1576040517f08c379a000000000000000000000000000000000000000000000000000000000815260040180806020018281038252602e8152602001807f436f6e747261637420696e7374616e63652068617320616c726561647920626581526020017f656e20696e697469616c697a656400000000000000000000000000000000000081525060400191505060405180910390fd5b60008060019054906101000a900460ff1690506001600060016101000a81548160ff02191690831515021790555060016000806101000a81548160ff02191690831515021790555061234233613411565b683635c9adc5dea00000606a819055504260698190555080600060016101000a81548160ff02191690831515021790555050565b60716020528060005260406000206000915090505481565b6000603360009054906101000a900473ffffffffffffffffffffffffffffffffffffffff16905090565b6000607560008373ffffffffffffffffffffffffffffffffffffffff1673ffffffffffffffffffffffffffffffffffffffff16815260200190815260200160002060009054906101000a900460ff169050919050565b6000603360009054906101000a900473ffffffffffffffffffffffffffffffffffffffff1673ffffffffffffffffffffffffffffffffffffffff163373ffffffffffffffffffffffffffffffffffffffff1614905090565b6000606f60008373ffffffffffffffffffffffffffffffffffffffff1673ffffffffffffffffffffffffffffffffffffffff168152602001908152602001600020549050919050565b607560003373ffffffffffffffffffffffffffffffffffffffff1673ffffffffffffffffffffffffffffffffffffffff16815260200190815260200160002060009054906101000a900460ff16151561250757600080fd5b60003390506125146144df565b607660008373ffffffffffffffffffffffffffffffffffffffff1673ffffffffffffffffffffffffffffffffffffffff16815260200190815260200160002060e06040519081016040529081600082015481526020016001820160009054906101000a900473ffffffffffffffffffffffffffffffffffffffff1673ffffffffffffffffffffffffffffffffffffffff1673ffffffffffffffffffffffffffffffffffffffff1681526020016002820154815260200160038201548152602001600482015481526020016005820160009054906101000a900473ffffffffffffffffffffffffffffffffffffffff1673ffffffffffffffffffffffffffffffffffffffff1673ffffffffffffffffffffffffffffffffffffffff1681526020016006820160009054906101000a900473ffffffffffffffffffffffffffffffffffffffff1673ffffffffffffffffffffffffffffffffffffffff1673ffffffffffffffffffffffffffffffffffffffff1681525050905060008160400151905061269c61455f565b606e600083815260200190815260200160002060e06040519081016040529081600082015481526020016001820154815260200160028201548152602001600382015481526020016004820160009054906101000a900473ffffffffffffffffffffffffffffffffffffffff1673ffffffffffffffffffffffffffffffffffffffff1673ffffffffffffffffffffffffffffffffffffffff1681526020016005820160009054906101000a900473ffffffffffffffffffffffffffffffffffffffff1673ffffffffffffffffffffffffffffffffffffffff1673ffffffffffffffffffffffffffffffffffffffff168152602001600682018054600181600116156101000203166002900480601f0160208091040260200160405190810160405280929190818152602001828054600181600116156101000203166002900480156128285780601f106127fd57610100808354040283529160200191612828565b820191906000526020600020905b81548152906001019060200180831161280b57829003601f168201915b505050505081525050905060006001607260008773ffffffffffffffffffffffffffffffffffffffff1673ffffffffffffffffffffffffffffffffffffffff168152602001908152602001600020540190508160400151607460008773ffffffffffffffffffffffffffffffffffffffff1673ffffffffffffffffffffffffffffffffffffffff168152602001908152602001600020540142101515156128ce57600080fd5b6071600084815260200190815260200160002054811115612998576128f285613a40565b42607460008773ffffffffffffffffffffffffffffffffffffffff1673ffffffffffffffffffffffffffffffffffffffff168152602001908152602001600020819055508060716000858152602001908152602001600020819055506000607260008773ffffffffffffffffffffffffffffffffffffffff1673ffffffffffffffffffffffffffffffffffffffff16815260200190815260200160002081905550612a8c565b42607460008773ffffffffffffffffffffffffffffffffffffffff1673ffffffffffffffffffffffffffffffffffffffff1681526020019081526020016000208190555080607260008773ffffffffffffffffffffffffffffffffffffffff1673ffffffffffffffffffffffffffffffffffffffff168152602001908152602001600020819055507f6ad49266dd90c9bdf996a7d34e9516f55e0d641ac4b0e911baf7f730d683842a8582604051808373ffffffffffffffffffffffffffffffffffffffff1673ffffffffffffffffffffffffffffffffffffffff1681526020018281526020019250505060405180910390a15b5050505050565b6000606660009054906101000a900473ffffffffffffffffffffffffffffffffffffffff1673ffffffffffffffffffffffffffffffffffffffff1663dc8e79fb836040518263ffffffff167c01000000000000000000000000000000000000000000000000000000000281526004018080602001828103825283818151815260200191508051906020019080838360005b83811015612b3f578082015181840152602081019050612b24565b50505050905090810190601f168015612b6c5780820380516001836020036101000a031916815260200191505b509250505060206040518083038186803b158015612b8957600080fd5b505afa158015612b9d573d6000803e3d6000fd5b505050506040513d6020811015612bb357600080fd5b81019080805190602001909291905050509050612bce61455f565b606e600086815260200190815260200160002060e06040519081016040529081600082015481526020016001820154815260200160028201548152602001600382015481526020016004820160009054906101000a900473ffffffffffffffffffffffffffffffffffffffff1673ffffffffffffffffffffffffffffffffffffffff1673ffffffffffffffffffffffffffffffffffffffff1681526020016005820160009054906101000a900473ffffffffffffffffffffffffffffffffffffffff1673ffffffffffffffffffffffffffffffffffffffff1673ffffffffffffffffffffffffffffffffffffffff168152602001600682018054600181600116156101000203166002900480601f016020809104026020016040519081016040528092919081815260200182805460018160011615610100020316600290048015612d5a5780601f10612d2f57610100808354040283529160200191612d5a565b820191906000526020600020905b815481529060010190602001808311612d3d57829003601f168201915b5050505050815250509050606660009054906101000a900473ffffffffffffffffffffffffffffffffffffffff1673ffffffffffffffffffffffffffffffffffffffff1663aaa746bb836040518263ffffffff167c0100000000000000000000000000000000000000000000000000000000028152600401808273ffffffffffffffffffffffffffffffffffffffff1673ffffffffffffffffffffffffffffffffffffffff16815260200191505060206040518083038186803b158015612e2057600080fd5b505afa158015612e34573d6000803e3d6000fd5b505050506040513d6020811015612e4a57600080fd5b81019080805190602001909291905050501515612e6657600080fd5b606660009054906101000a900473ffffffffffffffffffffffffffffffffffffffff1673ffffffffffffffffffffffffffffffffffffffff1663c812a6018383606001516040518363ffffffff167c0100000000000000000000000000000000000000000000000000000000028152600401808373ffffffffffffffffffffffffffffffffffffffff1673ffffffffffffffffffffffffffffffffffffffff16815260200182815260200192505050600060405180830381600087803b158015612f2f57600080fd5b505af1158015612f43573d6000803e3d6000fd5b50505050606c60008154809291906001019190505550600081600001519050600082602001519050600081830390506000846080015190506000606c549050612f8a6144df565b60e0604051908101604052808581526020018973ffffffffffffffffffffffffffffffffffffffff1681526020018c81526020018681526020018381526020018473ffffffffffffffffffffffffffffffffffffffff1681526020018b73ffffffffffffffffffffffffffffffffffffffff16815250905080607660008c73ffffffffffffffffffffffffffffffffffffffff1673ffffffffffffffffffffffffffffffffffffffff1681526020019081526020016000206000820151816000015560208201518160010160006101000a81548173ffffffffffffffffffffffffffffffffffffffff021916908373ffffffffffffffffffffffffffffffffffffffff16021790555060408201518160020155606082015181600301556080820151816004015560a08201518160050160006101000a81548173ffffffffffffffffffffffffffffffffffffffff021916908373ffffffffffffffffffffffffffffffffffffffff16021790555060c08201518160060160006101000a81548173ffffffffffffffffffffffffffffffffffffffff021916908373ffffffffffffffffffffffffffffffffffffffff1602179055509050506000607360008d815260200190815260200160002054905080806001019150607360008e8152602001908152602001600020819055506001607560008d73ffffffffffffffffffffffffffffffffffffffff1673ffffffffffffffffffffffffffffffffffffffff16815260200190815260200160002060006101000a81548160ff0219169083151502179055506000607760008b73ffffffffffffffffffffffffffffffffffffffff1673ffffffffffffffffffffffffffffffffffffffff16815260200190815260200160002060008e815260200190815260200160002054905080806001019150607760008c73ffffffffffffffffffffffffffffffffffffffff1673ffffffffffffffffffffffffffffffffffffffff16815260200190815260200160002060008f815260200190815260200160002081905550606660009054906101000a900473ffffffffffffffffffffffffffffffffffffffff1673ffffffffffffffffffffffffffffffffffffffff16634777e8ea8b6040518263ffffffff167c0100000000000000000000000000000000000000000000000000000000028152600401808273ffffffffffffffffffffffffffffffffffffffff1673ffffffffffffffffffffffffffffffffffffffff168152602001915050600060405180830381600087803b15801561333d57600080fd5b505af1158015613351573d6000803e3d6000fd5b5050505042607460008e73ffffffffffffffffffffffffffffffffffffffff1673ffffffffffffffffffffffffffffffffffffffff168152602001908152602001600020819055507fe949536157131e1de4cd7b981de0040f0fb98337330cdf262d0fed657681c2f08c604051808273ffffffffffffffffffffffffffffffffffffffff1673ffffffffffffffffffffffffffffffffffffffff16815260200191505060405180910390a150505050505050505050505050565b606c5481565b600060019054906101000a900460ff1680613430575061342f613a2f565b5b8061344757506000809054906101000a900460ff16155b15156134e1576040517f08c379a000000000000000000000000000000000000000000000000000000000815260040180806020018281038252602e8152602001807f436f6e747261637420696e7374616e63652068617320616c726561647920626581526020017f656e20696e697469616c697a656400000000000000000000000000000000000081525060400191505060405180910390fd5b60008060019054906101000a900460ff1690506001600060016101000a81548160ff02191690831515021790555060016000806101000a81548160ff02191690831515021790555081603360006101000a81548173ffffffffffffffffffffffffffffffffffffffff021916908373ffffffffffffffffffffffffffffffffffffffff160217905550603360009054906101000a900473ffffffffffffffffffffffffffffffffffffffff1673ffffffffffffffffffffffffffffffffffffffff16600073ffffffffffffffffffffffffffffffffffffffff167f8be0079c531659141344cd1fd0a4f28419497f9722a3daafe3b4186f6b6457e060405160405180910390a380600060016101000a81548160ff0219169083151502179055505050565b61360d61240e565b151561361857600080fd5b80606760006101000a81548173ffffffffffffffffffffffffffffffffffffffff021916908373ffffffffffffffffffffffffffffffffffffffff16021790555050565b60726020528060005260406000206000915090505481565b60756020528060005260406000206000915054906101000a900460ff1681565b606660009054906101000a900473ffffffffffffffffffffffffffffffffffffffff1681565b6136c261240e565b15156136cd57600080fd5b6136d681613e6e565b50565b60736020528060005260406000206000915090505481565b606760009054906101000a900473ffffffffffffffffffffffffffffffffffffffff1681565b606b5481565b60008061372c84846002613f6a565b9050603c81101515613742576001915050613748565b60009150505b92915050565b60006070600083815260200190815260200160002090506060816000018054600181600116156101000203166002900480601f0160208091040260200160405190810160405280929190818152602001828054600181600116156101000203166002900480156137ff5780601f106137d4576101008083540402835291602001916137ff565b820191906000526020600020905b8154815290600101906020018083116137e257829003601f168201915b5050505050905060008260020154905060008360040154905060008460030154905060008560050154905060008660060160009054906101000a900473ffffffffffffffffffffffffffffffffffffffff16905060008760070160009054906101000a900473ffffffffffffffffffffffffffffffffffffffff1690506000809050600080905060008090505b8a600801805490508110156138f45760008b600801828154811015156138ae57fe5b9060005260206000200190506000600190508160000160009054906101000a900460ff16156138e15780850194506138e7565b80840193505b505080600101905061388c565b50808211156139e75760018a60010160006101000a81548160ff02191690831515021790555060018a60010160016101000a81548160ff02191690831515021790555061394689898989898989613fa3565b7ff7d7228b49234d1660fac6c22cb436b3520fa0f9b4b65f0482d84a1698674397896040518080602001828103825283818151815260200191508051906020019080838360005b838110156139a857808201518184015260208101905061398d565b50505050905090810190601f1680156139d55780820380516001836020036101000a031916815260200191505b509250505060405180910390a1613a22565b60008a60010160016101000a81548160ff02191690831515021790555060018a60010160006101000a81548160ff0219169083151502179055505b5050505050505050505050565b600080303b90506000811491505090565b613a486144df565b607660008373ffffffffffffffffffffffffffffffffffffffff1673ffffffffffffffffffffffffffffffffffffffff16815260200190815260200160002060e06040519081016040529081600082015481526020016001820160009054906101000a900473ffffffffffffffffffffffffffffffffffffffff1673ffffffffffffffffffffffffffffffffffffffff1673ffffffffffffffffffffffffffffffffffffffff1681526020016002820154815260200160038201548152602001600482015481526020016005820160009054906101000a900473ffffffffffffffffffffffffffffffffffffffff1673ffffffffffffffffffffffffffffffffffffffff1673ffffffffffffffffffffffffffffffffffffffff1681526020016006820160009054906101000a900473ffffffffffffffffffffffffffffffffffffffff1673ffffffffffffffffffffffffffffffffffffffff1673ffffffffffffffffffffffffffffffffffffffff16815250509050600060776000836020015173ffffffffffffffffffffffffffffffffffffffff1673ffffffffffffffffffffffffffffffffffffffff168152602001908152602001600020600083604001518152602001908152602001600020548260000151029050606d60008154809291906001019190505550606660009054906101000a900473ffffffffffffffffffffffffffffffffffffffff1673ffffffffffffffffffffffffffffffffffffffff16636326e4ce8360200151836040518363ffffffff167c0100000000000000000000000000000000000000000000000000000000028152600401808373ffffffffffffffffffffffffffffffffffffffff1673ffffffffffffffffffffffffffffffffffffffff16815260200182815260200192505050600060405180830381600087803b158015613cfd57600080fd5b505af1158015613d11573d6000803e3d6000fd5b50505050606660009054906101000a900473ffffffffffffffffffffffffffffffffffffffff1673ffffffffffffffffffffffffffffffffffffffff16636326e4ce8360a0015184606001516040518363ffffffff167c0100000000000000000000000000000000000000000000000000000000028152600401808373ffffffffffffffffffffffffffffffffffffffff1673ffffffffffffffffffffffffffffffffffffffff16815260200182815260200192505050600060405180830381600087803b158015613de257600080fd5b505af1158015613df6573d6000803e3d6000fd5b505050507fc35af376e21644286c5c8e35541e14cc67a7215c4a724810ed7e49a421c670a9838360400151604051808373ffffffffffffffffffffffffffffffffffffffff1673ffffffffffffffffffffffffffffffffffffffff1681526020018281526020019250505060405180910390a1505050565b600073ffffffffffffffffffffffffffffffffffffffff168173ffffffffffffffffffffffffffffffffffffffff1614151515613eaa57600080fd5b8073ffffffffffffffffffffffffffffffffffffffff16603360009054906101000a900473ffffffffffffffffffffffffffffffffffffffff1673ffffffffffffffffffffffffffffffffffffffff167f8be0079c531659141344cd1fd0a4f28419497f9722a3daafe3b4186f6b6457e060405160405180910390a380603360006101000a81548173ffffffffffffffffffffffffffffffffffffffff021916908373ffffffffffffffffffffffffffffffffffffffff16021790555050565b60008060018301600a0a850290506000600a60058684811515613f8957fe5b0401811515613f9457fe5b04905080925050509392505050565b60686000815480929190600101919050555060006068549050613fc461455f565b60e0604051908101604052808981526020018781526020018881526020018681526020018573ffffffffffffffffffffffffffffffffffffffff1681526020018473ffffffffffffffffffffffffffffffffffffffff1681526020018a815250905081606f60008573ffffffffffffffffffffffffffffffffffffffff1673ffffffffffffffffffffffffffffffffffffffff1681526020019081526020016000208190555080606e60008481526020019081526020016000206000820151816000015560208201518160010155604082015181600201556060820151816003015560808201518160040160006101000a81548173ffffffffffffffffffffffffffffffffffffffff021916908373ffffffffffffffffffffffffffffffffffffffff16021790555060a08201518160050160006101000a81548173ffffffffffffffffffffffffffffffffffffffff021916908373ffffffffffffffffffffffffffffffffffffffff16021790555060c08201518160060190805190602001906141509291906145c9565b50905050606760009054906101000a900473ffffffffffffffffffffffffffffffffffffffff1673ffffffffffffffffffffffffffffffffffffffff16634d238c8e846040518263ffffffff167c0100000000000000000000000000000000000000000000000000000000028152600401808273ffffffffffffffffffffffffffffffffffffffff1673ffffffffffffffffffffffffffffffffffffffff168152602001915050600060405180830381600087803b15801561421157600080fd5b505af1158015614225573d6000803e3d6000fd5b505050506142316143f1565b50606660009054906101000a900473ffffffffffffffffffffffffffffffffffffffff1673ffffffffffffffffffffffffffffffffffffffff16636326e4ce85606a546040518363ffffffff167c0100000000000000000000000000000000000000000000000000000000028152600401808373ffffffffffffffffffffffffffffffffffffffff1673ffffffffffffffffffffffffffffffffffffffff16815260200182815260200192505050600060405180830381600087803b1580156142f957600080fd5b505af115801561430d573d6000803e3d6000fd5b50505050606660009054906101000a900473ffffffffffffffffffffffffffffffffffffffff1673ffffffffffffffffffffffffffffffffffffffff16634777e8ea856040518263ffffffff167c0100000000000000000000000000000000000000000000000000000000028152600401808273ffffffffffffffffffffffffffffffffffffffff1673ffffffffffffffffffffffffffffffffffffffff168152602001915050600060405180830381600087803b1580156143ce57600080fd5b505af11580156143e2573d6000803e3d6000fd5b50505050505050505050505050565b60006305a48fba606954014210151561442a576002606a5481151561441257fe5b04606a8190555042606981905550606a549050614430565b606a5490505b90565b81548183558181111561445a578183600052602060002091820191016144599190614649565b5b505050565b828054600181600116156101000203166002900490600052602060002090601f016020900481019282601f106144a057805160ff19168380011785556144ce565b828001600101855582156144ce579182015b828111156144cd5782518255916020019190600101906144b2565b5b5090506144db91906146a3565b5090565b60e06040519081016040528060008152602001600073ffffffffffffffffffffffffffffffffffffffff168152602001600081526020016000815260200160008152602001600073ffffffffffffffffffffffffffffffffffffffff168152602001600073ffffffffffffffffffffffffffffffffffffffff1681525090565b60e06040519081016040528060008152602001600081526020016000815260200160008152602001600073ffffffffffffffffffffffffffffffffffffffff168152602001600073ffffffffffffffffffffffffffffffffffffffff168152602001606081525090565b828054600181600116156101000203166002900490600052602060002090601f016020900481019282601f1061460a57805160ff1916838001178555614638565b82800160010185558215614638579182015b8281111561463757825182559160200191906001019061461c565b5b50905061464591906146a3565b5090565b6146a091905b8082111561469c57600080820160006101000a81549060ff02191690556000820160016101000a81549073ffffffffffffffffffffffffffffffffffffffff02191690555060010161464f565b5090565b90565b6146c591905b808211156146c15760008160009055506001016146a9565b5090565b9056fea165627a7a72305820a9802c3b98b93d61945d5ca3aa055e6807f57a536f4dad113c1403ee8bca5d2a0029",
  "source": "pragma solidity ^0.5.0;\nimport './UseBlockLogic.sol';\n\ncontract CryptoPatentBlockchain is UseBlockLogic {\n\n\n  function initialize() public initializer {\n    Ownable.initialize(msg.sender);\n    ideaBlockReward = 1000000000000000000000;\n    globalBlockHalfTime = now;\n  }\n\n\n\n  ///@notice proposeIdea is used to allow ANYONE to petition the community for idea approval\n  ///@dev the struct for this is set in interface.solidity\n  ///@dev idea proposals are put up for community approval\n  function proposeIdea(\n    string memory _ideaIPFS,\n    uint _globalUseBlockAmount,\n    uint _miningTime,\n    uint _royalty,\n    uint _stakeAmount,\n    address _inventor,\n    address _invention\n  ) public {\n          globalIdeaPropCount++;\n          uint IdeaProposalID = globalIdeaPropCount;\n          getHash[_ideaIPFS] = IdeaProposalID;\n\n          IdeaProposal storage p = ideaProposals[IdeaProposalID];\n          p.IdeaIPFS = _ideaIPFS;\n          p.executed = false;\n          p.proposalPassed = false;\n          p.globalUseBlockAmount = _globalUseBlockAmount;\n          p.royalty = _royalty;\n          p.stakeAmount = _stakeAmount;\n          p.miningTime = _miningTime;\n          p.inventorAddress = _inventor;\n          p.inventionAddress = _invention;\n          emit IdeaProposed(_ideaIPFS);\n  }\n\n\n\n  ///@notice vote is a member only function which allows DecentraCorp members to vote on proposalPassed\n\n   function ideaVote(\n          uint _ideaProposalID,\n          bool supportsProposal\n      )\n          public\n\n      {\n          require(DCPoA._checkIfMember(msg.sender) == true);\n          IdeaProposal storage p = ideaProposals[_ideaProposalID];\n          //makes the proposal an object, p\n          require(p.voted[msg.sender] != true);\n          //requires that the person calling the function hasnt voted yet\n          require(p.executed != true);\n          //requires the proposal hasnt been executed yet\n          uint voteID = p.votes.length++;\n          //sets voteID to the length of the votes array for that proposal\n          p.votes[voteID] = Vote({inSupport: supportsProposal, voter: msg.sender});\n          //sets the individual Vote struct  properties to a voteID within votes struct array\n          p.voted[msg.sender] = true;\n          //sets the voter to true so they cant vote twice\n          DCPoA.increaseMemLev(msg.sender);\n          //increases the members level for voting\n          emit Voted(msg.sender, supportsProposal);\n          //emits Voted event\n          uint maxQuorum = DCPoA.getMemberCount();\n          //sets maxQuorum equal to total # of members\n          bool tally = set_Quorum(voteID, maxQuorum);\n          //sets tally to either true of false depending if the # of votes is\n          //greater than 60% of the total # of members\n          if(tally) {\n            ideaBlockVote(_ideaProposalID);\n            //fires of the vote tally function\n          }\n      }\n\n\n  // allows members to vote on proposals\n  ///@notice ideaBlockVote counts the votes and executes and Idea Proposal, adding an idea to the cryptopatent Blockchain\n  ///@dev seperate but similiar structures will need to be implemented in the future to stream line voting on different subjects(beta)\n  function ideaBlockVote(uint _ideaProposalID) internal {\n          IdeaProposal storage p = ideaProposals[_ideaProposalID];\n               // sets p equal to the specific proposalNumbers struct\n          string memory _ideahash = p.IdeaIPFS;\n          uint _globalUseBlockAmount = p.globalUseBlockAmount;\n          uint _miningTime = p.miningTime;\n          uint _royalty = p.royalty;\n          uint _stakeAmount = p.stakeAmount;\n          address _inventor = p.inventorAddress;\n          address _invention = p.inventionAddress;\n\n          uint yea = 0;\n          uint nay = 0;\n\n      for (uint i = 0; i <  p.votes.length; ++i) {\n          Vote storage v = p.votes[i];\n          uint voteWeight = 1;\n          if (v.inSupport) {\n            yea += voteWeight;\n               } else {\n             nay += voteWeight;\n                   }\n               }\n\n               if (yea > nay ) {\n                   // Proposal passed; execute the transaction\n                 p.executed = true;\n                 p.proposalPassed = true;\n                 generateIdeaBlock( _ideahash, _globalUseBlockAmount, _miningTime, _royalty, _stakeAmount, _inventor, _invention);\n                 emit IdeaApproved( _ideahash);\n             } else {\n                   // Proposal failed\n                 p.proposalPassed = false;\n                 p.executed = true;\n             }\n        }\n\n        ///@notice stakeReplicatorWallet function allows for the activation of a replication wallet by\n        ///        burning Notio from the msg.sender\n        ///@dev stakeReplicatorWallet costs 100 DCPoA and burns them from existence\n          function stakeReplicatorWallet(string memory _hash, string memory _userId) public {\n            DCPoA.proxyNTCBurn(msg.sender, 100000000000000000000);\n            DCPoA._addMember(msg.sender, _userId);\n            DCPoA.setProfileHash(msg.sender, _hash);\n            emit NewMember(msg.sender);\n          }\n\n            ///@notice the following functions allow for easier access to info by both the front end and other contracts\n            ///@dev all the following contracts allow for the retreval of token block information\n              function checkIfRep(address _add) external view returns(bool) {\n                return replications[_add];\n              }\n\n\n              function getID(address _ideaAdd) public view returns(uint){\n                return IdeaAddToId[_ideaAdd];\n              }\n\n              function setValidatorContract(address _valCon) public onlyOwner {\n                    Validators = RelayedOwnedSet(_valCon);\n              }\n\n              function setDCPoA(DecentraCorp _dcpoa) public onlyOwner {\n                DCPoA = DecentraCorp(_dcpoa);\n              }\n\n              function checkIfVotedIdea(address _add, uint _ideaProposalID) public view returns(bool) {\n                IdeaProposal storage p = ideaProposals[_ideaProposalID];\n                return p.voted[_add];\n              }\n\n              ///@notice getPropID function allows one to rerieve a proposal ID by its ipfs hash\n///@dev getPropID is made for easier front end interaction\nfunction getPropID(string memory hash) public view returns(uint){\n  return getHash[hash];\n}\n\n\n}\n",
  "sourcePath": "/home/stan36/repos/DecentraCorpContracts/contracts/CryptoPatent/CryptoPatentBlockchain.sol",
  "compiler": {
    "name": "solc",
    "version": "0.5.0+commit.1d4f565a.Emscripten.clang"
  },
  "schemaVersion": "3.0.2",
  "updatedAt": "2019-04-19T02:07:16.421Z",
  "devdoc": {
    "methods": {
      "checkIfRep(address)": {
        "details": "all the following contracts allow for the retreval of token block information"
      },
      "generateReplicationBlock(uint256,address,string)": {
        "details": "this requires the replicator has enough Notio to meet the stake amount and burns it from existenceit also adds the replicator as a member of DecentraCorpfinally, this contract calls the Proof of Replication Ownership contract and mints a PoRO token to the msg.sender"
      },
      "generateUseBlockWeight()": {
        "details": "this is called by generateUseBlockWeight"
      },
      "getPropID(string)": {
        "details": "getPropID is made for easier front end interaction"
      },
      "initialize(address)": {
        "details": "The Ownable constructor sets the original `owner` of the contract to the sender account."
      },
      "isOwner()": {
        "return": "true if `msg.sender` is the owner of the contract."
      },
      "owner()": {
        "return": "the address of the owner."
      },
      "proposeIdea(string,uint256,uint256,uint256,uint256,address,address)": {
        "details": "the struct for this is set in interface.solidityidea proposals are put up for community approval"
      },
      "renounceOwnership()": {
        "details": "Allows the current owner to relinquish control of the contract."
      },
      "stakeReplicatorWallet(string,string)": {
        "details": "stakeReplicatorWallet costs 100 DCPoA and burns them from existence"
      },
      "transferOwnership(address)": {
        "details": "Allows the current owner to transfer control of the contract to a newOwner.",
        "params": {
          "newOwner": "The address to transfer ownership to."
        }
      }
    }
  },
  "userdoc": {
    "methods": {
      "checkIfRep(address)": {
        "notice": "the following functions allow for easier access to info by both the front end and other contracts"
      },
      "generateReplicationBlock(uint256,address,string)": {
        "notice": "generateReplicationBlock is used to generate a replication block when someone sucessfully replicates an Idea"
      },
      "generateUseBlockWeight()": {
        "notice": "UseBlockWeight is an internal function that tracks loacal use weightTracker"
      },
      "getPropID(string)": {
        "notice": "getPropID function allows one to rerieve a proposal ID by its ipfs hash"
      },
      "ideaVote(uint256,bool)": {
        "notice": "vote is a member only function which allows DecentraCorp members to vote on proposalPassed"
      },
      "proposeIdea(string,uint256,uint256,uint256,uint256,address,address)": {
        "notice": "proposeIdea is used to allow ANYONE to petition the community for idea approval"
      },
      "renounceOwnership()": {
        "notice": "Renouncing to ownership will leave the contract without an owner. It will not be possible to call the functions with the `onlyOwner` modifier anymore."
      },
      "stakeReplicatorWallet(string,string)": {
        "notice": "stakeReplicatorWallet function allows for the activation of a replication wallet by        burning Notio from the msg.sender"
      }
    }
  }
}