{
  "contractName": "CryptoPatentBlockchain",
  "abi": [
    {
      "constant": true,
      "inputs": [
        {
          "name": "numerator",
          "type": "uint256"
        },
        {
          "name": "denominator",
          "type": "uint256"
        },
        {
          "name": "precision",
          "type": "uint256"
        }
      ],
      "name": "percent",
      "outputs": [
        {
          "name": "quotient",
          "type": "uint256"
        }
      ],
      "payable": false,
      "stateMutability": "pure",
      "type": "function"
    },
    {
      "constant": true,
      "inputs": [
        {
          "name": "hash",
          "type": "string"
        }
      ],
      "name": "getPropID",
      "outputs": [
        {
          "name": "",
          "type": "uint256"
        }
      ],
      "payable": false,
      "stateMutability": "view",
      "type": "function"
    },
    {
      "constant": true,
      "inputs": [
        {
          "name": "",
          "type": "address"
        }
      ],
      "name": "localMiningtimeTracker",
      "outputs": [
        {
          "name": "",
          "type": "uint256"
        }
      ],
      "payable": false,
      "stateMutability": "view",
      "type": "function"
    },
    {
      "constant": true,
      "inputs": [
        {
          "name": "",
          "type": "uint256"
        }
      ],
      "name": "ideaProposals",
      "outputs": [
        {
          "name": "IdeaIPFS",
          "type": "string"
        },
        {
          "name": "IdeaBlock",
          "type": "bool"
        },
        {
          "name": "executed",
          "type": "bool"
        },
        {
          "name": "globalUseBlockAmount",
          "type": "uint256"
        },
        {
          "name": "royalty",
          "type": "uint256"
        },
        {
          "name": "miningTime",
          "type": "uint256"
        },
        {
          "name": "stakeAmount",
          "type": "uint256"
        },
        {
          "name": "levelRequirement",
          "type": "uint256"
        },
        {
          "name": "inventorAddress",
          "type": "address"
        },
        {
          "name": "inventionAddress",
          "type": "address"
        }
      ],
      "payable": false,
      "stateMutability": "view",
      "type": "function"
    },
    {
      "constant": true,
      "inputs": [
        {
          "name": "_mem",
          "type": "address"
        }
      ],
      "name": "getOwnedIB",
      "outputs": [
        {
          "name": "",
          "type": "uint256[]"
        }
      ],
      "payable": false,
      "stateMutability": "view",
      "type": "function"
    },
    {
      "constant": true,
      "inputs": [],
      "name": "ideaBlockReward",
      "outputs": [
        {
          "name": "",
          "type": "uint256"
        }
      ],
      "payable": false,
      "stateMutability": "view",
      "type": "function"
    },
    {
      "constant": true,
      "inputs": [
        {
          "name": "numOfvotes",
          "type": "uint256"
        },
        {
          "name": "numOfmem",
          "type": "uint256"
        }
      ],
      "name": "setVoteNumberQuorum",
      "outputs": [
        {
          "name": "",
          "type": "bool"
        }
      ],
      "payable": false,
      "stateMutability": "pure",
      "type": "function"
    },
    {
      "constant": true,
      "inputs": [],
      "name": "globalBlockHalfTime",
      "outputs": [
        {
          "name": "",
          "type": "uint256"
        }
      ],
      "payable": false,
      "stateMutability": "view",
      "type": "function"
    },
    {
      "constant": true,
      "inputs": [
        {
          "name": "",
          "type": "address"
        },
        {
          "name": "",
          "type": "uint256"
        }
      ],
      "name": "repOwnes",
      "outputs": [
        {
          "name": "",
          "type": "uint256"
        }
      ],
      "payable": false,
      "stateMutability": "view",
      "type": "function"
    },
    {
      "constant": true,
      "inputs": [
        {
          "name": "_add",
          "type": "address"
        },
        {
          "name": "_ideaProposalID",
          "type": "uint256"
        }
      ],
      "name": "checkIfVotedIdea",
      "outputs": [
        {
          "name": "",
          "type": "bool"
        }
      ],
      "payable": false,
      "stateMutability": "view",
      "type": "function"
    },
    {
      "constant": true,
      "inputs": [
        {
          "name": "",
          "type": "address"
        }
      ],
      "name": "IdeaAddToId",
      "outputs": [
        {
          "name": "",
          "type": "uint256"
        }
      ],
      "payable": false,
      "stateMutability": "view",
      "type": "function"
    },
    {
      "constant": false,
      "inputs": [
        {
          "name": "_ideaIPFS",
          "type": "string"
        },
        {
          "name": "_globalUseBlockAmount",
          "type": "uint256"
        },
        {
          "name": "_miningTime",
          "type": "uint256"
        },
        {
          "name": "_royalty",
          "type": "uint256"
        },
        {
          "name": "_stakeAmount",
          "type": "uint256"
        },
        {
          "name": "_levelRequirement",
          "type": "uint256"
        },
        {
          "name": "_inventor",
          "type": "address"
        },
        {
          "name": "_invention",
          "type": "address"
        }
      ],
      "name": "proposeIdea",
      "outputs": [],
      "payable": false,
      "stateMutability": "nonpayable",
      "type": "function"
    },
    {
      "constant": true,
      "inputs": [
        {
          "name": "",
          "type": "address"
        }
      ],
      "name": "repInfo",
      "outputs": [
        {
          "name": "BlockReward",
          "type": "uint256"
        },
        {
          "name": "IdeaID",
          "type": "uint256"
        },
        {
          "name": "Royalty",
          "type": "uint256"
        },
        {
          "name": "InventorsAddress",
          "type": "address"
        },
        {
          "name": "ReplicationAddress",
          "type": "address"
        },
        {
          "name": "ReplicationMember",
          "type": "address"
        },
        {
          "name": "OwnersAddress",
          "type": "address"
        },
        {
          "name": "DeviceLockHash",
          "type": "string"
        }
      ],
      "payable": false,
      "stateMutability": "view",
      "type": "function"
    },
    {
      "constant": false,
      "inputs": [],
      "name": "renounceOwnership",
      "outputs": [],
      "payable": false,
      "stateMutability": "nonpayable",
      "type": "function"
    },
    {
      "constant": true,
      "inputs": [],
      "name": "globalUseBlock",
      "outputs": [
        {
          "name": "",
          "type": "uint256"
        }
      ],
      "payable": false,
      "stateMutability": "view",
      "type": "function"
    },
    {
      "constant": true,
      "inputs": [
        {
          "name": "",
          "type": "uint256"
        }
      ],
      "name": "weightTracker",
      "outputs": [
        {
          "name": "",
          "type": "uint256"
        }
      ],
      "payable": false,
      "stateMutability": "view",
      "type": "function"
    },
    {
      "constant": true,
      "inputs": [],
      "name": "owner",
      "outputs": [
        {
          "name": "",
          "type": "address"
        }
      ],
      "payable": false,
      "stateMutability": "view",
      "type": "function"
    },
    {
      "constant": false,
      "inputs": [
        {
          "name": "_newOwner",
          "type": "address"
        },
        {
          "name": "_ideaProposalID",
          "type": "uint256"
        }
      ],
      "name": "transferIdeaBlock",
      "outputs": [],
      "payable": false,
      "stateMutability": "nonpayable",
      "type": "function"
    },
    {
      "constant": true,
      "inputs": [],
      "name": "isOwner",
      "outputs": [
        {
          "name": "",
          "type": "bool"
        }
      ],
      "payable": false,
      "stateMutability": "view",
      "type": "function"
    },
    {
      "constant": false,
      "inputs": [
        {
          "name": "_ideaId",
          "type": "uint256"
        },
        {
          "name": "_repAdd",
          "type": "address"
        },
        {
          "name": "_repOwner",
          "type": "address"
        },
        {
          "name": "_userId",
          "type": "string"
        },
        {
          "name": "_DLhash",
          "type": "string"
        }
      ],
      "name": "generateReplicationBlock",
      "outputs": [],
      "payable": false,
      "stateMutability": "nonpayable",
      "type": "function"
    },
    {
      "constant": true,
      "inputs": [
        {
          "name": "",
          "type": "address"
        }
      ],
      "name": "localWeightTracker",
      "outputs": [
        {
          "name": "",
          "type": "uint256"
        }
      ],
      "payable": false,
      "stateMutability": "view",
      "type": "function"
    },
    {
      "constant": true,
      "inputs": [
        {
          "name": "numOfvotes",
          "type": "uint256"
        },
        {
          "name": "numOfmem",
          "type": "uint256"
        }
      ],
      "name": "setVoteQuorum",
      "outputs": [
        {
          "name": "",
          "type": "bool"
        }
      ],
      "payable": false,
      "stateMutability": "pure",
      "type": "function"
    },
    {
      "constant": true,
      "inputs": [
        {
          "name": "",
          "type": "address"
        }
      ],
      "name": "replications",
      "outputs": [
        {
          "name": "",
          "type": "bool"
        }
      ],
      "payable": false,
      "stateMutability": "view",
      "type": "function"
    },
    {
      "constant": true,
      "inputs": [],
      "name": "DCPoA",
      "outputs": [
        {
          "name": "",
          "type": "address"
        }
      ],
      "payable": false,
      "stateMutability": "view",
      "type": "function"
    },
    {
      "constant": true,
      "inputs": [
        {
          "name": "",
          "type": "uint256"
        }
      ],
      "name": "ideaUpgradeProposals",
      "outputs": [
        {
          "name": "uIdeaIPFS",
          "type": "string"
        },
        {
          "name": "uexecuted",
          "type": "bool"
        },
        {
          "name": "uglobalUseBlockAmount",
          "type": "uint256"
        },
        {
          "name": "uroyalty",
          "type": "uint256"
        },
        {
          "name": "uminingTime",
          "type": "uint256"
        },
        {
          "name": "ustakeAmount",
          "type": "uint256"
        },
        {
          "name": "ulevelRequirement",
          "type": "uint256"
        },
        {
          "name": "uinventorAddress",
          "type": "address"
        },
        {
          "name": "uinventionAddress",
          "type": "address"
        }
      ],
      "payable": false,
      "stateMutability": "view",
      "type": "function"
    },
    {
      "constant": false,
      "inputs": [
        {
          "name": "_DLhash",
          "type": "string"
        }
      ],
      "name": "generateUseBlockWeight",
      "outputs": [],
      "payable": false,
      "stateMutability": "nonpayable",
      "type": "function"
    },
    {
      "constant": false,
      "inputs": [
        {
          "name": "newOwner",
          "type": "address"
        }
      ],
      "name": "transferOwnership",
      "outputs": [],
      "payable": false,
      "stateMutability": "nonpayable",
      "type": "function"
    },
    {
      "constant": true,
      "inputs": [
        {
          "name": "",
          "type": "uint256"
        }
      ],
      "name": "ideaRepCounter",
      "outputs": [
        {
          "name": "",
          "type": "uint256"
        }
      ],
      "payable": false,
      "stateMutability": "view",
      "type": "function"
    },
    {
      "constant": true,
      "inputs": [],
      "name": "Validators",
      "outputs": [
        {
          "name": "",
          "type": "address"
        }
      ],
      "payable": false,
      "stateMutability": "view",
      "type": "function"
    },
    {
      "constant": true,
      "inputs": [],
      "name": "globalIdeaPropCount",
      "outputs": [
        {
          "name": "",
          "type": "uint256"
        }
      ],
      "payable": false,
      "stateMutability": "view",
      "type": "function"
    },
    {
      "anonymous": false,
      "inputs": [
        {
          "indexed": false,
          "name": "IPFS",
          "type": "string"
        }
      ],
      "name": "IdeaProposed",
      "type": "event"
    },
    {
      "anonymous": false,
      "inputs": [
        {
          "indexed": false,
          "name": "member",
          "type": "address"
        }
      ],
      "name": "NewMember",
      "type": "event"
    },
    {
      "anonymous": false,
      "inputs": [
        {
          "indexed": false,
          "name": "IPFS",
          "type": "string"
        },
        {
          "indexed": false,
          "name": "Inventor",
          "type": "address"
        }
      ],
      "name": "IdeaApproved",
      "type": "event"
    },
    {
      "anonymous": false,
      "inputs": [
        {
          "indexed": false,
          "name": "_voter",
          "type": "address"
        },
        {
          "indexed": false,
          "name": "inSupport",
          "type": "bool"
        }
      ],
      "name": "Voted",
      "type": "event"
    },
    {
      "anonymous": false,
      "inputs": [
        {
          "indexed": false,
          "name": "_repAdd",
          "type": "address"
        },
        {
          "indexed": false,
          "name": "repOwner",
          "type": "address"
        }
      ],
      "name": "NewReplication",
      "type": "event"
    },
    {
      "anonymous": false,
      "inputs": [
        {
          "indexed": false,
          "name": "repAdd",
          "type": "address"
        },
        {
          "indexed": false,
          "name": "reOwner",
          "type": "address"
        },
        {
          "indexed": false,
          "name": "repWeight",
          "type": "uint256"
        }
      ],
      "name": "LocalUseWeight",
      "type": "event"
    },
    {
      "anonymous": false,
      "inputs": [
        {
          "indexed": false,
          "name": "repAdd",
          "type": "address"
        },
        {
          "indexed": false,
          "name": "reOwner",
          "type": "address"
        },
        {
          "indexed": false,
          "name": "ideaId",
          "type": "uint256"
        }
      ],
      "name": "GlobalUseBlock",
      "type": "event"
    },
    {
      "anonymous": false,
      "inputs": [
        {
          "indexed": true,
          "name": "previousOwner",
          "type": "address"
        },
        {
          "indexed": true,
          "name": "newOwner",
          "type": "address"
        }
      ],
      "name": "OwnershipTransferred",
      "type": "event"
    },
    {
      "constant": false,
      "inputs": [],
      "name": "initialize",
      "outputs": [],
      "payable": false,
      "stateMutability": "nonpayable",
      "type": "function"
    },
    {
      "constant": false,
      "inputs": [
        {
          "name": "sender",
          "type": "address"
        }
      ],
      "name": "initialize",
      "outputs": [],
      "payable": false,
      "stateMutability": "nonpayable",
      "type": "function"
    },
    {
      "constant": false,
      "inputs": [
        {
          "name": "_ideaIPFS",
          "type": "string"
        },
        {
          "name": "_globalUseBlockAmount",
          "type": "uint256"
        },
        {
          "name": "_miningTime",
          "type": "uint256"
        },
        {
          "name": "_royalty",
          "type": "uint256"
        },
        {
          "name": "_stakeAmount",
          "type": "uint256"
        },
        {
          "name": "_levelRequirement",
          "type": "uint256"
        },
        {
          "name": "_inventor",
          "type": "address"
        },
        {
          "name": "_invention",
          "type": "address"
        }
      ],
      "name": "proposeIdeaUpgrade",
      "outputs": [],
      "payable": false,
      "stateMutability": "nonpayable",
      "type": "function"
    },
    {
      "constant": false,
      "inputs": [
        {
          "name": "_ideaProposalID",
          "type": "uint256"
        },
        {
          "name": "supportsProposal",
          "type": "bool"
        }
      ],
      "name": "ideaVote",
      "outputs": [],
      "payable": false,
      "stateMutability": "nonpayable",
      "type": "function"
    },
    {
      "constant": true,
      "inputs": [
        {
          "name": "_add",
          "type": "address"
        }
      ],
      "name": "checkIfRep",
      "outputs": [
        {
          "name": "",
          "type": "bool"
        }
      ],
      "payable": false,
      "stateMutability": "view",
      "type": "function"
    },
    {
      "constant": true,
      "inputs": [
        {
          "name": "_ideaAdd",
          "type": "address"
        }
      ],
      "name": "getID",
      "outputs": [
        {
          "name": "",
          "type": "uint256"
        }
      ],
      "payable": false,
      "stateMutability": "view",
      "type": "function"
    },
    {
      "constant": false,
      "inputs": [
        {
          "name": "_valCon",
          "type": "address"
        }
      ],
      "name": "setValidatorContract",
      "outputs": [],
      "payable": false,
      "stateMutability": "nonpayable",
      "type": "function"
    },
    {
      "constant": false,
      "inputs": [
        {
          "name": "_dcpoa",
          "type": "address"
        }
      ],
      "name": "setDCPoA",
      "outputs": [],
      "payable": false,
      "stateMutability": "nonpayable",
      "type": "function"
    },
    {
      "constant": true,
      "inputs": [
        {
          "name": "_newOwner",
          "type": "address"
        },
        {
          "name": "_rep",
          "type": "address"
        }
      ],
      "name": "transferRepBlock",
      "outputs": [],
      "payable": false,
      "stateMutability": "view",
      "type": "function"
    }
  ],
  "bytecode": "0x60806040526148d7806100136000396000f3fe608060405234801561001057600080fd5b506004361061023c5760003560e01c80638da5cb5b1161013b578063cec58644116100b8578063f2bedeff1161007c578063f2bedeff146112b4578063f2fde38b1461136f578063f54a0129146113b3578063f6919774146113f5578063f7e1e4f01461143f5761023c565b8063cec586441461101f578063d436b5e91461106f578063e026daa1146110cb578063ed92ce2d14611115578063ee013096146111795761023c565b8063aa59fea4116100ff578063aa59fea414610c75578063b4cecb8e14610e11578063c4d66de814610f3f578063cdf64a7614610f83578063ce87d3ee14610fc75761023c565b80638da5cb5b14610b075780638da9c0b614610b515780638eb5b91314610b9f5780638f32d59b14610bfb57806399f826a514610c1d5761023c565b80632e858cce116101c95780636849e7951161018d5780636849e795146108f5578063715018a614610a935780637582497414610a9d5780638129fc1c14610abb57806381cbb67714610ac55761023c565b80632e858cce1461066357806343110e6f146106c55780634e6a3630146107095780634f214e841461076f578063649298b4146107c75761023c565b80631855efa6116102105780631855efa6146103f85780631ad8a2011461053e5780631ddc883b146105d75780632240d03b146105f557806328a6e47c146106455761023c565b80622c1a9e1461024157806310734e431461029757806311e658441461036657806314111141146103be575b600080fd5b6102816004803603606081101561025757600080fd5b8101908080359060200190929190803590602001909291908035906020019092919050505061145d565b6040518082815260200191505060405180910390f35b610350600480360360208110156102ad57600080fd5b81019080803590602001906401000000008111156102ca57600080fd5b8201836020820111156102dc57600080fd5b803590602001918460018302840111640100000000831117156102fe57600080fd5b91908080601f016020809104026020016040519081016040528093929190818152602001838380828437600081840152601f19601f820116905080830192505050505050509192919290505050611492565b6040518082815260200191505060405180910390f35b6103a86004803603602081101561037c57600080fd5b81019080803573ffffffffffffffffffffffffffffffffffffffff169060200190929190505050611505565b6040518082815260200191505060405180910390f35b6103f6600480360360408110156103d457600080fd5b810190808035906020019092919080351515906020019092919050505061151d565b005b6104246004803603602081101561040e57600080fd5b81019080803590602001909291905050506119c2565b60405180806020018b1515151581526020018a1515151581526020018981526020018881526020018781526020018681526020018581526020018473ffffffffffffffffffffffffffffffffffffffff1673ffffffffffffffffffffffffffffffffffffffff1681526020018373ffffffffffffffffffffffffffffffffffffffff1673ffffffffffffffffffffffffffffffffffffffff16815260200182810382528c818151815260200191508051906020019080838360005b838110156104fa5780820151818401526020810190506104df565b50505050905090810190601f1680156105275780820380516001836020036101000a031916815260200191505b509b50505050505050505050505060405180910390f35b6105806004803603602081101561055457600080fd5b81019080803573ffffffffffffffffffffffffffffffffffffffff169060200190929190505050611b08565b6040518080602001828103825283818151815260200191508051906020019060200280838360005b838110156105c35780820151818401526020810190506105a8565b505050509050019250505060405180910390f35b6105df611b9f565b6040518082815260200191505060405180910390f35b61062b6004803603604081101561060b57600080fd5b810190808035906020019092919080359060200190929190505050611ba5565b604051808215151515815260200191505060405180910390f35b61064d611bd4565b6040518082815260200191505060405180910390f35b6106af6004803603604081101561067957600080fd5b81019080803573ffffffffffffffffffffffffffffffffffffffff16906020019092919080359060200190929190505050611bda565b6040518082815260200191505060405180910390f35b610707600480360360208110156106db57600080fd5b81019080803573ffffffffffffffffffffffffffffffffffffffff169060200190929190505050611bff565b005b6107556004803603604081101561071f57600080fd5b81019080803573ffffffffffffffffffffffffffffffffffffffff16906020019092919080359060200190929190505050611c54565b604051808215151515815260200191505060405180910390f35b6107b16004803603602081101561078557600080fd5b81019080803573ffffffffffffffffffffffffffffffffffffffff169060200190929190505050611cc4565b6040518082815260200191505060405180910390f35b6108f360048036036101008110156107de57600080fd5b81019080803590602001906401000000008111156107fb57600080fd5b82018360208201111561080d57600080fd5b8035906020019184600183028401116401000000008311171561082f57600080fd5b91908080601f016020809104026020016040519081016040528093929190818152602001838380828437600081840152601f19601f8201169050808301925050505050505091929192908035906020019092919080359060200190929190803590602001909291908035906020019092919080359060200190929190803573ffffffffffffffffffffffffffffffffffffffff169060200190929190803573ffffffffffffffffffffffffffffffffffffffff169060200190929190505050611cdc565b005b6109376004803603602081101561090b57600080fd5b81019080803573ffffffffffffffffffffffffffffffffffffffff169060200190929190505050611f36565b604051808981526020018881526020018781526020018673ffffffffffffffffffffffffffffffffffffffff1673ffffffffffffffffffffffffffffffffffffffff1681526020018573ffffffffffffffffffffffffffffffffffffffff1673ffffffffffffffffffffffffffffffffffffffff1681526020018473ffffffffffffffffffffffffffffffffffffffff1673ffffffffffffffffffffffffffffffffffffffff1681526020018373ffffffffffffffffffffffffffffffffffffffff1673ffffffffffffffffffffffffffffffffffffffff16815260200180602001828103825283818151815260200191508051906020019080838360005b83811015610a51578082015181840152602081019050610a36565b50505050905090810190601f168015610a7e5780820380516001836020036101000a031916815260200191505b50995050505050505050505060405180910390f35b610a9b612096565b005b610aa5612168565b6040518082815260200191505060405180910390f35b610ac361216e565b005b610af160048036036020811015610adb57600080fd5b810190808035906020019092919050505061228d565b6040518082815260200191505060405180910390f35b610b0f6122a5565b604051808273ffffffffffffffffffffffffffffffffffffffff1673ffffffffffffffffffffffffffffffffffffffff16815260200191505060405180910390f35b610b9d60048036036040811015610b6757600080fd5b81019080803573ffffffffffffffffffffffffffffffffffffffff169060200190929190803590602001909291905050506122cf565b005b610be160048036036020811015610bb557600080fd5b81019080803573ffffffffffffffffffffffffffffffffffffffff16906020019092919050505061238a565b604051808215151515815260200191505060405180910390f35b610c036123e0565b604051808215151515815260200191505060405180910390f35b610c5f60048036036020811015610c3357600080fd5b81019080803573ffffffffffffffffffffffffffffffffffffffff16906020019092919050505061243f565b6040518082815260200191505060405180910390f35b610e0f600480360360a0811015610c8b57600080fd5b8101908080359060200190929190803573ffffffffffffffffffffffffffffffffffffffff169060200190929190803573ffffffffffffffffffffffffffffffffffffffff16906020019092919080359060200190640100000000811115610cf257600080fd5b820183602082011115610d0457600080fd5b80359060200191846001830284011164010000000083111715610d2657600080fd5b91908080601f016020809104026020016040519081016040528093929190818152602001838380828437600081840152601f19601f82011690508083019250505050505050919291929080359060200190640100000000811115610d8957600080fd5b820183602082011115610d9b57600080fd5b80359060200191846001830284011164010000000083111715610dbd57600080fd5b91908080601f016020809104026020016040519081016040528093929190818152602001838380828437600081840152601f19601f820116905080830192505050505050509192919290505050612488565b005b610f3d6004803603610100811015610e2857600080fd5b8101908080359060200190640100000000811115610e4557600080fd5b820183602082011115610e5757600080fd5b80359060200191846001830284011164010000000083111715610e7957600080fd5b91908080601f016020809104026020016040519081016040528093929190818152602001838380828437600081840152601f19601f8201169050808301925050505050505091929192908035906020019092919080359060200190929190803590602001909291908035906020019092919080359060200190929190803573ffffffffffffffffffffffffffffffffffffffff169060200190929190803573ffffffffffffffffffffffffffffffffffffffff169060200190929190505050612da9565b005b610f8160048036036020811015610f5557600080fd5b81019080803573ffffffffffffffffffffffffffffffffffffffff169060200190929190505050612fbf565b005b610fc560048036036020811015610f9957600080fd5b81019080803573ffffffffffffffffffffffffffffffffffffffff16906020019092919050505061317d565b005b61100960048036036020811015610fdd57600080fd5b81019080803573ffffffffffffffffffffffffffffffffffffffff1690602001909291905050506131d2565b6040518082815260200191505060405180910390f35b6110556004803603604081101561103557600080fd5b8101908080359060200190929190803590602001909291905050506131ea565b604051808215151515815260200191505060405180910390f35b6110b16004803603602081101561108557600080fd5b81019080803573ffffffffffffffffffffffffffffffffffffffff169060200190929190505050613219565b604051808215151515815260200191505060405180910390f35b6110d3613239565b604051808273ffffffffffffffffffffffffffffffffffffffff1673ffffffffffffffffffffffffffffffffffffffff16815260200191505060405180910390f35b6111776004803603604081101561112b57600080fd5b81019080803573ffffffffffffffffffffffffffffffffffffffff169060200190929190803573ffffffffffffffffffffffffffffffffffffffff16906020019092919050505061325f565b005b6111a56004803603602081101561118f57600080fd5b8101908080359060200190929190505050613545565b60405180806020018a1515151581526020018981526020018881526020018781526020018681526020018581526020018473ffffffffffffffffffffffffffffffffffffffff1673ffffffffffffffffffffffffffffffffffffffff1681526020018373ffffffffffffffffffffffffffffffffffffffff1673ffffffffffffffffffffffffffffffffffffffff16815260200182810382528b818151815260200191508051906020019080838360005b83811015611271578082015181840152602081019050611256565b50505050905090810190601f16801561129e5780820380516001836020036101000a031916815260200191505b509a505050505050505050505060405180910390f35b61136d600480360360208110156112ca57600080fd5b81019080803590602001906401000000008111156112e757600080fd5b8201836020820111156112f957600080fd5b8035906020019184600183028401116401000000008311171561131b57600080fd5b91908080601f016020809104026020016040519081016040528093929190818152602001838380828437600081840152601f19601f820116905080830192505050505050509192919290505050613678565b005b6113b16004803603602081101561138557600080fd5b81019080803573ffffffffffffffffffffffffffffffffffffffff169060200190929190505050613ce9565b005b6113df600480360360208110156113c957600080fd5b8101908080359060200190929190505050613d06565b6040518082815260200191505060405180910390f35b6113fd613d1e565b604051808273ffffffffffffffffffffffffffffffffffffffff1673ffffffffffffffffffffffffffffffffffffffff16815260200191505060405180910390f35b611447613d44565b6040518082815260200191505060405180910390f35b60008060018301600a0a850290506000600a600586848161147a57fe5b04018161148357fe5b04905080925050509392505050565b60006076826040518082805190602001908083835b602083106114ca57805182526020820191506020810190506020830392506114a7565b6001836020036101000a0380198251168184511680821785525050505050509050019150509081526020016040518091039020549050919050565b60726020528060005260406000206000915090505481565b60011515606660009054906101000a900473ffffffffffffffffffffffffffffffffffffffff1673ffffffffffffffffffffffffffffffffffffffff1663aaa746bb336040518263ffffffff1660e01b8152600401808273ffffffffffffffffffffffffffffffffffffffff1673ffffffffffffffffffffffffffffffffffffffff16815260200191505060206040518083038186803b1580156115c057600080fd5b505afa1580156115d4573d6000803e3d6000fd5b505050506040513d60208110156115ea57600080fd5b810190808051906020019092919050505015151461160757600080fd5b6000606e600084815260200190815260200160002090506001151581600a0160003373ffffffffffffffffffffffffffffffffffffffff1673ffffffffffffffffffffffffffffffffffffffff16815260200190815260200160002060009054906101000a900460ff161515141561167e57600080fd5b600115158160010160009054906101000a900460ff16151514156116a157600080fd5b60008160090180548091906001016116b9919061462e565b9050604051806040016040528084151581526020013373ffffffffffffffffffffffffffffffffffffffff168152508260090182815481106116f757fe5b9060005260206000200160008201518160000160006101000a81548160ff02191690831515021790555060208201518160000160016101000a81548173ffffffffffffffffffffffffffffffffffffffff021916908373ffffffffffffffffffffffffffffffffffffffff160217905550905050600182600a0160003373ffffffffffffffffffffffffffffffffffffffff1673ffffffffffffffffffffffffffffffffffffffff16815260200190815260200160002060006101000a81548160ff021916908315150217905550606660009054906101000a900473ffffffffffffffffffffffffffffffffffffffff1673ffffffffffffffffffffffffffffffffffffffff16634777e8ea336040518263ffffffff1660e01b8152600401808273ffffffffffffffffffffffffffffffffffffffff1673ffffffffffffffffffffffffffffffffffffffff168152602001915050600060405180830381600087803b15801561186657600080fd5b505af115801561187a573d6000803e3d6000fd5b505050507f8eb81cb806dbb3d8a2f94981614331a55dfd90e06a42fdc362ca3ca96981d92f3384604051808373ffffffffffffffffffffffffffffffffffffffff1673ffffffffffffffffffffffffffffffffffffffff168152602001821515151581526020019250505060405180910390a16000606660009054906101000a900473ffffffffffffffffffffffffffffffffffffffff1673ffffffffffffffffffffffffffffffffffffffff1663997072f76040518163ffffffff1660e01b815260040160206040518083038186803b15801561195757600080fd5b505afa15801561196b573d6000803e3d6000fd5b505050506040513d602081101561198157600080fd5b8101908080519060200190929190505050905060006119a78460090180549050836131ea565b905080156119ba576119b98683613d4a565b5b505050505050565b606d602052806000526040600020600091509050806000018054600181600116156101000203166002900480601f016020809104026020016040519081016040528092919081815260200182805460018160011615610100020316600290048015611a6e5780601f10611a4357610100808354040283529160200191611a6e565b820191906000526020600020905b815481529060010190602001808311611a5157829003601f168201915b5050505050908060010160009054906101000a900460ff16908060010160019054906101000a900460ff16908060020154908060030154908060040154908060050154908060060154908060070160009054906101000a900473ffffffffffffffffffffffffffffffffffffffff16908060080160009054906101000a900473ffffffffffffffffffffffffffffffffffffffff1690508a565b6060607760008373ffffffffffffffffffffffffffffffffffffffff1673ffffffffffffffffffffffffffffffffffffffff168152602001908152602001600020805480602002602001604051908101604052809291908181526020018280548015611b9357602002820191906000526020600020905b815481526020019060010190808311611b7f575b50505050509050919050565b60695481565b600080611bb48484600261145d565b9050603c8110611bc8576001915050611bce565b60009150505b92915050565b60685481565b6075602052816000526040600020602052806000526040600020600091509150505481565b611c076123e0565b611c1057600080fd5b80606660006101000a81548173ffffffffffffffffffffffffffffffffffffffff021916908373ffffffffffffffffffffffffffffffffffffffff16021790555050565b600080606d6000848152602001908152602001600020905080600a0160008573ffffffffffffffffffffffffffffffffffffffff1673ffffffffffffffffffffffffffffffffffffffff16815260200190815260200160002060009054906101000a900460ff1691505092915050565b606c6020528060005260406000206000915090505481565b606a60008154809291906001019190505550606a546076896040518082805190602001908083835b60208310611d275780518252602082019150602081019050602083039250611d04565b6001836020036101000a0380198251168184511680821785525050505050509050019150509081526020016040518091039020819055506000606486890281611d6c57fe5b0490506000606d6000606a548152602001908152602001600020905089816000019080519060200190611da092919061465a565b5060008160010160006101000a81548160ff02191690831515021790555060008160010160016101000a81548160ff021916908315150217905550888160020181905550818160030181905550858160050181905550848160060181905550878160040181905550838160070160006101000a81548173ffffffffffffffffffffffffffffffffffffffff021916908373ffffffffffffffffffffffffffffffffffffffff160217905550828160080160006101000a81548173ffffffffffffffffffffffffffffffffffffffff021916908373ffffffffffffffffffffffffffffffffffffffff1602179055507f544a88757adcb29711e2e12a617fb44221880d5013615cf2dbbdb37f5d5059738a6040518080602001828103825283818151815260200191508051906020019080838360005b83811015611ef0578082015181840152602081019050611ed5565b50505050905090810190601f168015611f1d5780820380516001836020036101000a031916815260200191505b509250505060405180910390a150505050505050505050565b60746020528060005260406000206000915090508060000154908060010154908060020154908060030160009054906101000a900473ffffffffffffffffffffffffffffffffffffffff16908060040160009054906101000a900473ffffffffffffffffffffffffffffffffffffffff16908060050160009054906101000a900473ffffffffffffffffffffffffffffffffffffffff16908060060160009054906101000a900473ffffffffffffffffffffffffffffffffffffffff1690806007018054600181600116156101000203166002900480601f01602080910402602001604051908101604052809291908181526020018280546001816001161561010002031660029004801561208c5780601f106120615761010080835404028352916020019161208c565b820191906000526020600020905b81548152906001019060200180831161206f57829003601f168201915b5050505050905088565b61209e6123e0565b6120a757600080fd5b600073ffffffffffffffffffffffffffffffffffffffff16603360009054906101000a900473ffffffffffffffffffffffffffffffffffffffff1673ffffffffffffffffffffffffffffffffffffffff167f8be0079c531659141344cd1fd0a4f28419497f9722a3daafe3b4186f6b6457e060405160405180910390a36000603360006101000a81548173ffffffffffffffffffffffffffffffffffffffff021916908373ffffffffffffffffffffffffffffffffffffffff160217905550565b606b5481565b600060019054906101000a900460ff168061218d575061218c613f8a565b5b806121a457506000809054906101000a900460ff16155b6121f9576040517f08c379a000000000000000000000000000000000000000000000000000000000815260040180806020018281038252602e81526020018061487e602e913960400191505060405180910390fd5b60008060019054906101000a900460ff161590508015612249576001600060016101000a81548160ff02191690831515021790555060016000806101000a81548160ff0219169083151502179055505b61225233612fbf565b683635c9adc5dea0000060698190555042606881905550801561228a5760008060016101000a81548160ff0219169083151502179055505b50565b606f6020528060005260406000206000915090505481565b6000603360009054906101000a900473ffffffffffffffffffffffffffffffffffffffff16905090565b6000606d600083815260200190815260200160002090508060070160009054906101000a900473ffffffffffffffffffffffffffffffffffffffff1673ffffffffffffffffffffffffffffffffffffffff163373ffffffffffffffffffffffffffffffffffffffff161461234257600080fd5b828160070160006101000a81548173ffffffffffffffffffffffffffffffffffffffff021916908373ffffffffffffffffffffffffffffffffffffffff160217905550505050565b6000607360008373ffffffffffffffffffffffffffffffffffffffff1673ffffffffffffffffffffffffffffffffffffffff16815260200190815260200160002060009054906101000a900460ff169050919050565b6000603360009054906101000a900473ffffffffffffffffffffffffffffffffffffffff1673ffffffffffffffffffffffffffffffffffffffff16612423613f9b565b73ffffffffffffffffffffffffffffffffffffffff1614905090565b6000606c60008373ffffffffffffffffffffffffffffffffffffffff1673ffffffffffffffffffffffffffffffffffffffff168152602001908152602001600020549050919050565b6000606660009054906101000a900473ffffffffffffffffffffffffffffffffffffffff1673ffffffffffffffffffffffffffffffffffffffff1663dc8e79fb846040518263ffffffff1660e01b81526004018080602001828103825283818151815260200191508051906020019080838360005b838110156125185780820151818401526020810190506124fd565b50505050905090810190601f1680156125455780820380516001836020036101000a031916815260200191505b509250505060206040518083038186803b15801561256257600080fd5b505afa158015612576573d6000803e3d6000fd5b505050506040513d602081101561258c57600080fd5b810190808051906020019092919050505090506000606660009054906101000a900473ffffffffffffffffffffffffffffffffffffffff1673ffffffffffffffffffffffffffffffffffffffff1663817c8966836040518263ffffffff1660e01b8152600401808273ffffffffffffffffffffffffffffffffffffffff1673ffffffffffffffffffffffffffffffffffffffff16815260200191505060206040518083038186803b15801561264057600080fd5b505afa158015612654573d6000803e3d6000fd5b505050506040513d602081101561266a57600080fd5b810190808051906020019092919050505090506000606d60008981526020019081526020016000209050606660009054906101000a900473ffffffffffffffffffffffffffffffffffffffff1673ffffffffffffffffffffffffffffffffffffffff1663aaa746bb846040518263ffffffff1660e01b8152600401808273ffffffffffffffffffffffffffffffffffffffff1673ffffffffffffffffffffffffffffffffffffffff16815260200191505060206040518083038186803b15801561273357600080fd5b505afa158015612747573d6000803e3d6000fd5b505050506040513d602081101561275d57600080fd5b810190808051906020019092919050505061277757600080fd5b806006015482101561278857600080fd5b8060010160009054906101000a900460ff166127a357600080fd5b606660009054906101000a900473ffffffffffffffffffffffffffffffffffffffff1673ffffffffffffffffffffffffffffffffffffffff1663c812a6018483600501546040518363ffffffff1660e01b8152600401808373ffffffffffffffffffffffffffffffffffffffff1673ffffffffffffffffffffffffffffffffffffffff16815260200182815260200192505050600060405180830381600087803b15801561285057600080fd5b505af1158015612864573d6000803e3d6000fd5b5050505060008160030154826002015403905060008260070160009054906101000a900473ffffffffffffffffffffffffffffffffffffffff1690506000607460008b73ffffffffffffffffffffffffffffffffffffffff1673ffffffffffffffffffffffffffffffffffffffff16815260200190815260200160002090508281600001819055508a816001018190555083600301548160020181905550818160030160006101000a81548173ffffffffffffffffffffffffffffffffffffffff021916908373ffffffffffffffffffffffffffffffffffffffff160217905550898160040160006101000a81548173ffffffffffffffffffffffffffffffffffffffff021916908373ffffffffffffffffffffffffffffffffffffffff160217905550858160050160006101000a81548173ffffffffffffffffffffffffffffffffffffffff021916908373ffffffffffffffffffffffffffffffffffffffff160217905550888160060160006101000a81548173ffffffffffffffffffffffffffffffffffffffff021916908373ffffffffffffffffffffffffffffffffffffffff16021790555086816007019080519060200190612a2692919061465a565b50600073ffffffffffffffffffffffffffffffffffffffff168160060160009054906101000a900473ffffffffffffffffffffffffffffffffffffffff1673ffffffffffffffffffffffffffffffffffffffff161415612ac457858160060160006101000a81548173ffffffffffffffffffffffffffffffffffffffff021916908373ffffffffffffffffffffffffffffffffffffffff1602179055505b607160008c8152602001908152602001600020600081548092919060010191905055607160008d8152602001908152602001600020819055506001607360008c73ffffffffffffffffffffffffffffffffffffffff1673ffffffffffffffffffffffffffffffffffffffff16815260200190815260200160002060006101000a81548160ff021916908315150217905550607560008773ffffffffffffffffffffffffffffffffffffffff1673ffffffffffffffffffffffffffffffffffffffff16815260200190815260200160002060008c8152602001908152602001600020600081548092919060010191905055607560008873ffffffffffffffffffffffffffffffffffffffff1673ffffffffffffffffffffffffffffffffffffffff16815260200190815260200160002060008d815260200190815260200160002081905550606660009054906101000a900473ffffffffffffffffffffffffffffffffffffffff1673ffffffffffffffffffffffffffffffffffffffff16634777e8ea876040518263ffffffff1660e01b8152600401808273ffffffffffffffffffffffffffffffffffffffff1673ffffffffffffffffffffffffffffffffffffffff168152602001915050600060405180830381600087803b158015612ca957600080fd5b505af1158015612cbd573d6000803e3d6000fd5b5050505042607260008c73ffffffffffffffffffffffffffffffffffffffff1673ffffffffffffffffffffffffffffffffffffffff168152602001908152602001600020819055507f5f3846e5f661cdab5e659252fcf86d485b1390b32b8445afbc165881296513338a87604051808373ffffffffffffffffffffffffffffffffffffffff1673ffffffffffffffffffffffffffffffffffffffff1681526020018273ffffffffffffffffffffffffffffffffffffffff1673ffffffffffffffffffffffffffffffffffffffff1681526020019250505060405180910390a15050505050505050505050565b60006076896040518082805190602001908083835b60208310612de15780518252602082019150602081019050602083039250612dbe565b6001836020036101000a03801982511681845116808217855250505050505090500191505090815260200160405180910390205490506000606e6000838152602001908152602001600020905089816000019080519060200190612e4692919061465a565b5060008160010160006101000a81548160ff021916908315150217905550888160020181905550868160030181905550858160050181905550848160060181905550878160040181905550838160070160006101000a81548173ffffffffffffffffffffffffffffffffffffffff021916908373ffffffffffffffffffffffffffffffffffffffff160217905550828160080160006101000a81548173ffffffffffffffffffffffffffffffffffffffff021916908373ffffffffffffffffffffffffffffffffffffffff1602179055507f544a88757adcb29711e2e12a617fb44221880d5013615cf2dbbdb37f5d5059738a6040518080602001828103825283818151815260200191508051906020019080838360005b83811015612f79578082015181840152602081019050612f5e565b50505050905090810190601f168015612fa65780820380516001836020036101000a031916815260200191505b509250505060405180910390a150505050505050505050565b600060019054906101000a900460ff1680612fde5750612fdd613f8a565b5b80612ff557506000809054906101000a900460ff16155b61304a576040517f08c379a000000000000000000000000000000000000000000000000000000000815260040180806020018281038252602e81526020018061487e602e913960400191505060405180910390fd5b60008060019054906101000a900460ff16159050801561309a576001600060016101000a81548160ff02191690831515021790555060016000806101000a81548160ff0219169083151502179055505b81603360006101000a81548173ffffffffffffffffffffffffffffffffffffffff021916908373ffffffffffffffffffffffffffffffffffffffff160217905550603360009054906101000a900473ffffffffffffffffffffffffffffffffffffffff1673ffffffffffffffffffffffffffffffffffffffff16600073ffffffffffffffffffffffffffffffffffffffff167f8be0079c531659141344cd1fd0a4f28419497f9722a3daafe3b4186f6b6457e060405160405180910390a380156131795760008060016101000a81548160ff0219169083151502179055505b5050565b6131856123e0565b61318e57600080fd5b80606760006101000a81548173ffffffffffffffffffffffffffffffffffffffff021916908373ffffffffffffffffffffffffffffffffffffffff16021790555050565b60706020528060005260406000206000915090505481565b6000806131f98484600261145d565b90506050811061320d576001915050613213565b60009150505b92915050565b60736020528060005260406000206000915054906101000a900460ff1681565b606660009054906101000a900473ffffffffffffffffffffffffffffffffffffffff1681565b6132676146da565b607460008373ffffffffffffffffffffffffffffffffffffffff1673ffffffffffffffffffffffffffffffffffffffff168152602001908152602001600020604051806101000160405290816000820154815260200160018201548152602001600282015481526020016003820160009054906101000a900473ffffffffffffffffffffffffffffffffffffffff1673ffffffffffffffffffffffffffffffffffffffff1673ffffffffffffffffffffffffffffffffffffffff1681526020016004820160009054906101000a900473ffffffffffffffffffffffffffffffffffffffff1673ffffffffffffffffffffffffffffffffffffffff1673ffffffffffffffffffffffffffffffffffffffff1681526020016005820160009054906101000a900473ffffffffffffffffffffffffffffffffffffffff1673ffffffffffffffffffffffffffffffffffffffff1673ffffffffffffffffffffffffffffffffffffffff1681526020016006820160009054906101000a900473ffffffffffffffffffffffffffffffffffffffff1673ffffffffffffffffffffffffffffffffffffffff1673ffffffffffffffffffffffffffffffffffffffff168152602001600782018054600181600116156101000203166002900480601f0160208091040260200160405190810160405280929190818152602001828054600181600116156101000203166002900480156134c15780601f10613496576101008083540402835291602001916134c1565b820191906000526020600020905b8154815290600101906020018083116134a457829003601f168201915b50505050508152505090508060c0015173ffffffffffffffffffffffffffffffffffffffff163373ffffffffffffffffffffffffffffffffffffffff161461350857600080fd5b828160c0019073ffffffffffffffffffffffffffffffffffffffff16908173ffffffffffffffffffffffffffffffffffffffff1681525050505050565b606e602052806000526040600020600091509050806000018054600181600116156101000203166002900480601f0160208091040260200160405190810160405280929190818152602001828054600181600116156101000203166002900480156135f15780601f106135c6576101008083540402835291602001916135f1565b820191906000526020600020905b8154815290600101906020018083116135d457829003601f168201915b5050505050908060010160009054906101000a900460ff16908060020154908060030154908060040154908060050154908060060154908060070160009054906101000a900473ffffffffffffffffffffffffffffffffffffffff16908060080160009054906101000a900473ffffffffffffffffffffffffffffffffffffffff16905089565b607360003373ffffffffffffffffffffffffffffffffffffffff1673ffffffffffffffffffffffffffffffffffffffff16815260200190815260200160002060009054906101000a900460ff166136ce57600080fd5b60003390506136db6146da565b607460008373ffffffffffffffffffffffffffffffffffffffff1673ffffffffffffffffffffffffffffffffffffffff168152602001908152602001600020604051806101000160405290816000820154815260200160018201548152602001600282015481526020016003820160009054906101000a900473ffffffffffffffffffffffffffffffffffffffff1673ffffffffffffffffffffffffffffffffffffffff1673ffffffffffffffffffffffffffffffffffffffff1681526020016004820160009054906101000a900473ffffffffffffffffffffffffffffffffffffffff1673ffffffffffffffffffffffffffffffffffffffff1673ffffffffffffffffffffffffffffffffffffffff1681526020016005820160009054906101000a900473ffffffffffffffffffffffffffffffffffffffff1673ffffffffffffffffffffffffffffffffffffffff1673ffffffffffffffffffffffffffffffffffffffff1681526020016006820160009054906101000a900473ffffffffffffffffffffffffffffffffffffffff1673ffffffffffffffffffffffffffffffffffffffff1673ffffffffffffffffffffffffffffffffffffffff168152602001600782018054600181600116156101000203166002900480601f0160208091040260200160405190810160405280929190818152602001828054600181600116156101000203166002900480156139355780601f1061390a57610100808354040283529160200191613935565b820191906000526020600020905b81548152906001019060200180831161391857829003601f168201915b50505050508152505090508060e001516040516020018082805190602001908083835b6020831061397b5780518252602082019150602081019050602083039250613958565b6001836020036101000a03801982511681845116808217855250505050505090500191505060405160208183030381529060405280519060200120836040516020018082805190602001908083835b602083106139ed57805182526020820191506020810190506020830392506139ca565b6001836020036101000a0380198251168184511680821785525050505050509050019150506040516020818303038152906040528051906020012014613a3257600080fd5b6000816020015190506000606d6000838152602001908152602001600020905060006001607060008773ffffffffffffffffffffffffffffffffffffffff1673ffffffffffffffffffffffffffffffffffffffff168152602001908152602001600020540190508160040154607260008773ffffffffffffffffffffffffffffffffffffffff1673ffffffffffffffffffffffffffffffffffffffff1681526020019081526020016000205401421015613aeb57600080fd5b606f600084815260200190815260200160002054811115613bb557613b0f85613fa3565b42607260008773ffffffffffffffffffffffffffffffffffffffff1673ffffffffffffffffffffffffffffffffffffffff1681526020019081526020016000208190555080606f6000858152602001908152602001600020819055506000607060008773ffffffffffffffffffffffffffffffffffffffff1673ffffffffffffffffffffffffffffffffffffffff16815260200190815260200160002081905550613ce1565b42607260008773ffffffffffffffffffffffffffffffffffffffff1673ffffffffffffffffffffffffffffffffffffffff1681526020019081526020016000208190555080607060008773ffffffffffffffffffffffffffffffffffffffff1673ffffffffffffffffffffffffffffffffffffffff168152602001908152602001600020819055507f7e0163293172761353775ed5413c5650c56917cf163cbd6293a4636b6a87a6e6858560c0015183604051808473ffffffffffffffffffffffffffffffffffffffff1673ffffffffffffffffffffffffffffffffffffffff1681526020018373ffffffffffffffffffffffffffffffffffffffff1673ffffffffffffffffffffffffffffffffffffffff168152602001828152602001935050505060405180910390a15b505050505050565b613cf16123e0565b613cfa57600080fd5b613d0381614534565b50565b60716020528060005260406000206000915090505481565b606760009054906101000a900473ffffffffffffffffffffffffffffffffffffffff1681565b606a5481565b6000606d600084815260200190815260200160002090506000606e60008581526020019081526020016000209050600080905060008090505b8360090180549050811015613dd9576000846009018281548110613da357fe5b9060005260206000200190508060000160009054906101000a900460ff1615613dcd576001830192505b50806001019050613d83565b506000613de68286611ba5565b90508015613f475760018360010160006101000a81548160ff02191690831515021790555082600001846000019080546001816001161561010002031660029004613e32929190614777565b5082600201548460020181905550826003015484600301819055508260050154846005018190555082600601548460060181905550826004015484600401819055508260070160009054906101000a900473ffffffffffffffffffffffffffffffffffffffff168460070160006101000a81548173ffffffffffffffffffffffffffffffffffffffff021916908373ffffffffffffffffffffffffffffffffffffffff1602179055508260080160009054906101000a900473ffffffffffffffffffffffffffffffffffffffff168460080160006101000a81548173ffffffffffffffffffffffffffffffffffffffff021916908373ffffffffffffffffffffffffffffffffffffffff160217905550613f82565b60008460010160016101000a81548160ff02191690831515021790555060018460010160006101000a81548160ff0219169083151502179055505b505050505050565b600080303b90506000811491505090565b600033905090565b613fab6146da565b607460008373ffffffffffffffffffffffffffffffffffffffff1673ffffffffffffffffffffffffffffffffffffffff168152602001908152602001600020604051806101000160405290816000820154815260200160018201548152602001600282015481526020016003820160009054906101000a900473ffffffffffffffffffffffffffffffffffffffff1673ffffffffffffffffffffffffffffffffffffffff1673ffffffffffffffffffffffffffffffffffffffff1681526020016004820160009054906101000a900473ffffffffffffffffffffffffffffffffffffffff1673ffffffffffffffffffffffffffffffffffffffff1673ffffffffffffffffffffffffffffffffffffffff1681526020016005820160009054906101000a900473ffffffffffffffffffffffffffffffffffffffff1673ffffffffffffffffffffffffffffffffffffffff1673ffffffffffffffffffffffffffffffffffffffff1681526020016006820160009054906101000a900473ffffffffffffffffffffffffffffffffffffffff1673ffffffffffffffffffffffffffffffffffffffff1673ffffffffffffffffffffffffffffffffffffffff168152602001600782018054600181600116156101000203166002900480601f0160208091040260200160405190810160405280929190818152602001828054600181600116156101000203166002900480156142055780601f106141da57610100808354040283529160200191614205565b820191906000526020600020905b8154815290600101906020018083116141e857829003601f168201915b5050505050815250509050606b600081548092919060010191905055506000600282600001518161423257fe5b049050606660009054906101000a900473ffffffffffffffffffffffffffffffffffffffff1673ffffffffffffffffffffffffffffffffffffffff16636326e4ce8360a00151836040518363ffffffff1660e01b8152600401808373ffffffffffffffffffffffffffffffffffffffff1673ffffffffffffffffffffffffffffffffffffffff16815260200182815260200192505050600060405180830381600087803b1580156142e257600080fd5b505af11580156142f6573d6000803e3d6000fd5b50505050606660009054906101000a900473ffffffffffffffffffffffffffffffffffffffff1673ffffffffffffffffffffffffffffffffffffffff16636326e4ce8360c00151836040518363ffffffff1660e01b8152600401808373ffffffffffffffffffffffffffffffffffffffff1673ffffffffffffffffffffffffffffffffffffffff16815260200182815260200192505050600060405180830381600087803b1580156143a757600080fd5b505af11580156143bb573d6000803e3d6000fd5b50505050606660009054906101000a900473ffffffffffffffffffffffffffffffffffffffff1673ffffffffffffffffffffffffffffffffffffffff16636326e4ce836060015184604001516040518363ffffffff1660e01b8152600401808373ffffffffffffffffffffffffffffffffffffffff1673ffffffffffffffffffffffffffffffffffffffff16815260200182815260200192505050600060405180830381600087803b15801561447057600080fd5b505af1158015614484573d6000803e3d6000fd5b505050507f8a950e000c348dbaa89e6f160262461c978e369ad1596e8697d08cd54d851540838360c001518460200151604051808473ffffffffffffffffffffffffffffffffffffffff1673ffffffffffffffffffffffffffffffffffffffff1681526020018373ffffffffffffffffffffffffffffffffffffffff1673ffffffffffffffffffffffffffffffffffffffff168152602001828152602001935050505060405180910390a1505050565b600073ffffffffffffffffffffffffffffffffffffffff168173ffffffffffffffffffffffffffffffffffffffff16141561456e57600080fd5b8073ffffffffffffffffffffffffffffffffffffffff16603360009054906101000a900473ffffffffffffffffffffffffffffffffffffffff1673ffffffffffffffffffffffffffffffffffffffff167f8be0079c531659141344cd1fd0a4f28419497f9722a3daafe3b4186f6b6457e060405160405180910390a380603360006101000a81548173ffffffffffffffffffffffffffffffffffffffff021916908373ffffffffffffffffffffffffffffffffffffffff16021790555050565b8154818355818111156146555781836000526020600020918201910161465491906147fe565b5b505050565b828054600181600116156101000203166002900490600052602060002090601f016020900481019282601f1061469b57805160ff19168380011785556146c9565b828001600101855582156146c9579182015b828111156146c85782518255916020019190600101906146ad565b5b5090506146d69190614858565b5090565b604051806101000160405280600081526020016000815260200160008152602001600073ffffffffffffffffffffffffffffffffffffffff168152602001600073ffffffffffffffffffffffffffffffffffffffff168152602001600073ffffffffffffffffffffffffffffffffffffffff168152602001600073ffffffffffffffffffffffffffffffffffffffff168152602001606081525090565b828054600181600116156101000203166002900490600052602060002090601f016020900481019282601f106147b057805485556147ed565b828001600101855582156147ed57600052602060002091601f016020900482015b828111156147ec5782548255916001019190600101906147d1565b5b5090506147fa9190614858565b5090565b61485591905b8082111561485157600080820160006101000a81549060ff02191690556000820160016101000a81549073ffffffffffffffffffffffffffffffffffffffff021916905550600101614804565b5090565b90565b61487a91905b8082111561487657600081600090555060010161485e565b5090565b9056fe436f6e747261637420696e7374616e63652068617320616c7265616479206265656e20696e697469616c697a6564a165627a7a723058209e459bee40bd05e32b53f034c06ff1d67965e4e346bd15b7597655deb9d645410029",
  "source": "pragma solidity ^0.5.0;\n\nimport './UseBlockLogic.sol';\n\ncontract CryptoPatentBlockchain is UseBlockLogic {\n\n\n  function initialize() public initializer {\n    Ownable.initialize(msg.sender);\n    ideaBlockReward = 1000000000000000000000;\n    globalBlockHalfTime = now;\n  }\n\n  ///@notice proposeIdea is used to allow ANYONE to petition the community for idea approval\n  ///@dev the struct for this is set in interface.solidity\n  ///@dev idea proposals are put up for community approval\n  function proposeIdeaUpgrade(\n    string memory _ideaIPFS,\n\n    uint _globalUseBlockAmount,\n    uint _miningTime,\n    uint _royalty,\n    uint _stakeAmount,\n    uint _levelRequirement,\n    address _inventor,\n    address _invention\n  ) public {\n\n          uint ideaID = getHash[_ideaIPFS];\n\n          IdeaUpgradeProposal storage p = ideaUpgradeProposals[ideaID];\n          p.uIdeaIPFS = _ideaIPFS;\n          p.uexecuted = false;\n          p.uglobalUseBlockAmount = _globalUseBlockAmount;\n          p.uroyalty = _royalty;\n          p.ustakeAmount = _stakeAmount;\n          p.ulevelRequirement = _levelRequirement;\n          p.uminingTime = _miningTime;\n          p.uinventorAddress = _inventor;\n          p.uinventionAddress = _invention;\n          emit IdeaProposed(_ideaIPFS);\n  }\n\n\n  ///@notice vote is a member only function which allows DecentraCorp members to vote on proposalPassed\n\n   function ideaVote(\n          uint _ideaProposalID,\n          bool supportsProposal\n      )\n          public\n\n      {\n          require(DCPoA._checkIfMember(msg.sender) == true);\n          IdeaUpgradeProposal storage p = ideaUpgradeProposals[_ideaProposalID];\n          //makes the proposal an object, p\n          require(p.uvoted[msg.sender] != true);\n          //requires that the person calling the function hasnt voted yet\n          require(p.uexecuted != true);\n          //requires the proposal hasnt been executed yet\n          uint voteID = p.uvotes.length++;\n          //sets voteID to the length of the votes array for that proposal\n          p.uvotes[voteID] = Vote({inSupport: supportsProposal, voter: msg.sender});\n          //sets the individual Vote struct  properties to a voteID within votes struct array\n          p.uvoted[msg.sender] = true;\n          //sets the voter to true so they cant vote twice\n          DCPoA.increaseMemLev(msg.sender);\n          //increases the members level for voting\n          emit Voted(msg.sender, supportsProposal);\n          //emits Voted event\n          uint maxQuorum = DCPoA.getMemberCount();\n          //sets maxQuorum equal to total # of members\n          bool tally = setVoteQuorum(p.uvotes.length, maxQuorum);\n          //sets tally to either true of false depending if the # of members that have voted\n          //must be greater than 80% of the total # of members\n          if(tally) {\n            ideaBlockVote(_ideaProposalID, maxQuorum);\n            //fires of the vote tally function\n          }\n      }\n\n\n  // allows members to vote on proposals\n  ///@notice ideaBlockVote counts the votes and executes and Idea Proposal, adding an idea to the cryptopatent Blockchain\n  ///@dev seperate but similiar structures will need to be implemented in the future to stream line voting on different subjects(beta)\n  function ideaBlockVote(uint _ideaProposalID, uint maxQuorum) internal {\n          IdeaProposal storage p = ideaProposals[_ideaProposalID];\n               // sets p equal to the specific proposalNumbers struct\n                 IdeaUpgradeProposal storage u = ideaUpgradeProposals[_ideaProposalID];\n          uint yea = 0;\n\n\n      for (uint i = 0; i <  p.votes.length; ++i) {\n          Vote storage v = p.votes[i];\n\n          if (v.inSupport) {\n            yea += 1;\n               }\n            }\n\n            bool passes = setVoteNumberQuorum(yea, maxQuorum);\n        //checks if the number of yea votes is 60% or more of the total number of members\n\n               if (passes) {\n                   // Proposal passed; execute the transaction\n\n                 u.uexecuted = true;\n                p.IdeaIPFS =   u.uIdeaIPFS;\n                p.globalUseBlockAmount = u.uglobalUseBlockAmount;\n                p.royalty = u.uroyalty;\n                p.stakeAmount = u.ustakeAmount;\n                p.levelRequirement = u.ulevelRequirement;\n                p.miningTime = u.uminingTime;\n                p.inventorAddress = u.uinventorAddress;\n                p.inventionAddress = u.uinventionAddress;\n\n             } else {\n                   // Proposal failed\n                 p.executed = false;\n                 p.IdeaBlock = true;\n             }\n        }\n\n\n\n  ///@notice the following functions allow for easier access to info by both the front end and other contracts\n  ///@dev all the following contracts allow for the retreval of token block information\nfunction checkIfRep(address _add) external view returns(bool) {\n        return replications[_add];\n        }\n\n\nfunction getID(address _ideaAdd) public view returns(uint){\n        return IdeaAddToId[_ideaAdd];\n        }\n\nfunction setValidatorContract(address _valCon) public onlyOwner {\n        Validators = RelayedOwnedSet(_valCon);\n        }\n\nfunction setDCPoA(DecentraCorp _dcpoa) public onlyOwner {\n        DCPoA = DecentraCorp(_dcpoa);\n        }\n\n\n\nfunction transferRepBlock(address _newOwner, address _rep) public view {\n  ReplicationInfo memory infoR = repInfo[_rep];\n  require(msg.sender == infoR.OwnersAddress);\n  infoR.OwnersAddress = _newOwner;\n}\n\n}\n",
  "sourcePath": "/home/stan36/repos/DecentraCorpContracts/contracts/CryptoPatent/CryptoPatentBlockchain.sol",
  "compiler": {
    "name": "solc",
    "version": "0.5.8+commit.23d335f2.Emscripten.clang"
  },
  "schemaVersion": "3.0.11",
  "updatedAt": "2019-09-13T18:41:29.174Z",
  "devdoc": {
    "methods": {
      "checkIfRep(address)": {
        "details": "all the following contracts allow for the retreval of token block information"
      },
      "generateReplicationBlock(uint256,address,address,string,string)": {
        "details": "this requires the replicator has enough NotiCoin to meet the stake amount and burns it from existenceit also adds the replicator as a member of DecentraCorpfinally, this contract calls the Proof of Replication Ownership contract and mints a PoRO token to the msg.sender"
      },
      "generateUseBlockWeight(string)": {
        "details": "this is called by generateUseBlockWeight"
      },
      "getPropID(string)": {
        "details": "getPropID is made for easier front end interaction"
      },
      "initialize(address)": {
        "details": "The Ownable constructor sets the original `owner` of the contract to the sender account."
      },
      "isOwner()": {
        "return": "true if `msg.sender` is the owner of the contract."
      },
      "owner()": {
        "return": "the address of the owner."
      },
      "percent(uint256,uint256,uint256)": {
        "details": "quorum is set to 60%"
      },
      "proposeIdea(string,uint256,uint256,uint256,uint256,uint256,address,address)": {
        "details": "the struct for this is set in interface.solidityidea proposals are put up for community approval"
      },
      "proposeIdeaUpgrade(string,uint256,uint256,uint256,uint256,uint256,address,address)": {
        "details": "the struct for this is set in interface.solidityidea proposals are put up for community approval"
      },
      "renounceOwnership()": {
        "details": "Allows the current owner to relinquish control of the contract. It will not be possible to call the functions with the `onlyOwner` modifier anymore."
      },
      "transferOwnership(address)": {
        "details": "Allows the current owner to transfer control of the contract to a newOwner.",
        "params": {
          "newOwner": "The address to transfer ownership to."
        }
      }
    }
  },
  "userdoc": {
    "methods": {
      "checkIfRep(address)": {
        "notice": "the following functions allow for easier access to info by both the front end and other contracts"
      },
      "generateReplicationBlock(uint256,address,address,string,string)": {
        "notice": "generateReplicationBlock is used to generate a replication block when someone sucessfully replicates an Idea"
      },
      "generateUseBlockWeight(string)": {
        "notice": "UseBlockWeight is an internal function that tracks loacal use weightTracker"
      },
      "getPropID(string)": {
        "notice": "getPropID function allows one to rerieve a proposal ID by its ipfs hash"
      },
      "ideaVote(uint256,bool)": {
        "notice": "vote is a member only function which allows DecentraCorp members to vote on proposalPassed"
      },
      "percent(uint256,uint256,uint256)": {
        "notice": "set_Quorum is an internal function used by proposal vote counts to see if the community approves"
      },
      "proposeIdea(string,uint256,uint256,uint256,uint256,uint256,address,address)": {
        "notice": "proposeIdea is used to allow ANYONE to petition the community for idea approval"
      },
      "proposeIdeaUpgrade(string,uint256,uint256,uint256,uint256,uint256,address,address)": {
        "notice": "proposeIdea is used to allow ANYONE to petition the community for idea approval"
      },
      "renounceOwnership()": {
        "notice": "Renouncing ownership will leave the contract without an owner, thereby removing any functionality that is only available to the owner."
      }
    }
  }
}