{
  "contractName": "CryptoPatentBlockchain",
  "abi": [
    {
      "constant": true,
      "inputs": [
        {
          "name": "",
          "type": "address"
        }
      ],
      "name": "localMiningtimeTracker",
      "outputs": [
        {
          "name": "",
          "type": "uint256"
        }
      ],
      "payable": false,
      "stateMutability": "view",
      "type": "function"
    },
    {
      "constant": true,
      "inputs": [
        {
          "name": "",
          "type": "uint256"
        }
      ],
      "name": "ideaProposals",
      "outputs": [
        {
          "name": "IdeaIPFS",
          "type": "string"
        },
        {
          "name": "executed",
          "type": "bool"
        },
        {
          "name": "proposalPassed",
          "type": "bool"
        },
        {
          "name": "globalUseBlockAmount",
          "type": "uint256"
        },
        {
          "name": "royalty",
          "type": "uint256"
        },
        {
          "name": "miningTime",
          "type": "uint256"
        },
        {
          "name": "stakeAmount",
          "type": "uint256"
        },
        {
          "name": "inventorAddress",
          "type": "address"
        },
        {
          "name": "inventionAddress",
          "type": "address"
        }
      ],
      "payable": false,
      "stateMutability": "view",
      "type": "function"
    },
    {
      "constant": true,
      "inputs": [],
      "name": "ideaBlockReward",
      "outputs": [
        {
          "name": "",
          "type": "uint256"
        }
      ],
      "payable": false,
      "stateMutability": "view",
      "type": "function"
    },
    {
      "constant": true,
      "inputs": [],
      "name": "globalBlockHalfTime",
      "outputs": [
        {
          "name": "",
          "type": "uint256"
        }
      ],
      "payable": false,
      "stateMutability": "view",
      "type": "function"
    },
    {
      "constant": true,
      "inputs": [
        {
          "name": "",
          "type": "address"
        },
        {
          "name": "",
          "type": "uint256"
        }
      ],
      "name": "repOwnes",
      "outputs": [
        {
          "name": "",
          "type": "uint256"
        }
      ],
      "payable": false,
      "stateMutability": "view",
      "type": "function"
    },
    {
      "constant": true,
      "inputs": [
        {
          "name": "",
          "type": "uint256"
        }
      ],
      "name": "ideaVariables",
      "outputs": [
        {
          "name": "globalUseBlockAmount",
          "type": "uint256"
        },
        {
          "name": "royalty",
          "type": "uint256"
        },
        {
          "name": "miningTime",
          "type": "uint256"
        },
        {
          "name": "stakeAmount",
          "type": "uint256"
        },
        {
          "name": "inventorAddress",
          "type": "address"
        },
        {
          "name": "inventionAddress",
          "type": "address"
        },
        {
          "name": "IPFShash",
          "type": "string"
        }
      ],
      "payable": false,
      "stateMutability": "view",
      "type": "function"
    },
    {
      "constant": true,
      "inputs": [],
      "name": "globalIdeaCount",
      "outputs": [
        {
          "name": "",
          "type": "uint256"
        }
      ],
      "payable": false,
      "stateMutability": "view",
      "type": "function"
    },
    {
      "constant": true,
      "inputs": [
        {
          "name": "",
          "type": "address"
        }
      ],
      "name": "IdeaAddToId",
      "outputs": [
        {
          "name": "",
          "type": "uint256"
        }
      ],
      "payable": false,
      "stateMutability": "view",
      "type": "function"
    },
    {
      "constant": true,
      "inputs": [
        {
          "name": "",
          "type": "address"
        }
      ],
      "name": "repInfo",
      "outputs": [
        {
          "name": "BlockReward",
          "type": "uint256"
        },
        {
          "name": "OwnersAddress",
          "type": "address"
        },
        {
          "name": "IdeaID",
          "type": "uint256"
        },
        {
          "name": "Royalty",
          "type": "uint256"
        },
        {
          "name": "RepID",
          "type": "uint256"
        },
        {
          "name": "InventorsAddress",
          "type": "address"
        },
        {
          "name": "ReplicationAddress",
          "type": "address"
        }
      ],
      "payable": false,
      "stateMutability": "view",
      "type": "function"
    },
    {
      "constant": false,
      "inputs": [],
      "name": "renounceOwnership",
      "outputs": [],
      "payable": false,
      "stateMutability": "nonpayable",
      "type": "function"
    },
    {
      "constant": true,
      "inputs": [],
      "name": "globalUseBlock",
      "outputs": [
        {
          "name": "",
          "type": "uint256"
        }
      ],
      "payable": false,
      "stateMutability": "view",
      "type": "function"
    },
    {
      "constant": true,
      "inputs": [
        {
          "name": "",
          "type": "uint256"
        }
      ],
      "name": "weightTracker",
      "outputs": [
        {
          "name": "",
          "type": "uint256"
        }
      ],
      "payable": false,
      "stateMutability": "view",
      "type": "function"
    },
    {
      "constant": true,
      "inputs": [],
      "name": "owner",
      "outputs": [
        {
          "name": "",
          "type": "address"
        }
      ],
      "payable": false,
      "stateMutability": "view",
      "type": "function"
    },
    {
      "constant": true,
      "inputs": [],
      "name": "isOwner",
      "outputs": [
        {
          "name": "",
          "type": "bool"
        }
      ],
      "payable": false,
      "stateMutability": "view",
      "type": "function"
    },
    {
      "constant": false,
      "inputs": [],
      "name": "generateUseBlockWeight",
      "outputs": [],
      "payable": false,
      "stateMutability": "nonpayable",
      "type": "function"
    },
    {
      "constant": true,
      "inputs": [],
      "name": "globalRepCount",
      "outputs": [
        {
          "name": "",
          "type": "uint256"
        }
      ],
      "payable": false,
      "stateMutability": "view",
      "type": "function"
    },
    {
      "constant": true,
      "inputs": [
        {
          "name": "",
          "type": "address"
        }
      ],
      "name": "localWeightTracker",
      "outputs": [
        {
          "name": "",
          "type": "uint256"
        }
      ],
      "payable": false,
      "stateMutability": "view",
      "type": "function"
    },
    {
      "constant": true,
      "inputs": [
        {
          "name": "",
          "type": "address"
        }
      ],
      "name": "replications",
      "outputs": [
        {
          "name": "",
          "type": "bool"
        }
      ],
      "payable": false,
      "stateMutability": "view",
      "type": "function"
    },
    {
      "constant": true,
      "inputs": [],
      "name": "DCPoA",
      "outputs": [
        {
          "name": "",
          "type": "address"
        }
      ],
      "payable": false,
      "stateMutability": "view",
      "type": "function"
    },
    {
      "constant": false,
      "inputs": [
        {
          "name": "newOwner",
          "type": "address"
        }
      ],
      "name": "transferOwnership",
      "outputs": [],
      "payable": false,
      "stateMutability": "nonpayable",
      "type": "function"
    },
    {
      "constant": true,
      "inputs": [
        {
          "name": "",
          "type": "uint256"
        }
      ],
      "name": "ideaRepCounter",
      "outputs": [
        {
          "name": "",
          "type": "uint256"
        }
      ],
      "payable": false,
      "stateMutability": "view",
      "type": "function"
    },
    {
      "constant": true,
      "inputs": [],
      "name": "Validators",
      "outputs": [
        {
          "name": "",
          "type": "address"
        }
      ],
      "payable": false,
      "stateMutability": "view",
      "type": "function"
    },
    {
      "constant": true,
      "inputs": [],
      "name": "globalIdeaPropCount",
      "outputs": [
        {
          "name": "",
          "type": "uint256"
        }
      ],
      "payable": false,
      "stateMutability": "view",
      "type": "function"
    },
    {
      "constant": false,
      "inputs": [
        {
          "name": "_ideaId",
          "type": "uint256"
        },
        {
          "name": "_repAdd",
          "type": "address"
        }
      ],
      "name": "generateReplicationBlock",
      "outputs": [],
      "payable": false,
      "stateMutability": "nonpayable",
      "type": "function"
    },
    {
      "anonymous": false,
      "inputs": [
        {
          "indexed": false,
          "name": "IPFS",
          "type": "string"
        }
      ],
      "name": "IdeaProposed",
      "type": "event"
    },
    {
      "anonymous": false,
      "inputs": [
        {
          "indexed": false,
          "name": "member",
          "type": "address"
        }
      ],
      "name": "NewMember",
      "type": "event"
    },
    {
      "anonymous": false,
      "inputs": [
        {
          "indexed": false,
          "name": "IPFS",
          "type": "string"
        }
      ],
      "name": "IdeaApproved",
      "type": "event"
    },
    {
      "anonymous": false,
      "inputs": [
        {
          "indexed": false,
          "name": "_voter",
          "type": "address"
        },
        {
          "indexed": false,
          "name": "inSupport",
          "type": "bool"
        }
      ],
      "name": "Voted",
      "type": "event"
    },
    {
      "anonymous": false,
      "inputs": [
        {
          "indexed": false,
          "name": "_repAdd",
          "type": "address"
        }
      ],
      "name": "NewReplication",
      "type": "event"
    },
    {
      "anonymous": false,
      "inputs": [
        {
          "indexed": false,
          "name": "repAdd",
          "type": "address"
        },
        {
          "indexed": false,
          "name": "repWeight",
          "type": "uint256"
        }
      ],
      "name": "LocalUseWeight",
      "type": "event"
    },
    {
      "anonymous": false,
      "inputs": [
        {
          "indexed": false,
          "name": "repAdd",
          "type": "address"
        },
        {
          "indexed": false,
          "name": "ideaId",
          "type": "uint256"
        }
      ],
      "name": "GlobalUseBlock",
      "type": "event"
    },
    {
      "anonymous": false,
      "inputs": [
        {
          "indexed": true,
          "name": "previousOwner",
          "type": "address"
        },
        {
          "indexed": true,
          "name": "newOwner",
          "type": "address"
        }
      ],
      "name": "OwnershipTransferred",
      "type": "event"
    },
    {
      "constant": false,
      "inputs": [],
      "name": "initialize",
      "outputs": [],
      "payable": false,
      "stateMutability": "nonpayable",
      "type": "function"
    },
    {
      "constant": false,
      "inputs": [
        {
          "name": "sender",
          "type": "address"
        }
      ],
      "name": "initialize",
      "outputs": [],
      "payable": false,
      "stateMutability": "nonpayable",
      "type": "function"
    },
    {
      "constant": false,
      "inputs": [
        {
          "name": "_ideaIPFS",
          "type": "string"
        },
        {
          "name": "_globalUseBlockAmount",
          "type": "uint256"
        },
        {
          "name": "_miningTime",
          "type": "uint256"
        },
        {
          "name": "_royalty",
          "type": "uint256"
        },
        {
          "name": "_stakeAmount",
          "type": "uint256"
        },
        {
          "name": "_inventor",
          "type": "address"
        },
        {
          "name": "_invention",
          "type": "address"
        }
      ],
      "name": "proposeIdea",
      "outputs": [],
      "payable": false,
      "stateMutability": "nonpayable",
      "type": "function"
    },
    {
      "constant": false,
      "inputs": [
        {
          "name": "_ideaProposalID",
          "type": "uint256"
        },
        {
          "name": "supportsProposal",
          "type": "bool"
        }
      ],
      "name": "ideaVote",
      "outputs": [],
      "payable": false,
      "stateMutability": "nonpayable",
      "type": "function"
    },
    {
      "constant": false,
      "inputs": [
        {
          "name": "_hash",
          "type": "string"
        }
      ],
      "name": "stakeReplicatorWallet",
      "outputs": [],
      "payable": false,
      "stateMutability": "nonpayable",
      "type": "function"
    },
    {
      "constant": true,
      "inputs": [
        {
          "name": "_add",
          "type": "address"
        }
      ],
      "name": "checkIfRep",
      "outputs": [
        {
          "name": "",
          "type": "bool"
        }
      ],
      "payable": false,
      "stateMutability": "view",
      "type": "function"
    },
    {
      "constant": true,
      "inputs": [
        {
          "name": "_ideaAdd",
          "type": "address"
        }
      ],
      "name": "getID",
      "outputs": [
        {
          "name": "",
          "type": "uint256"
        }
      ],
      "payable": false,
      "stateMutability": "view",
      "type": "function"
    },
    {
      "constant": false,
      "inputs": [
        {
          "name": "_valCon",
          "type": "address"
        }
      ],
      "name": "setValidatorContract",
      "outputs": [],
      "payable": false,
      "stateMutability": "nonpayable",
      "type": "function"
    },
    {
      "constant": false,
      "inputs": [
        {
          "name": "_dcpoa",
          "type": "address"
        }
      ],
      "name": "setDCPoA",
      "outputs": [],
      "payable": false,
      "stateMutability": "nonpayable",
      "type": "function"
    },
    {
      "constant": true,
      "inputs": [
        {
          "name": "_add",
          "type": "address"
        },
        {
          "name": "_ideaProposalID",
          "type": "uint256"
        }
      ],
      "name": "checkIfVotedIdea",
      "outputs": [
        {
          "name": "",
          "type": "bool"
        }
      ],
      "payable": false,
      "stateMutability": "view",
      "type": "function"
    },
    {
      "constant": true,
      "inputs": [
        {
          "name": "hash",
          "type": "string"
        }
      ],
      "name": "getPropID",
      "outputs": [
        {
          "name": "",
          "type": "uint256"
        }
      ],
      "payable": false,
      "stateMutability": "view",
      "type": "function"
    }
  ],
  "bytecode": "0x608060405234801561001057600080fd5b506145f4806100206000396000f3fe6080604052600436106101b7576000357c0100000000000000000000000000000000000000000000000000000000900463ffffffff16806310734e43146101bc57806311e658441461029857806314111141146102fd5780631855efa61461034457806318fcc7fd146104905780631ccb3405146105c05780631ddc883b1461068857806328a6e47c146106b35780632e858cce146106de5780634242779f1461074d57806343110e6f146108835780634cfa2409146108d45780634e6a3630146108ff5780634f214e84146109725780636849e795146109d7578063715018a614610aea5780637582497414610b015780638129fc1c14610b2c57806381cbb67714610b435780638da5cb5b14610b925780638eb5b91314610be95780638f32d59b14610c5257806399f826a514610c81578063a416ecd714610ce6578063be6cbbcf14610cfd578063c4d66de814610d28578063cdf64a7614610d79578063ce87d3ee14610dca578063d436b5e914610e2f578063e026daa114610e98578063f2fde38b14610eef578063f54a012914610f40578063f691977414610f8f578063f7e1e4f014610fe6578063f8c711fa14611011575b600080fd5b3480156101c857600080fd5b50610282600480360360208110156101df57600080fd5b81019080803590602001906401000000008111156101fc57600080fd5b82018360208201111561020e57600080fd5b8035906020019184600183028401116401000000008311171561023057600080fd5b91908080601f016020809104026020016040519081016040528093929190818152602001838380828437600081840152601f19601f82011690508083019250505050505050919291929050505061106c565b6040518082815260200191505060405180910390f35b3480156102a457600080fd5b506102e7600480360360208110156102bb57600080fd5b81019080803573ffffffffffffffffffffffffffffffffffffffff1690602001909291905050506110e1565b6040518082815260200191505060405180910390f35b34801561030957600080fd5b506103426004803603604081101561032057600080fd5b81019080803590602001909291908035151590602001909291905050506110f9565b005b34801561035057600080fd5b5061037d6004803603602081101561036757600080fd5b81019080803590602001909291905050506115f2565b60405180806020018a151515158152602001891515151581526020018881526020018781526020018681526020018581526020018473ffffffffffffffffffffffffffffffffffffffff1673ffffffffffffffffffffffffffffffffffffffff1681526020018373ffffffffffffffffffffffffffffffffffffffff1673ffffffffffffffffffffffffffffffffffffffff16815260200182810382528b818151815260200191508051906020019080838360005b8381101561044d578082015181840152602081019050610432565b50505050905090810190601f16801561047a5780820380516001836020036101000a031916815260200191505b509a505050505050505050505060405180910390f35b34801561049c57600080fd5b506105be600480360360e08110156104b357600080fd5b81019080803590602001906401000000008111156104d057600080fd5b8201836020820111156104e257600080fd5b8035906020019184600183028401116401000000008311171561050457600080fd5b91908080601f016020809104026020016040519081016040528093929190818152602001838380828437600081840152601f19601f82011690508083019250505050505050919291929080359060200190929190803590602001909291908035906020019092919080359060200190929190803573ffffffffffffffffffffffffffffffffffffffff169060200190929190803573ffffffffffffffffffffffffffffffffffffffff169060200190929190505050611732565b005b3480156105cc57600080fd5b50610686600480360360208110156105e357600080fd5b810190808035906020019064010000000081111561060057600080fd5b82018360208201111561061257600080fd5b8035906020019184600183028401116401000000008311171561063457600080fd5b91908080601f016020809104026020016040519081016040528093929190818152602001838380828437600081840152601f19601f820116905080830192505050505050509192919290505050611976565b005b34801561069457600080fd5b5061069d611cd9565b6040518082815260200191505060405180910390f35b3480156106bf57600080fd5b506106c8611cdf565b6040518082815260200191505060405180910390f35b3480156106ea57600080fd5b506107376004803603604081101561070157600080fd5b81019080803573ffffffffffffffffffffffffffffffffffffffff16906020019092919080359060200190929190505050611ce5565b6040518082815260200191505060405180910390f35b34801561075957600080fd5b506107866004803603602081101561077057600080fd5b8101908080359060200190929190505050611d0a565b604051808881526020018781526020018681526020018581526020018473ffffffffffffffffffffffffffffffffffffffff1673ffffffffffffffffffffffffffffffffffffffff1681526020018373ffffffffffffffffffffffffffffffffffffffff1673ffffffffffffffffffffffffffffffffffffffff16815260200180602001828103825283818151815260200191508051906020019080838360005b83811015610842578082015181840152602081019050610827565b50505050905090810190601f16801561086f5780820380516001836020036101000a031916815260200191505b509850505050505050505060405180910390f35b34801561088f57600080fd5b506108d2600480360360208110156108a657600080fd5b81019080803573ffffffffffffffffffffffffffffffffffffffff169060200190929190505050611e24565b005b3480156108e057600080fd5b506108e9611e7b565b6040518082815260200191505060405180910390f35b34801561090b57600080fd5b506109586004803603604081101561092257600080fd5b81019080803573ffffffffffffffffffffffffffffffffffffffff16906020019092919080359060200190929190505050611e81565b604051808215151515815260200191505060405180910390f35b34801561097e57600080fd5b506109c16004803603602081101561099557600080fd5b81019080803573ffffffffffffffffffffffffffffffffffffffff169060200190929190505050611ef1565b6040518082815260200191505060405180910390f35b3480156109e357600080fd5b50610a26600480360360208110156109fa57600080fd5b81019080803573ffffffffffffffffffffffffffffffffffffffff169060200190929190505050611f09565b604051808881526020018773ffffffffffffffffffffffffffffffffffffffff1673ffffffffffffffffffffffffffffffffffffffff1681526020018681526020018581526020018481526020018373ffffffffffffffffffffffffffffffffffffffff1673ffffffffffffffffffffffffffffffffffffffff1681526020018273ffffffffffffffffffffffffffffffffffffffff1673ffffffffffffffffffffffffffffffffffffffff16815260200197505050505050505060405180910390f35b348015610af657600080fd5b50610aff611fab565b005b348015610b0d57600080fd5b50610b1661207f565b6040518082815260200191505060405180910390f35b348015610b3857600080fd5b50610b41612085565b005b348015610b4f57600080fd5b50610b7c60048036036020811015610b6657600080fd5b81019080803590602001909291905050506121da565b6040518082815260200191505060405180910390f35b348015610b9e57600080fd5b50610ba76121f2565b604051808273ffffffffffffffffffffffffffffffffffffffff1673ffffffffffffffffffffffffffffffffffffffff16815260200191505060405180910390f35b348015610bf557600080fd5b50610c3860048036036020811015610c0c57600080fd5b81019080803573ffffffffffffffffffffffffffffffffffffffff16906020019092919050505061221c565b604051808215151515815260200191505060405180910390f35b348015610c5e57600080fd5b50610c67612272565b604051808215151515815260200191505060405180910390f35b348015610c8d57600080fd5b50610cd060048036036020811015610ca457600080fd5b81019080803573ffffffffffffffffffffffffffffffffffffffff1690602001909291905050506122ca565b6040518082815260200191505060405180910390f35b348015610cf257600080fd5b50610cfb612313565b005b348015610d0957600080fd5b50610d126128be565b6040518082815260200191505060405180910390f35b348015610d3457600080fd5b50610d7760048036036020811015610d4b57600080fd5b81019080803573ffffffffffffffffffffffffffffffffffffffff1690602001909291905050506128c4565b005b348015610d8557600080fd5b50610dc860048036036020811015610d9c57600080fd5b81019080803573ffffffffffffffffffffffffffffffffffffffff169060200190929190505050612ab8565b005b348015610dd657600080fd5b50610e1960048036036020811015610ded57600080fd5b81019080803573ffffffffffffffffffffffffffffffffffffffff169060200190929190505050612b0f565b6040518082815260200191505060405180910390f35b348015610e3b57600080fd5b50610e7e60048036036020811015610e5257600080fd5b81019080803573ffffffffffffffffffffffffffffffffffffffff169060200190929190505050612b27565b604051808215151515815260200191505060405180910390f35b348015610ea457600080fd5b50610ead612b47565b604051808273ffffffffffffffffffffffffffffffffffffffff1673ffffffffffffffffffffffffffffffffffffffff16815260200191505060405180910390f35b348015610efb57600080fd5b50610f3e60048036036020811015610f1257600080fd5b81019080803573ffffffffffffffffffffffffffffffffffffffff169060200190929190505050612b6d565b005b348015610f4c57600080fd5b50610f7960048036036020811015610f6357600080fd5b8101908080359060200190929190505050612b8c565b6040518082815260200191505060405180910390f35b348015610f9b57600080fd5b50610fa4612ba4565b604051808273ffffffffffffffffffffffffffffffffffffffff1673ffffffffffffffffffffffffffffffffffffffff16815260200191505060405180910390f35b348015610ff257600080fd5b50610ffb612bca565b6040518082815260200191505060405180910390f35b34801561101d57600080fd5b5061106a6004803603604081101561103457600080fd5b8101908080359060200190929190803573ffffffffffffffffffffffffffffffffffffffff169060200190929190505050612bd0565b005b60006078826040518082805190602001908083835b6020831015156110a65780518252602082019150602081019050602083039250611081565b6001836020036101000a0380198251168184511680821785525050505050509050019150509081526020016040518091039020549050919050565b60746020528060005260406000206000915090505481565b60011515606660009054906101000a900473ffffffffffffffffffffffffffffffffffffffff1673ffffffffffffffffffffffffffffffffffffffff1663aaa746bb336040518263ffffffff167c0100000000000000000000000000000000000000000000000000000000028152600401808273ffffffffffffffffffffffffffffffffffffffff1673ffffffffffffffffffffffffffffffffffffffff16815260200191505060206040518083038186803b1580156111b857600080fd5b505afa1580156111cc573d6000803e3d6000fd5b505050506040513d60208110156111e257600080fd5b8101908080519060200190929190505050151514151561120157600080fd5b6000607060008481526020019081526020016000209050600115158160090160003373ffffffffffffffffffffffffffffffffffffffff1673ffffffffffffffffffffffffffffffffffffffff16815260200190815260200160002060009054906101000a900460ff1615151415151561127a57600080fd5b600115158160010160009054906101000a900460ff1615151415151561129f57600080fd5b60008160080180548091906001016112b79190614333565b9050604080519081016040528084151581526020013373ffffffffffffffffffffffffffffffffffffffff1681525082600801828154811015156112f757fe5b9060005260206000200160008201518160000160006101000a81548160ff02191690831515021790555060208201518160000160016101000a81548173ffffffffffffffffffffffffffffffffffffffff021916908373ffffffffffffffffffffffffffffffffffffffff16021790555090505060018260090160003373ffffffffffffffffffffffffffffffffffffffff1673ffffffffffffffffffffffffffffffffffffffff16815260200190815260200160002060006101000a81548160ff021916908315150217905550606660009054906101000a900473ffffffffffffffffffffffffffffffffffffffff1673ffffffffffffffffffffffffffffffffffffffff16634777e8ea336040518263ffffffff167c0100000000000000000000000000000000000000000000000000000000028152600401808273ffffffffffffffffffffffffffffffffffffffff1673ffffffffffffffffffffffffffffffffffffffff168152602001915050600060405180830381600087803b15801561148257600080fd5b505af1158015611496573d6000803e3d6000fd5b505050507f8eb81cb806dbb3d8a2f94981614331a55dfd90e06a42fdc362ca3ca96981d92f3384604051808373ffffffffffffffffffffffffffffffffffffffff1673ffffffffffffffffffffffffffffffffffffffff168152602001821515151581526020019250505060405180910390a16000606660009054906101000a900473ffffffffffffffffffffffffffffffffffffffff1673ffffffffffffffffffffffffffffffffffffffff1663997072f76040518163ffffffff167c010000000000000000000000000000000000000000000000000000000002815260040160206040518083038186803b15801561158f57600080fd5b505afa1580156115a3573d6000803e3d6000fd5b505050506040513d60208110156115b957600080fd5b8101908080519060200190929190505050905060006115d88383613413565b905080156115ea576115e986613444565b5b505050505050565b6070602052806000526040600020600091509050806000018054600181600116156101000203166002900480601f01602080910402602001604051908101604052809291908181526020018280546001816001161561010002031660029004801561169e5780601f106116735761010080835404028352916020019161169e565b820191906000526020600020905b81548152906001019060200180831161168157829003601f168201915b5050505050908060010160009054906101000a900460ff16908060010160019054906101000a900460ff16908060020154908060030154908060040154908060050154908060060160009054906101000a900473ffffffffffffffffffffffffffffffffffffffff16908060070160009054906101000a900473ffffffffffffffffffffffffffffffffffffffff16905089565b606b600081548092919060010191905055506000606b549050806078896040518082805190602001908083835b602083101515611784578051825260208201915060208101905060208303925061175f565b6001836020036101000a0380198251168184511680821785525050505050509050019150509081526020016040518091039020819055506000607060008381526020019081526020016000209050888160000190805190602001906117ea92919061435f565b5060008160010160006101000a81548160ff02191690831515021790555060008160010160016101000a81548160ff021916908315150217905550878160020181905550858160030181905550848160050181905550868160040181905550838160060160006101000a81548173ffffffffffffffffffffffffffffffffffffffff021916908373ffffffffffffffffffffffffffffffffffffffff160217905550828160070160006101000a81548173ffffffffffffffffffffffffffffffffffffffff021916908373ffffffffffffffffffffffffffffffffffffffff1602179055507f544a88757adcb29711e2e12a617fb44221880d5013615cf2dbbdb37f5d505973896040518080602001828103825283818151815260200191508051906020019080838360005b83811015611931578082015181840152602081019050611916565b50505050905090810190601f16801561195e5780820380516001836020036101000a031916815260200191505b509250505060405180910390a1505050505050505050565b606660009054906101000a900473ffffffffffffffffffffffffffffffffffffffff1673ffffffffffffffffffffffffffffffffffffffff1663c812a6013368056bc75e2d631000006040518363ffffffff167c0100000000000000000000000000000000000000000000000000000000028152600401808373ffffffffffffffffffffffffffffffffffffffff1673ffffffffffffffffffffffffffffffffffffffff16815260200182815260200192505050600060405180830381600087803b158015611a4457600080fd5b505af1158015611a58573d6000803e3d6000fd5b50505050606660009054906101000a900473ffffffffffffffffffffffffffffffffffffffff1673ffffffffffffffffffffffffffffffffffffffff16631d40bbcf336040518263ffffffff167c0100000000000000000000000000000000000000000000000000000000028152600401808273ffffffffffffffffffffffffffffffffffffffff1673ffffffffffffffffffffffffffffffffffffffff168152602001915050600060405180830381600087803b158015611b1957600080fd5b505af1158015611b2d573d6000803e3d6000fd5b50505050606660009054906101000a900473ffffffffffffffffffffffffffffffffffffffff1673ffffffffffffffffffffffffffffffffffffffff1663afa879d133836040518363ffffffff167c0100000000000000000000000000000000000000000000000000000000028152600401808373ffffffffffffffffffffffffffffffffffffffff1673ffffffffffffffffffffffffffffffffffffffff16815260200180602001828103825283818151815260200191508051906020019080838360005b83811015611c0e578082015181840152602081019050611bf3565b50505050905090810190601f168015611c3b5780820380516001836020036101000a031916815260200191505b509350505050600060405180830381600087803b158015611c5b57600080fd5b505af1158015611c6f573d6000803e3d6000fd5b505050507fb4dcb6dd550f27b5917ebf674899ea7046ff91790c6f9f01431617ad39819db233604051808273ffffffffffffffffffffffffffffffffffffffff1673ffffffffffffffffffffffffffffffffffffffff16815260200191505060405180910390a150565b606a5481565b60695481565b6077602052816000526040600020602052806000526040600020600091509150505481565b606e6020528060005260406000206000915090508060000154908060010154908060020154908060030154908060040160009054906101000a900473ffffffffffffffffffffffffffffffffffffffff16908060050160009054906101000a900473ffffffffffffffffffffffffffffffffffffffff1690806006018054600181600116156101000203166002900480601f016020809104026020016040519081016040528092919081815260200182805460018160011615610100020316600290048015611e1a5780601f10611def57610100808354040283529160200191611e1a565b820191906000526020600020905b815481529060010190602001808311611dfd57829003601f168201915b5050505050905087565b611e2c612272565b1515611e3757600080fd5b80606660006101000a81548173ffffffffffffffffffffffffffffffffffffffff021916908373ffffffffffffffffffffffffffffffffffffffff16021790555050565b60685481565b6000806070600084815260200190815260200160002090508060090160008573ffffffffffffffffffffffffffffffffffffffff1673ffffffffffffffffffffffffffffffffffffffff16815260200190815260200160002060009054906101000a900460ff1691505092915050565b606f6020528060005260406000206000915090505481565b60766020528060005260406000206000915090508060000154908060010160009054906101000a900473ffffffffffffffffffffffffffffffffffffffff16908060020154908060030154908060040154908060050160009054906101000a900473ffffffffffffffffffffffffffffffffffffffff16908060060160009054906101000a900473ffffffffffffffffffffffffffffffffffffffff16905087565b611fb3612272565b1515611fbe57600080fd5b600073ffffffffffffffffffffffffffffffffffffffff16603360009054906101000a900473ffffffffffffffffffffffffffffffffffffffff1673ffffffffffffffffffffffffffffffffffffffff167f8be0079c531659141344cd1fd0a4f28419497f9722a3daafe3b4186f6b6457e060405160405180910390a36000603360006101000a81548173ffffffffffffffffffffffffffffffffffffffff021916908373ffffffffffffffffffffffffffffffffffffffff160217905550565b606d5481565b600060019054906101000a900460ff16806120a457506120a3613725565b5b806120bb57506000809054906101000a900460ff16155b1515612155576040517f08c379a000000000000000000000000000000000000000000000000000000000815260040180806020018281038252602e8152602001807f436f6e747261637420696e7374616e63652068617320616c726561647920626581526020017f656e20696e697469616c697a656400000000000000000000000000000000000081525060400191505060405180910390fd5b60008060019054906101000a900460ff1690506001600060016101000a81548160ff02191690831515021790555060016000806101000a81548160ff0219169083151502179055506121a6336128c4565b683635c9adc5dea00000606a819055504260698190555080600060016101000a81548160ff02191690831515021790555050565b60716020528060005260406000206000915090505481565b6000603360009054906101000a900473ffffffffffffffffffffffffffffffffffffffff16905090565b6000607560008373ffffffffffffffffffffffffffffffffffffffff1673ffffffffffffffffffffffffffffffffffffffff16815260200190815260200160002060009054906101000a900460ff169050919050565b6000603360009054906101000a900473ffffffffffffffffffffffffffffffffffffffff1673ffffffffffffffffffffffffffffffffffffffff163373ffffffffffffffffffffffffffffffffffffffff1614905090565b6000606f60008373ffffffffffffffffffffffffffffffffffffffff1673ffffffffffffffffffffffffffffffffffffffff168152602001908152602001600020549050919050565b607560003373ffffffffffffffffffffffffffffffffffffffff1673ffffffffffffffffffffffffffffffffffffffff16815260200190815260200160002060009054906101000a900460ff16151561236b57600080fd5b60003390506123786143df565b607660008373ffffffffffffffffffffffffffffffffffffffff1673ffffffffffffffffffffffffffffffffffffffff16815260200190815260200160002060e06040519081016040529081600082015481526020016001820160009054906101000a900473ffffffffffffffffffffffffffffffffffffffff1673ffffffffffffffffffffffffffffffffffffffff1673ffffffffffffffffffffffffffffffffffffffff1681526020016002820154815260200160038201548152602001600482015481526020016005820160009054906101000a900473ffffffffffffffffffffffffffffffffffffffff1673ffffffffffffffffffffffffffffffffffffffff1673ffffffffffffffffffffffffffffffffffffffff1681526020016006820160009054906101000a900473ffffffffffffffffffffffffffffffffffffffff1673ffffffffffffffffffffffffffffffffffffffff1673ffffffffffffffffffffffffffffffffffffffff1681525050905060008160400151905061250061445f565b606e600083815260200190815260200160002060e06040519081016040529081600082015481526020016001820154815260200160028201548152602001600382015481526020016004820160009054906101000a900473ffffffffffffffffffffffffffffffffffffffff1673ffffffffffffffffffffffffffffffffffffffff1673ffffffffffffffffffffffffffffffffffffffff1681526020016005820160009054906101000a900473ffffffffffffffffffffffffffffffffffffffff1673ffffffffffffffffffffffffffffffffffffffff1673ffffffffffffffffffffffffffffffffffffffff168152602001600682018054600181600116156101000203166002900480601f01602080910402602001604051908101604052809291908181526020018280546001816001161561010002031660029004801561268c5780601f106126615761010080835404028352916020019161268c565b820191906000526020600020905b81548152906001019060200180831161266f57829003601f168201915b50505050508152505090506000607260008673ffffffffffffffffffffffffffffffffffffffff1673ffffffffffffffffffffffffffffffffffffffff16815260200190815260200160002054905060006001820190506000607160008681526020019081526020016000205490508360400151607460008973ffffffffffffffffffffffffffffffffffffffff1673ffffffffffffffffffffffffffffffffffffffff1681526020019081526020016000205401421015151561274f57600080fd5b81607260008973ffffffffffffffffffffffffffffffffffffffff1673ffffffffffffffffffffffffffffffffffffffff1681526020019081526020016000208190555080821115612805576127a487613736565b42607460008973ffffffffffffffffffffffffffffffffffffffff1673ffffffffffffffffffffffffffffffffffffffff168152602001908152602001600020819055508160716000878152602001908152602001600020819055506128b5565b42607460008973ffffffffffffffffffffffffffffffffffffffff1673ffffffffffffffffffffffffffffffffffffffff168152602001908152602001600020819055507f6ad49266dd90c9bdf996a7d34e9516f55e0d641ac4b0e911baf7f730d683842a8783604051808373ffffffffffffffffffffffffffffffffffffffff1673ffffffffffffffffffffffffffffffffffffffff1681526020018281526020019250505060405180910390a15b50505050505050565b606c5481565b600060019054906101000a900460ff16806128e357506128e2613725565b5b806128fa57506000809054906101000a900460ff16155b1515612994576040517f08c379a000000000000000000000000000000000000000000000000000000000815260040180806020018281038252602e8152602001807f436f6e747261637420696e7374616e63652068617320616c726561647920626581526020017f656e20696e697469616c697a656400000000000000000000000000000000000081525060400191505060405180910390fd5b60008060019054906101000a900460ff1690506001600060016101000a81548160ff02191690831515021790555060016000806101000a81548160ff02191690831515021790555081603360006101000a81548173ffffffffffffffffffffffffffffffffffffffff021916908373ffffffffffffffffffffffffffffffffffffffff160217905550603360009054906101000a900473ffffffffffffffffffffffffffffffffffffffff1673ffffffffffffffffffffffffffffffffffffffff16600073ffffffffffffffffffffffffffffffffffffffff167f8be0079c531659141344cd1fd0a4f28419497f9722a3daafe3b4186f6b6457e060405160405180910390a380600060016101000a81548160ff0219169083151502179055505050565b612ac0612272565b1515612acb57600080fd5b80606760006101000a81548173ffffffffffffffffffffffffffffffffffffffff021916908373ffffffffffffffffffffffffffffffffffffffff16021790555050565b60726020528060005260406000206000915090505481565b60756020528060005260406000206000915054906101000a900460ff1681565b606660009054906101000a900473ffffffffffffffffffffffffffffffffffffffff1681565b612b75612272565b1515612b8057600080fd5b612b8981613b32565b50565b60736020528060005260406000206000915090505481565b606760009054906101000a900473ffffffffffffffffffffffffffffffffffffffff1681565b606b5481565b612bd861445f565b606e600084815260200190815260200160002060e06040519081016040529081600082015481526020016001820154815260200160028201548152602001600382015481526020016004820160009054906101000a900473ffffffffffffffffffffffffffffffffffffffff1673ffffffffffffffffffffffffffffffffffffffff1673ffffffffffffffffffffffffffffffffffffffff1681526020016005820160009054906101000a900473ffffffffffffffffffffffffffffffffffffffff1673ffffffffffffffffffffffffffffffffffffffff1673ffffffffffffffffffffffffffffffffffffffff168152602001600682018054600181600116156101000203166002900480601f016020809104026020016040519081016040528092919081815260200182805460018160011615610100020316600290048015612d645780601f10612d3957610100808354040283529160200191612d64565b820191906000526020600020905b815481529060010190602001808311612d4757829003601f168201915b5050505050815250509050606660009054906101000a900473ffffffffffffffffffffffffffffffffffffffff1673ffffffffffffffffffffffffffffffffffffffff1663aaa746bb336040518263ffffffff167c0100000000000000000000000000000000000000000000000000000000028152600401808273ffffffffffffffffffffffffffffffffffffffff1673ffffffffffffffffffffffffffffffffffffffff16815260200191505060206040518083038186803b158015612e2a57600080fd5b505afa158015612e3e573d6000803e3d6000fd5b505050506040513d6020811015612e5457600080fd5b81019080805190602001909291905050501515612e7057600080fd5b606660009054906101000a900473ffffffffffffffffffffffffffffffffffffffff1673ffffffffffffffffffffffffffffffffffffffff1663c812a6013383606001516040518363ffffffff167c0100000000000000000000000000000000000000000000000000000000028152600401808373ffffffffffffffffffffffffffffffffffffffff1673ffffffffffffffffffffffffffffffffffffffff16815260200182815260200192505050600060405180830381600087803b158015612f3957600080fd5b505af1158015612f4d573d6000803e3d6000fd5b50505050606c60008154809291906001019190505550600081600001519050600082602001519050600081830390506000846080015190506000606c549050612f946143df565b60e0604051908101604052808581526020013373ffffffffffffffffffffffffffffffffffffffff1681526020018a81526020018681526020018381526020018473ffffffffffffffffffffffffffffffffffffffff1681526020018973ffffffffffffffffffffffffffffffffffffffff16815250905080607660008a73ffffffffffffffffffffffffffffffffffffffff1673ffffffffffffffffffffffffffffffffffffffff1681526020019081526020016000206000820151816000015560208201518160010160006101000a81548173ffffffffffffffffffffffffffffffffffffffff021916908373ffffffffffffffffffffffffffffffffffffffff16021790555060408201518160020155606082015181600301556080820151816004015560a08201518160050160006101000a81548173ffffffffffffffffffffffffffffffffffffffff021916908373ffffffffffffffffffffffffffffffffffffffff16021790555060c08201518160060160006101000a81548173ffffffffffffffffffffffffffffffffffffffff021916908373ffffffffffffffffffffffffffffffffffffffff1602179055509050506000607360008b815260200190815260200160002054905080806001019150607360008c8152602001908152602001600020819055506001607560008b73ffffffffffffffffffffffffffffffffffffffff1673ffffffffffffffffffffffffffffffffffffffff16815260200190815260200160002060006101000a81548160ff0219169083151502179055506000607760003373ffffffffffffffffffffffffffffffffffffffff1673ffffffffffffffffffffffffffffffffffffffff16815260200190815260200160002060008c815260200190815260200160002054905080806001019150607760003373ffffffffffffffffffffffffffffffffffffffff1673ffffffffffffffffffffffffffffffffffffffff16815260200190815260200160002060008d815260200190815260200160002081905550606660009054906101000a900473ffffffffffffffffffffffffffffffffffffffff1673ffffffffffffffffffffffffffffffffffffffff16634777e8ea336040518263ffffffff167c0100000000000000000000000000000000000000000000000000000000028152600401808273ffffffffffffffffffffffffffffffffffffffff1673ffffffffffffffffffffffffffffffffffffffff168152602001915050600060405180830381600087803b15801561334757600080fd5b505af115801561335b573d6000803e3d6000fd5b5050505042607460008c73ffffffffffffffffffffffffffffffffffffffff1673ffffffffffffffffffffffffffffffffffffffff168152602001908152602001600020819055507fe949536157131e1de4cd7b981de0040f0fb98337330cdf262d0fed657681c2f08a604051808273ffffffffffffffffffffffffffffffffffffffff1673ffffffffffffffffffffffffffffffffffffffff16815260200191505060405180910390a15050505050505050505050565b60008061342284846002613c2e565b9050603c8110151561343857600191505061343e565b60009150505b92915050565b60006070600083815260200190815260200160002090506060816000018054600181600116156101000203166002900480601f0160208091040260200160405190810160405280929190818152602001828054600181600116156101000203166002900480156134f55780601f106134ca576101008083540402835291602001916134f5565b820191906000526020600020905b8154815290600101906020018083116134d857829003601f168201915b5050505050905060008260020154905060008360040154905060008460030154905060008560050154905060008660060160009054906101000a900473ffffffffffffffffffffffffffffffffffffffff16905060008760070160009054906101000a900473ffffffffffffffffffffffffffffffffffffffff1690506000809050600080905060008090505b8a600801805490508110156135ea5760008b600801828154811015156135a457fe5b9060005260206000200190506000600190508160000160009054906101000a900460ff16156135d75780850194506135dd565b80840193505b5050806001019050613582565b50808211156136dd5760018a60010160006101000a81548160ff02191690831515021790555060018a60010160016101000a81548160ff02191690831515021790555061363c89898989898989613c67565b7ff7d7228b49234d1660fac6c22cb436b3520fa0f9b4b65f0482d84a1698674397896040518080602001828103825283818151815260200191508051906020019080838360005b8381101561369e578082015181840152602081019050613683565b50505050905090810190601f1680156136cb5780820380516001836020036101000a031916815260200191505b509250505060405180910390a1613718565b60008a60010160016101000a81548160ff02191690831515021790555060018a60010160006101000a81548160ff0219169083151502179055505b5050505050505050505050565b600080303b90506000811491505090565b61373e6143df565b607660008373ffffffffffffffffffffffffffffffffffffffff1673ffffffffffffffffffffffffffffffffffffffff16815260200190815260200160002060e06040519081016040529081600082015481526020016001820160009054906101000a900473ffffffffffffffffffffffffffffffffffffffff1673ffffffffffffffffffffffffffffffffffffffff1673ffffffffffffffffffffffffffffffffffffffff1681526020016002820154815260200160038201548152602001600482015481526020016005820160009054906101000a900473ffffffffffffffffffffffffffffffffffffffff1673ffffffffffffffffffffffffffffffffffffffff1673ffffffffffffffffffffffffffffffffffffffff1681526020016006820160009054906101000a900473ffffffffffffffffffffffffffffffffffffffff1673ffffffffffffffffffffffffffffffffffffffff1673ffffffffffffffffffffffffffffffffffffffff1681525050905060008160200151905060008260a00151905060008360400151905060008460600151905060008560000151905060006138ef82858861428e565b9050606d60008154809291906001019190505550606660009054906101000a900473ffffffffffffffffffffffffffffffffffffffff1673ffffffffffffffffffffffffffffffffffffffff16636326e4ce87836040518363ffffffff167c0100000000000000000000000000000000000000000000000000000000028152600401808373ffffffffffffffffffffffffffffffffffffffff1673ffffffffffffffffffffffffffffffffffffffff16815260200182815260200192505050600060405180830381600087803b1580156139c857600080fd5b505af11580156139dc573d6000803e3d6000fd5b50505050606660009054906101000a900473ffffffffffffffffffffffffffffffffffffffff1673ffffffffffffffffffffffffffffffffffffffff16636326e4ce86856040518363ffffffff167c0100000000000000000000000000000000000000000000000000000000028152600401808373ffffffffffffffffffffffffffffffffffffffff1673ffffffffffffffffffffffffffffffffffffffff16815260200182815260200192505050600060405180830381600087803b158015613aa557600080fd5b505af1158015613ab9573d6000803e3d6000fd5b505050507fc35af376e21644286c5c8e35541e14cc67a7215c4a724810ed7e49a421c670a98885604051808373ffffffffffffffffffffffffffffffffffffffff1673ffffffffffffffffffffffffffffffffffffffff1681526020018281526020019250505060405180910390a15050505050505050565b600073ffffffffffffffffffffffffffffffffffffffff168173ffffffffffffffffffffffffffffffffffffffff1614151515613b6e57600080fd5b8073ffffffffffffffffffffffffffffffffffffffff16603360009054906101000a900473ffffffffffffffffffffffffffffffffffffffff1673ffffffffffffffffffffffffffffffffffffffff167f8be0079c531659141344cd1fd0a4f28419497f9722a3daafe3b4186f6b6457e060405160405180910390a380603360006101000a81548173ffffffffffffffffffffffffffffffffffffffff021916908373ffffffffffffffffffffffffffffffffffffffff16021790555050565b60008060018301600a0a850290506000600a60058684811515613c4d57fe5b0401811515613c5857fe5b04905080925050509392505050565b60686000815480929190600101919050555060006068549050613c8861445f565b60e0604051908101604052808981526020018781526020018881526020018681526020018573ffffffffffffffffffffffffffffffffffffffff1681526020018473ffffffffffffffffffffffffffffffffffffffff1681526020018a815250905081606f60008573ffffffffffffffffffffffffffffffffffffffff1673ffffffffffffffffffffffffffffffffffffffff1681526020019081526020016000208190555080606e60008481526020019081526020016000206000820151816000015560208201518160010155604082015181600201556060820151816003015560808201518160040160006101000a81548173ffffffffffffffffffffffffffffffffffffffff021916908373ffffffffffffffffffffffffffffffffffffffff16021790555060a08201518160050160006101000a81548173ffffffffffffffffffffffffffffffffffffffff021916908373ffffffffffffffffffffffffffffffffffffffff16021790555060c0820151816006019080519060200190613e149291906144c9565b50905050606760009054906101000a900473ffffffffffffffffffffffffffffffffffffffff1673ffffffffffffffffffffffffffffffffffffffff16634d238c8e846040518263ffffffff167c0100000000000000000000000000000000000000000000000000000000028152600401808273ffffffffffffffffffffffffffffffffffffffff1673ffffffffffffffffffffffffffffffffffffffff168152602001915050600060405180830381600087803b158015613ed557600080fd5b505af1158015613ee9573d6000803e3d6000fd5b50505050613ef56142f1565b50606660009054906101000a900473ffffffffffffffffffffffffffffffffffffffff1673ffffffffffffffffffffffffffffffffffffffff16636326e4ce85606a546040518363ffffffff167c0100000000000000000000000000000000000000000000000000000000028152600401808373ffffffffffffffffffffffffffffffffffffffff1673ffffffffffffffffffffffffffffffffffffffff16815260200182815260200192505050600060405180830381600087803b158015613fbd57600080fd5b505af1158015613fd1573d6000803e3d6000fd5b5050505060011515606660009054906101000a900473ffffffffffffffffffffffffffffffffffffffff1673ffffffffffffffffffffffffffffffffffffffff1663aaa746bb866040518263ffffffff167c0100000000000000000000000000000000000000000000000000000000028152600401808273ffffffffffffffffffffffffffffffffffffffff1673ffffffffffffffffffffffffffffffffffffffff16815260200191505060206040518083038186803b15801561409457600080fd5b505afa1580156140a8573d6000803e3d6000fd5b505050506040513d60208110156140be57600080fd5b810190808051906020019092919050505015151415156141ae57606660009054906101000a900473ffffffffffffffffffffffffffffffffffffffff1673ffffffffffffffffffffffffffffffffffffffff16631d40bbcf856040518263ffffffff167c0100000000000000000000000000000000000000000000000000000000028152600401808273ffffffffffffffffffffffffffffffffffffffff1673ffffffffffffffffffffffffffffffffffffffff168152602001915050600060405180830381600087803b15801561419557600080fd5b505af11580156141a9573d6000803e3d6000fd5b505050505b606660009054906101000a900473ffffffffffffffffffffffffffffffffffffffff1673ffffffffffffffffffffffffffffffffffffffff16634777e8ea856040518263ffffffff167c0100000000000000000000000000000000000000000000000000000000028152600401808273ffffffffffffffffffffffffffffffffffffffff1673ffffffffffffffffffffffffffffffffffffffff168152602001915050600060405180830381600087803b15801561426b57600080fd5b505af115801561427f573d6000803e3d6000fd5b50505050505050505050505050565b600080607760008473ffffffffffffffffffffffffffffffffffffffff1673ffffffffffffffffffffffffffffffffffffffff16815260200190815260200160002060008581526020019081526020016000205490508085029150509392505050565b60006305a48fba606954014210151561432a576002606a5481151561431257fe5b04606a8190555042606981905550606a549050614330565b606a5490505b90565b81548183558181111561435a578183600052602060002091820191016143599190614549565b5b505050565b828054600181600116156101000203166002900490600052602060002090601f016020900481019282601f106143a057805160ff19168380011785556143ce565b828001600101855582156143ce579182015b828111156143cd5782518255916020019190600101906143b2565b5b5090506143db91906145a3565b5090565b60e06040519081016040528060008152602001600073ffffffffffffffffffffffffffffffffffffffff168152602001600081526020016000815260200160008152602001600073ffffffffffffffffffffffffffffffffffffffff168152602001600073ffffffffffffffffffffffffffffffffffffffff1681525090565b60e06040519081016040528060008152602001600081526020016000815260200160008152602001600073ffffffffffffffffffffffffffffffffffffffff168152602001600073ffffffffffffffffffffffffffffffffffffffff168152602001606081525090565b828054600181600116156101000203166002900490600052602060002090601f016020900481019282601f1061450a57805160ff1916838001178555614538565b82800160010185558215614538579182015b8281111561453757825182559160200191906001019061451c565b5b50905061454591906145a3565b5090565b6145a091905b8082111561459c57600080820160006101000a81549060ff02191690556000820160016101000a81549073ffffffffffffffffffffffffffffffffffffffff02191690555060010161454f565b5090565b90565b6145c591905b808211156145c15760008160009055506001016145a9565b5090565b9056fea165627a7a7230582063779c8ae5806780d30a3b9dfab79e8c823249349f615c92bacfcfa3e75a52ad0029",
  "source": "pragma solidity ^0.5.0;\nimport './UseBlockLogic.sol';\n\ncontract CryptoPatentBlockchain is UseBlockLogic {\n\n\n  function initialize() public initializer {\n    Ownable.initialize(msg.sender);\n    ideaBlockReward = 1000000000000000000000;\n    globalBlockHalfTime = now;\n  }\n\n\n\n  ///@notice proposeIdea is used to allow ANYONE to petition the community for idea approval\n  ///@dev the struct for this is set in interface.solidity\n  ///@dev idea proposals are put up for community approval\n  function proposeIdea(\n    string memory _ideaIPFS,\n    uint _globalUseBlockAmount,\n    uint _miningTime,\n    uint _royalty,\n    uint _stakeAmount,\n    address _inventor,\n    address _invention\n  ) public {\n          globalIdeaPropCount++;\n          uint IdeaProposalID = globalIdeaPropCount;\n          getHash[_ideaIPFS] = IdeaProposalID;\n\n          IdeaProposal storage p = ideaProposals[IdeaProposalID];\n          p.IdeaIPFS = _ideaIPFS;\n          p.executed = false;\n          p.proposalPassed = false;\n          p.globalUseBlockAmount = _globalUseBlockAmount;\n          p.royalty = _royalty;\n          p.stakeAmount = _stakeAmount;\n          p.miningTime = _miningTime;\n          p.inventorAddress = _inventor;\n          p.inventionAddress = _invention;\n          emit IdeaProposed(_ideaIPFS);\n  }\n\n\n\n  ///@notice vote is a member only function which allows DecentraCorp members to vote on proposalPassed\n\n   function ideaVote(\n          uint _ideaProposalID,\n          bool supportsProposal\n      )\n          public\n\n      {\n          require(DCPoA._checkIfMember(msg.sender) == true);\n          IdeaProposal storage p = ideaProposals[_ideaProposalID];\n          //makes the proposal an object, p\n          require(p.voted[msg.sender] != true);\n          //requires that the person calling the function hasnt voted yet\n          require(p.executed != true);\n          //requires the proposal hasnt been executed yet\n          uint voteID = p.votes.length++;\n          //sets voteID to the length of the votes array for that proposal\n          p.votes[voteID] = Vote({inSupport: supportsProposal, voter: msg.sender});\n          //sets the individual Vote struct  properties to a voteID within votes struct array\n          p.voted[msg.sender] = true;\n          //sets the voter to true so they cant vote twice\n          DCPoA.increaseMemLev(msg.sender);\n          //increases the members level for voting\n          emit Voted(msg.sender, supportsProposal);\n          //emits Voted event\n          uint maxQuorum = DCPoA.getMemberCount();\n          //sets maxQuorum equal to total # of members\n          bool tally = set_Quorum(voteID, maxQuorum);\n          //sets tally to either true of false depending if the # of votes is\n          //greater than 60% of the total # of members\n          if(tally) {\n            ideaBlockVote(_ideaProposalID);\n            //fires of the vote tally function\n          }\n      }\n\n\n  // allows members to vote on proposals\n  ///@notice ideaBlockVote counts the votes and executes and Idea Proposal, adding an idea to the cryptopatent Blockchain\n  ///@dev seperate but similiar structures will need to be implemented in the future to stream line voting on different subjects(beta)\n  function ideaBlockVote(uint _ideaProposalID) internal {\n          IdeaProposal storage p = ideaProposals[_ideaProposalID];\n               // sets p equal to the specific proposalNumbers struct\n          string memory _ideahash = p.IdeaIPFS;\n          uint _globalUseBlockAmount = p.globalUseBlockAmount;\n          uint _miningTime = p.miningTime;\n          uint _royalty = p.royalty;\n          uint _stakeAmount = p.stakeAmount;\n          address _inventor = p.inventorAddress;\n          address _invention = p.inventionAddress;\n\n          uint yea = 0;\n          uint nay = 0;\n\n      for (uint i = 0; i <  p.votes.length; ++i) {\n          Vote storage v = p.votes[i];\n          uint voteWeight = 1;\n          if (v.inSupport) {\n            yea += voteWeight;\n               } else {\n             nay += voteWeight;\n                   }\n               }\n\n               if (yea > nay ) {\n                   // Proposal passed; execute the transaction\n                 p.executed = true;\n                 p.proposalPassed = true;\n                 generateIdeaBlock( _ideahash,  _globalUseBlockAmount, _miningTime, _royalty, _stakeAmount, _inventor, _invention);\n                 emit IdeaApproved( _ideahash);\n             } else {\n                   // Proposal failed\n                 p.proposalPassed = false;\n                 p.executed = true;\n             }\n        }\n\n        ///@notice stakeReplicatorWallet function allows for the activation of a replication wallet by\n        ///        burning Notio from the msg.sender\n        ///@dev stakeReplicatorWallet costs 100 DCPoA and burns them from existence\n          function stakeReplicatorWallet(string memory _hash) public {\n            DCPoA.proxyNTCBurn(msg.sender, 100000000000000000000);\n            DCPoA._addMember(msg.sender);\n            DCPoA.setProfileHash(msg.sender, _hash);\n            emit NewMember(msg.sender);\n          }\n\n            ///@notice the following functions allow for easier access to info by both the front end and other contracts\n            ///@dev all the following contracts allow for the retreval of token block information\n              function checkIfRep(address _add) external view returns(bool) {\n                return replications[_add];\n              }\n\n\n              function getID(address _ideaAdd) public view returns(uint){\n                return IdeaAddToId[_ideaAdd];\n              }\n\n              function setValidatorContract(address _valCon) public onlyOwner {\n                    Validators = RelayedOwnedSet(_valCon);\n              }\n\n              function setDCPoA(DecentraCorp _dcpoa) public onlyOwner {\n                DCPoA = DecentraCorp(_dcpoa);\n              }\n\n              function checkIfVotedIdea(address _add, uint _ideaProposalID) public view returns(bool) {\n                IdeaProposal storage p = ideaProposals[_ideaProposalID];\n                return p.voted[_add];\n              }\n\n              ///@notice getPropID function allows one to rerieve a proposal ID by its ipfs hash\n///@dev getPropID is made for easier front end interaction\nfunction getPropID(string memory hash) public view returns(uint){\n  return getHash[hash];\n}\n\n\n}\n",
  "sourcePath": "/home/stan36/repos/DecentraCorpContracts/contracts/CryptoPatent/CryptoPatentBlockchain.sol",
  "compiler": {
    "name": "solc",
    "version": "0.5.0+commit.1d4f565a.Emscripten.clang"
  },
  "schemaVersion": "3.0.2",
  "updatedAt": "2019-04-13T18:33:33.984Z",
  "devdoc": {
    "methods": {
      "checkIfRep(address)": {
        "details": "all the following contracts allow for the retreval of token block information"
      },
      "generateReplicationBlock(uint256,address)": {
        "details": "this requires the replicator has enough Notio to meet the stake amount and burns it from existenceit also adds the replicator as a member of DecentraCorpfinally, this contract calls the Proof of Replication Ownership contract and mints a PoRO token to the msg.sender"
      },
      "generateUseBlockWeight()": {
        "details": "this is called by generateUseBlockWeight"
      },
      "getPropID(string)": {
        "details": "getPropID is made for easier front end interaction"
      },
      "initialize(address)": {
        "details": "The Ownable constructor sets the original `owner` of the contract to the sender account."
      },
      "isOwner()": {
        "return": "true if `msg.sender` is the owner of the contract."
      },
      "owner()": {
        "return": "the address of the owner."
      },
      "proposeIdea(string,uint256,uint256,uint256,uint256,address,address)": {
        "details": "the struct for this is set in interface.solidityidea proposals are put up for community approval"
      },
      "renounceOwnership()": {
        "details": "Allows the current owner to relinquish control of the contract."
      },
      "stakeReplicatorWallet(string)": {
        "details": "stakeReplicatorWallet costs 100 DCPoA and burns them from existence"
      },
      "transferOwnership(address)": {
        "details": "Allows the current owner to transfer control of the contract to a newOwner.",
        "params": {
          "newOwner": "The address to transfer ownership to."
        }
      }
    }
  },
  "userdoc": {
    "methods": {
      "checkIfRep(address)": {
        "notice": "the following functions allow for easier access to info by both the front end and other contracts"
      },
      "generateReplicationBlock(uint256,address)": {
        "notice": "generateReplicationBlock is used to generate a replication block when someone sucessfully replicates an Idea"
      },
      "generateUseBlockWeight()": {
        "notice": "UseBlockWeight is an internal function that tracks loacal use weightTracker"
      },
      "getPropID(string)": {
        "notice": "getPropID function allows one to rerieve a proposal ID by its ipfs hash"
      },
      "ideaVote(uint256,bool)": {
        "notice": "vote is a member only function which allows DecentraCorp members to vote on proposalPassed"
      },
      "proposeIdea(string,uint256,uint256,uint256,uint256,address,address)": {
        "notice": "proposeIdea is used to allow ANYONE to petition the community for idea approval"
      },
      "renounceOwnership()": {
        "notice": "Renouncing to ownership will leave the contract without an owner. It will not be possible to call the functions with the `onlyOwner` modifier anymore."
      },
      "stakeReplicatorWallet(string)": {
        "notice": "stakeReplicatorWallet function allows for the activation of a replication wallet by        burning Notio from the msg.sender"
      }
    }
  }
}