{
  "contractName": "DCBank",
  "abi": [
    {
      "anonymous": false,
      "inputs": [
        {
          "indexed": true,
          "internalType": "address",
          "name": "previousOwner",
          "type": "address"
        },
        {
          "indexed": true,
          "internalType": "address",
          "name": "newOwner",
          "type": "address"
        }
      ],
      "name": "OwnershipTransferred",
      "type": "event"
    },
    {
      "constant": true,
      "inputs": [],
      "name": "DD",
      "outputs": [
        {
          "internalType": "contract DecentraDollar",
          "name": "",
          "type": "address"
        }
      ],
      "payable": false,
      "stateMutability": "view",
      "type": "function"
    },
    {
      "constant": true,
      "inputs": [],
      "name": "DS",
      "outputs": [
        {
          "internalType": "contract DecentraStock",
          "name": "",
          "type": "address"
        }
      ],
      "payable": false,
      "stateMutability": "view",
      "type": "function"
    },
    {
      "constant": true,
      "inputs": [],
      "name": "DecentraEarnings",
      "outputs": [
        {
          "internalType": "uint256",
          "name": "",
          "type": "uint256"
        }
      ],
      "payable": false,
      "stateMutability": "view",
      "type": "function"
    },
    {
      "constant": false,
      "inputs": [
        {
          "internalType": "address",
          "name": "_contract",
          "type": "address"
        }
      ],
      "name": "addNewToken",
      "outputs": [],
      "payable": false,
      "stateMutability": "nonpayable",
      "type": "function"
    },
    {
      "constant": true,
      "inputs": [],
      "name": "approvedContracts",
      "outputs": [
        {
          "internalType": "uint256",
          "name": "",
          "type": "uint256"
        }
      ],
      "payable": false,
      "stateMutability": "view",
      "type": "function"
    },
    {
      "constant": true,
      "inputs": [],
      "name": "bancor",
      "outputs": [
        {
          "internalType": "contract BancorFormulaI",
          "name": "",
          "type": "address"
        }
      ],
      "payable": false,
      "stateMutability": "view",
      "type": "function"
    },
    {
      "constant": true,
      "inputs": [],
      "name": "collateralPoolBalance",
      "outputs": [
        {
          "internalType": "uint256",
          "name": "",
          "type": "uint256"
        }
      ],
      "payable": false,
      "stateMutability": "view",
      "type": "function"
    },
    {
      "constant": true,
      "inputs": [],
      "name": "divisor",
      "outputs": [
        {
          "internalType": "uint256",
          "name": "",
          "type": "uint256"
        }
      ],
      "payable": false,
      "stateMutability": "view",
      "type": "function"
    },
    {
      "constant": true,
      "inputs": [],
      "name": "frozen",
      "outputs": [
        {
          "internalType": "bool",
          "name": "",
          "type": "bool"
        }
      ],
      "payable": false,
      "stateMutability": "view",
      "type": "function"
    },
    {
      "constant": false,
      "inputs": [
        {
          "internalType": "address",
          "name": "sender",
          "type": "address"
        }
      ],
      "name": "initialize",
      "outputs": [],
      "payable": false,
      "stateMutability": "nonpayable",
      "type": "function"
    },
    {
      "constant": true,
      "inputs": [],
      "name": "isOwner",
      "outputs": [
        {
          "internalType": "bool",
          "name": "",
          "type": "bool"
        }
      ],
      "payable": false,
      "stateMutability": "view",
      "type": "function"
    },
    {
      "constant": true,
      "inputs": [],
      "name": "owner",
      "outputs": [
        {
          "internalType": "address",
          "name": "",
          "type": "address"
        }
      ],
      "payable": false,
      "stateMutability": "view",
      "type": "function"
    },
    {
      "constant": true,
      "inputs": [],
      "name": "percentFee",
      "outputs": [
        {
          "internalType": "uint256",
          "name": "",
          "type": "uint256"
        }
      ],
      "payable": false,
      "stateMutability": "view",
      "type": "function"
    },
    {
      "constant": false,
      "inputs": [
        {
          "internalType": "uint256",
          "name": "_contractNum",
          "type": "uint256"
        }
      ],
      "name": "removeContract",
      "outputs": [],
      "payable": false,
      "stateMutability": "nonpayable",
      "type": "function"
    },
    {
      "constant": false,
      "inputs": [],
      "name": "renounceOwnership",
      "outputs": [],
      "payable": false,
      "stateMutability": "nonpayable",
      "type": "function"
    },
    {
      "constant": false,
      "inputs": [
        {
          "internalType": "address",
          "name": "newOwner",
          "type": "address"
        }
      ],
      "name": "transferOwnership",
      "outputs": [],
      "payable": false,
      "stateMutability": "nonpayable",
      "type": "function"
    },
    {
      "constant": true,
      "inputs": [
        {
          "internalType": "uint256",
          "name": "_payedAmount",
          "type": "uint256"
        }
      ],
      "name": "calculateFee",
      "outputs": [
        {
          "internalType": "uint256",
          "name": "",
          "type": "uint256"
        }
      ],
      "payable": false,
      "stateMutability": "view",
      "type": "function"
    },
    {
      "constant": false,
      "inputs": [
        {
          "internalType": "uint256",
          "name": "_tokenAmount",
          "type": "uint256"
        },
        {
          "internalType": "uint256",
          "name": "_contractNum",
          "type": "uint256"
        }
      ],
      "name": "buyPrefferedStock",
      "outputs": [],
      "payable": false,
      "stateMutability": "nonpayable",
      "type": "function"
    },
    {
      "constant": false,
      "inputs": [
        {
          "internalType": "uint256",
          "name": "_DSamount",
          "type": "uint256"
        },
        {
          "internalType": "uint256",
          "name": "_contractNum",
          "type": "uint256"
        }
      ],
      "name": "sellPrefferedStock",
      "outputs": [],
      "payable": false,
      "stateMutability": "nonpayable",
      "type": "function"
    }
  ],
  "bytecode": "0x6080604052611b64806100136000396000f3fe608060405234801561001057600080fd5b50600436106101215760003560e01c80637cca3b06116100ad578063c4d66de811610071578063c4d66de8146103d0578063dce8600314610414578063e3cb093214610432578063eccc32f214610450578063f2fde38b1461049a57610121565b80637cca3b06146102d65780638af6375f146103045780638da5cb5b146103225780638f32d59b1461036c57806399a5d7471461038e57610121565b80634242bac0116100f45780634242bac0146101d65780634c1a411514610220578063639905b41461023e57806364db444a14610288578063715018a6146102cc57610121565b8063054f7d9c1461012657806307df368a146101485780631f2dc5ef1461018057806335a0c8ac1461019e575b600080fd5b61012e6104de565b604051808215151515815260200191505060405180910390f35b61017e6004803603604081101561015e57600080fd5b8101908080359060200190929190803590602001909291905050506104f1565b005b6101886108cc565b6040518082815260200191505060405180910390f35b6101d4600480360360408110156101b457600080fd5b8101908080359060200190929190803590602001909291905050506108d2565b005b6101de610de8565b604051808273ffffffffffffffffffffffffffffffffffffffff1673ffffffffffffffffffffffffffffffffffffffff16815260200191505060405180910390f35b610228610e0e565b6040518082815260200191505060405180910390f35b610246610e14565b604051808273ffffffffffffffffffffffffffffffffffffffff1673ffffffffffffffffffffffffffffffffffffffff16815260200191505060405180910390f35b6102ca6004803603602081101561029e57600080fd5b81019080803573ffffffffffffffffffffffffffffffffffffffff169060200190929190505050610e3a565b005b6102d4610f1d565b005b610302600480360360208110156102ec57600080fd5b8101908080359060200190929190505050611058565b005b61030c611127565b6040518082815260200191505060405180910390f35b61032a61112d565b604051808273ffffffffffffffffffffffffffffffffffffffff1673ffffffffffffffffffffffffffffffffffffffff16815260200191505060405180910390f35b610374611157565b604051808215151515815260200191505060405180910390f35b6103ba600480360360208110156103a457600080fd5b81019080803590602001909291905050506111b6565b6040518082815260200191505060405180910390f35b610412600480360360208110156103e657600080fd5b81019080803573ffffffffffffffffffffffffffffffffffffffff1690602001909291905050506111ed565b005b61041c6113ab565b6040518082815260200191505060405180910390f35b61043a6113b1565b6040518082815260200191505060405180910390f35b6104586113b7565b604051808273ffffffffffffffffffffffffffffffffffffffff1673ffffffffffffffffffffffffffffffffffffffff16815260200191505060405180910390f35b6104dc600480360360208110156104b057600080fd5b81019080803573ffffffffffffffffffffffffffffffffffffffff1690602001909291905050506113dd565b005b606660009054906101000a900460ff1681565b6000606a60009054906101000a900473ffffffffffffffffffffffffffffffffffffffff1673ffffffffffffffffffffffffffffffffffffffff166318160ddd6040518163ffffffff1660e01b815260040160206040518083038186803b15801561055b57600080fd5b505afa15801561056f573d6000803e3d6000fd5b505050506040513d602081101561058557600080fd5b810190808051906020019092919050505090506000606b60009054906101000a900473ffffffffffffffffffffffffffffffffffffffff1673ffffffffffffffffffffffffffffffffffffffff166329a00e7c83606c546207a120886040518563ffffffff1660e01b8152600401808581526020018481526020018363ffffffff16815260200182815260200194505050505060206040518083038186803b15801561063057600080fd5b505afa158015610644573d6000803e3d6000fd5b505050506040513d602081101561065a57600080fd5b8101908080519060200190929190505050905060006068600085815260200190815260200160002060009054906101000a900473ffffffffffffffffffffffffffffffffffffffff16905060008190506106bf86606c5461146390919063ffffffff16565b606c819055506001851461070c5760006106d8876111b6565b90506106ed818861146390919063ffffffff16565b965061070481606d5461146390919063ffffffff16565b606d81905550505b8073ffffffffffffffffffffffffffffffffffffffff166323b872dd3330896040518463ffffffff1660e01b8152600401808473ffffffffffffffffffffffffffffffffffffffff1673ffffffffffffffffffffffffffffffffffffffff1681526020018373ffffffffffffffffffffffffffffffffffffffff1673ffffffffffffffffffffffffffffffffffffffff1681526020018281526020019350505050602060405180830381600087803b1580156107c757600080fd5b505af11580156107db573d6000803e3d6000fd5b505050506040513d60208110156107f157600080fd5b810190808051906020019092919050505050606a60009054906101000a900473ffffffffffffffffffffffffffffffffffffffff1673ffffffffffffffffffffffffffffffffffffffff166319f7885e33856040518363ffffffff1660e01b8152600401808373ffffffffffffffffffffffffffffffffffffffff1673ffffffffffffffffffffffffffffffffffffffff16815260200182815260200192505050600060405180830381600087803b1580156108ac57600080fd5b505af11580156108c0573d6000803e3d6000fd5b50505050505050505050565b606f5481565b6067548111156108e157600080fd5b60006068600083815260200190815260200160002060009054906101000a900473ffffffffffffffffffffffffffffffffffffffff1690503073ffffffffffffffffffffffffffffffffffffffff168173ffffffffffffffffffffffffffffffffffffffff16141561095257600080fd5b6000606a60009054906101000a900473ffffffffffffffffffffffffffffffffffffffff1673ffffffffffffffffffffffffffffffffffffffff166318160ddd6040518163ffffffff1660e01b815260040160206040518083038186803b1580156109bc57600080fd5b505afa1580156109d0573d6000803e3d6000fd5b505050506040513d60208110156109e657600080fd5b810190808051906020019092919050505090506000606b60009054906101000a900473ffffffffffffffffffffffffffffffffffffffff1673ffffffffffffffffffffffffffffffffffffffff166349f9b0f783606c546206ddd0896040518563ffffffff1660e01b8152600401808581526020018481526020018363ffffffff16815260200182815260200194505050505060206040518083038186803b158015610a9157600080fd5b505afa158015610aa5573d6000803e3d6000fd5b505050506040513d6020811015610abb57600080fd5b810190808051906020019092919050505090506000606b60009054906101000a900473ffffffffffffffffffffffffffffffffffffffff1673ffffffffffffffffffffffffffffffffffffffff166349f9b0f784606c546207a1208a6040518563ffffffff1660e01b8152600401808581526020018481526020018363ffffffff16815260200182815260200194505050505060206040518083038186803b158015610b6657600080fd5b505afa158015610b7a573d6000803e3d6000fd5b505050506040513d6020811015610b9057600080fd5b810190808051906020019092919050505090506000610bb883836114eb90919063ffffffff16565b9050610bcf81606d5461146390919063ffffffff16565b606d819055506000859050610be43389611535565b60008173ffffffffffffffffffffffffffffffffffffffff166370a08231306040518263ffffffff1660e01b8152600401808273ffffffffffffffffffffffffffffffffffffffff1673ffffffffffffffffffffffffffffffffffffffff16815260200191505060206040518083038186803b158015610c6357600080fd5b505afa158015610c77573d6000803e3d6000fd5b505050506040513d6020811015610c8d57600080fd5b8101908080519060200190929190505050905060018814610ce7576000610cb3866111b6565b9050610cc881876114eb90919063ffffffff16565b9550610cdf81606d5461146390919063ffffffff16565b606d81905550505b84811015610cfe57610cf9338661161a565b610ddd565b8173ffffffffffffffffffffffffffffffffffffffff1663a9059cbb33876040518363ffffffff1660e01b8152600401808373ffffffffffffffffffffffffffffffffffffffff1673ffffffffffffffffffffffffffffffffffffffff16815260200182815260200192505050602060405180830381600087803b158015610d8557600080fd5b505af1158015610d99573d6000803e3d6000fd5b505050506040513d6020811015610daf57600080fd5b810190808051906020019092919050505050610dd685606c546114eb90919063ffffffff16565b606c819055505b505050505050505050565b606a60009054906101000a900473ffffffffffffffffffffffffffffffffffffffff1681565b606e5481565b606b60009054906101000a900473ffffffffffffffffffffffffffffffffffffffff1681565b610e42611157565b610eb4576040517f08c379a00000000000000000000000000000000000000000000000000000000081526004018080602001828103825260208152602001807f4f776e61626c653a2063616c6c6572206973206e6f7420746865206f776e657281525060200191505060405180910390fd5b6067600081548092919060010191905055508060686000606754815260200190815260200160002060006101000a81548173ffffffffffffffffffffffffffffffffffffffff021916908373ffffffffffffffffffffffffffffffffffffffff16021790555050565b610f25611157565b610f97576040517f08c379a00000000000000000000000000000000000000000000000000000000081526004018080602001828103825260208152602001807f4f776e61626c653a2063616c6c6572206973206e6f7420746865206f776e657281525060200191505060405180910390fd5b600073ffffffffffffffffffffffffffffffffffffffff16603360009054906101000a900473ffffffffffffffffffffffffffffffffffffffff1673ffffffffffffffffffffffffffffffffffffffff167f8be0079c531659141344cd1fd0a4f28419497f9722a3daafe3b4186f6b6457e060405160405180910390a36000603360006101000a81548173ffffffffffffffffffffffffffffffffffffffff021916908373ffffffffffffffffffffffffffffffffffffffff160217905550565b611060611157565b6110d2576040517f08c379a00000000000000000000000000000000000000000000000000000000081526004018080602001828103825260208152602001807f4f776e61626c653a2063616c6c6572206973206e6f7420746865206f776e657281525060200191505060405180910390fd5b306068600083815260200190815260200160002060006101000a81548173ffffffffffffffffffffffffffffffffffffffff021916908373ffffffffffffffffffffffffffffffffffffffff16021790555050565b606c5481565b6000603360009054906101000a900473ffffffffffffffffffffffffffffffffffffffff16905090565b6000603360009054906101000a900473ffffffffffffffffffffffffffffffffffffffff1673ffffffffffffffffffffffffffffffffffffffff1661119a6116ff565b73ffffffffffffffffffffffffffffffffffffffff1614905090565b6000806111e2606f546111d4606e548661170790919063ffffffff16565b61178d90919063ffffffff16565b905080915050919050565b600060019054906101000a900460ff168061120c575061120b6117d7565b5b8061122357506000809054906101000a900460ff16155b611278576040517f08c379a000000000000000000000000000000000000000000000000000000000815260040180806020018281038252602e815260200180611b02602e913960400191505060405180910390fd5b60008060019054906101000a900460ff1615905080156112c8576001600060016101000a81548160ff02191690831515021790555060016000806101000a81548160ff0219169083151502179055505b81603360006101000a81548173ffffffffffffffffffffffffffffffffffffffff021916908373ffffffffffffffffffffffffffffffffffffffff160217905550603360009054906101000a900473ffffffffffffffffffffffffffffffffffffffff1673ffffffffffffffffffffffffffffffffffffffff16600073ffffffffffffffffffffffffffffffffffffffff167f8be0079c531659141344cd1fd0a4f28419497f9722a3daafe3b4186f6b6457e060405160405180910390a380156113a75760008060016101000a81548160ff0219169083151502179055505b5050565b60675481565b606d5481565b606960009054906101000a900473ffffffffffffffffffffffffffffffffffffffff1681565b6113e5611157565b611457576040517f08c379a00000000000000000000000000000000000000000000000000000000081526004018080602001828103825260208152602001807f4f776e61626c653a2063616c6c6572206973206e6f7420746865206f776e657281525060200191505060405180910390fd5b611460816117ee565b50565b6000808284019050838110156114e1576040517f08c379a000000000000000000000000000000000000000000000000000000000815260040180806020018281038252601b8152602001807f536166654d6174683a206164646974696f6e206f766572666c6f77000000000081525060200191505060405180910390fd5b8091505092915050565b600061152d83836040518060400160405280601e81526020017f536166654d6174683a207375627472616374696f6e206f766572666c6f770000815250611934565b905092915050565b60001515606660009054906101000a900460ff1615151461155557600080fd5b606a60009054906101000a900473ffffffffffffffffffffffffffffffffffffffff1673ffffffffffffffffffffffffffffffffffffffff1663ac2be5c283836040518363ffffffff1660e01b8152600401808373ffffffffffffffffffffffffffffffffffffffff1673ffffffffffffffffffffffffffffffffffffffff16815260200182815260200192505050600060405180830381600087803b1580156115fe57600080fd5b505af1158015611612573d6000803e3d6000fd5b505050505050565b60001515606660009054906101000a900460ff1615151461163a57600080fd5b606960009054906101000a900473ffffffffffffffffffffffffffffffffffffffff1673ffffffffffffffffffffffffffffffffffffffff1663c90c2cf183836040518363ffffffff1660e01b8152600401808373ffffffffffffffffffffffffffffffffffffffff1673ffffffffffffffffffffffffffffffffffffffff16815260200182815260200192505050600060405180830381600087803b1580156116e357600080fd5b505af11580156116f7573d6000803e3d6000fd5b505050505050565b600033905090565b60008083141561171a5760009050611787565b600082840290508284828161172b57fe5b0414611782576040517f08c379a0000000000000000000000000000000000000000000000000000000008152600401808060200182810382526021815260200180611ae16021913960400191505060405180910390fd5b809150505b92915050565b60006117cf83836040518060400160405280601a81526020017f536166654d6174683a206469766973696f6e206279207a65726f0000000000008152506119f4565b905092915050565b6000803090506000813b9050600081149250505090565b600073ffffffffffffffffffffffffffffffffffffffff168173ffffffffffffffffffffffffffffffffffffffff161415611874576040517f08c379a0000000000000000000000000000000000000000000000000000000008152600401808060200182810382526026815260200180611abb6026913960400191505060405180910390fd5b8073ffffffffffffffffffffffffffffffffffffffff16603360009054906101000a900473ffffffffffffffffffffffffffffffffffffffff1673ffffffffffffffffffffffffffffffffffffffff167f8be0079c531659141344cd1fd0a4f28419497f9722a3daafe3b4186f6b6457e060405160405180910390a380603360006101000a81548173ffffffffffffffffffffffffffffffffffffffff021916908373ffffffffffffffffffffffffffffffffffffffff16021790555050565b60008383111582906119e1576040517f08c379a00000000000000000000000000000000000000000000000000000000081526004018080602001828103825283818151815260200191508051906020019080838360005b838110156119a657808201518184015260208101905061198b565b50505050905090810190601f1680156119d35780820380516001836020036101000a031916815260200191505b509250505060405180910390fd5b5060008385039050809150509392505050565b60008083118290611aa0576040517f08c379a00000000000000000000000000000000000000000000000000000000081526004018080602001828103825283818151815260200191508051906020019080838360005b83811015611a65578082015181840152602081019050611a4a565b50505050905090810190601f168015611a925780820380516001836020036101000a031916815260200191505b509250505060405180910390fd5b506000838581611aac57fe5b04905080915050939250505056fe4f776e61626c653a206e6577206f776e657220697320746865207a65726f2061646472657373536166654d6174683a206d756c7469706c69636174696f6e206f766572666c6f77436f6e747261637420696e7374616e63652068617320616c7265616479206265656e20696e697469616c697a6564a265627a7a7231582034d7695d90af035a9cfa99e4c5676421880a4d333122a72bda7962f4a461763d64736f6c63430005100032",
  "source": "pragma solidity ^0.5.0;\n\nimport './DCBase.sol';\n\n////////////////////////////////////////////////////////////////////////////////////////////\n/// @title DecentraCorp\n/// @dev All function calls are currently implement without side effects\n/// @author Christopher Dixon\n////////////////////////////////////////////////////////////////////////////////////////////\ncontract DCBank is DCBase {\n\n\n  uint public collateralPoolBalance;\n  uint public DecentraEarnings;\n  uint256 public percentFee; //used in calculating fees\n  uint256 public divisor; //used in calculating fees\n\n  /**\n  @notice calculateFee is used to calculate the fee earned by the StakeOnMe Development Team whenever a MeToken Purchase or sale occurs throught contract\n  @param _payedAmount is a uint representing the full amount of ETH payed for an amount of meToken OR returned for the sale of meToken through the contract\n  **/\n  function calculateFee(uint256 _payedAmount) public view returns(uint) {\n    uint256 fee = _payedAmount.mul(percentFee).div(divisor);\n    return fee;\n  }\n\n\n     function buyPrefferedStock(uint _tokenAmount, uint _contractNum) public {\n         uint256 ts = DS.totalSupply();\n         uint amountOfStock = bancor.calculatePurchaseReturn(ts, collateralPoolBalance, 500000, _tokenAmount);\n        address tokenAdd = contractNumber[_contractNum];\n               IERC20 token = IERC20(tokenAdd);\n          collateralPoolBalance = collateralPoolBalance.add(_tokenAmount);\n\n         if(_contractNum != 1) {\n           uint fee = calculateFee(_tokenAmount);\n           _tokenAmount = _tokenAmount.add(fee);\n           DecentraEarnings = DecentraEarnings.add(fee);\n         }\n\n         token.transferFrom(msg.sender, address(this), _tokenAmount);\n         DS._IssueDecentraStock(msg.sender, amountOfStock);\n}\n\n\n\n\n     function sellPrefferedStock(uint _DSamount, uint _contractNum) public {\n       require(_contractNum <= approvedContracts);\n       address tokenAdd = contractNumber[_contractNum];\n       require(tokenAdd != address(this));\n       uint256 ts = DS.totalSupply();\n       uint amountOfToken = bancor.calculateSaleReturn(ts, collateralPoolBalance, 450000, _DSamount);\n       uint fullPrice = bancor.calculateSaleReturn(ts, collateralPoolBalance, 500000, _DSamount);\n       uint earned = fullPrice.sub(amountOfToken);\n       DecentraEarnings = DecentraEarnings.add(earned);\n       IERC20 token = IERC20(tokenAdd);\n\n       proxyDSBurn(msg.sender, _DSamount);\n       uint tokenBal = token.balanceOf(address(this));\n\n       if(_contractNum != 1) {\n         uint fee = calculateFee(amountOfToken);\n         amountOfToken = amountOfToken.sub(fee);\n          DecentraEarnings = DecentraEarnings.add(fee);\n       }\n\n       if(tokenBal < amountOfToken) {\n         proxyDDMint(msg.sender, amountOfToken);\n       } else {\n         token.transfer(msg.sender, amountOfToken);\n         collateralPoolBalance = collateralPoolBalance.sub(amountOfToken);\n       }\n\n     }\n\nfunction setFee(uint _feePercent) internal {\n  percentFee = _feePercent;\n}\n\n\n  }\n",
  "sourcePath": "/home/stan36/repos/DecentraCorpContracts/contracts/DCBank.sol",
  "compiler": {
    "name": "solc",
    "version": "0.5.16+commit.9c3226ce.Emscripten.clang"
  },
  "schemaVersion": "3.0.23",
  "updatedAt": "2020-03-29T22:27:53.925Z",
  "devdoc": {
    "author": "Christopher Dixon /////////////////////////////////////////////////////////////////////////////////////////",
    "details": "All function calls are currently implement without side effects",
    "methods": {
      "calculateFee(uint256)": {
        "params": {
          "_payedAmount": "is a uint representing the full amount of ETH payed for an amount of meToken OR returned for the sale of meToken through the contract*"
        }
      },
      "initialize(address)": {
        "details": "Initializes the contract setting the deployer as the initial owner."
      },
      "isOwner()": {
        "details": "Returns true if the caller is the current owner."
      },
      "owner()": {
        "details": "Returns the address of the current owner."
      },
      "renounceOwnership()": {
        "details": "Leaves the contract without owner. It will not be possible to call `onlyOwner` functions anymore. Can only be called by the current owner.     * > Note: Renouncing ownership will leave the contract without an owner, thereby removing any functionality that is only available to the owner."
      },
      "transferOwnership(address)": {
        "details": "Transfers ownership of the contract to a new account (`newOwner`). Can only be called by the current owner."
      }
    },
    "title": "DecentraCorp"
  },
  "userdoc": {
    "methods": {
      "calculateFee(uint256)": {
        "notice": "calculateFee is used to calculate the fee earned by the StakeOnMe Development Team whenever a MeToken Purchase or sale occurs throught contract"
      }
    },
    "notice": "/////////////////////////////////////////////////////////////////////////////////////////"
  }
}