{
  "contractName": "DCBase",
  "abi": [
    {
      "anonymous": false,
      "inputs": [
        {
          "indexed": true,
          "internalType": "address",
          "name": "previousOwner",
          "type": "address"
        },
        {
          "indexed": true,
          "internalType": "address",
          "name": "newOwner",
          "type": "address"
        }
      ],
      "name": "OwnershipTransferred",
      "type": "event"
    },
    {
      "constant": true,
      "inputs": [],
      "name": "DD",
      "outputs": [
        {
          "internalType": "contract DecentraDollar",
          "name": "",
          "type": "address"
        }
      ],
      "payable": false,
      "stateMutability": "view",
      "type": "function"
    },
    {
      "constant": true,
      "inputs": [],
      "name": "DS",
      "outputs": [
        {
          "internalType": "contract DecentraStock",
          "name": "",
          "type": "address"
        }
      ],
      "payable": false,
      "stateMutability": "view",
      "type": "function"
    },
    {
      "constant": true,
      "inputs": [],
      "name": "approvedContracts",
      "outputs": [
        {
          "internalType": "uint256",
          "name": "",
          "type": "uint256"
        }
      ],
      "payable": false,
      "stateMutability": "view",
      "type": "function"
    },
    {
      "constant": true,
      "inputs": [],
      "name": "bancor",
      "outputs": [
        {
          "internalType": "contract BancorFormulaI",
          "name": "",
          "type": "address"
        }
      ],
      "payable": false,
      "stateMutability": "view",
      "type": "function"
    },
    {
      "constant": true,
      "inputs": [],
      "name": "frozen",
      "outputs": [
        {
          "internalType": "bool",
          "name": "",
          "type": "bool"
        }
      ],
      "payable": false,
      "stateMutability": "view",
      "type": "function"
    },
    {
      "constant": false,
      "inputs": [
        {
          "internalType": "address",
          "name": "sender",
          "type": "address"
        }
      ],
      "name": "initialize",
      "outputs": [],
      "payable": false,
      "stateMutability": "nonpayable",
      "type": "function"
    },
    {
      "constant": true,
      "inputs": [],
      "name": "isOwner",
      "outputs": [
        {
          "internalType": "bool",
          "name": "",
          "type": "bool"
        }
      ],
      "payable": false,
      "stateMutability": "view",
      "type": "function"
    },
    {
      "constant": true,
      "inputs": [],
      "name": "owner",
      "outputs": [
        {
          "internalType": "address",
          "name": "",
          "type": "address"
        }
      ],
      "payable": false,
      "stateMutability": "view",
      "type": "function"
    },
    {
      "constant": false,
      "inputs": [],
      "name": "renounceOwnership",
      "outputs": [],
      "payable": false,
      "stateMutability": "nonpayable",
      "type": "function"
    },
    {
      "constant": false,
      "inputs": [
        {
          "internalType": "address",
          "name": "newOwner",
          "type": "address"
        }
      ],
      "name": "transferOwnership",
      "outputs": [],
      "payable": false,
      "stateMutability": "nonpayable",
      "type": "function"
    },
    {
      "constant": false,
      "inputs": [
        {
          "internalType": "address",
          "name": "_contract",
          "type": "address"
        }
      ],
      "name": "addNewToken",
      "outputs": [],
      "payable": false,
      "stateMutability": "nonpayable",
      "type": "function"
    },
    {
      "constant": false,
      "inputs": [
        {
          "internalType": "uint256",
          "name": "_contractNum",
          "type": "uint256"
        }
      ],
      "name": "removeContract",
      "outputs": [],
      "payable": false,
      "stateMutability": "nonpayable",
      "type": "function"
    }
  ],
  "bytecode": "0x6080604052610b7a806100136000396000f3fe608060405234801561001057600080fd5b50600436106100b45760003560e01c80638da5cb5b116100715780638da5cb5b146101eb5780638f32d59b14610235578063c4d66de814610257578063dce860031461029b578063eccc32f2146102b9578063f2fde38b14610303576100b4565b8063054f7d9c146100b95780634242bac0146100db578063639905b41461012557806364db444a1461016f578063715018a6146101b35780637cca3b06146101bd575b600080fd5b6100c1610347565b604051808215151515815260200191505060405180910390f35b6100e361035a565b604051808273ffffffffffffffffffffffffffffffffffffffff1673ffffffffffffffffffffffffffffffffffffffff16815260200191505060405180910390f35b61012d610380565b604051808273ffffffffffffffffffffffffffffffffffffffff1673ffffffffffffffffffffffffffffffffffffffff16815260200191505060405180910390f35b6101b16004803603602081101561018557600080fd5b81019080803573ffffffffffffffffffffffffffffffffffffffff1690602001909291905050506103a6565b005b6101bb610489565b005b6101e9600480360360208110156101d357600080fd5b81019080803590602001909291905050506105c4565b005b6101f3610693565b604051808273ffffffffffffffffffffffffffffffffffffffff1673ffffffffffffffffffffffffffffffffffffffff16815260200191505060405180910390f35b61023d6106bd565b604051808215151515815260200191505060405180910390f35b6102996004803603602081101561026d57600080fd5b81019080803573ffffffffffffffffffffffffffffffffffffffff16906020019092919050505061071c565b005b6102a36108da565b6040518082815260200191505060405180910390f35b6102c16108e0565b604051808273ffffffffffffffffffffffffffffffffffffffff1673ffffffffffffffffffffffffffffffffffffffff16815260200191505060405180910390f35b6103456004803603602081101561031957600080fd5b81019080803573ffffffffffffffffffffffffffffffffffffffff169060200190929190505050610906565b005b606660009054906101000a900460ff1681565b606a60009054906101000a900473ffffffffffffffffffffffffffffffffffffffff1681565b606b60009054906101000a900473ffffffffffffffffffffffffffffffffffffffff1681565b6103ae6106bd565b610420576040517f08c379a00000000000000000000000000000000000000000000000000000000081526004018080602001828103825260208152602001807f4f776e61626c653a2063616c6c6572206973206e6f7420746865206f776e657281525060200191505060405180910390fd5b6067600081548092919060010191905055508060686000606754815260200190815260200160002060006101000a81548173ffffffffffffffffffffffffffffffffffffffff021916908373ffffffffffffffffffffffffffffffffffffffff16021790555050565b6104916106bd565b610503576040517f08c379a00000000000000000000000000000000000000000000000000000000081526004018080602001828103825260208152602001807f4f776e61626c653a2063616c6c6572206973206e6f7420746865206f776e657281525060200191505060405180910390fd5b600073ffffffffffffffffffffffffffffffffffffffff16603360009054906101000a900473ffffffffffffffffffffffffffffffffffffffff1673ffffffffffffffffffffffffffffffffffffffff167f8be0079c531659141344cd1fd0a4f28419497f9722a3daafe3b4186f6b6457e060405160405180910390a36000603360006101000a81548173ffffffffffffffffffffffffffffffffffffffff021916908373ffffffffffffffffffffffffffffffffffffffff160217905550565b6105cc6106bd565b61063e576040517f08c379a00000000000000000000000000000000000000000000000000000000081526004018080602001828103825260208152602001807f4f776e61626c653a2063616c6c6572206973206e6f7420746865206f776e657281525060200191505060405180910390fd5b306068600083815260200190815260200160002060006101000a81548173ffffffffffffffffffffffffffffffffffffffff021916908373ffffffffffffffffffffffffffffffffffffffff16021790555050565b6000603360009054906101000a900473ffffffffffffffffffffffffffffffffffffffff16905090565b6000603360009054906101000a900473ffffffffffffffffffffffffffffffffffffffff1673ffffffffffffffffffffffffffffffffffffffff1661070061098c565b73ffffffffffffffffffffffffffffffffffffffff1614905090565b600060019054906101000a900460ff168061073b575061073a610994565b5b8061075257506000809054906101000a900460ff16155b6107a7576040517f08c379a000000000000000000000000000000000000000000000000000000000815260040180806020018281038252602e815260200180610b18602e913960400191505060405180910390fd5b60008060019054906101000a900460ff1615905080156107f7576001600060016101000a81548160ff02191690831515021790555060016000806101000a81548160ff0219169083151502179055505b81603360006101000a81548173ffffffffffffffffffffffffffffffffffffffff021916908373ffffffffffffffffffffffffffffffffffffffff160217905550603360009054906101000a900473ffffffffffffffffffffffffffffffffffffffff1673ffffffffffffffffffffffffffffffffffffffff16600073ffffffffffffffffffffffffffffffffffffffff167f8be0079c531659141344cd1fd0a4f28419497f9722a3daafe3b4186f6b6457e060405160405180910390a380156108d65760008060016101000a81548160ff0219169083151502179055505b5050565b60675481565b606960009054906101000a900473ffffffffffffffffffffffffffffffffffffffff1681565b61090e6106bd565b610980576040517f08c379a00000000000000000000000000000000000000000000000000000000081526004018080602001828103825260208152602001807f4f776e61626c653a2063616c6c6572206973206e6f7420746865206f776e657281525060200191505060405180910390fd5b610989816109ab565b50565b600033905090565b6000803090506000813b9050600081149250505090565b600073ffffffffffffffffffffffffffffffffffffffff168173ffffffffffffffffffffffffffffffffffffffff161415610a31576040517f08c379a0000000000000000000000000000000000000000000000000000000008152600401808060200182810382526026815260200180610af26026913960400191505060405180910390fd5b8073ffffffffffffffffffffffffffffffffffffffff16603360009054906101000a900473ffffffffffffffffffffffffffffffffffffffff1673ffffffffffffffffffffffffffffffffffffffff167f8be0079c531659141344cd1fd0a4f28419497f9722a3daafe3b4186f6b6457e060405160405180910390a380603360006101000a81548173ffffffffffffffffffffffffffffffffffffffff021916908373ffffffffffffffffffffffffffffffffffffffff1602179055505056fe4f776e61626c653a206e6577206f776e657220697320746865207a65726f2061646472657373436f6e747261637420696e7374616e63652068617320616c7265616479206265656e20696e697469616c697a6564a265627a7a72315820cf12f98781d1b3eaf848a0cef8702fc6c1ea3a129457f2f1cc609549c1659d1e64736f6c63430005100032",
  "source": "pragma solidity ^0.5.0;\nimport \"@openzeppelin/upgrades/contracts/Initializable.sol\";\nimport \"@openzeppelin/contracts-ethereum-package/contracts/math/SafeMath.sol\";\nimport \"@openzeppelin/contracts-ethereum-package/contracts/ownership/Ownable.sol\";\nimport \"@openzeppelin/contracts-ethereum-package/contracts/token/ERC20/IERC20.sol\";\nimport \"./utils/BancorFormulaI.sol\";\n\n////////////////////////////////////////////////////////////////////////////////////////////\n/**\n@title DCBase\n@dev All function calls are currently implement without side effects\n@author Christopher Dixon\n\nThe DCBase contract serves as the base logic contract for the DecentraCorp Contract Set\n**/\n////////////////////////////////////////////////////////////////////////////////////////////\ncontract DecentraDollar is IERC20 {\n   function _MintDecentraDollar(address _to, uint _amount) public;\n   function _BurnDecentraDollar(address _from, uint _amount) public;\n}\n////////////////////////////////////////////////////////////////////////////////////////////\ncontract DecentraStock is IERC20 {\n   function _IssueDecentraStock(address _to, uint _amount) public;\n   function _BurnDecentraStock(address _from, uint _amount) public;\n}\n\n////////////////////////////////////////////////////////////////////////////////////////////\n contract DCBase is Initializable, Ownable {\n   using SafeMath for uint256;\n\n/**\n@param\n@param frozen is a bool representing whether of not the DAO has been frozen\n@dev frozen is only to be used in an emergency\n**/\n\n\n   bool public frozen;\n   uint256 public approvedContracts;\n\n   mapping(uint256 => address) contractNumber;\n\n/**\n@param DCD instantiates the DecentraDollar contract as a useable variable within the DecentraCorp Contracts\n@param DS instantiates the DecentraStock contract as a useable variable within the DecentraCorp Contracts\n**/\n\n   DecentraDollar public DD;\n   DecentraStock public DS;\n   BancorFormulaI public bancor;\n\n\n\n\n/**\n@notice notForzen requires DecentraCorp not to be frozen\n**/\n\nmodifier notForzen() {\n  require(frozen == false);\n  _;\n}\n\n  function addNewToken(address _contract) public onlyOwner {\n    approvedContracts++;\n    contractNumber[approvedContracts] = _contract;\n  }\n\n  function removeContract(uint256 _contractNum) public onlyOwner {\n    contractNumber[_contractNum] = address(this);\n  }\n\n\n///@notice proxyMint allows an approved address to mint DecentraDollar\n         function proxyDDMint(address _add, uint _amount) internal notForzen {\n           DD._MintDecentraDollar(_add, _amount);\n         }\n///@notice proxyBurn allows an approved address to burn DecentraDollar\n         function proxyDDBurn(address _add,  uint _amount) internal notForzen {\n           DD._BurnDecentraDollar(_add, _amount);\n         }\n\n///@notice proxyMint allows an approved address to mint DecentraStockC\n         function proxyDSMint(address _add, uint _amount) internal notForzen {\n           DS._IssueDecentraStock(_add, _amount);\n         }\n///@notice proxyBurn allows an approved address to burn DecentraStockC\n         function proxyDSBurn(address _add,  uint _amount) internal notForzen {\n           DS._BurnDecentraStock(_add, _amount);\n         }\n\n\n\n///@notice set_Quorum is an internal function used by proposal vote counts to see if the community approves\n///@dev quorum is set to 60%\n          function percent(uint numerator, uint denominator, uint precision) internal pure returns(uint quotient) {\n                   // caution, check safe-to-multiply here\n                    uint _numerator  = numerator * 10 ** (precision+1);\n                  // with rounding of last digit\n                    uint _quotient =  ((_numerator / denominator) + 5) / 10;\n                    return ( _quotient);\n                  }\n\n          function set_Quorum(uint numOfvotes, uint numOfmem) internal pure returns(bool) {\n                      uint percOfMemVoted = percent(numOfvotes, numOfmem, 2 );\n                       if(percOfMemVoted >= 60) {\n                           return true;\n                       } else {\n                           return false;\n                       }\n                    }\n\n       }\n",
  "sourcePath": "/home/stan36/repos/DecentraCorpContracts/contracts/DCBase.sol",
  "compiler": {
    "name": "solc",
    "version": "0.5.16+commit.9c3226ce.Emscripten.clang"
  },
  "schemaVersion": "3.0.23",
  "updatedAt": "2020-03-29T22:27:53.931Z",
  "devdoc": {
    "methods": {
      "initialize(address)": {
        "details": "Initializes the contract setting the deployer as the initial owner."
      },
      "isOwner()": {
        "details": "Returns true if the caller is the current owner."
      },
      "owner()": {
        "details": "Returns the address of the current owner."
      },
      "renounceOwnership()": {
        "details": "Leaves the contract without owner. It will not be possible to call `onlyOwner` functions anymore. Can only be called by the current owner.     * > Note: Renouncing ownership will leave the contract without an owner, thereby removing any functionality that is only available to the owner."
      },
      "transferOwnership(address)": {
        "details": "Transfers ownership of the contract to a new account (`newOwner`). Can only be called by the current owner."
      }
    }
  },
  "userdoc": {
    "methods": {},
    "notice": "/////////////////////////////////////////////////////////////////////////////////////////"
  }
}