{
  "contractName": "DecentraStock",
  "abi": [
    {
      "constant": true,
      "inputs": [],
      "name": "frozen",
      "outputs": [
        {
          "name": "",
          "type": "bool"
        }
      ],
      "payable": false,
      "stateMutability": "view",
      "type": "function"
    },
    {
      "constant": true,
      "inputs": [],
      "name": "name",
      "outputs": [
        {
          "name": "",
          "type": "string"
        }
      ],
      "payable": false,
      "stateMutability": "view",
      "type": "function"
    },
    {
      "constant": false,
      "inputs": [
        {
          "name": "spender",
          "type": "address"
        },
        {
          "name": "value",
          "type": "uint256"
        }
      ],
      "name": "approve",
      "outputs": [
        {
          "name": "",
          "type": "bool"
        }
      ],
      "payable": false,
      "stateMutability": "nonpayable",
      "type": "function"
    },
    {
      "constant": true,
      "inputs": [],
      "name": "memberCount",
      "outputs": [
        {
          "name": "",
          "type": "uint256"
        }
      ],
      "payable": false,
      "stateMutability": "view",
      "type": "function"
    },
    {
      "constant": false,
      "inputs": [
        {
          "name": "_newContract",
          "type": "address"
        }
      ],
      "name": "addApprovedContract",
      "outputs": [],
      "payable": false,
      "stateMutability": "nonpayable",
      "type": "function"
    },
    {
      "constant": false,
      "inputs": [
        {
          "name": "name",
          "type": "string"
        },
        {
          "name": "symbol",
          "type": "string"
        },
        {
          "name": "decimals",
          "type": "uint8"
        }
      ],
      "name": "initialize",
      "outputs": [],
      "payable": false,
      "stateMutability": "nonpayable",
      "type": "function"
    },
    {
      "constant": true,
      "inputs": [],
      "name": "totalSupply",
      "outputs": [
        {
          "name": "",
          "type": "uint256"
        }
      ],
      "payable": false,
      "stateMutability": "view",
      "type": "function"
    },
    {
      "constant": true,
      "inputs": [],
      "name": "preferedStockPrice",
      "outputs": [
        {
          "name": "",
          "type": "uint256"
        }
      ],
      "payable": false,
      "stateMutability": "view",
      "type": "function"
    },
    {
      "constant": false,
      "inputs": [
        {
          "name": "from",
          "type": "address"
        },
        {
          "name": "to",
          "type": "address"
        },
        {
          "name": "value",
          "type": "uint256"
        }
      ],
      "name": "transferFrom",
      "outputs": [
        {
          "name": "",
          "type": "bool"
        }
      ],
      "payable": false,
      "stateMutability": "nonpayable",
      "type": "function"
    },
    {
      "constant": true,
      "inputs": [],
      "name": "totalCstock",
      "outputs": [
        {
          "name": "",
          "type": "uint256"
        }
      ],
      "payable": false,
      "stateMutability": "view",
      "type": "function"
    },
    {
      "constant": true,
      "inputs": [],
      "name": "totalPstock",
      "outputs": [
        {
          "name": "",
          "type": "uint256"
        }
      ],
      "payable": false,
      "stateMutability": "view",
      "type": "function"
    },
    {
      "constant": true,
      "inputs": [],
      "name": "decimals",
      "outputs": [
        {
          "name": "",
          "type": "uint8"
        }
      ],
      "payable": false,
      "stateMutability": "view",
      "type": "function"
    },
    {
      "constant": false,
      "inputs": [
        {
          "name": "spender",
          "type": "address"
        },
        {
          "name": "addedValue",
          "type": "uint256"
        }
      ],
      "name": "increaseAllowance",
      "outputs": [
        {
          "name": "",
          "type": "bool"
        }
      ],
      "payable": false,
      "stateMutability": "nonpayable",
      "type": "function"
    },
    {
      "constant": true,
      "inputs": [],
      "name": "founder",
      "outputs": [
        {
          "name": "",
          "type": "address"
        }
      ],
      "payable": false,
      "stateMutability": "view",
      "type": "function"
    },
    {
      "constant": true,
      "inputs": [],
      "name": "getDCbalance",
      "outputs": [
        {
          "name": "",
          "type": "uint256"
        }
      ],
      "payable": false,
      "stateMutability": "view",
      "type": "function"
    },
    {
      "constant": false,
      "inputs": [
        {
          "name": "_add",
          "type": "address"
        },
        {
          "name": "_amount",
          "type": "uint256"
        }
      ],
      "name": "proxyNTCMint",
      "outputs": [],
      "payable": false,
      "stateMutability": "nonpayable",
      "type": "function"
    },
    {
      "constant": true,
      "inputs": [
        {
          "name": "_member",
          "type": "address"
        }
      ],
      "name": "_checkIfFrozen",
      "outputs": [
        {
          "name": "",
          "type": "bool"
        }
      ],
      "payable": false,
      "stateMutability": "view",
      "type": "function"
    },
    {
      "constant": true,
      "inputs": [
        {
          "name": "owner",
          "type": "address"
        }
      ],
      "name": "balanceOf",
      "outputs": [
        {
          "name": "",
          "type": "uint256"
        }
      ],
      "payable": false,
      "stateMutability": "view",
      "type": "function"
    },
    {
      "constant": false,
      "inputs": [],
      "name": "renounceOwnership",
      "outputs": [],
      "payable": false,
      "stateMutability": "nonpayable",
      "type": "function"
    },
    {
      "constant": true,
      "inputs": [],
      "name": "commonStockPrice",
      "outputs": [
        {
          "name": "",
          "type": "uint256"
        }
      ],
      "payable": false,
      "stateMutability": "view",
      "type": "function"
    },
    {
      "constant": true,
      "inputs": [],
      "name": "oracle",
      "outputs": [
        {
          "name": "",
          "type": "address"
        }
      ],
      "payable": false,
      "stateMutability": "view",
      "type": "function"
    },
    {
      "constant": false,
      "inputs": [],
      "name": "initialize",
      "outputs": [],
      "payable": false,
      "stateMutability": "nonpayable",
      "type": "function"
    },
    {
      "constant": true,
      "inputs": [],
      "name": "owner",
      "outputs": [
        {
          "name": "",
          "type": "address"
        }
      ],
      "payable": false,
      "stateMutability": "view",
      "type": "function"
    },
    {
      "constant": true,
      "inputs": [],
      "name": "isOwner",
      "outputs": [
        {
          "name": "",
          "type": "bool"
        }
      ],
      "payable": false,
      "stateMutability": "view",
      "type": "function"
    },
    {
      "constant": true,
      "inputs": [],
      "name": "symbol",
      "outputs": [
        {
          "name": "",
          "type": "string"
        }
      ],
      "payable": false,
      "stateMutability": "view",
      "type": "function"
    },
    {
      "constant": false,
      "inputs": [
        {
          "name": "spender",
          "type": "address"
        },
        {
          "name": "subtractedValue",
          "type": "uint256"
        }
      ],
      "name": "decreaseAllowance",
      "outputs": [
        {
          "name": "",
          "type": "bool"
        }
      ],
      "payable": false,
      "stateMutability": "nonpayable",
      "type": "function"
    },
    {
      "constant": true,
      "inputs": [],
      "name": "stakeNumber",
      "outputs": [
        {
          "name": "",
          "type": "uint256"
        }
      ],
      "payable": false,
      "stateMutability": "view",
      "type": "function"
    },
    {
      "constant": false,
      "inputs": [
        {
          "name": "to",
          "type": "address"
        },
        {
          "name": "value",
          "type": "uint256"
        }
      ],
      "name": "transfer",
      "outputs": [
        {
          "name": "",
          "type": "bool"
        }
      ],
      "payable": false,
      "stateMutability": "nonpayable",
      "type": "function"
    },
    {
      "constant": false,
      "inputs": [
        {
          "name": "sender",
          "type": "address"
        }
      ],
      "name": "initialize",
      "outputs": [],
      "payable": false,
      "stateMutability": "nonpayable",
      "type": "function"
    },
    {
      "constant": false,
      "inputs": [
        {
          "name": "_add",
          "type": "address"
        },
        {
          "name": "_amount",
          "type": "uint256"
        }
      ],
      "name": "proxyNTCBurn",
      "outputs": [],
      "payable": false,
      "stateMutability": "nonpayable",
      "type": "function"
    },
    {
      "constant": true,
      "inputs": [],
      "name": "preferedStocksHeldByDC",
      "outputs": [
        {
          "name": "",
          "type": "uint256"
        }
      ],
      "payable": false,
      "stateMutability": "view",
      "type": "function"
    },
    {
      "constant": false,
      "inputs": [
        {
          "name": "_add",
          "type": "address"
        },
        {
          "name": "_userID",
          "type": "string"
        }
      ],
      "name": "setFounder",
      "outputs": [],
      "payable": false,
      "stateMutability": "nonpayable",
      "type": "function"
    },
    {
      "constant": true,
      "inputs": [
        {
          "name": "owner",
          "type": "address"
        },
        {
          "name": "spender",
          "type": "address"
        }
      ],
      "name": "allowance",
      "outputs": [
        {
          "name": "",
          "type": "uint256"
        }
      ],
      "payable": false,
      "stateMutability": "view",
      "type": "function"
    },
    {
      "constant": false,
      "inputs": [
        {
          "name": "newOwner",
          "type": "address"
        }
      ],
      "name": "transferOwnership",
      "outputs": [],
      "payable": false,
      "stateMutability": "nonpayable",
      "type": "function"
    },
    {
      "constant": true,
      "inputs": [],
      "name": "commonStocksHeldByDC",
      "outputs": [
        {
          "name": "",
          "type": "uint256"
        }
      ],
      "payable": false,
      "stateMutability": "view",
      "type": "function"
    },
    {
      "anonymous": false,
      "inputs": [
        {
          "indexed": true,
          "name": "from",
          "type": "address"
        },
        {
          "indexed": true,
          "name": "to",
          "type": "address"
        },
        {
          "indexed": false,
          "name": "value",
          "type": "uint256"
        }
      ],
      "name": "Transfer",
      "type": "event"
    },
    {
      "anonymous": false,
      "inputs": [
        {
          "indexed": true,
          "name": "owner",
          "type": "address"
        },
        {
          "indexed": true,
          "name": "spender",
          "type": "address"
        },
        {
          "indexed": false,
          "name": "value",
          "type": "uint256"
        }
      ],
      "name": "Approval",
      "type": "event"
    },
    {
      "anonymous": false,
      "inputs": [
        {
          "indexed": true,
          "name": "previousOwner",
          "type": "address"
        },
        {
          "indexed": true,
          "name": "newOwner",
          "type": "address"
        }
      ],
      "name": "OwnershipTransferred",
      "type": "event"
    },
    {
      "constant": false,
      "inputs": [
        {
          "name": "_commonStockPrice",
          "type": "uint256"
        },
        {
          "name": "_preferedStockPrice",
          "type": "uint256"
        }
      ],
      "name": "setStockPrices",
      "outputs": [],
      "payable": false,
      "stateMutability": "nonpayable",
      "type": "function"
    },
    {
      "constant": false,
      "inputs": [
        {
          "name": "_amount",
          "type": "uint256"
        }
      ],
      "name": "purchasePreferedStock",
      "outputs": [],
      "payable": false,
      "stateMutability": "nonpayable",
      "type": "function"
    },
    {
      "constant": false,
      "inputs": [
        {
          "name": "_amount",
          "type": "uint256"
        }
      ],
      "name": "purchaseCommonStock",
      "outputs": [],
      "payable": false,
      "stateMutability": "nonpayable",
      "type": "function"
    },
    {
      "constant": false,
      "inputs": [
        {
          "name": "_to",
          "type": "address"
        },
        {
          "name": "_amount",
          "type": "uint256"
        }
      ],
      "name": "transferCommonStock",
      "outputs": [],
      "payable": false,
      "stateMutability": "nonpayable",
      "type": "function"
    },
    {
      "constant": false,
      "inputs": [
        {
          "name": "_to",
          "type": "address"
        },
        {
          "name": "_amount",
          "type": "uint256"
        }
      ],
      "name": "transferPreferedStock",
      "outputs": [],
      "payable": false,
      "stateMutability": "nonpayable",
      "type": "function"
    },
    {
      "constant": false,
      "inputs": [
        {
          "name": "_amount",
          "type": "uint256"
        }
      ],
      "name": "stakeCommonStock",
      "outputs": [],
      "payable": false,
      "stateMutability": "nonpayable",
      "type": "function"
    },
    {
      "constant": false,
      "inputs": [
        {
          "name": "_amount",
          "type": "uint256"
        }
      ],
      "name": "stakePreferedStock",
      "outputs": [],
      "payable": false,
      "stateMutability": "nonpayable",
      "type": "function"
    },
    {
      "constant": false,
      "inputs": [
        {
          "name": "_stakeNumber",
          "type": "uint256"
        }
      ],
      "name": "payOffStake",
      "outputs": [],
      "payable": false,
      "stateMutability": "nonpayable",
      "type": "function"
    },
    {
      "constant": false,
      "inputs": [
        {
          "name": "_amount",
          "type": "uint256"
        },
        {
          "name": "_stakeNumber",
          "type": "uint256"
        }
      ],
      "name": "paySomeStake",
      "outputs": [],
      "payable": false,
      "stateMutability": "nonpayable",
      "type": "function"
    },
    {
      "constant": false,
      "inputs": [
        {
          "name": "_amount",
          "type": "uint256"
        },
        {
          "name": "_stakeNumber",
          "type": "uint256"
        }
      ],
      "name": "addAdditionalStock",
      "outputs": [],
      "payable": false,
      "stateMutability": "nonpayable",
      "type": "function"
    }
  ],
  "bytecode": "0x6080604052613381806100136000396000f3fe608060405234801561001057600080fd5b506004361061027f5760003560e01c8063715018a61161015c578063a65eed49116100ce578063c812a60111610087578063c812a60114610d05578063cb445cfd14610d53578063cba22bf614610d71578063dd62ed3e14610e4c578063f2fde38b14610ec4578063f785d43d14610f085761027f565b8063a65eed4914610b7f578063a85e386314610bb7578063a9059cbb14610bd5578063bab95e3914610c3b578063c260e6e414610c73578063c4d66de814610cc15761027f565b80638da5cb5b116101205780638da5cb5b146109ae5780638db4b8fa146109f85780638f32d59b14610a4657806395d89b4114610a68578063a457c2d714610aeb578063a55a5bea14610b515761027f565b8063715018a6146109045780637daa746b1461090e5780637dc0d1d01461092c5780637f6dc8f1146109765780638129fc1c146109a45761027f565b80632c450aa1116101f55780634e024a0d116101b95780634e024a0d146107885780635adab6e0146107a65780636326e4ce146107d4578063653724b1146108225780636876ac841461087e57806370a08231146108ac5761027f565b80632c450aa11461065e578063313ce5671461067c57806339509351146106a0578063484e1948146107065780634d853ee51461073e5761027f565b80631624f6c6116102475780631624f6c6146103f157806318160ddd146105505780631e405ff91461056e57806323b872dd1461058c578063245342e61461061257806324a03fbf146106305761027f565b8063054f7d9c1461028457806306fdde03146102a6578063095ea7b31461032957806311aee3801461038f578063135171be146103ad575b600080fd5b61028c610f26565b604051808215151515815260200191505060405180910390f35b6102ae610f39565b6040518080602001828103825283818151815260200191508051906020019080838360005b838110156102ee5780820151818401526020810190506102d3565b50505050905090810190601f16801561031b5780820380516001836020036101000a031916815260200191505b509250505060405180910390f35b6103756004803603604081101561033f57600080fd5b81019080803573ffffffffffffffffffffffffffffffffffffffff16906020019092919080359060200190929190505050610fdb565b604051808215151515815260200191505060405180910390f35b610397610ff9565b6040518082815260200191505060405180910390f35b6103ef600480360360208110156103c357600080fd5b81019080803573ffffffffffffffffffffffffffffffffffffffff169060200190929190505050610fff565b005b61054e6004803603606081101561040757600080fd5b810190808035906020019064010000000081111561042457600080fd5b82018360208201111561043657600080fd5b8035906020019184600183028401116401000000008311171561045857600080fd5b91908080601f016020809104026020016040519081016040528093929190818152602001838380828437600081840152601f19601f820116905080830192505050505050509192919290803590602001906401000000008111156104bb57600080fd5b8201836020820111156104cd57600080fd5b803590602001918460018302840111640100000000831117156104ef57600080fd5b91908080601f016020809104026020016040519081016040528093929190818152602001838380828437600081840152601f19601f820116905080830192505050505050509192919290803560ff16906020019092919050505061106b565b005b6105586111b6565b6040518082815260200191505060405180910390f35b6105766111c0565b6040518082815260200191505060405180910390f35b6105f8600480360360608110156105a257600080fd5b81019080803573ffffffffffffffffffffffffffffffffffffffff169060200190929190803573ffffffffffffffffffffffffffffffffffffffff169060200190929190803590602001909291905050506111c6565b604051808215151515815260200191505060405180910390f35b61061a611285565b6040518082815260200191505060405180910390f35b61065c6004803603602081101561064657600080fd5b810190808035906020019092919050505061128b565b005b61066661140a565b6040518082815260200191505060405180910390f35b610684611410565b604051808260ff1660ff16815260200191505060405180910390f35b6106ec600480360360408110156106b657600080fd5b81019080803573ffffffffffffffffffffffffffffffffffffffff16906020019092919080359060200190929190505050611427565b604051808215151515815260200191505060405180910390f35b61073c6004803603604081101561071c57600080fd5b8101908080359060200190929190803590602001909291905050506114da565b005b610746611696565b604051808273ffffffffffffffffffffffffffffffffffffffff1673ffffffffffffffffffffffffffffffffffffffff16815260200191505060405180910390f35b6107906116bc565b6040518082815260200191505060405180910390f35b6107d2600480360360208110156107bc57600080fd5b81019080803590602001909291905050506116cc565b005b610820600480360360408110156107ea57600080fd5b81019080803573ffffffffffffffffffffffffffffffffffffffff16906020019092919080359060200190929190505050611792565b005b6108646004803603602081101561083857600080fd5b81019080803573ffffffffffffffffffffffffffffffffffffffff169060200190929190505050611816565b604051808215151515815260200191505060405180910390f35b6108aa6004803603602081101561089457600080fd5b8101908080359060200190929190505050611880565b005b6108ee600480360360208110156108c257600080fd5b81019080803573ffffffffffffffffffffffffffffffffffffffff1690602001909291905050506119ff565b6040518082815260200191505060405180910390f35b61090c611a48565b005b610916611b1a565b6040518082815260200191505060405180910390f35b610934611b20565b604051808273ffffffffffffffffffffffffffffffffffffffff1673ffffffffffffffffffffffffffffffffffffffff16815260200191505060405180910390f35b6109a26004803603602081101561098c57600080fd5b8101908080359060200190929190505050611b46565b005b6109ac611d17565b005b6109b6611e95565b604051808273ffffffffffffffffffffffffffffffffffffffff1673ffffffffffffffffffffffffffffffffffffffff16815260200191505060405180910390f35b610a4460048036036040811015610a0e57600080fd5b81019080803573ffffffffffffffffffffffffffffffffffffffff16906020019092919080359060200190929190505050611ebf565b005b610a4e611f8d565b604051808215151515815260200191505060405180910390f35b610a70611fec565b6040518080602001828103825283818151815260200191508051906020019080838360005b83811015610ab0578082015181840152602081019050610a95565b50505050905090810190601f168015610add5780820380516001836020036101000a031916815260200191505b509250505060405180910390f35b610b3760048036036040811015610b0157600080fd5b81019080803573ffffffffffffffffffffffffffffffffffffffff1690602001909291908035906020019092919050505061208e565b604051808215151515815260200191505060405180910390f35b610b7d60048036036020811015610b6757600080fd5b8101908080359060200190929190505050612141565b005b610bb560048036036040811015610b9557600080fd5b810190808035906020019092919080359060200190929190505050612202565b005b610bbf61234c565b6040518082815260200191505060405180910390f35b610c2160048036036040811015610beb57600080fd5b81019080803573ffffffffffffffffffffffffffffffffffffffff16906020019092919080359060200190929190505050612352565b604051808215151515815260200191505060405180910390f35b610c7160048036036040811015610c5157600080fd5b810190808035906020019092919080359060200190929190505050612370565b005b610cbf60048036036040811015610c8957600080fd5b81019080803573ffffffffffffffffffffffffffffffffffffffff16906020019092919080359060200190929190505050612462565b005b610d0360048036036020811015610cd757600080fd5b81019080803573ffffffffffffffffffffffffffffffffffffffff16906020019092919050505061253d565b005b610d5160048036036040811015610d1b57600080fd5b81019080803573ffffffffffffffffffffffffffffffffffffffff169060200190929190803590602001909291905050506126fb565b005b610d5b612766565b6040518082815260200191505060405180910390f35b610e4a60048036036040811015610d8757600080fd5b81019080803573ffffffffffffffffffffffffffffffffffffffff16906020019092919080359060200190640100000000811115610dc457600080fd5b820183602082011115610dd657600080fd5b80359060200191846001830284011164010000000083111715610df857600080fd5b91908080601f016020809104026020016040519081016040528093929190818152602001838380828437600081840152601f19601f82011690508083019250505050505050919291929050505061276c565b005b610eae60048036036040811015610e6257600080fd5b81019080803573ffffffffffffffffffffffffffffffffffffffff169060200190929190803573ffffffffffffffffffffffffffffffffffffffff1690602001909291905050506129b7565b6040518082815260200191505060405180910390f35b610f0660048036036020811015610eda57600080fd5b81019080803573ffffffffffffffffffffffffffffffffffffffff169060200190929190505050612a3e565b005b610f10612a5b565b6040518082815260200191505060405180910390f35b60d260009054906101000a900460ff1681565b6060609b8054600181600116156101000203166002900480601f016020809104026020016040519081016040528092919081815260200182805460018160011615610100020316600290048015610fd15780601f10610fa657610100808354040283529160200191610fd1565b820191906000526020600020905b815481529060010190602001808311610fb457829003601f168201915b5050505050905090565b6000610fef610fe8612a61565b8484612a69565b6001905092915050565b60d15481565b611007611f8d565b61101057600080fd5b600160d560008373ffffffffffffffffffffffffffffffffffffffff1673ffffffffffffffffffffffffffffffffffffffff16815260200190815260200160002060006101000a81548160ff02191690831515021790555050565b600060019054906101000a900460ff168061108a5750611089612bc8565b5b806110a157506000809054906101000a900460ff16155b6110f6576040517f08c379a000000000000000000000000000000000000000000000000000000000815260040180806020018281038252602e815260200180613328602e913960400191505060405180910390fd5b60008060019054906101000a900460ff161590508015611146576001600060016101000a81548160ff02191690831515021790555060016000806101000a81548160ff0219169083151502179055505b83609b908051906020019061115c929190613254565b5082609c9080519060200190611173929190613254565b5081609d60006101000a81548160ff021916908360ff16021790555080156111b05760008060016101000a81548160ff0219169083151502179055505b50505050565b6000606854905090565b60db5481565b60006111d3848484612bd9565b61127a846111df612a61565b61127585606760008a73ffffffffffffffffffffffffffffffffffffffff1673ffffffffffffffffffffffffffffffffffffffff168152602001908152602001600020600061122c612a61565b73ffffffffffffffffffffffffffffffffffffffff1673ffffffffffffffffffffffffffffffffffffffff16815260200190815260200160002054612da790919063ffffffff16565b612a69565b600190509392505050565b60df5481565b600060e260003373ffffffffffffffffffffffffffffffffffffffff1673ffffffffffffffffffffffffffffffffffffffff168152602001908152602001600020905081816001015410156112df57600080fd5b6112f6828260010154612da790919063ffffffff16565b8160010181905550611315828260030154612dc790919063ffffffff16565b816003018190555060dc600081548092919060010191905055506000611347600260db54612de690919063ffffffff16565b9050600060e3600060dc5481526020019081526020016000209050818160000181905550338160040160006101000a81548173ffffffffffffffffffffffffffffffffffffffff021916908373ffffffffffffffffffffffffffffffffffffffff16021790555083816001018190555060db5481600201819055506002816003018190555060006113d66116bc565b90508281106113f8576113e93084612e0c565b6113f33384612f60565b611403565b6114023384612f60565b5b5050505050565b60e05481565b6000609d60009054906101000a900460ff16905090565b60006114d0611434612a61565b846114cb8560676000611445612a61565b73ffffffffffffffffffffffffffffffffffffffff1673ffffffffffffffffffffffffffffffffffffffff16815260200190815260200160002060008973ffffffffffffffffffffffffffffffffffffffff1673ffffffffffffffffffffffffffffffffffffffff16815260200190815260200160002054612dc790919063ffffffff16565b612a69565b6001905092915050565b600060e260003373ffffffffffffffffffffffffffffffffffffffff1673ffffffffffffffffffffffffffffffffffffffff1681526020019081526020016000209050600060e360008481526020019081526020016000209050600015158160040160149054906101000a900460ff1615151461155657600080fd5b8060040160009054906101000a900473ffffffffffffffffffffffffffffffffffffffff1673ffffffffffffffffffffffffffffffffffffffff163373ffffffffffffffffffffffffffffffffffffffff16146115b257600080fd5b6001816003015414156116215783826000015410156115d057600080fd5b6115e7848360000154612da790919063ffffffff16565b8260000181905550611606848360020154612dc790919063ffffffff16565b82600201819055508381600101600082825401925050819055505b60028160030154141561169057838260010154101561163f57600080fd5b611656848360010154612da790919063ffffffff16565b8260010181905550611675848360030154612dc790919063ffffffff16565b82600301819055508381600101600082825401925050819055505b50505050565b60d060009054906101000a900473ffffffffffffffffffffffffffffffffffffffff1681565b60006116c7306119ff565b905090565b60006116e360da54836130b490919063ffffffff16565b9050806116ef336119ff565b10156116fa57600080fd5b6117043382612e0c565b61170e3082612f60565b8160dd54116117265761172133836130ee565b61178e565b8160dd60008282540392505081905550600060e260003373ffffffffffffffffffffffffffffffffffffffff1673ffffffffffffffffffffffffffffffffffffffff168152602001908152602001600020905060018160000160008282540192505081905550505b5050565b6001151560d560003373ffffffffffffffffffffffffffffffffffffffff1673ffffffffffffffffffffffffffffffffffffffff16815260200190815260200160002060009054906101000a900460ff161515146117ef57600080fd5b600015156117fc83611816565b15151461180857600080fd5b6118128282612f60565b5050565b60006001151560d460008473ffffffffffffffffffffffffffffffffffffffff1673ffffffffffffffffffffffffffffffffffffffff16815260200190815260200160002060009054906101000a900460ff161515141561187a576001905061187b565b5b919050565b600060e260003373ffffffffffffffffffffffffffffffffffffffff1673ffffffffffffffffffffffffffffffffffffffff168152602001908152602001600020905081816000015410156118d457600080fd5b6118eb828260000154612da790919063ffffffff16565b816000018190555061190a828260020154612dc790919063ffffffff16565b816002018190555060dc60008154809291906001019190505550600061193c600260da54612de690919063ffffffff16565b9050600060e3600060dc5481526020019081526020016000209050818160000181905550338160040160006101000a81548173ffffffffffffffffffffffffffffffffffffffff021916908373ffffffffffffffffffffffffffffffffffffffff16021790555083816001018190555060da5481600201819055506001816003018190555060006119cb6116bc565b90508281106119ed576119de3084612e0c565b6119e83384612f60565b6119f8565b6119f73384612f60565b5b5050505050565b6000606660008373ffffffffffffffffffffffffffffffffffffffff1673ffffffffffffffffffffffffffffffffffffffff168152602001908152602001600020549050919050565b611a50611f8d565b611a5957600080fd5b600073ffffffffffffffffffffffffffffffffffffffff16603360009054906101000a900473ffffffffffffffffffffffffffffffffffffffff1673ffffffffffffffffffffffffffffffffffffffff167f8be0079c531659141344cd1fd0a4f28419497f9722a3daafe3b4186f6b6457e060405160405180910390a36000603360006101000a81548173ffffffffffffffffffffffffffffffffffffffff021916908373ffffffffffffffffffffffffffffffffffffffff160217905550565b60da5481565b60e160009054906101000a900473ffffffffffffffffffffffffffffffffffffffff1681565b600060e360008381526020019081526020016000209050600015158160040160149054906101000a900460ff16151514611b7f57600080fd5b60006064600383600001540281611b9257fe5b04905060008183600001540190508260040160009054906101000a900473ffffffffffffffffffffffffffffffffffffffff1673ffffffffffffffffffffffffffffffffffffffff163373ffffffffffffffffffffffffffffffffffffffff1614611bfc57600080fd5b80611c06336119ff565b1015611c1157600080fd5b611c1b3382612e0c565b611c253082612f60565b600060e260003373ffffffffffffffffffffffffffffffffffffffff1673ffffffffffffffffffffffffffffffffffffffff1681526020019081526020016000209050600184600301541415611cbc57611c9084600101548260000154612dc790919063ffffffff16565b8160000181905550611cb384600101548260020154612da790919063ffffffff16565b81600201819055505b600284600301541415611d1057611ce484600101548260010154612dc790919063ffffffff16565b8160010181905550611d0784600101548260030154612da790919063ffffffff16565b81600301819055505b5050505050565b600060019054906101000a900460ff1680611d365750611d35612bc8565b5b80611d4d57506000809054906101000a900460ff16155b611da2576040517f08c379a000000000000000000000000000000000000000000000000000000000815260040180806020018281038252602e815260200180613328602e913960400191505060405180910390fd5b60008060019054906101000a900460ff161590508015611df2576001600060016101000a81548160ff02191690831515021790555060016000806101000a81548160ff0219169083151502179055505b611dfb3361253d565b611e716040518060400160405280600981526020017f4e6f74696f436f696e00000000000000000000000000000000000000000000008152506040518060400160405280600381526020017f4e54430000000000000000000000000000000000000000000000000000000000815250601261106b565b8015611e925760008060016101000a81548160ff0219169083151502179055505b50565b6000603360009054906101000a900473ffffffffffffffffffffffffffffffffffffffff16905090565b600060e260003373ffffffffffffffffffffffffffffffffffffffff1673ffffffffffffffffffffffffffffffffffffffff16815260200190815260200160002090508181600001541015611f1357600080fd5b611f2a828260000154612da790919063ffffffff16565b8160000181905550600060e260008573ffffffffffffffffffffffffffffffffffffffff1673ffffffffffffffffffffffffffffffffffffffff168152602001908152602001600020905082816000016000828254019250508190555050505050565b6000603360009054906101000a900473ffffffffffffffffffffffffffffffffffffffff1673ffffffffffffffffffffffffffffffffffffffff16611fd0612a61565b73ffffffffffffffffffffffffffffffffffffffff1614905090565b6060609c8054600181600116156101000203166002900480601f0160208091040260200160405190810160405280929190818152602001828054600181600116156101000203166002900480156120845780601f1061205957610100808354040283529160200191612084565b820191906000526020600020905b81548152906001019060200180831161206757829003601f168201915b5050505050905090565b600061213761209b612a61565b8461213285606760006120ac612a61565b73ffffffffffffffffffffffffffffffffffffffff1673ffffffffffffffffffffffffffffffffffffffff16815260200190815260200160002060008973ffffffffffffffffffffffffffffffffffffffff1673ffffffffffffffffffffffffffffffffffffffff16815260200190815260200160002054612da790919063ffffffff16565b612a69565b6001905092915050565b600061215860db54836130b490919063ffffffff16565b905080612164336119ff565b101561216f57600080fd5b6121793382612e0c565b6121833082612f60565b8160de54116121975761219633836130ee565b5b8160de60008282540392505081905550600060e260003373ffffffffffffffffffffffffffffffffffffffff1673ffffffffffffffffffffffffffffffffffffffff168152602001908152602001600020905060018160010160008282540192505081905550505050565b60e160009054906101000a900473ffffffffffffffffffffffffffffffffffffffff1673ffffffffffffffffffffffffffffffffffffffff163373ffffffffffffffffffffffffffffffffffffffff161461225c57600080fd5b8160da819055508060db8190555060008090505b60dc54811161234757600060e360008381526020019081526020016000209050600015158160040160149054906101000a900460ff161515141561233b576001816003015414156122fb5760da548160000154116122fa5760018160040160146101000a81548160ff021916908315150217905550806001015460dd600082825401925050819055505b5b60db5481600001541161233a5760018160040160146101000a81548160ff021916908315150217905550806001015460de600082825401925050819055505b5b50806001019050612270565b505050565b60dc5481565b600061236661235f612a61565b8484612bd9565b6001905092915050565b600060e360008381526020019081526020016000209050600015158160040160149054906101000a900460ff161515146123a957600080fd5b8060040160009054906101000a900473ffffffffffffffffffffffffffffffffffffffff1673ffffffffffffffffffffffffffffffffffffffff163373ffffffffffffffffffffffffffffffffffffffff161461240557600080fd5b8261240f336119ff565b101561241a57600080fd5b806000015483106124335761242e82611b46565b61245d565b61243d3384612e0c565b6124473084612f60565b6000838260000154039050808260000181905550505b505050565b600060e260003373ffffffffffffffffffffffffffffffffffffffff1673ffffffffffffffffffffffffffffffffffffffff168152602001908152602001600020905081816001015410156124b657600080fd5b6124cd828260010154612da790919063ffffffff16565b8160010181905550600060e260008573ffffffffffffffffffffffffffffffffffffffff1673ffffffffffffffffffffffffffffffffffffffff168152602001908152602001600020905061252f838260010154612dc790919063ffffffff16565b816001018190555050505050565b600060019054906101000a900460ff168061255c575061255b612bc8565b5b8061257357506000809054906101000a900460ff16155b6125c8576040517f08c379a000000000000000000000000000000000000000000000000000000000815260040180806020018281038252602e815260200180613328602e913960400191505060405180910390fd5b60008060019054906101000a900460ff161590508015612618576001600060016101000a81548160ff02191690831515021790555060016000806101000a81548160ff0219169083151502179055505b81603360006101000a81548173ffffffffffffffffffffffffffffffffffffffff021916908373ffffffffffffffffffffffffffffffffffffffff160217905550603360009054906101000a900473ffffffffffffffffffffffffffffffffffffffff1673ffffffffffffffffffffffffffffffffffffffff16600073ffffffffffffffffffffffffffffffffffffffff167f8be0079c531659141344cd1fd0a4f28419497f9722a3daafe3b4186f6b6457e060405160405180910390a380156126f75760008060016101000a81548160ff0219169083151502179055505b5050565b6001151560d560003373ffffffffffffffffffffffffffffffffffffffff1673ffffffffffffffffffffffffffffffffffffffff16815260200190815260200160002060009054906101000a900460ff1615151461275857600080fd5b6127628282612e0c565b5050565b60de5481565b612774611f8d565b61277d57600080fd5b8160d66000836040516020018082805190602001908083835b602083106127b95780518252602082019150602081019050602083039250612796565b6001836020036101000a03801982511681845116808217855250505050505090500191505060405160208183030381529060405280519060200120815260200190815260200160002060006101000a81548173ffffffffffffffffffffffffffffffffffffffff021916908373ffffffffffffffffffffffffffffffffffffffff160217905550600160d760008473ffffffffffffffffffffffffffffffffffffffff1673ffffffffffffffffffffffffffffffffffffffff16815260200190815260200160002060006101000a81548160ff021916908315150217905550600160d1540160d181905550606460d860008473ffffffffffffffffffffffffffffffffffffffff1673ffffffffffffffffffffffffffffffffffffffff168152602001908152602001600020600082825401925050819055506040518060600160405280602e81526020016132fa602e913960d960008473ffffffffffffffffffffffffffffffffffffffff1673ffffffffffffffffffffffffffffffffffffffff168152602001908152602001600020908051906020019061295d929190613254565b508160d060006101000a81548173ffffffffffffffffffffffffffffffffffffffff021916908373ffffffffffffffffffffffffffffffffffffffff1602179055506129b38269d3c21bcecceda1000000612f60565b5050565b6000606760008473ffffffffffffffffffffffffffffffffffffffff1673ffffffffffffffffffffffffffffffffffffffff16815260200190815260200160002060008373ffffffffffffffffffffffffffffffffffffffff1673ffffffffffffffffffffffffffffffffffffffff16815260200190815260200160002054905092915050565b612a46611f8d565b612a4f57600080fd5b612a588161315a565b50565b60dd5481565b600033905090565b600073ffffffffffffffffffffffffffffffffffffffff168273ffffffffffffffffffffffffffffffffffffffff161415612aa357600080fd5b600073ffffffffffffffffffffffffffffffffffffffff168373ffffffffffffffffffffffffffffffffffffffff161415612add57600080fd5b80606760008573ffffffffffffffffffffffffffffffffffffffff1673ffffffffffffffffffffffffffffffffffffffff16815260200190815260200160002060008473ffffffffffffffffffffffffffffffffffffffff1673ffffffffffffffffffffffffffffffffffffffff168152602001908152602001600020819055508173ffffffffffffffffffffffffffffffffffffffff168373ffffffffffffffffffffffffffffffffffffffff167f8c5be1e5ebec7d5bd14f71427d1e84f3dd0314c0f7b2291e5b200ac8c7c3b925836040518082815260200191505060405180910390a3505050565b600080303b90506000811491505090565b600073ffffffffffffffffffffffffffffffffffffffff168273ffffffffffffffffffffffffffffffffffffffff161415612c1357600080fd5b612c6581606660008673ffffffffffffffffffffffffffffffffffffffff1673ffffffffffffffffffffffffffffffffffffffff16815260200190815260200160002054612da790919063ffffffff16565b606660008573ffffffffffffffffffffffffffffffffffffffff1673ffffffffffffffffffffffffffffffffffffffff16815260200190815260200160002081905550612cfa81606660008573ffffffffffffffffffffffffffffffffffffffff1673ffffffffffffffffffffffffffffffffffffffff16815260200190815260200160002054612dc790919063ffffffff16565b606660008473ffffffffffffffffffffffffffffffffffffffff1673ffffffffffffffffffffffffffffffffffffffff168152602001908152602001600020819055508173ffffffffffffffffffffffffffffffffffffffff168373ffffffffffffffffffffffffffffffffffffffff167fddf252ad1be2c89b69c2b068fc378daa952ba7f163c4a11628f55a4df523b3ef836040518082815260200191505060405180910390a3505050565b600082821115612db657600080fd5b600082840390508091505092915050565b600080828401905083811015612ddc57600080fd5b8091505092915050565b6000808211612df457600080fd5b6000828481612dff57fe5b0490508091505092915050565b600073ffffffffffffffffffffffffffffffffffffffff168273ffffffffffffffffffffffffffffffffffffffff161415612e4657600080fd5b612e5b81606854612da790919063ffffffff16565b606881905550612eb381606660008573ffffffffffffffffffffffffffffffffffffffff1673ffffffffffffffffffffffffffffffffffffffff16815260200190815260200160002054612da790919063ffffffff16565b606660008473ffffffffffffffffffffffffffffffffffffffff1673ffffffffffffffffffffffffffffffffffffffff16815260200190815260200160002081905550600073ffffffffffffffffffffffffffffffffffffffff168273ffffffffffffffffffffffffffffffffffffffff167fddf252ad1be2c89b69c2b068fc378daa952ba7f163c4a11628f55a4df523b3ef836040518082815260200191505060405180910390a35050565b600073ffffffffffffffffffffffffffffffffffffffff168273ffffffffffffffffffffffffffffffffffffffff161415612f9a57600080fd5b612faf81606854612dc790919063ffffffff16565b60688190555061300781606660008573ffffffffffffffffffffffffffffffffffffffff1673ffffffffffffffffffffffffffffffffffffffff16815260200190815260200160002054612dc790919063ffffffff16565b606660008473ffffffffffffffffffffffffffffffffffffffff1673ffffffffffffffffffffffffffffffffffffffff168152602001908152602001600020819055508173ffffffffffffffffffffffffffffffffffffffff16600073ffffffffffffffffffffffffffffffffffffffff167fddf252ad1be2c89b69c2b068fc378daa952ba7f163c4a11628f55a4df523b3ef836040518082815260200191505060405180910390a35050565b6000808314156130c757600090506130e8565b60008284029050828482816130d857fe5b04146130e357600080fd5b809150505b92915050565b600060e260008473ffffffffffffffffffffffffffffffffffffffff1673ffffffffffffffffffffffffffffffffffffffff168152602001908152602001600020905081816001016000828254019250508190555060e060008154809291906001019190505550505050565b600073ffffffffffffffffffffffffffffffffffffffff168173ffffffffffffffffffffffffffffffffffffffff16141561319457600080fd5b8073ffffffffffffffffffffffffffffffffffffffff16603360009054906101000a900473ffffffffffffffffffffffffffffffffffffffff1673ffffffffffffffffffffffffffffffffffffffff167f8be0079c531659141344cd1fd0a4f28419497f9722a3daafe3b4186f6b6457e060405160405180910390a380603360006101000a81548173ffffffffffffffffffffffffffffffffffffffff021916908373ffffffffffffffffffffffffffffffffffffffff16021790555050565b828054600181600116156101000203166002900490600052602060002090601f016020900481019282601f1061329557805160ff19168380011785556132c3565b828001600101855582156132c3579182015b828111156132c25782518255916020019190600101906132a7565b5b5090506132d091906132d4565b5090565b6132f691905b808211156132f25760008160009055506001016132da565b5090565b9056fe516d613653616f617a42417344733658716f6a574677334c437158746f7061506f78643546466b6e505765487272436f6e747261637420696e7374616e63652068617320616c7265616479206265656e20696e697469616c697a6564a165627a7a723058207acbd6711b305865f7a99e67c8c177475bbae7af3e784624397f168779cd2cea0029",
  "source": "pragma solidity ^0.5.0;\n\nimport './DCBase.sol';\n\ncontract DecentraStock is DCBase {\n\n\n     uint public commonStockPrice;\n     uint public preferedStockPrice;\n     uint public stakeNumber;\n     uint public commonStocksHeldByDC;\n     uint public preferedStocksHeldByDC;\n     uint public totalCstock;\n     uint public totalPstock;\n     address public oracle;\n\n    mapping(address => DecentraStocks) stocks;\n    mapping(uint => StockStakes) stakedStocks;\n\n  struct DecentraStocks {\n    uint commonStocks;\n    uint preferedStocks;\n    uint stakedCommonStock;\n    uint stakedPreferedStock;\n  }\n\nstruct StockStakes {\n  uint NTCValue;\n  uint numberOfStocks;\n  uint stockValueAtPurchase;\n  uint stockType;\n  address staker;\n  bool payedOff;\n}\n\n\n  modifier onlyOracle() {\n    require(msg.sender == oracle);\n    _;\n  }\n\n  function issueCommonStock(address _stockOwner, uint _amount) internal  {\n     DecentraStocks storage s = stocks[_stockOwner];\n     s.commonStocks += _amount;\n     totalCstock++;\n  }\n\n  function issuePreferedStock(address _stockOwner, uint _amount) internal  {\n    DecentraStocks storage s = stocks[_stockOwner];\n    s.preferedStocks += _amount;\n    totalPstock++;\n  }\n\n\n\n  function setStockPrices(\n    uint _commonStockPrice,\n    uint _preferedStockPrice\n  )\n  public\n  onlyOracle {\n    commonStockPrice = _commonStockPrice;\n    preferedStockPrice = _preferedStockPrice;\n\n      for (uint i = 0; i <= stakeNumber; ++i) {\n          StockStakes storage ss = stakedStocks[i];\n          if(ss.payedOff == false ) {\n            if(ss.stockType == 1) {\n              if(ss.NTCValue <= commonStockPrice) {\n                ss.payedOff = true;\n                commonStocksHeldByDC += ss.numberOfStocks;\n              }\n            }\n            if(ss.NTCValue <= preferedStockPrice) {\n              ss.payedOff = true;\n              preferedStocksHeldByDC += ss.numberOfStocks;\n            }\n\n            }\n          }\n      }\n\n\n\n\n  function purchasePreferedStock(uint _amount) public {\n    uint purchasePrice = _amount.mul(preferedStockPrice);\n    require(balanceOf(msg.sender) >= purchasePrice);\n    _burn(msg.sender, purchasePrice);\n    _mint(address(this), purchasePrice);\n    if(preferedStocksHeldByDC <= _amount){\n      issuePreferedStock(msg.sender, _amount);\n    }\n    preferedStocksHeldByDC -= _amount;\n    DecentraStocks storage s = stocks[msg.sender];\n      s.preferedStocks += 1;\n  }\n\n  function purchaseCommonStock(uint _amount) public {\n    uint purchasePrice = _amount.mul(commonStockPrice);\n    require(balanceOf(msg.sender) >= purchasePrice);\n    _burn(msg.sender, purchasePrice);\n    _mint(address(this), purchasePrice);\n    if(commonStocksHeldByDC <= _amount){\n      issuePreferedStock(msg.sender, _amount);\n    } else{\n    commonStocksHeldByDC -= _amount;\n    DecentraStocks storage s = stocks[msg.sender];\n      s.commonStocks += 1;\n    }\n  }\n\n\n  function transferCommonStock(address _to, uint _amount) public {\n      DecentraStocks storage s = stocks[msg.sender];\n      require(s.commonStocks >= _amount);\n      s.commonStocks = s.commonStocks.sub(_amount);\n\n      DecentraStocks storage b = stocks[_to];\n      b.commonStocks += _amount;\n  }\n\n  function transferPreferedStock(address _to, uint _amount) public {\n      DecentraStocks storage s = stocks[msg.sender];\n      require(s.preferedStocks >= _amount);\n      s.preferedStocks = s.preferedStocks.sub(_amount);\n\n      DecentraStocks storage b = stocks[_to];\n      b.preferedStocks =   b.preferedStocks.add(_amount);\n  }\n\n  function stakeCommonStock(uint _amount) public {\n    DecentraStocks storage s = stocks[msg.sender];\n    require(s.commonStocks >= _amount);\n    s.commonStocks = s.commonStocks.sub(_amount);\n    s.stakedCommonStock = s.stakedCommonStock.add(_amount);\n    stakeNumber++;\n    uint stakeValue =  commonStockPrice.div(2);\n\n      StockStakes storage ss = stakedStocks[stakeNumber];\n\n      ss.NTCValue = stakeValue;\n      ss.staker = msg.sender;\n      ss.numberOfStocks = _amount;\n      ss.stockValueAtPurchase = commonStockPrice;\n      ss.stockType = 1;\n\n      uint _DCNTC = getDCbalance();\n\n  if(_DCNTC >= stakeValue){\n    _burn(address(this), stakeValue);\n    _mint(msg.sender, stakeValue);\n  } else {\n    _mint(msg.sender, stakeValue);\n  }\n}\n\n  function stakePreferedStock(uint _amount) public {\n    DecentraStocks storage s = stocks[msg.sender];\n    require(s.preferedStocks >= _amount);\n    s.preferedStocks = s.preferedStocks.sub(_amount);\n    s.stakedPreferedStock = s.stakedPreferedStock.add(_amount);\n    stakeNumber++;\n    uint stakeValue =  preferedStockPrice.div(2);\n\n    StockStakes storage ss = stakedStocks[stakeNumber];\n\n      ss.NTCValue = stakeValue;\n      ss.staker = msg.sender;\n      ss.numberOfStocks = _amount;\n      ss.stockValueAtPurchase = preferedStockPrice;\n      ss.stockType = 2;\n\n      uint _DCNTC = getDCbalance();\n\n      if(_DCNTC >= stakeValue){\n        _burn(address(this), stakeValue);\n        _mint(msg.sender, stakeValue);\n      } else {\n        _mint(msg.sender, stakeValue);\n      }\n    }\n\n\n  function payOffStake(uint _stakeNumber) public {\n    StockStakes storage ss = stakedStocks[_stakeNumber];\n    require(ss.payedOff == false);\n    uint interest = ss.NTCValue * 3 / 100;\n    uint stakePrice = ss.NTCValue + interest;\n    require(msg.sender == ss.staker);\n    require(balanceOf(msg.sender) >= stakePrice);\n    _burn(msg.sender, stakePrice);\n    _mint(address(this), stakePrice);\n\n      DecentraStocks storage s = stocks[msg.sender];\n\n      if(ss.stockType == 1){\n        s.commonStocks = s.commonStocks.add(ss.numberOfStocks);\n        s.stakedCommonStock = s.stakedCommonStock.sub(ss.numberOfStocks);\n      }\n\n      if(ss.stockType == 2){\n        s.preferedStocks = s.preferedStocks.add(ss.numberOfStocks);\n        s.stakedPreferedStock = s.stakedPreferedStock.sub(ss.numberOfStocks);\n      }\n  }\n\n  function paySomeStake(uint _amount, uint _stakeNumber) public {\n    StockStakes storage ss = stakedStocks[_stakeNumber];\n\n  require(ss.payedOff == false);\n  require(msg.sender == ss.staker);\n  require(balanceOf(msg.sender) >= _amount);\n  if(_amount >= ss.NTCValue){\n    payOffStake(_stakeNumber);\n  } else {\n  _burn(msg.sender, _amount);\n  _mint(address(this), _amount);\n\n  uint newNTCvalue = ss.NTCValue - _amount;\n\n  ss.NTCValue = newNTCvalue;\n\n}\n\n  }\n\n  function addAdditionalStock(uint _amount, uint _stakeNumber) public {\n    DecentraStocks storage s = stocks[msg.sender];\n    StockStakes storage ss = stakedStocks[_stakeNumber];\n\n    require(ss.payedOff == false);\n    require(msg.sender == ss.staker);\n\n    if(ss.stockType == 1){\n      require(s.commonStocks >= _amount);\n      s.commonStocks = s.commonStocks.sub(_amount);\n      s.stakedCommonStock = s.stakedCommonStock.add(_amount);\n      ss.numberOfStocks += _amount;\n    }\n\n    if(ss.stockType == 2){\n      require(s.preferedStocks >= _amount);\n      s.preferedStocks = s.preferedStocks.sub(_amount);\n      s.stakedPreferedStock = s.stakedPreferedStock.add(_amount);\n      ss.numberOfStocks += _amount;\n    }\n\n\n  }\n\n}\n",
  "sourcePath": "/home/stan36/repos/DecentraCorpContracts/contracts/DecentraCorp/DecentraStock.sol",
  "compiler": {
    "name": "solc",
    "version": "0.5.8+commit.23d335f2.Emscripten.clang"
  },
  "schemaVersion": "3.0.11",
  "updatedAt": "2019-09-13T20:26:25.333Z",
  "devdoc": {
    "methods": {
      "addApprovedContract(address)": {
        "details": "adds contract to list of approved calling contracts"
      },
      "allowance(address,address)": {
        "details": "Function to check the amount of tokens that an owner allowed to a spender.",
        "params": {
          "owner": "address The address which owns the funds.",
          "spender": "address The address which will spend the funds."
        },
        "return": "A uint256 specifying the amount of tokens still available for the spender."
      },
      "approve(address,uint256)": {
        "details": "Approve the passed address to spend the specified amount of tokens on behalf of msg.sender. Beware that changing an allowance with this method brings the risk that someone may use both the old and the new allowance by unfortunate transaction ordering. One possible solution to mitigate this race condition is to first reduce the spender's allowance to 0 and set the desired value afterwards: https://github.com/ethereum/EIPs/issues/20#issuecomment-263524729",
        "params": {
          "spender": "The address which will spend the funds.",
          "value": "The amount of tokens to be spent."
        }
      },
      "balanceOf(address)": {
        "details": "Gets the balance of the specified address.",
        "params": {
          "owner": "The address to query the balance of."
        },
        "return": "A uint256 representing the amount owned by the passed address."
      },
      "decimals()": {
        "return": "the number of decimals of the token."
      },
      "decreaseAllowance(address,uint256)": {
        "details": "Decrease the amount of tokens that an owner allowed to a spender. approve should be called when _allowances[msg.sender][spender] == 0. To decrement allowed value is better to use this function to avoid 2 calls (and wait until the first transaction is mined) From MonolithDAO Token.sol Emits an Approval event.",
        "params": {
          "spender": "The address which will spend the funds.",
          "subtractedValue": "The amount of tokens to decrease the allowance by."
        }
      },
      "increaseAllowance(address,uint256)": {
        "details": "Increase the amount of tokens that an owner allowed to a spender. approve should be called when _allowances[msg.sender][spender] == 0. To increment allowed value is better to use this function to avoid 2 calls (and wait until the first transaction is mined) From MonolithDAO Token.sol Emits an Approval event.",
        "params": {
          "addedValue": "The amount of tokens to increase the allowance by.",
          "spender": "The address which will spend the funds."
        }
      },
      "initialize(address)": {
        "details": "The Ownable constructor sets the original `owner` of the contract to the sender account."
      },
      "isOwner()": {
        "return": "true if `msg.sender` is the owner of the contract."
      },
      "name()": {
        "return": "the name of the token."
      },
      "owner()": {
        "return": "the address of the owner."
      },
      "renounceOwnership()": {
        "details": "Allows the current owner to relinquish control of the contract. It will not be possible to call the functions with the `onlyOwner` modifier anymore."
      },
      "symbol()": {
        "return": "the symbol of the token."
      },
      "totalSupply()": {
        "details": "Total number of tokens in existence"
      },
      "transfer(address,uint256)": {
        "details": "Transfer token to a specified address",
        "params": {
          "to": "The address to transfer to.",
          "value": "The amount to be transferred."
        }
      },
      "transferFrom(address,address,uint256)": {
        "details": "Transfer tokens from one address to another. Note that while this function emits an Approval event, this is not required as per the specification, and other compliant implementations may not emit the event.",
        "params": {
          "from": "address The address which you want to send tokens from",
          "to": "address The address which you want to transfer to",
          "value": "uint256 the amount of tokens to be transferred"
        }
      },
      "transferOwnership(address)": {
        "details": "Allows the current owner to transfer control of the contract to a newOwner.",
        "params": {
          "newOwner": "The address to transfer ownership to."
        }
      }
    }
  },
  "userdoc": {
    "methods": {
      "initialize()": {
        "notice": "constructor sets up NotiCoin address through truffle wizardry"
      },
      "proxyNTCBurn(address,uint256)": {
        "notice": "proxyBurn allows an approved address to burn NotiCoin"
      },
      "proxyNTCMint(address,uint256)": {
        "notice": "proxyMint allows an approved address to mint NotiCoin"
      },
      "renounceOwnership()": {
        "notice": "Renouncing ownership will leave the contract without an owner, thereby removing any functionality that is only available to the owner."
      }
    }
  }
}