{
  "contractName": "DecentraCorp",
  "abi": [
    {
      "constant": false,
      "inputs": [
        {
          "name": "_newHash",
          "type": "string"
        }
      ],
      "name": "updateProfile",
      "outputs": [],
      "payable": false,
      "stateMutability": "nonpayable",
      "type": "function"
    },
    {
      "constant": true,
      "inputs": [
        {
          "name": "",
          "type": "uint256"
        }
      ],
      "name": "proposals",
      "outputs": [
        {
          "name": "Address",
          "type": "address"
        },
        {
          "name": "PropCode",
          "type": "uint256"
        },
        {
          "name": "Amount",
          "type": "uint256"
        },
        {
          "name": "voteHash",
          "type": "string"
        },
        {
          "name": "executed",
          "type": "bool"
        },
        {
          "name": "proposalPassed",
          "type": "bool"
        }
      ],
      "payable": false,
      "stateMutability": "view",
      "type": "function"
    },
    {
      "constant": true,
      "inputs": [],
      "name": "frozen",
      "outputs": [
        {
          "name": "",
          "type": "bool"
        }
      ],
      "payable": false,
      "stateMutability": "view",
      "type": "function"
    },
    {
      "constant": true,
      "inputs": [],
      "name": "name",
      "outputs": [
        {
          "name": "",
          "type": "string"
        }
      ],
      "payable": false,
      "stateMutability": "view",
      "type": "function"
    },
    {
      "constant": false,
      "inputs": [
        {
          "name": "spender",
          "type": "address"
        },
        {
          "name": "value",
          "type": "uint256"
        }
      ],
      "name": "approve",
      "outputs": [
        {
          "name": "",
          "type": "bool"
        }
      ],
      "payable": false,
      "stateMutability": "nonpayable",
      "type": "function"
    },
    {
      "constant": true,
      "inputs": [],
      "name": "memberCount",
      "outputs": [
        {
          "name": "",
          "type": "uint256"
        }
      ],
      "payable": false,
      "stateMutability": "view",
      "type": "function"
    },
    {
      "constant": false,
      "inputs": [
        {
          "name": "_newContract",
          "type": "address"
        }
      ],
      "name": "addApprovedContract",
      "outputs": [],
      "payable": false,
      "stateMutability": "nonpayable",
      "type": "function"
    },
    {
      "constant": false,
      "inputs": [
        {
          "name": "name",
          "type": "string"
        },
        {
          "name": "symbol",
          "type": "string"
        },
        {
          "name": "decimals",
          "type": "uint8"
        }
      ],
      "name": "initialize",
      "outputs": [],
      "payable": false,
      "stateMutability": "nonpayable",
      "type": "function"
    },
    {
      "constant": true,
      "inputs": [],
      "name": "totalSupply",
      "outputs": [
        {
          "name": "",
          "type": "uint256"
        }
      ],
      "payable": false,
      "stateMutability": "view",
      "type": "function"
    },
    {
      "constant": true,
      "inputs": [],
      "name": "preferedStockPrice",
      "outputs": [
        {
          "name": "",
          "type": "uint256"
        }
      ],
      "payable": false,
      "stateMutability": "view",
      "type": "function"
    },
    {
      "constant": false,
      "inputs": [
        {
          "name": "from",
          "type": "address"
        },
        {
          "name": "to",
          "type": "address"
        },
        {
          "name": "value",
          "type": "uint256"
        }
      ],
      "name": "transferFrom",
      "outputs": [
        {
          "name": "",
          "type": "bool"
        }
      ],
      "payable": false,
      "stateMutability": "nonpayable",
      "type": "function"
    },
    {
      "constant": true,
      "inputs": [],
      "name": "totalCstock",
      "outputs": [
        {
          "name": "",
          "type": "uint256"
        }
      ],
      "payable": false,
      "stateMutability": "view",
      "type": "function"
    },
    {
      "constant": false,
      "inputs": [
        {
          "name": "_amount",
          "type": "uint256"
        }
      ],
      "name": "stakePreferedStock",
      "outputs": [],
      "payable": false,
      "stateMutability": "nonpayable",
      "type": "function"
    },
    {
      "constant": true,
      "inputs": [],
      "name": "totalPstock",
      "outputs": [
        {
          "name": "",
          "type": "uint256"
        }
      ],
      "payable": false,
      "stateMutability": "view",
      "type": "function"
    },
    {
      "constant": true,
      "inputs": [],
      "name": "decimals",
      "outputs": [
        {
          "name": "",
          "type": "uint8"
        }
      ],
      "payable": false,
      "stateMutability": "view",
      "type": "function"
    },
    {
      "constant": false,
      "inputs": [
        {
          "name": "spender",
          "type": "address"
        },
        {
          "name": "addedValue",
          "type": "uint256"
        }
      ],
      "name": "increaseAllowance",
      "outputs": [
        {
          "name": "",
          "type": "bool"
        }
      ],
      "payable": false,
      "stateMutability": "nonpayable",
      "type": "function"
    },
    {
      "constant": false,
      "inputs": [
        {
          "name": "_add",
          "type": "address"
        }
      ],
      "name": "increaseMemLev",
      "outputs": [],
      "payable": false,
      "stateMutability": "nonpayable",
      "type": "function"
    },
    {
      "constant": false,
      "inputs": [
        {
          "name": "_amount",
          "type": "uint256"
        },
        {
          "name": "_stakeNumber",
          "type": "uint256"
        }
      ],
      "name": "addAdditionalStock",
      "outputs": [],
      "payable": false,
      "stateMutability": "nonpayable",
      "type": "function"
    },
    {
      "constant": true,
      "inputs": [],
      "name": "founder",
      "outputs": [
        {
          "name": "",
          "type": "address"
        }
      ],
      "payable": false,
      "stateMutability": "view",
      "type": "function"
    },
    {
      "constant": true,
      "inputs": [],
      "name": "getDCbalance",
      "outputs": [
        {
          "name": "",
          "type": "uint256"
        }
      ],
      "payable": false,
      "stateMutability": "view",
      "type": "function"
    },
    {
      "constant": false,
      "inputs": [
        {
          "name": "_amount",
          "type": "uint256"
        }
      ],
      "name": "purchaseCommonStock",
      "outputs": [],
      "payable": false,
      "stateMutability": "nonpayable",
      "type": "function"
    },
    {
      "constant": false,
      "inputs": [
        {
          "name": "_add",
          "type": "address"
        },
        {
          "name": "_amount",
          "type": "uint256"
        }
      ],
      "name": "proxyNTCMint",
      "outputs": [],
      "payable": false,
      "stateMutability": "nonpayable",
      "type": "function"
    },
    {
      "constant": true,
      "inputs": [
        {
          "name": "_member",
          "type": "address"
        }
      ],
      "name": "_checkIfFrozen",
      "outputs": [
        {
          "name": "",
          "type": "bool"
        }
      ],
      "payable": false,
      "stateMutability": "view",
      "type": "function"
    },
    {
      "constant": false,
      "inputs": [
        {
          "name": "_amount",
          "type": "uint256"
        }
      ],
      "name": "stakeCommonStock",
      "outputs": [],
      "payable": false,
      "stateMutability": "nonpayable",
      "type": "function"
    },
    {
      "constant": true,
      "inputs": [
        {
          "name": "owner",
          "type": "address"
        }
      ],
      "name": "balanceOf",
      "outputs": [
        {
          "name": "",
          "type": "uint256"
        }
      ],
      "payable": false,
      "stateMutability": "view",
      "type": "function"
    },
    {
      "constant": false,
      "inputs": [],
      "name": "renounceOwnership",
      "outputs": [],
      "payable": false,
      "stateMutability": "nonpayable",
      "type": "function"
    },
    {
      "constant": true,
      "inputs": [],
      "name": "commonStockPrice",
      "outputs": [
        {
          "name": "",
          "type": "uint256"
        }
      ],
      "payable": false,
      "stateMutability": "view",
      "type": "function"
    },
    {
      "constant": true,
      "inputs": [],
      "name": "oracle",
      "outputs": [
        {
          "name": "",
          "type": "address"
        }
      ],
      "payable": false,
      "stateMutability": "view",
      "type": "function"
    },
    {
      "constant": false,
      "inputs": [
        {
          "name": "_stakeNumber",
          "type": "uint256"
        }
      ],
      "name": "payOffStake",
      "outputs": [],
      "payable": false,
      "stateMutability": "nonpayable",
      "type": "function"
    },
    {
      "constant": false,
      "inputs": [],
      "name": "initialize",
      "outputs": [],
      "payable": false,
      "stateMutability": "nonpayable",
      "type": "function"
    },
    {
      "constant": true,
      "inputs": [
        {
          "name": "_add",
          "type": "address"
        }
      ],
      "name": "getLevel",
      "outputs": [
        {
          "name": "",
          "type": "uint256"
        }
      ],
      "payable": false,
      "stateMutability": "view",
      "type": "function"
    },
    {
      "constant": false,
      "inputs": [
        {
          "name": "_mem",
          "type": "address"
        },
        {
          "name": "_userId",
          "type": "string"
        }
      ],
      "name": "_addMember",
      "outputs": [],
      "payable": false,
      "stateMutability": "nonpayable",
      "type": "function"
    },
    {
      "constant": true,
      "inputs": [],
      "name": "owner",
      "outputs": [
        {
          "name": "",
          "type": "address"
        }
      ],
      "payable": false,
      "stateMutability": "view",
      "type": "function"
    },
    {
      "constant": false,
      "inputs": [
        {
          "name": "_to",
          "type": "address"
        },
        {
          "name": "_amount",
          "type": "uint256"
        }
      ],
      "name": "transferCommonStock",
      "outputs": [],
      "payable": false,
      "stateMutability": "nonpayable",
      "type": "function"
    },
    {
      "constant": true,
      "inputs": [],
      "name": "isOwner",
      "outputs": [
        {
          "name": "",
          "type": "bool"
        }
      ],
      "payable": false,
      "stateMutability": "view",
      "type": "function"
    },
    {
      "constant": true,
      "inputs": [],
      "name": "symbol",
      "outputs": [
        {
          "name": "",
          "type": "string"
        }
      ],
      "payable": false,
      "stateMutability": "view",
      "type": "function"
    },
    {
      "constant": true,
      "inputs": [],
      "name": "getMemberCount",
      "outputs": [
        {
          "name": "",
          "type": "uint256"
        }
      ],
      "payable": false,
      "stateMutability": "view",
      "type": "function"
    },
    {
      "constant": false,
      "inputs": [
        {
          "name": "spender",
          "type": "address"
        },
        {
          "name": "subtractedValue",
          "type": "uint256"
        }
      ],
      "name": "decreaseAllowance",
      "outputs": [
        {
          "name": "",
          "type": "bool"
        }
      ],
      "payable": false,
      "stateMutability": "nonpayable",
      "type": "function"
    },
    {
      "constant": false,
      "inputs": [
        {
          "name": "_amount",
          "type": "uint256"
        }
      ],
      "name": "purchasePreferedStock",
      "outputs": [],
      "payable": false,
      "stateMutability": "nonpayable",
      "type": "function"
    },
    {
      "constant": false,
      "inputs": [
        {
          "name": "_commonStockPrice",
          "type": "uint256"
        },
        {
          "name": "_preferedStockPrice",
          "type": "uint256"
        }
      ],
      "name": "setStockPrices",
      "outputs": [],
      "payable": false,
      "stateMutability": "nonpayable",
      "type": "function"
    },
    {
      "constant": true,
      "inputs": [],
      "name": "stakeNumber",
      "outputs": [
        {
          "name": "",
          "type": "uint256"
        }
      ],
      "payable": false,
      "stateMutability": "view",
      "type": "function"
    },
    {
      "constant": false,
      "inputs": [
        {
          "name": "to",
          "type": "address"
        },
        {
          "name": "value",
          "type": "uint256"
        }
      ],
      "name": "transfer",
      "outputs": [
        {
          "name": "",
          "type": "bool"
        }
      ],
      "payable": false,
      "stateMutability": "nonpayable",
      "type": "function"
    },
    {
      "constant": true,
      "inputs": [
        {
          "name": "_member",
          "type": "address"
        }
      ],
      "name": "_checkIfMember",
      "outputs": [
        {
          "name": "",
          "type": "bool"
        }
      ],
      "payable": false,
      "stateMutability": "view",
      "type": "function"
    },
    {
      "constant": true,
      "inputs": [
        {
          "name": "_add",
          "type": "address"
        }
      ],
      "name": "getProfileHash",
      "outputs": [
        {
          "name": "",
          "type": "string"
        }
      ],
      "payable": false,
      "stateMutability": "view",
      "type": "function"
    },
    {
      "constant": false,
      "inputs": [
        {
          "name": "_amount",
          "type": "uint256"
        },
        {
          "name": "_stakeNumber",
          "type": "uint256"
        }
      ],
      "name": "paySomeStake",
      "outputs": [],
      "payable": false,
      "stateMutability": "nonpayable",
      "type": "function"
    },
    {
      "constant": false,
      "inputs": [
        {
          "name": "_to",
          "type": "address"
        },
        {
          "name": "_amount",
          "type": "uint256"
        }
      ],
      "name": "transferPreferedStock",
      "outputs": [],
      "payable": false,
      "stateMutability": "nonpayable",
      "type": "function"
    },
    {
      "constant": false,
      "inputs": [
        {
          "name": "sender",
          "type": "address"
        }
      ],
      "name": "initialize",
      "outputs": [],
      "payable": false,
      "stateMutability": "nonpayable",
      "type": "function"
    },
    {
      "constant": false,
      "inputs": [
        {
          "name": "_add",
          "type": "address"
        },
        {
          "name": "_amount",
          "type": "uint256"
        }
      ],
      "name": "proxyNTCBurn",
      "outputs": [],
      "payable": false,
      "stateMutability": "nonpayable",
      "type": "function"
    },
    {
      "constant": true,
      "inputs": [],
      "name": "preferedStocksHeldByDC",
      "outputs": [
        {
          "name": "",
          "type": "uint256"
        }
      ],
      "payable": false,
      "stateMutability": "view",
      "type": "function"
    },
    {
      "constant": false,
      "inputs": [
        {
          "name": "_add",
          "type": "address"
        },
        {
          "name": "_userID",
          "type": "string"
        }
      ],
      "name": "setFounder",
      "outputs": [],
      "payable": false,
      "stateMutability": "nonpayable",
      "type": "function"
    },
    {
      "constant": false,
      "inputs": [
        {
          "name": "_member",
          "type": "address"
        },
        {
          "name": "_commentsHash",
          "type": "string"
        }
      ],
      "name": "postComment",
      "outputs": [],
      "payable": false,
      "stateMutability": "nonpayable",
      "type": "function"
    },
    {
      "constant": true,
      "inputs": [
        {
          "name": "_userId",
          "type": "string"
        }
      ],
      "name": "getAddFromPass",
      "outputs": [
        {
          "name": "",
          "type": "address"
        }
      ],
      "payable": false,
      "stateMutability": "view",
      "type": "function"
    },
    {
      "constant": true,
      "inputs": [
        {
          "name": "owner",
          "type": "address"
        },
        {
          "name": "spender",
          "type": "address"
        }
      ],
      "name": "allowance",
      "outputs": [
        {
          "name": "",
          "type": "uint256"
        }
      ],
      "payable": false,
      "stateMutability": "view",
      "type": "function"
    },
    {
      "constant": false,
      "inputs": [
        {
          "name": "_newMem",
          "type": "address"
        },
        {
          "name": "_facility",
          "type": "address"
        },
        {
          "name": "_hash",
          "type": "string"
        },
        {
          "name": "_userId",
          "type": "string"
        }
      ],
      "name": "buyMembership",
      "outputs": [],
      "payable": false,
      "stateMutability": "nonpayable",
      "type": "function"
    },
    {
      "constant": false,
      "inputs": [
        {
          "name": "newOwner",
          "type": "address"
        }
      ],
      "name": "transferOwnership",
      "outputs": [],
      "payable": false,
      "stateMutability": "nonpayable",
      "type": "function"
    },
    {
      "constant": true,
      "inputs": [
        {
          "name": "_member",
          "type": "address"
        }
      ],
      "name": "getComment",
      "outputs": [
        {
          "name": "",
          "type": "string"
        }
      ],
      "payable": false,
      "stateMutability": "view",
      "type": "function"
    },
    {
      "constant": true,
      "inputs": [],
      "name": "commonStocksHeldByDC",
      "outputs": [
        {
          "name": "",
          "type": "uint256"
        }
      ],
      "payable": false,
      "stateMutability": "view",
      "type": "function"
    },
    {
      "anonymous": false,
      "inputs": [
        {
          "indexed": false,
          "name": "VoteHash",
          "type": "string"
        },
        {
          "indexed": false,
          "name": "PropCode",
          "type": "uint256"
        }
      ],
      "name": "ProposalCreated",
      "type": "event"
    },
    {
      "anonymous": false,
      "inputs": [
        {
          "indexed": false,
          "name": "_voter",
          "type": "address"
        },
        {
          "indexed": false,
          "name": "inSupport",
          "type": "bool"
        }
      ],
      "name": "Voted",
      "type": "event"
    },
    {
      "anonymous": false,
      "inputs": [
        {
          "indexed": false,
          "name": "addToFund",
          "type": "address"
        },
        {
          "indexed": false,
          "name": "amount",
          "type": "uint256"
        }
      ],
      "name": "FundingApproved",
      "type": "event"
    },
    {
      "anonymous": false,
      "inputs": [
        {
          "indexed": false,
          "name": "_newMem",
          "type": "address"
        },
        {
          "indexed": false,
          "name": "newMemFacility",
          "type": "address"
        },
        {
          "indexed": false,
          "name": "profHash",
          "type": "string"
        }
      ],
      "name": "NewMember",
      "type": "event"
    },
    {
      "anonymous": false,
      "inputs": [
        {
          "indexed": false,
          "name": "updatedAccount",
          "type": "address"
        }
      ],
      "name": "ProfileUpdated",
      "type": "event"
    },
    {
      "anonymous": false,
      "inputs": [
        {
          "indexed": true,
          "name": "from",
          "type": "address"
        },
        {
          "indexed": true,
          "name": "to",
          "type": "address"
        },
        {
          "indexed": false,
          "name": "value",
          "type": "uint256"
        }
      ],
      "name": "Transfer",
      "type": "event"
    },
    {
      "anonymous": false,
      "inputs": [
        {
          "indexed": true,
          "name": "owner",
          "type": "address"
        },
        {
          "indexed": true,
          "name": "spender",
          "type": "address"
        },
        {
          "indexed": false,
          "name": "value",
          "type": "uint256"
        }
      ],
      "name": "Approval",
      "type": "event"
    },
    {
      "anonymous": false,
      "inputs": [
        {
          "indexed": true,
          "name": "previousOwner",
          "type": "address"
        },
        {
          "indexed": true,
          "name": "newOwner",
          "type": "address"
        }
      ],
      "name": "OwnershipTransferred",
      "type": "event"
    },
    {
      "constant": false,
      "inputs": [
        {
          "name": "_address",
          "type": "address"
        },
        {
          "name": "_propCode",
          "type": "uint256"
        },
        {
          "name": "_voteHash",
          "type": "string"
        },
        {
          "name": "_amount",
          "type": "uint256"
        }
      ],
      "name": "createProposal",
      "outputs": [],
      "payable": false,
      "stateMutability": "nonpayable",
      "type": "function"
    },
    {
      "constant": false,
      "inputs": [
        {
          "name": "_ProposalID",
          "type": "uint256"
        },
        {
          "name": "supportsProposal",
          "type": "bool"
        }
      ],
      "name": "vote",
      "outputs": [
        {
          "name": "voteID",
          "type": "uint256"
        }
      ],
      "payable": false,
      "stateMutability": "nonpayable",
      "type": "function"
    },
    {
      "constant": true,
      "inputs": [
        {
          "name": "hash",
          "type": "string"
        }
      ],
      "name": "getPropID",
      "outputs": [
        {
          "name": "",
          "type": "uint256"
        }
      ],
      "payable": false,
      "stateMutability": "view",
      "type": "function"
    },
    {
      "constant": true,
      "inputs": [
        {
          "name": "hash",
          "type": "string"
        }
      ],
      "name": "getPropCode",
      "outputs": [
        {
          "name": "",
          "type": "uint256"
        }
      ],
      "payable": false,
      "stateMutability": "view",
      "type": "function"
    },
    {
      "constant": true,
      "inputs": [
        {
          "name": "_add",
          "type": "address"
        },
        {
          "name": "_ProposalID",
          "type": "uint256"
        }
      ],
      "name": "checkIfVoted",
      "outputs": [
        {
          "name": "",
          "type": "bool"
        }
      ],
      "payable": false,
      "stateMutability": "view",
      "type": "function"
    }
  ],
  "bytecode": "0x6080604052615c73806100136000396000f3fe608060405234801561001057600080fd5b50600436106103b95760003560e01c80637dc0d1d0116101f4578063aaa746bb1161011a578063cba22bf6116100ad578063e8f709f81161007c578063e8f709f81461193a578063f2fde38b14611acc578063f6bb0cf114611b10578063f785d43d14611bcd576103b9565b8063cba22bf614611611578063d917f76a146116ec578063dc8e79fb146117c7578063dd62ed3e146118c2576103b9565b8063c4d66de8116100e9578063c4d66de814611513578063c812a60114611557578063c9d27afe146115a5578063cb445cfd146115f3576103b9565b8063aaa746bb14611374578063b2d5a696146113d0578063bab95e391461148d578063c260e6e4146114c5576103b9565b80638f32d59b11610192578063a55a5bea11610161578063a55a5bea1461128a578063a65eed49146112b8578063a85e3863146112f0578063a9059cbb1461130e576103b9565b80638f32d59b1461116157806395d89b4114611183578063997072f714611206578063a457c2d714611224576103b9565b8063817c8966116101ce578063817c896614610fd857806389e22a52146110305780638da5cb5b146110c95780638db4b8fa14611113576103b9565b80637dc0d1d014610f565780637f6dc8f114610fa05780638129fc1c14610fce576103b9565b8063313ce567116102e45780636326e4ce11610277578063715018a611610246578063715018a614610d705780637a511f1a14610d7a5780637d10707b14610e495780637daa746b14610f38576103b9565b80636326e4ce14610c40578063653724b114610c8e5780636876ac8414610cea57806370a0823114610d18576103b9565b8063484e1948116102b3578063484e194814610b725780634d853ee514610baa5780634e024a0d14610bf45780635adab6e014610c12576103b9565b8063313ce56714610a3e5780633950935114610a625780633e7d4dbd14610ac85780634777e8ea14610b2e576103b9565b8063135171be1161035c57806323b872dd1161032b57806323b872dd1461094e578063245342e6146109d457806324a03fbf146109f25780632c450aa114610a20576103b9565b8063135171be1461076f5780631624f6c6146107b357806318160ddd146109125780631e405ff914610930576103b9565b806306fdde031161039857806306fdde0314610599578063095ea7b31461061c57806310734e431461068257806311aee38014610751576103b9565b80629299e3146103be578063013cf08b14610479578063054f7d9c14610577575b600080fd5b610477600480360360208110156103d457600080fd5b81019080803590602001906401000000008111156103f157600080fd5b82018360208201111561040357600080fd5b8035906020019184600183028401116401000000008311171561042557600080fd5b91908080601f016020809104026020016040519081016040528093929190818152602001838380828437600081840152601f19601f820116905080830192505050505050509192919290505050611beb565b005b6104a56004803603602081101561048f57600080fd5b8101908080359060200190929190505050611ca5565b604051808773ffffffffffffffffffffffffffffffffffffffff1673ffffffffffffffffffffffffffffffffffffffff168152602001868152602001858152602001806020018415151515815260200183151515158152602001828103825285818151815260200191508051906020019080838360005b8381101561053757808201518184015260208101905061051c565b50505050905090810190601f1680156105645780820380516001836020036101000a031916815260200191505b5097505050505050505060405180910390f35b61057f611dc0565b604051808215151515815260200191505060405180910390f35b6105a1611dd3565b6040518080602001828103825283818151815260200191508051906020019080838360005b838110156105e15780820151818401526020810190506105c6565b50505050905090810190601f16801561060e5780820380516001836020036101000a031916815260200191505b509250505060405180910390f35b6106686004803603604081101561063257600080fd5b81019080803573ffffffffffffffffffffffffffffffffffffffff16906020019092919080359060200190929190505050611e75565b604051808215151515815260200191505060405180910390f35b61073b6004803603602081101561069857600080fd5b81019080803590602001906401000000008111156106b557600080fd5b8201836020820111156106c757600080fd5b803590602001918460018302840111640100000000831117156106e957600080fd5b91908080601f016020809104026020016040519081016040528093929190818152602001838380828437600081840152601f19601f820116905080830192505050505050509192919290505050611e93565b6040518082815260200191505060405180910390f35b610759611f06565b6040518082815260200191505060405180910390f35b6107b16004803603602081101561078557600080fd5b81019080803573ffffffffffffffffffffffffffffffffffffffff169060200190929190505050611f0c565b005b610910600480360360608110156107c957600080fd5b81019080803590602001906401000000008111156107e657600080fd5b8201836020820111156107f857600080fd5b8035906020019184600183028401116401000000008311171561081a57600080fd5b91908080601f016020809104026020016040519081016040528093929190818152602001838380828437600081840152601f19601f8201169050808301925050505050505091929192908035906020019064010000000081111561087d57600080fd5b82018360208201111561088f57600080fd5b803590602001918460018302840111640100000000831117156108b157600080fd5b91908080601f016020809104026020016040519081016040528093929190818152602001838380828437600081840152601f19601f820116905080830192505050505050509192919290803560ff169060200190929190505050611f78565b005b61091a6120c3565b6040518082815260200191505060405180910390f35b6109386120cd565b6040518082815260200191505060405180910390f35b6109ba6004803603606081101561096457600080fd5b81019080803573ffffffffffffffffffffffffffffffffffffffff169060200190929190803573ffffffffffffffffffffffffffffffffffffffff169060200190929190803590602001909291905050506120d3565b604051808215151515815260200191505060405180910390f35b6109dc612192565b6040518082815260200191505060405180910390f35b610a1e60048036036020811015610a0857600080fd5b8101908080359060200190929190505050612198565b005b610a28612317565b6040518082815260200191505060405180910390f35b610a4661231d565b604051808260ff1660ff16815260200191505060405180910390f35b610aae60048036036040811015610a7857600080fd5b81019080803573ffffffffffffffffffffffffffffffffffffffff16906020019092919080359060200190929190505050612334565b604051808215151515815260200191505060405180910390f35b610b1460048036036040811015610ade57600080fd5b81019080803573ffffffffffffffffffffffffffffffffffffffff169060200190929190803590602001909291905050506123e7565b604051808215151515815260200191505060405180910390f35b610b7060048036036020811015610b4457600080fd5b81019080803573ffffffffffffffffffffffffffffffffffffffff16906020019092919050505061245f565b005b610ba860048036036040811015610b8857600080fd5b810190808035906020019092919080359060200190929190505050612527565b005b610bb26126e3565b604051808273ffffffffffffffffffffffffffffffffffffffff1673ffffffffffffffffffffffffffffffffffffffff16815260200191505060405180910390f35b610bfc612709565b6040518082815260200191505060405180910390f35b610c3e60048036036020811015610c2857600080fd5b8101908080359060200190929190505050612719565b005b610c8c60048036036040811015610c5657600080fd5b81019080803573ffffffffffffffffffffffffffffffffffffffff169060200190929190803590602001909291905050506127df565b005b610cd060048036036020811015610ca457600080fd5b81019080803573ffffffffffffffffffffffffffffffffffffffff169060200190929190505050612863565b604051808215151515815260200191505060405180910390f35b610d1660048036036020811015610d0057600080fd5b81019080803590602001909291905050506128cd565b005b610d5a60048036036020811015610d2e57600080fd5b81019080803573ffffffffffffffffffffffffffffffffffffffff169060200190929190505050612a4c565b6040518082815260200191505060405180910390f35b610d78612a95565b005b610e3360048036036020811015610d9057600080fd5b8101908080359060200190640100000000811115610dad57600080fd5b820183602082011115610dbf57600080fd5b80359060200191846001830284011164010000000083111715610de157600080fd5b91908080601f016020809104026020016040519081016040528093929190818152602001838380828437600081840152601f19601f820116905080830192505050505050509192919290505050612b67565b6040518082815260200191505060405180910390f35b610f3660048036036080811015610e5f57600080fd5b81019080803573ffffffffffffffffffffffffffffffffffffffff1690602001909291908035906020019092919080359060200190640100000000811115610ea657600080fd5b820183602082011115610eb857600080fd5b80359060200191846001830284011164010000000083111715610eda57600080fd5b91908080601f016020809104026020016040519081016040528093929190818152602001838380828437600081840152601f19601f82011690508083019250505050505050919291929080359060200190929190505050612bda565b005b610f40612e41565b6040518082815260200191505060405180910390f35b610f5e612e47565b604051808273ffffffffffffffffffffffffffffffffffffffff1673ffffffffffffffffffffffffffffffffffffffff16815260200191505060405180910390f35b610fcc60048036036020811015610fb657600080fd5b8101908080359060200190929190505050612e6d565b005b610fd661303e565b005b61101a60048036036020811015610fee57600080fd5b81019080803573ffffffffffffffffffffffffffffffffffffffff1690602001909291905050506131bc565b6040518082815260200191505060405180910390f35b6110c76004803603604081101561104657600080fd5b81019080803573ffffffffffffffffffffffffffffffffffffffff1690602001909291908035906020019064010000000081111561108357600080fd5b82018360208201111561109557600080fd5b803590602001918460018302840111640100000000831117156110b757600080fd5b9091929391929390505050613205565b005b6110d16133b4565b604051808273ffffffffffffffffffffffffffffffffffffffff1673ffffffffffffffffffffffffffffffffffffffff16815260200191505060405180910390f35b61115f6004803603604081101561112957600080fd5b81019080803573ffffffffffffffffffffffffffffffffffffffff169060200190929190803590602001909291905050506133de565b005b6111696134ac565b604051808215151515815260200191505060405180910390f35b61118b61350b565b6040518080602001828103825283818151815260200191508051906020019080838360005b838110156111cb5780820151818401526020810190506111b0565b50505050905090810190601f1680156111f85780820380516001836020036101000a031916815260200191505b509250505060405180910390f35b61120e6135ad565b6040518082815260200191505060405180910390f35b6112706004803603604081101561123a57600080fd5b81019080803573ffffffffffffffffffffffffffffffffffffffff169060200190929190803590602001909291905050506135b7565b604051808215151515815260200191505060405180910390f35b6112b6600480360360208110156112a057600080fd5b810190808035906020019092919050505061366a565b005b6112ee600480360360408110156112ce57600080fd5b81019080803590602001909291908035906020019092919050505061372b565b005b6112f8613875565b6040518082815260200191505060405180910390f35b61135a6004803603604081101561132457600080fd5b81019080803573ffffffffffffffffffffffffffffffffffffffff1690602001909291908035906020019092919050505061387b565b604051808215151515815260200191505060405180910390f35b6113b66004803603602081101561138a57600080fd5b81019080803573ffffffffffffffffffffffffffffffffffffffff169060200190929190505050613899565b604051808215151515815260200191505060405180910390f35b611412600480360360208110156113e657600080fd5b81019080803573ffffffffffffffffffffffffffffffffffffffff169060200190929190505050613903565b6040518080602001828103825283818151815260200191508051906020019080838360005b83811015611452578082015181840152602081019050611437565b50505050905090810190601f16801561147f5780820380516001836020036101000a031916815260200191505b509250505060405180910390f35b6114c3600480360360408110156114a357600080fd5b8101908080359060200190929190803590602001909291905050506139e4565b005b611511600480360360408110156114db57600080fd5b81019080803573ffffffffffffffffffffffffffffffffffffffff16906020019092919080359060200190929190505050613ad6565b005b6115556004803603602081101561152957600080fd5b81019080803573ffffffffffffffffffffffffffffffffffffffff169060200190929190505050613bb1565b005b6115a36004803603604081101561156d57600080fd5b81019080803573ffffffffffffffffffffffffffffffffffffffff16906020019092919080359060200190929190505050613d6f565b005b6115dd600480360360408110156115bb57600080fd5b8101908080359060200190929190803515159060200190929190505050613dda565b6040518082815260200191505060405180910390f35b6115fb61408a565b6040518082815260200191505060405180910390f35b6116ea6004803603604081101561162757600080fd5b81019080803573ffffffffffffffffffffffffffffffffffffffff1690602001909291908035906020019064010000000081111561166457600080fd5b82018360208201111561167657600080fd5b8035906020019184600183028401116401000000008311171561169857600080fd5b91908080601f016020809104026020016040519081016040528093929190818152602001838380828437600081840152601f19601f820116905080830192505050505050509192919290505050614090565b005b6117c56004803603604081101561170257600080fd5b81019080803573ffffffffffffffffffffffffffffffffffffffff1690602001909291908035906020019064010000000081111561173f57600080fd5b82018360208201111561175157600080fd5b8035906020019184600183028401116401000000008311171561177357600080fd5b91908080601f016020809104026020016040519081016040528093929190818152602001838380828437600081840152601f19601f8201169050808301925050505050505091929192905050506142db565b005b611880600480360360208110156117dd57600080fd5b81019080803590602001906401000000008111156117fa57600080fd5b82018360208201111561180c57600080fd5b8035906020019184600183028401116401000000008311171561182e57600080fd5b91908080601f016020809104026020016040519081016040528093929190818152602001838380828437600081840152601f19601f82011690508083019250505050505050919291929050505061433e565b604051808273ffffffffffffffffffffffffffffffffffffffff1673ffffffffffffffffffffffffffffffffffffffff16815260200191505060405180910390f35b611924600480360360408110156118d857600080fd5b81019080803573ffffffffffffffffffffffffffffffffffffffff169060200190929190803573ffffffffffffffffffffffffffffffffffffffff1690602001909291905050506143ec565b6040518082815260200191505060405180910390f35b611aca6004803603608081101561195057600080fd5b81019080803573ffffffffffffffffffffffffffffffffffffffff169060200190929190803573ffffffffffffffffffffffffffffffffffffffff169060200190929190803590602001906401000000008111156119ad57600080fd5b8201836020820111156119bf57600080fd5b803590602001918460018302840111640100000000831117156119e157600080fd5b91908080601f016020809104026020016040519081016040528093929190818152602001838380828437600081840152601f19601f82011690508083019250505050505050919291929080359060200190640100000000811115611a4457600080fd5b820183602082011115611a5657600080fd5b80359060200191846001830284011164010000000083111715611a7857600080fd5b91908080601f016020809104026020016040519081016040528093929190818152602001838380828437600081840152601f19601f820116905080830192505050505050509192919290505050614473565b005b611b0e60048036036020811015611ae257600080fd5b81019080803573ffffffffffffffffffffffffffffffffffffffff169060200190929190505050614af3565b005b611b5260048036036020811015611b2657600080fd5b81019080803573ffffffffffffffffffffffffffffffffffffffff169060200190929190505050614b10565b6040518080602001828103825283818151815260200191508051906020019080838360005b83811015611b92578082015181840152602081019050611b77565b50505050905090810190601f168015611bbf5780820380516001836020036101000a031916815260200191505b509250505060405180910390f35b611bd5614bf1565b6040518082815260200191505060405180910390f35b8060d960003373ffffffffffffffffffffffffffffffffffffffff1673ffffffffffffffffffffffffffffffffffffffff1681526020019081526020016000209080519060200190611c3e929190615987565b507fbe4ec58a792f909e102ee3d745d0c3b34a4d437a54d903c4db098d31c556422f33604051808273ffffffffffffffffffffffffffffffffffffffff1673ffffffffffffffffffffffffffffffffffffffff16815260200191505060405180910390a150565b60e68181548110611cb257fe5b90600052602060002090600702016000915090508060000160009054906101000a900473ffffffffffffffffffffffffffffffffffffffff1690806001015490806002015490806003018054600181600116156101000203166002900480601f016020809104026020016040519081016040528092919081815260200182805460018160011615610100020316600290048015611d905780601f10611d6557610100808354040283529160200191611d90565b820191906000526020600020905b815481529060010190602001808311611d7357829003601f168201915b5050505050908060040160009054906101000a900460ff16908060040160019054906101000a900460ff16905086565b60d260009054906101000a900460ff1681565b6060609b8054600181600116156101000203166002900480601f016020809104026020016040519081016040528092919081815260200182805460018160011615610100020316600290048015611e6b5780601f10611e4057610100808354040283529160200191611e6b565b820191906000526020600020905b815481529060010190602001808311611e4e57829003601f168201915b5050505050905090565b6000611e89611e82614bf7565b8484614bff565b6001905092915050565b600060e4826040518082805190602001908083835b60208310611ecb5780518252602082019150602081019050602083039250611ea8565b6001836020036101000a0380198251168184511680821785525050505050509050019150509081526020016040518091039020549050919050565b60d15481565b611f146134ac565b611f1d57600080fd5b600160d560008373ffffffffffffffffffffffffffffffffffffffff1673ffffffffffffffffffffffffffffffffffffffff16815260200190815260200160002060006101000a81548160ff02191690831515021790555050565b600060019054906101000a900460ff1680611f975750611f96614d5e565b5b80611fae57506000809054906101000a900460ff16155b612003576040517f08c379a000000000000000000000000000000000000000000000000000000000815260040180806020018281038252602e815260200180615c1a602e913960400191505060405180910390fd5b60008060019054906101000a900460ff161590508015612053576001600060016101000a81548160ff02191690831515021790555060016000806101000a81548160ff0219169083151502179055505b83609b9080519060200190612069929190615987565b5082609c9080519060200190612080929190615987565b5081609d60006101000a81548160ff021916908360ff16021790555080156120bd5760008060016101000a81548160ff0219169083151502179055505b50505050565b6000606854905090565b60db5481565b60006120e0848484614d6f565b612187846120ec614bf7565b61218285606760008a73ffffffffffffffffffffffffffffffffffffffff1673ffffffffffffffffffffffffffffffffffffffff1681526020019081526020016000206000612139614bf7565b73ffffffffffffffffffffffffffffffffffffffff1673ffffffffffffffffffffffffffffffffffffffff16815260200190815260200160002054614f3d90919063ffffffff16565b614bff565b600190509392505050565b60df5481565b600060e260003373ffffffffffffffffffffffffffffffffffffffff1673ffffffffffffffffffffffffffffffffffffffff168152602001908152602001600020905081816001015410156121ec57600080fd5b612203828260010154614f3d90919063ffffffff16565b8160010181905550612222828260030154614f5d90919063ffffffff16565b816003018190555060dc600081548092919060010191905055506000612254600260db54614f7c90919063ffffffff16565b9050600060e3600060dc5481526020019081526020016000209050818160000181905550338160040160006101000a81548173ffffffffffffffffffffffffffffffffffffffff021916908373ffffffffffffffffffffffffffffffffffffffff16021790555083816001018190555060db5481600201819055506002816003018190555060006122e3612709565b9050828110612305576122f63084614fa2565b61230033846150f6565b612310565b61230f33846150f6565b5b5050505050565b60e05481565b6000609d60009054906101000a900460ff16905090565b60006123dd612341614bf7565b846123d88560676000612352614bf7565b73ffffffffffffffffffffffffffffffffffffffff1673ffffffffffffffffffffffffffffffffffffffff16815260200190815260200160002060008973ffffffffffffffffffffffffffffffffffffffff1673ffffffffffffffffffffffffffffffffffffffff16815260200190815260200160002054614f5d90919063ffffffff16565b614bff565b6001905092915050565b60008060e683815481106123f757fe5b906000526020600020906007020190508060060160008573ffffffffffffffffffffffffffffffffffffffff1673ffffffffffffffffffffffffffffffffffffffff16815260200190815260200160002060009054906101000a900460ff1691505092915050565b6001151560d560003373ffffffffffffffffffffffffffffffffffffffff1673ffffffffffffffffffffffffffffffffffffffff16815260200190815260200160002060009054906101000a900460ff161515146124bc57600080fd5b600015156124c982612863565b1515146124d557600080fd5b60d860008273ffffffffffffffffffffffffffffffffffffffff1673ffffffffffffffffffffffffffffffffffffffff1681526020019081526020016000206000815480929190600101919050555050565b600060e260003373ffffffffffffffffffffffffffffffffffffffff1673ffffffffffffffffffffffffffffffffffffffff1681526020019081526020016000209050600060e360008481526020019081526020016000209050600015158160040160149054906101000a900460ff161515146125a357600080fd5b8060040160009054906101000a900473ffffffffffffffffffffffffffffffffffffffff1673ffffffffffffffffffffffffffffffffffffffff163373ffffffffffffffffffffffffffffffffffffffff16146125ff57600080fd5b60018160030154141561266e57838260000154101561261d57600080fd5b612634848360000154614f3d90919063ffffffff16565b8260000181905550612653848360020154614f5d90919063ffffffff16565b82600201819055508381600101600082825401925050819055505b6002816003015414156126dd57838260010154101561268c57600080fd5b6126a3848360010154614f3d90919063ffffffff16565b82600101819055506126c2848360030154614f5d90919063ffffffff16565b82600301819055508381600101600082825401925050819055505b50505050565b60d060009054906101000a900473ffffffffffffffffffffffffffffffffffffffff1681565b600061271430612a4c565b905090565b600061273060da548361524a90919063ffffffff16565b90508061273c33612a4c565b101561274757600080fd5b6127513382614fa2565b61275b30826150f6565b8160dd54116127735761276e3383615284565b6127db565b8160dd60008282540392505081905550600060e260003373ffffffffffffffffffffffffffffffffffffffff1673ffffffffffffffffffffffffffffffffffffffff168152602001908152602001600020905060018160000160008282540192505081905550505b5050565b6001151560d560003373ffffffffffffffffffffffffffffffffffffffff1673ffffffffffffffffffffffffffffffffffffffff16815260200190815260200160002060009054906101000a900460ff1615151461283c57600080fd5b6000151561284983612863565b15151461285557600080fd5b61285f82826150f6565b5050565b60006001151560d460008473ffffffffffffffffffffffffffffffffffffffff1673ffffffffffffffffffffffffffffffffffffffff16815260200190815260200160002060009054906101000a900460ff16151514156128c757600190506128c8565b5b919050565b600060e260003373ffffffffffffffffffffffffffffffffffffffff1673ffffffffffffffffffffffffffffffffffffffff1681526020019081526020016000209050818160000154101561292157600080fd5b612938828260000154614f3d90919063ffffffff16565b8160000181905550612957828260020154614f5d90919063ffffffff16565b816002018190555060dc600081548092919060010191905055506000612989600260da54614f7c90919063ffffffff16565b9050600060e3600060dc5481526020019081526020016000209050818160000181905550338160040160006101000a81548173ffffffffffffffffffffffffffffffffffffffff021916908373ffffffffffffffffffffffffffffffffffffffff16021790555083816001018190555060da548160020181905550600181600301819055506000612a18612709565b9050828110612a3a57612a2b3084614fa2565b612a3533846150f6565b612a45565b612a4433846150f6565b5b5050505050565b6000606660008373ffffffffffffffffffffffffffffffffffffffff1673ffffffffffffffffffffffffffffffffffffffff168152602001908152602001600020549050919050565b612a9d6134ac565b612aa657600080fd5b600073ffffffffffffffffffffffffffffffffffffffff16603360009054906101000a900473ffffffffffffffffffffffffffffffffffffffff1673ffffffffffffffffffffffffffffffffffffffff167f8be0079c531659141344cd1fd0a4f28419497f9722a3daafe3b4186f6b6457e060405160405180910390a36000603360006101000a81548173ffffffffffffffffffffffffffffffffffffffff021916908373ffffffffffffffffffffffffffffffffffffffff160217905550565b600060e5826040518082805190602001908083835b60208310612b9f5780518252602082019150602081019050602083039250612b7c565b6001836020036101000a0380198251168184511680821785525050505050509050019150509081526020016040518091039020549050919050565b600060e68054809190600101612bf09190615a07565b9050600060e68281548110612c0157fe5b90600052602060002090600702019050858160000160006101000a81548173ffffffffffffffffffffffffffffffffffffffff021916908373ffffffffffffffffffffffffffffffffffffffff16021790555084816001018190555083816003019080519060200190612c75929190615987565b508160e4856040518082805190602001908083835b60208310612cad5780518252602082019150602081019050602083039250612c8a565b6001836020036101000a0380198251168184511680821785525050505050509050019150509081526020016040518091039020819055508460e5856040518082805190602001908083835b60208310612d1b5780518252602082019150602081019050602083039250612cf8565b6001836020036101000a03801982511681845116808217855250505050505090500191505090815260200160405180910390208190555082816002018190555060008160040160006101000a81548160ff02191690831515021790555060008160040160016101000a81548160ff0219169083151502179055507f68a3e694fa578ad362161771d7ccb8d633a72af1e982b64ed1bef4147e91eafb84866040518080602001838152602001828103825284818151815260200191508051906020019080838360005b83811015612dfe578082015181840152602081019050612de3565b50505050905090810190601f168015612e2b5780820380516001836020036101000a031916815260200191505b50935050505060405180910390a1505050505050565b60da5481565b60e160009054906101000a900473ffffffffffffffffffffffffffffffffffffffff1681565b600060e360008381526020019081526020016000209050600015158160040160149054906101000a900460ff16151514612ea657600080fd5b60006064600383600001540281612eb957fe5b04905060008183600001540190508260040160009054906101000a900473ffffffffffffffffffffffffffffffffffffffff1673ffffffffffffffffffffffffffffffffffffffff163373ffffffffffffffffffffffffffffffffffffffff1614612f2357600080fd5b80612f2d33612a4c565b1015612f3857600080fd5b612f423382614fa2565b612f4c30826150f6565b600060e260003373ffffffffffffffffffffffffffffffffffffffff1673ffffffffffffffffffffffffffffffffffffffff1681526020019081526020016000209050600184600301541415612fe357612fb784600101548260000154614f5d90919063ffffffff16565b8160000181905550612fda84600101548260020154614f3d90919063ffffffff16565b81600201819055505b6002846003015414156130375761300b84600101548260010154614f5d90919063ffffffff16565b816001018190555061302e84600101548260030154614f3d90919063ffffffff16565b81600301819055505b5050505050565b600060019054906101000a900460ff168061305d575061305c614d5e565b5b8061307457506000809054906101000a900460ff16155b6130c9576040517f08c379a000000000000000000000000000000000000000000000000000000000815260040180806020018281038252602e815260200180615c1a602e913960400191505060405180910390fd5b60008060019054906101000a900460ff161590508015613119576001600060016101000a81548160ff02191690831515021790555060016000806101000a81548160ff0219169083151502179055505b61312233613bb1565b6131986040518060400160405280600981526020017f4e6f74696f436f696e00000000000000000000000000000000000000000000008152506040518060400160405280600381526020017f4e544300000000000000000000000000000000000000000000000000000000008152506012611f78565b80156131b95760008060016101000a81548160ff0219169083151502179055505b50565b600060d860008373ffffffffffffffffffffffffffffffffffffffff1673ffffffffffffffffffffffffffffffffffffffff168152602001908152602001600020549050919050565b6001151560d560003373ffffffffffffffffffffffffffffffffffffffff1673ffffffffffffffffffffffffffffffffffffffff16815260200190815260200160002060009054906101000a900460ff1615151461326257600080fd5b6000151561326f84612863565b15151461327b57600080fd5b600160d760008573ffffffffffffffffffffffffffffffffffffffff1673ffffffffffffffffffffffffffffffffffffffff16815260200190815260200160002060006101000a81548160ff02191690831515021790555060d860008473ffffffffffffffffffffffffffffffffffffffff1673ffffffffffffffffffffffffffffffffffffffff16815260200190815260200160002060008154809291906001019190505550600160d1540160d1819055508260d66000848460405160200180838380828437808301925050509250505060405160208183030381529060405280519060200120815260200190815260200160002060006101000a81548173ffffffffffffffffffffffffffffffffffffffff021916908373ffffffffffffffffffffffffffffffffffffffff160217905550505050565b6000603360009054906101000a900473ffffffffffffffffffffffffffffffffffffffff16905090565b600060e260003373ffffffffffffffffffffffffffffffffffffffff1673ffffffffffffffffffffffffffffffffffffffff1681526020019081526020016000209050818160000154101561343257600080fd5b613449828260000154614f3d90919063ffffffff16565b8160000181905550600060e260008573ffffffffffffffffffffffffffffffffffffffff1673ffffffffffffffffffffffffffffffffffffffff168152602001908152602001600020905082816000016000828254019250508190555050505050565b6000603360009054906101000a900473ffffffffffffffffffffffffffffffffffffffff1673ffffffffffffffffffffffffffffffffffffffff166134ef614bf7565b73ffffffffffffffffffffffffffffffffffffffff1614905090565b6060609c8054600181600116156101000203166002900480601f0160208091040260200160405190810160405280929190818152602001828054600181600116156101000203166002900480156135a35780601f10613578576101008083540402835291602001916135a3565b820191906000526020600020905b81548152906001019060200180831161358657829003601f168201915b5050505050905090565b600060d154905090565b60006136606135c4614bf7565b8461365b85606760006135d5614bf7565b73ffffffffffffffffffffffffffffffffffffffff1673ffffffffffffffffffffffffffffffffffffffff16815260200190815260200160002060008973ffffffffffffffffffffffffffffffffffffffff1673ffffffffffffffffffffffffffffffffffffffff16815260200190815260200160002054614f3d90919063ffffffff16565b614bff565b6001905092915050565b600061368160db548361524a90919063ffffffff16565b90508061368d33612a4c565b101561369857600080fd5b6136a23382614fa2565b6136ac30826150f6565b8160de54116136c0576136bf3383615284565b5b8160de60008282540392505081905550600060e260003373ffffffffffffffffffffffffffffffffffffffff1673ffffffffffffffffffffffffffffffffffffffff168152602001908152602001600020905060018160010160008282540192505081905550505050565b60e160009054906101000a900473ffffffffffffffffffffffffffffffffffffffff1673ffffffffffffffffffffffffffffffffffffffff163373ffffffffffffffffffffffffffffffffffffffff161461378557600080fd5b8160da819055508060db8190555060008090505b60dc54811161387057600060e360008381526020019081526020016000209050600015158160040160149054906101000a900460ff1615151415613864576001816003015414156138245760da548160000154116138235760018160040160146101000a81548160ff021916908315150217905550806001015460dd600082825401925050819055505b5b60db548160000154116138635760018160040160146101000a81548160ff021916908315150217905550806001015460de600082825401925050819055505b5b50806001019050613799565b505050565b60dc5481565b600061388f613888614bf7565b8484614d6f565b6001905092915050565b60006001151560d760008473ffffffffffffffffffffffffffffffffffffffff1673ffffffffffffffffffffffffffffffffffffffff16815260200190815260200160002060009054906101000a900460ff16151514156138fd57600190506138fe565b5b919050565b606060d960008373ffffffffffffffffffffffffffffffffffffffff1673ffffffffffffffffffffffffffffffffffffffff1681526020019081526020016000208054600181600116156101000203166002900480601f0160208091040260200160405190810160405280929190818152602001828054600181600116156101000203166002900480156139d85780601f106139ad576101008083540402835291602001916139d8565b820191906000526020600020905b8154815290600101906020018083116139bb57829003601f168201915b50505050509050919050565b600060e360008381526020019081526020016000209050600015158160040160149054906101000a900460ff16151514613a1d57600080fd5b8060040160009054906101000a900473ffffffffffffffffffffffffffffffffffffffff1673ffffffffffffffffffffffffffffffffffffffff163373ffffffffffffffffffffffffffffffffffffffff1614613a7957600080fd5b82613a8333612a4c565b1015613a8e57600080fd5b80600001548310613aa757613aa282612e6d565b613ad1565b613ab13384614fa2565b613abb30846150f6565b6000838260000154039050808260000181905550505b505050565b600060e260003373ffffffffffffffffffffffffffffffffffffffff1673ffffffffffffffffffffffffffffffffffffffff16815260200190815260200160002090508181600101541015613b2a57600080fd5b613b41828260010154614f3d90919063ffffffff16565b8160010181905550600060e260008573ffffffffffffffffffffffffffffffffffffffff1673ffffffffffffffffffffffffffffffffffffffff1681526020019081526020016000209050613ba3838260010154614f5d90919063ffffffff16565b816001018190555050505050565b600060019054906101000a900460ff1680613bd05750613bcf614d5e565b5b80613be757506000809054906101000a900460ff16155b613c3c576040517f08c379a000000000000000000000000000000000000000000000000000000000815260040180806020018281038252602e815260200180615c1a602e913960400191505060405180910390fd5b60008060019054906101000a900460ff161590508015613c8c576001600060016101000a81548160ff02191690831515021790555060016000806101000a81548160ff0219169083151502179055505b81603360006101000a81548173ffffffffffffffffffffffffffffffffffffffff021916908373ffffffffffffffffffffffffffffffffffffffff160217905550603360009054906101000a900473ffffffffffffffffffffffffffffffffffffffff1673ffffffffffffffffffffffffffffffffffffffff16600073ffffffffffffffffffffffffffffffffffffffff167f8be0079c531659141344cd1fd0a4f28419497f9722a3daafe3b4186f6b6457e060405160405180910390a38015613d6b5760008060016101000a81548160ff0219169083151502179055505b5050565b6001151560d560003373ffffffffffffffffffffffffffffffffffffffff1673ffffffffffffffffffffffffffffffffffffffff16815260200190815260200160002060009054906101000a900460ff16151514613dcc57600080fd5b613dd68282614fa2565b5050565b60008060e68481548110613dea57fe5b90600052602060002090600702019050600115158160060160003373ffffffffffffffffffffffffffffffffffffffff1673ffffffffffffffffffffffffffffffffffffffff16815260200190815260200160002060009054906101000a900460ff1615151415613e5a57600080fd5b6001151560d760003373ffffffffffffffffffffffffffffffffffffffff1673ffffffffffffffffffffffffffffffffffffffff16815260200190815260200160002060009054906101000a900460ff16151514613eb757600080fd5b806005018054809190600101613ecd9190615a39565b9150604051806040016040528084151581526020013373ffffffffffffffffffffffffffffffffffffffff16815250816005018381548110613f0b57fe5b9060005260206000200160008201518160000160006101000a81548160ff02191690831515021790555060208201518160000160016101000a81548173ffffffffffffffffffffffffffffffffffffffff021916908373ffffffffffffffffffffffffffffffffffffffff16021790555090505060018160060160003373ffffffffffffffffffffffffffffffffffffffff1673ffffffffffffffffffffffffffffffffffffffff16815260200190815260200160002060006101000a81548160ff0219169083151502179055507f8eb81cb806dbb3d8a2f94981614331a55dfd90e06a42fdc362ca3ca96981d92f3384604051808373ffffffffffffffffffffffffffffffffffffffff1673ffffffffffffffffffffffffffffffffffffffff168152602001821515151581526020019250505060405180910390a16000809050600360d1541061406a576140638360d1546152f0565b905061406f565b600190505b801561407f5761407e8561531f565b5b829250505092915050565b60de5481565b6140986134ac565b6140a157600080fd5b8160d66000836040516020018082805190602001908083835b602083106140dd57805182526020820191506020810190506020830392506140ba565b6001836020036101000a03801982511681845116808217855250505050505090500191505060405160208183030381529060405280519060200120815260200190815260200160002060006101000a81548173ffffffffffffffffffffffffffffffffffffffff021916908373ffffffffffffffffffffffffffffffffffffffff160217905550600160d760008473ffffffffffffffffffffffffffffffffffffffff1673ffffffffffffffffffffffffffffffffffffffff16815260200190815260200160002060006101000a81548160ff021916908315150217905550600160d1540160d181905550606460d860008473ffffffffffffffffffffffffffffffffffffffff1673ffffffffffffffffffffffffffffffffffffffff168152602001908152602001600020600082825401925050819055506040518060600160405280602e8152602001615bec602e913960d960008473ffffffffffffffffffffffffffffffffffffffff1673ffffffffffffffffffffffffffffffffffffffff1681526020019081526020016000209080519060200190614281929190615987565b508160d060006101000a81548173ffffffffffffffffffffffffffffffffffffffff021916908373ffffffffffffffffffffffffffffffffffffffff1602179055506142d78269d3c21bcecceda10000006150f6565b5050565b6142e633600a61561b565b8060d360008473ffffffffffffffffffffffffffffffffffffffff1673ffffffffffffffffffffffffffffffffffffffff1681526020019081526020016000209080519060200190614339929190615987565b505050565b600060d66000836040516020018082805190602001908083835b6020831061437b5780518252602082019150602081019050602083039250614358565b6001836020036101000a03801982511681845116808217855250505050505090500191505060405160208183030381529060405280519060200120815260200190815260200160002060009054906101000a900473ffffffffffffffffffffffffffffffffffffffff169050919050565b6000606760008473ffffffffffffffffffffffffffffffffffffffff1673ffffffffffffffffffffffffffffffffffffffff16815260200190815260200160002060008373ffffffffffffffffffffffffffffffffffffffff1673ffffffffffffffffffffffffffffffffffffffff16815260200190815260200160002054905092915050565b6000151561448085612863565b15151461448c57600080fd5b606460d154111561478457600160d760008673ffffffffffffffffffffffffffffffffffffffff1673ffffffffffffffffffffffffffffffffffffffff16815260200190815260200160002060006101000a81548160ff02191690831515021790555060d860008573ffffffffffffffffffffffffffffffffffffffff1673ffffffffffffffffffffffffffffffffffffffff16815260200190815260200160002060008154809291906001019190505550600160d1540160d1819055508160d960008673ffffffffffffffffffffffffffffffffffffffff1673ffffffffffffffffffffffffffffffffffffffff168152602001908152602001600020908051906020019061459d929190615987565b508360d66000836040516020018082805190602001908083835b602083106145da57805182526020820191506020810190506020830392506145b7565b6001836020036101000a03801982511681845116808217855250505050505090500191505060405160208183030381529060405280519060200120815260200190815260200160002060006101000a81548173ffffffffffffffffffffffffffffffffffffffff021916908373ffffffffffffffffffffffffffffffffffffffff16021790555061467433683635c9adc5dea000006150f6565b61467f3360016156d0565b7f6999e5f3b0ad27090c89056f0495bd0d670607eb5122d4eefb906987f0aab79e848484604051808473ffffffffffffffffffffffffffffffffffffffff1673ffffffffffffffffffffffffffffffffffffffff1681526020018373ffffffffffffffffffffffffffffffffffffffff1673ffffffffffffffffffffffffffffffffffffffff16815260200180602001828103825283818151815260200191508051906020019080838360005b8381101561474757808201518184015260208101905061472c565b50505050905090810190601f1680156147745780820380516001836020036101000a031916815260200191505b5094505050505060405180910390a15b6147903360da54614fa2565b61479c3060da546150f6565b600160d760008673ffffffffffffffffffffffffffffffffffffffff1673ffffffffffffffffffffffffffffffffffffffff16815260200190815260200160002060006101000a81548160ff02191690831515021790555060d860008573ffffffffffffffffffffffffffffffffffffffff1673ffffffffffffffffffffffffffffffffffffffff16815260200190815260200160002060008154809291906001019190505550600160d1540160d1819055508160d960008673ffffffffffffffffffffffffffffffffffffffff1673ffffffffffffffffffffffffffffffffffffffff16815260200190815260200160002090805190602001906148a2929190615987565b508360d66000836040516020018082805190602001908083835b602083106148df57805182526020820191506020810190506020830392506148bc565b6001836020036101000a03801982511681845116808217855250505050505090500191505060405160208183030381529060405280519060200120815260200190815260200160002060006101000a81548173ffffffffffffffffffffffffffffffffffffffff021916908373ffffffffffffffffffffffffffffffffffffffff160217905550600060dd54116149805761497b3360016156d0565b6149e9565b600160dd60008282540392505081905550600060e260003373ffffffffffffffffffffffffffffffffffffffff1673ffffffffffffffffffffffffffffffffffffffff168152602001908152602001600020905060018160000160008282540192505081905550505b7f6999e5f3b0ad27090c89056f0495bd0d670607eb5122d4eefb906987f0aab79e848484604051808473ffffffffffffffffffffffffffffffffffffffff1673ffffffffffffffffffffffffffffffffffffffff1681526020018373ffffffffffffffffffffffffffffffffffffffff1673ffffffffffffffffffffffffffffffffffffffff16815260200180602001828103825283818151815260200191508051906020019080838360005b83811015614ab1578082015181840152602081019050614a96565b50505050905090810190601f168015614ade5780820380516001836020036101000a031916815260200191505b5094505050505060405180910390a150505050565b614afb6134ac565b614b0457600080fd5b614b0d8161573c565b50565b606060d360008373ffffffffffffffffffffffffffffffffffffffff1673ffffffffffffffffffffffffffffffffffffffff1681526020019081526020016000208054600181600116156101000203166002900480601f016020809104026020016040519081016040528092919081815260200182805460018160011615610100020316600290048015614be55780601f10614bba57610100808354040283529160200191614be5565b820191906000526020600020905b815481529060010190602001808311614bc857829003601f168201915b50505050509050919050565b60dd5481565b600033905090565b600073ffffffffffffffffffffffffffffffffffffffff168273ffffffffffffffffffffffffffffffffffffffff161415614c3957600080fd5b600073ffffffffffffffffffffffffffffffffffffffff168373ffffffffffffffffffffffffffffffffffffffff161415614c7357600080fd5b80606760008573ffffffffffffffffffffffffffffffffffffffff1673ffffffffffffffffffffffffffffffffffffffff16815260200190815260200160002060008473ffffffffffffffffffffffffffffffffffffffff1673ffffffffffffffffffffffffffffffffffffffff168152602001908152602001600020819055508173ffffffffffffffffffffffffffffffffffffffff168373ffffffffffffffffffffffffffffffffffffffff167f8c5be1e5ebec7d5bd14f71427d1e84f3dd0314c0f7b2291e5b200ac8c7c3b925836040518082815260200191505060405180910390a3505050565b600080303b90506000811491505090565b600073ffffffffffffffffffffffffffffffffffffffff168273ffffffffffffffffffffffffffffffffffffffff161415614da957600080fd5b614dfb81606660008673ffffffffffffffffffffffffffffffffffffffff1673ffffffffffffffffffffffffffffffffffffffff16815260200190815260200160002054614f3d90919063ffffffff16565b606660008573ffffffffffffffffffffffffffffffffffffffff1673ffffffffffffffffffffffffffffffffffffffff16815260200190815260200160002081905550614e9081606660008573ffffffffffffffffffffffffffffffffffffffff1673ffffffffffffffffffffffffffffffffffffffff16815260200190815260200160002054614f5d90919063ffffffff16565b606660008473ffffffffffffffffffffffffffffffffffffffff1673ffffffffffffffffffffffffffffffffffffffff168152602001908152602001600020819055508173ffffffffffffffffffffffffffffffffffffffff168373ffffffffffffffffffffffffffffffffffffffff167fddf252ad1be2c89b69c2b068fc378daa952ba7f163c4a11628f55a4df523b3ef836040518082815260200191505060405180910390a3505050565b600082821115614f4c57600080fd5b600082840390508091505092915050565b600080828401905083811015614f7257600080fd5b8091505092915050565b6000808211614f8a57600080fd5b6000828481614f9557fe5b0490508091505092915050565b600073ffffffffffffffffffffffffffffffffffffffff168273ffffffffffffffffffffffffffffffffffffffff161415614fdc57600080fd5b614ff181606854614f3d90919063ffffffff16565b60688190555061504981606660008573ffffffffffffffffffffffffffffffffffffffff1673ffffffffffffffffffffffffffffffffffffffff16815260200190815260200160002054614f3d90919063ffffffff16565b606660008473ffffffffffffffffffffffffffffffffffffffff1673ffffffffffffffffffffffffffffffffffffffff16815260200190815260200160002081905550600073ffffffffffffffffffffffffffffffffffffffff168273ffffffffffffffffffffffffffffffffffffffff167fddf252ad1be2c89b69c2b068fc378daa952ba7f163c4a11628f55a4df523b3ef836040518082815260200191505060405180910390a35050565b600073ffffffffffffffffffffffffffffffffffffffff168273ffffffffffffffffffffffffffffffffffffffff16141561513057600080fd5b61514581606854614f5d90919063ffffffff16565b60688190555061519d81606660008573ffffffffffffffffffffffffffffffffffffffff1673ffffffffffffffffffffffffffffffffffffffff16815260200190815260200160002054614f5d90919063ffffffff16565b606660008473ffffffffffffffffffffffffffffffffffffffff1673ffffffffffffffffffffffffffffffffffffffff168152602001908152602001600020819055508173ffffffffffffffffffffffffffffffffffffffff16600073ffffffffffffffffffffffffffffffffffffffff167fddf252ad1be2c89b69c2b068fc378daa952ba7f163c4a11628f55a4df523b3ef836040518082815260200191505060405180910390a35050565b60008083141561525d576000905061527e565b600082840290508284828161526e57fe5b041461527957600080fd5b809150505b92915050565b600060e260008473ffffffffffffffffffffffffffffffffffffffff1673ffffffffffffffffffffffffffffffffffffffff168152602001908152602001600020905081816001016000828254019250508190555060e060008154809291906001019190505550505050565b6000806152ff84846002615836565b9050603c8110615313576001915050615319565b60009150505b92915050565b600060e6828154811061532e57fe5b906000526020600020906007020190508060040160009054906101000a900460ff161561535a57600080fd5b60008090506000809050600080905060008090505b84600501805490508110156153da57600085600501828154811061538f57fe5b90600052602060002001905060006001905080860195508160000160009054906101000a900460ff16156153c75780850194506153cd565b80840193505b505080600101905061536f565b50808211156155f65760018460040160006101000a81548160ff02191690831515021790555060018460040160016101000a81548160ff0219169083151502179055506001846001015414156154f15761545c8460000160009054906101000a900473ffffffffffffffffffffffffffffffffffffffff16856002015461387b565b507f44144dc63da619151b6c85b13f2679bf569e94a2dbd2c69fa1969f18e3b5a70a8460000160009054906101000a900473ffffffffffffffffffffffffffffffffffffffff168560020154604051808373ffffffffffffffffffffffffffffffffffffffff1673ffffffffffffffffffffffffffffffffffffffff1681526020018281526020019250505060405180910390a15b60028460010154141561557b57600160d460008660000160009054906101000a900473ffffffffffffffffffffffffffffffffffffffff1673ffffffffffffffffffffffffffffffffffffffff1673ffffffffffffffffffffffffffffffffffffffff16815260200190815260200160002060006101000a81548160ff0219169083151502179055505b6003846001015414156155b6576155b58460000160009054906101000a900473ffffffffffffffffffffffffffffffffffffffff1661586b565b5b6004846001015414156155f1576155f08460000160009054906101000a900473ffffffffffffffffffffffffffffffffffffffff16611f0c565b5b615614565b60008460040160016101000a81548160ff0219169083151502179055505b5050505050565b6156258282614fa2565b6156cc82615631614bf7565b6156c784606760008873ffffffffffffffffffffffffffffffffffffffff1673ffffffffffffffffffffffffffffffffffffffff168152602001908152602001600020600061567e614bf7565b73ffffffffffffffffffffffffffffffffffffffff1673ffffffffffffffffffffffffffffffffffffffff16815260200190815260200160002054614f3d90919063ffffffff16565b614bff565b5050565b600060e260008473ffffffffffffffffffffffffffffffffffffffff1673ffffffffffffffffffffffffffffffffffffffff168152602001908152602001600020905081816000016000828254019250508190555060df60008154809291906001019190505550505050565b600073ffffffffffffffffffffffffffffffffffffffff168173ffffffffffffffffffffffffffffffffffffffff16141561577657600080fd5b8073ffffffffffffffffffffffffffffffffffffffff16603360009054906101000a900473ffffffffffffffffffffffffffffffffffffffff1673ffffffffffffffffffffffffffffffffffffffff167f8be0079c531659141344cd1fd0a4f28419497f9722a3daafe3b4186f6b6457e060405160405180910390a380603360006101000a81548173ffffffffffffffffffffffffffffffffffffffff021916908373ffffffffffffffffffffffffffffffffffffffff16021790555050565b60008060018301600a0a850290506000600a600586848161585357fe5b04018161585c57fe5b04905080925050509392505050565b600061587682612a4c565b9050615882828261561b565b600060d760008473ffffffffffffffffffffffffffffffffffffffff1673ffffffffffffffffffffffffffffffffffffffff16815260200190815260200160002060006101000a81548160ff021916908315150217905550600060d860008473ffffffffffffffffffffffffffffffffffffffff1673ffffffffffffffffffffffffffffffffffffffff16815260200190815260200160002081905550600160d460008473ffffffffffffffffffffffffffffffffffffffff1673ffffffffffffffffffffffffffffffffffffffff16815260200190815260200160002060006101000a81548160ff021916908315150217905550600160d1540360d1819055505050565b828054600181600116156101000203166002900490600052602060002090601f016020900481019282601f106159c857805160ff19168380011785556159f6565b828001600101855582156159f6579182015b828111156159f55782518255916020019190600101906159da565b5b509050615a039190615a65565b5090565b815481835581811115615a3457600702816007028360005260206000209182019101615a339190615a8a565b5b505050565b815481835581811115615a6057818360005260206000209182019101615a5f9190615b28565b5b505050565b615a8791905b80821115615a83576000816000905550600101615a6b565b5090565b90565b615b2591905b80821115615b2157600080820160006101000a81549073ffffffffffffffffffffffffffffffffffffffff021916905560018201600090556002820160009055600382016000615ae09190615b82565b6004820160006101000a81549060ff02191690556004820160016101000a81549060ff0219169055600582016000615b189190615bca565b50600701615a90565b5090565b90565b615b7f91905b80821115615b7b57600080820160006101000a81549060ff02191690556000820160016101000a81549073ffffffffffffffffffffffffffffffffffffffff021916905550600101615b2e565b5090565b90565b50805460018160011615610100020316600290046000825580601f10615ba85750615bc7565b601f016020900490600052602060002090810190615bc69190615a65565b5b50565b5080546000825590600052602060002090810190615be89190615b28565b5056fe516d613653616f617a42417344733658716f6a574677334c437158746f7061506f78643546466b6e505765487272436f6e747261637420696e7374616e63652068617320616c7265616479206265656e20696e697469616c697a6564a165627a7a72305820c25e705236194b2a832b8e44204d2c2ac6fbc3cef14f1b35db56a9668a00b6370029",
  "source": "pragma solidity ^0.5.0;\n\nimport './DCMember.sol';\n\n contract DecentraCorp is DCMember{\n   using SafeMath for uint256;\n\n   mapping(string => uint) getHash;\n   mapping(string => uint) propCode;\n\n\n   Proposal[] public proposals;\n\n   event ProposalCreated(string VoteHash, uint PropCode);\n   event Voted(address _voter, bool inSupport);\n   event FundingApproved(address addToFund, uint amount);\n\n\n\n\n\n   struct  Proposal {\n        address Address;\n        uint PropCode;\n        uint Amount;\n        string voteHash;\n        bool executed;\n        bool proposalPassed;\n        Vote[] votes;\n        mapping (address => bool) voted;\n    }\n\n\n    struct Vote {\n            bool inSupport;\n            address voter;\n    }\n\n\n\n\n/**\n**@notice Proposal Codes are used to fire specific code. each number represents a different action\n*** the following are is a list of prop codes and their actions\n** 1. Funding Proposal: the address entered is the address receiving funding\n** 2. MemberShip Account Freeze Proposal: the address entered is the address to be frozen\n** 3. Membership Termination Proposal: the address entered is the address to be terminated\n** 4. Add new Approved Contract: the address entered will be approved to mint/burn NotiCoinCoin\n//more options will be added to allow for contract upgrades in the future\n*/\n   function createProposal(address _address, uint _propCode, string memory _voteHash, uint _amount) public {\n           uint ProposalID = proposals.length++;\n           Proposal storage p = proposals[ProposalID];\n           p.Address = _address;\n           p.PropCode = _propCode;\n           p.voteHash = _voteHash;\n           getHash[_voteHash] = ProposalID;\n           propCode[_voteHash] = _propCode;\n           p.Amount = _amount;\n           p.executed = false;\n           p.proposalPassed = false;\n           emit ProposalCreated(_voteHash, _propCode);\n   }\n\n\n   function vote(\n          uint _ProposalID,\n          bool supportsProposal\n      )\n          public\n          returns (uint voteID)\n      {\n\n          Proposal storage p = proposals[_ProposalID];\n          require(p.voted[msg.sender] != true);\n          require(members[msg.sender] == true);\n          voteID = p.votes.length++;\n          p.votes[voteID] = Vote({inSupport: supportsProposal, voter: msg.sender});\n          p.voted[msg.sender] = true;\n          emit Voted(msg.sender, supportsProposal);\n          bool tally = false;\n          if(memberCount >= 3){\n           tally = set_Quorum(voteID, memberCount);\n         }else{\n           tally = true;\n         }\n          if(tally) {\n            executeVote(_ProposalID);\n          }\n          return voteID;\n      }\n\n\n      ///@notice ideaBlockVote counts the votes and executes and Idea Proposal, adding an idea to the cryptopatent Blockchain\n      ///@dev seperate but similiar structures will need to be implemented in the future to stream line voting on different subjects(beta)\n      function executeVote(uint _ProposalID) internal {\n              Proposal storage p = proposals[_ProposalID];\n                   // sets p equal to the specific proposalNumber\n              require(!p.executed);\n              uint quorum = 0;\n              uint yea = 0;\n              uint nay = 0;\n\n\n\n          for (uint i = 0; i <  p.votes.length; ++i) {\n              Vote storage v = p.votes[i];\n              uint voteWeight = 1;\n              quorum += voteWeight;\n              if (v.inSupport) {\n                yea += voteWeight;\n                   } else {\n                 nay += voteWeight;\n                       }\n                   }\n\n\n                   if (yea > nay ) {\n                       // Proposal passed; execute the transaction\n                     p.executed = true;\n                     p.proposalPassed = true;\n                     if(p.PropCode == 1) {\n                       transfer(p.Address, p.Amount);\n                      emit FundingApproved(p.Address, p.Amount);\n                     }\n                     if(p.PropCode == 2) {\n                       frozenAccounts[p.Address] = true;\n                     }\n                     if(p.PropCode == 3) {\n                       terminateMember(p.Address);\n                     }\n                     if(p.PropCode == 4) {\n                       addApprovedContract(p.Address);\n                     }\n                 } else {\n                       // Proposal failed\n                     p.proposalPassed = false;\n                 }\n\n            }\n\n\n\n\n\n    function getPropID(string memory hash) public view returns(uint){\n      return getHash[hash];\n    }\n\n    function getPropCode(string memory hash) public view returns(uint){\n      return propCode[hash];\n    }\n\n    function checkIfVoted(address _add, uint _ProposalID) public view returns(bool) {\n      Proposal storage p = proposals[_ProposalID];\n      return p.voted[_add];\n    }\n\n\n\n\n }\n",
  "sourcePath": "/home/stan36/repos/DecentraCorpContracts/contracts/DecentraCorp/DecentraCorp.sol",
  "compiler": {
    "name": "solc",
    "version": "0.5.8+commit.23d335f2.Emscripten.clang"
  },
  "schemaVersion": "3.0.11",
  "updatedAt": "2019-09-13T20:26:25.320Z",
  "devdoc": {
    "methods": {
      "_addMember(address,string)": {
        "details": "addMember takes in an address _mem, sets its membership to true and increments their rank by one"
      },
      "addApprovedContract(address)": {
        "details": "adds contract to list of approved calling contracts"
      },
      "allowance(address,address)": {
        "details": "Function to check the amount of tokens that an owner allowed to a spender.",
        "params": {
          "owner": "address The address which owns the funds.",
          "spender": "address The address which will spend the funds."
        },
        "return": "A uint256 specifying the amount of tokens still available for the spender."
      },
      "approve(address,uint256)": {
        "details": "Approve the passed address to spend the specified amount of tokens on behalf of msg.sender. Beware that changing an allowance with this method brings the risk that someone may use both the old and the new allowance by unfortunate transaction ordering. One possible solution to mitigate this race condition is to first reduce the spender's allowance to 0 and set the desired value afterwards: https://github.com/ethereum/EIPs/issues/20#issuecomment-263524729",
        "params": {
          "spender": "The address which will spend the funds.",
          "value": "The amount of tokens to be spent."
        }
      },
      "balanceOf(address)": {
        "details": "Gets the balance of the specified address.",
        "params": {
          "owner": "The address to query the balance of."
        },
        "return": "A uint256 representing the amount owned by the passed address."
      },
      "buyMembership(address,address,string,string)": {
        "details": "mints the user 1000 NTC if member is one of the first 100"
      },
      "decimals()": {
        "return": "the number of decimals of the token."
      },
      "decreaseAllowance(address,uint256)": {
        "details": "Decrease the amount of tokens that an owner allowed to a spender. approve should be called when _allowances[msg.sender][spender] == 0. To decrement allowed value is better to use this function to avoid 2 calls (and wait until the first transaction is mined) From MonolithDAO Token.sol Emits an Approval event.",
        "params": {
          "spender": "The address which will spend the funds.",
          "subtractedValue": "The amount of tokens to decrease the allowance by."
        }
      },
      "getMemberCount()": {
        "details": "getMemberCount is for front end and internal use"
      },
      "increaseAllowance(address,uint256)": {
        "details": "Increase the amount of tokens that an owner allowed to a spender. approve should be called when _allowances[msg.sender][spender] == 0. To increment allowed value is better to use this function to avoid 2 calls (and wait until the first transaction is mined) From MonolithDAO Token.sol Emits an Approval event.",
        "params": {
          "addedValue": "The amount of tokens to increase the allowance by.",
          "spender": "The address which will spend the funds."
        }
      },
      "initialize(address)": {
        "details": "The Ownable constructor sets the original `owner` of the contract to the sender account."
      },
      "isOwner()": {
        "return": "true if `msg.sender` is the owner of the contract."
      },
      "name()": {
        "return": "the name of the token."
      },
      "owner()": {
        "return": "the address of the owner."
      },
      "renounceOwnership()": {
        "details": "Allows the current owner to relinquish control of the contract. It will not be possible to call the functions with the `onlyOwner` modifier anymore."
      },
      "symbol()": {
        "return": "the symbol of the token."
      },
      "totalSupply()": {
        "details": "Total number of tokens in existence"
      },
      "transfer(address,uint256)": {
        "details": "Transfer token to a specified address",
        "params": {
          "to": "The address to transfer to.",
          "value": "The amount to be transferred."
        }
      },
      "transferFrom(address,address,uint256)": {
        "details": "Transfer tokens from one address to another. Note that while this function emits an Approval event, this is not required as per the specification, and other compliant implementations may not emit the event.",
        "params": {
          "from": "address The address which you want to send tokens from",
          "to": "address The address which you want to transfer to",
          "value": "uint256 the amount of tokens to be transferred"
        }
      },
      "transferOwnership(address)": {
        "details": "Allows the current owner to transfer control of the contract to a newOwner.",
        "params": {
          "newOwner": "The address to transfer ownership to."
        }
      }
    }
  },
  "userdoc": {
    "methods": {
      "_addMember(address,string)": {
        "notice": "addMember function is an internal function for adding a member to decentracorp"
      },
      "buyMembership(address,address,string,string)": {
        "notice": "buyMembership function allows for the purchase of a membership for 6 months after official launch."
      },
      "createProposal(address,uint256,string,uint256)": {
        "notice": "Proposal Codes are used to fire specific code. each number represents a different action*** the following are is a list of prop codes and their actions** 1. Funding Proposal: the address entered is the address receiving funding** 2. MemberShip Account Freeze Proposal: the address entered is the address to be frozen** 3. Membership Termination Proposal: the address entered is the address to be terminated** 4. Add new Approved Contract: the address entered will be approved to mint/burn NotiCoinCoin //more options will be added to allow for contract upgrades in the future"
      },
      "getMemberCount()": {
        "notice": "getMemberCount function returns total membercount"
      },
      "initialize()": {
        "notice": "constructor sets up NotiCoin address through truffle wizardry"
      },
      "proxyNTCBurn(address,uint256)": {
        "notice": "proxyBurn allows an approved address to burn NotiCoin"
      },
      "proxyNTCMint(address,uint256)": {
        "notice": "proxyMint allows an approved address to mint NotiCoin"
      },
      "renounceOwnership()": {
        "notice": "Renouncing ownership will leave the contract without an owner, thereby removing any functionality that is only available to the owner."
      }
    }
  }
}