{
  "contractName": "DecentraCorp",
  "abi": [
    {
      "anonymous": false,
      "inputs": [
        {
          "indexed": false,
          "internalType": "address",
          "name": "addToFund",
          "type": "address"
        },
        {
          "indexed": false,
          "internalType": "uint256",
          "name": "amount",
          "type": "uint256"
        }
      ],
      "name": "FundingApproved",
      "type": "event"
    },
    {
      "anonymous": false,
      "inputs": [
        {
          "indexed": false,
          "internalType": "address",
          "name": "_newMem",
          "type": "address"
        }
      ],
      "name": "NewMember",
      "type": "event"
    },
    {
      "anonymous": false,
      "inputs": [
        {
          "indexed": true,
          "internalType": "address",
          "name": "previousOwner",
          "type": "address"
        },
        {
          "indexed": true,
          "internalType": "address",
          "name": "newOwner",
          "type": "address"
        }
      ],
      "name": "OwnershipTransferred",
      "type": "event"
    },
    {
      "anonymous": false,
      "inputs": [
        {
          "indexed": false,
          "internalType": "string",
          "name": "VoteHash",
          "type": "string"
        },
        {
          "indexed": false,
          "internalType": "uint256",
          "name": "PropCode",
          "type": "uint256"
        }
      ],
      "name": "ProposalCreated",
      "type": "event"
    },
    {
      "anonymous": false,
      "inputs": [
        {
          "indexed": false,
          "internalType": "address",
          "name": "_voter",
          "type": "address"
        },
        {
          "indexed": false,
          "internalType": "bool",
          "name": "inSupport",
          "type": "bool"
        }
      ],
      "name": "Voted",
      "type": "event"
    },
    {
      "constant": true,
      "inputs": [],
      "name": "DD",
      "outputs": [
        {
          "internalType": "contract DecentraDollar",
          "name": "",
          "type": "address"
        }
      ],
      "payable": false,
      "stateMutability": "view",
      "type": "function"
    },
    {
      "constant": true,
      "inputs": [],
      "name": "DS",
      "outputs": [
        {
          "internalType": "contract DecentraStock",
          "name": "",
          "type": "address"
        }
      ],
      "payable": false,
      "stateMutability": "view",
      "type": "function"
    },
    {
      "constant": true,
      "inputs": [],
      "name": "DecentraEarnings",
      "outputs": [
        {
          "internalType": "uint256",
          "name": "",
          "type": "uint256"
        }
      ],
      "payable": false,
      "stateMutability": "view",
      "type": "function"
    },
    {
      "constant": true,
      "inputs": [
        {
          "internalType": "address",
          "name": "_member",
          "type": "address"
        }
      ],
      "name": "_checkIfMember",
      "outputs": [
        {
          "internalType": "bool",
          "name": "",
          "type": "bool"
        }
      ],
      "payable": false,
      "stateMutability": "view",
      "type": "function"
    },
    {
      "constant": false,
      "inputs": [
        {
          "internalType": "address",
          "name": "_contract",
          "type": "address"
        }
      ],
      "name": "addNewToken",
      "outputs": [],
      "payable": false,
      "stateMutability": "nonpayable",
      "type": "function"
    },
    {
      "constant": true,
      "inputs": [],
      "name": "approvedContracts",
      "outputs": [
        {
          "internalType": "uint256",
          "name": "",
          "type": "uint256"
        }
      ],
      "payable": false,
      "stateMutability": "view",
      "type": "function"
    },
    {
      "constant": true,
      "inputs": [],
      "name": "bancor",
      "outputs": [
        {
          "internalType": "contract BancorFormulaI",
          "name": "",
          "type": "address"
        }
      ],
      "payable": false,
      "stateMutability": "view",
      "type": "function"
    },
    {
      "constant": false,
      "inputs": [],
      "name": "buyMembership",
      "outputs": [],
      "payable": false,
      "stateMutability": "nonpayable",
      "type": "function"
    },
    {
      "constant": false,
      "inputs": [
        {
          "internalType": "uint256",
          "name": "_tokenAmount",
          "type": "uint256"
        },
        {
          "internalType": "uint256",
          "name": "_contractNum",
          "type": "uint256"
        }
      ],
      "name": "buyPrefferedStock",
      "outputs": [],
      "payable": false,
      "stateMutability": "nonpayable",
      "type": "function"
    },
    {
      "constant": true,
      "inputs": [
        {
          "internalType": "uint256",
          "name": "_payedAmount",
          "type": "uint256"
        }
      ],
      "name": "calculateFee",
      "outputs": [
        {
          "internalType": "uint256",
          "name": "",
          "type": "uint256"
        }
      ],
      "payable": false,
      "stateMutability": "view",
      "type": "function"
    },
    {
      "constant": true,
      "inputs": [],
      "name": "collateralPoolBalance",
      "outputs": [
        {
          "internalType": "uint256",
          "name": "",
          "type": "uint256"
        }
      ],
      "payable": false,
      "stateMutability": "view",
      "type": "function"
    },
    {
      "constant": true,
      "inputs": [],
      "name": "divisor",
      "outputs": [
        {
          "internalType": "uint256",
          "name": "",
          "type": "uint256"
        }
      ],
      "payable": false,
      "stateMutability": "view",
      "type": "function"
    },
    {
      "constant": true,
      "inputs": [],
      "name": "frozen",
      "outputs": [
        {
          "internalType": "bool",
          "name": "",
          "type": "bool"
        }
      ],
      "payable": false,
      "stateMutability": "view",
      "type": "function"
    },
    {
      "constant": true,
      "inputs": [],
      "name": "isOwner",
      "outputs": [
        {
          "internalType": "bool",
          "name": "",
          "type": "bool"
        }
      ],
      "payable": false,
      "stateMutability": "view",
      "type": "function"
    },
    {
      "constant": true,
      "inputs": [],
      "name": "memberCount",
      "outputs": [
        {
          "internalType": "uint256",
          "name": "",
          "type": "uint256"
        }
      ],
      "payable": false,
      "stateMutability": "view",
      "type": "function"
    },
    {
      "constant": true,
      "inputs": [],
      "name": "minimumPrice",
      "outputs": [
        {
          "internalType": "uint256",
          "name": "",
          "type": "uint256"
        }
      ],
      "payable": false,
      "stateMutability": "view",
      "type": "function"
    },
    {
      "constant": true,
      "inputs": [],
      "name": "owner",
      "outputs": [
        {
          "internalType": "address",
          "name": "",
          "type": "address"
        }
      ],
      "payable": false,
      "stateMutability": "view",
      "type": "function"
    },
    {
      "constant": true,
      "inputs": [],
      "name": "percentFee",
      "outputs": [
        {
          "internalType": "uint256",
          "name": "",
          "type": "uint256"
        }
      ],
      "payable": false,
      "stateMutability": "view",
      "type": "function"
    },
    {
      "constant": true,
      "inputs": [
        {
          "internalType": "uint256",
          "name": "",
          "type": "uint256"
        }
      ],
      "name": "proposals",
      "outputs": [
        {
          "internalType": "address",
          "name": "Address",
          "type": "address"
        },
        {
          "internalType": "uint256",
          "name": "PropCode",
          "type": "uint256"
        },
        {
          "internalType": "uint256",
          "name": "Amount",
          "type": "uint256"
        },
        {
          "internalType": "uint256",
          "name": "proposedInterest",
          "type": "uint256"
        },
        {
          "internalType": "string",
          "name": "voteHash",
          "type": "string"
        },
        {
          "internalType": "bool",
          "name": "executed",
          "type": "bool"
        },
        {
          "internalType": "bool",
          "name": "proposalPassed",
          "type": "bool"
        }
      ],
      "payable": false,
      "stateMutability": "view",
      "type": "function"
    },
    {
      "constant": false,
      "inputs": [
        {
          "internalType": "uint256",
          "name": "_contractNum",
          "type": "uint256"
        }
      ],
      "name": "removeContract",
      "outputs": [],
      "payable": false,
      "stateMutability": "nonpayable",
      "type": "function"
    },
    {
      "constant": false,
      "inputs": [],
      "name": "renounceOwnership",
      "outputs": [],
      "payable": false,
      "stateMutability": "nonpayable",
      "type": "function"
    },
    {
      "constant": false,
      "inputs": [
        {
          "internalType": "uint256",
          "name": "_DSamount",
          "type": "uint256"
        },
        {
          "internalType": "uint256",
          "name": "_contractNum",
          "type": "uint256"
        }
      ],
      "name": "sellPrefferedStock",
      "outputs": [],
      "payable": false,
      "stateMutability": "nonpayable",
      "type": "function"
    },
    {
      "constant": false,
      "inputs": [
        {
          "internalType": "address",
          "name": "newOwner",
          "type": "address"
        }
      ],
      "name": "transferOwnership",
      "outputs": [],
      "payable": false,
      "stateMutability": "nonpayable",
      "type": "function"
    },
    {
      "constant": false,
      "inputs": [
        {
          "internalType": "address",
          "name": "_DD",
          "type": "address"
        },
        {
          "internalType": "address",
          "name": "_DS",
          "type": "address"
        },
        {
          "internalType": "address",
          "name": "_bancor",
          "type": "address"
        }
      ],
      "name": "initialize",
      "outputs": [],
      "payable": false,
      "stateMutability": "nonpayable",
      "type": "function"
    },
    {
      "constant": false,
      "inputs": [
        {
          "internalType": "address",
          "name": "sender",
          "type": "address"
        }
      ],
      "name": "initialize",
      "outputs": [],
      "payable": false,
      "stateMutability": "nonpayable",
      "type": "function"
    },
    {
      "constant": false,
      "inputs": [],
      "name": "setUp",
      "outputs": [],
      "payable": false,
      "stateMutability": "nonpayable",
      "type": "function"
    },
    {
      "constant": false,
      "inputs": [
        {
          "internalType": "address",
          "name": "_address",
          "type": "address"
        },
        {
          "internalType": "uint256",
          "name": "_propCode",
          "type": "uint256"
        },
        {
          "internalType": "string",
          "name": "_voteHash",
          "type": "string"
        },
        {
          "internalType": "uint256",
          "name": "_amount",
          "type": "uint256"
        },
        {
          "internalType": "uint256",
          "name": "_interest",
          "type": "uint256"
        }
      ],
      "name": "createProposal",
      "outputs": [],
      "payable": false,
      "stateMutability": "nonpayable",
      "type": "function"
    },
    {
      "constant": false,
      "inputs": [
        {
          "internalType": "uint256",
          "name": "_ProposalID",
          "type": "uint256"
        },
        {
          "internalType": "bool",
          "name": "supportsProposal",
          "type": "bool"
        }
      ],
      "name": "vote",
      "outputs": [
        {
          "internalType": "uint256",
          "name": "voteID",
          "type": "uint256"
        }
      ],
      "payable": false,
      "stateMutability": "nonpayable",
      "type": "function"
    },
    {
      "constant": true,
      "inputs": [
        {
          "internalType": "string",
          "name": "hash",
          "type": "string"
        }
      ],
      "name": "getPropID",
      "outputs": [
        {
          "internalType": "uint256",
          "name": "",
          "type": "uint256"
        }
      ],
      "payable": false,
      "stateMutability": "view",
      "type": "function"
    },
    {
      "constant": true,
      "inputs": [
        {
          "internalType": "string",
          "name": "hash",
          "type": "string"
        }
      ],
      "name": "getPropCode",
      "outputs": [
        {
          "internalType": "uint256",
          "name": "",
          "type": "uint256"
        }
      ],
      "payable": false,
      "stateMutability": "view",
      "type": "function"
    },
    {
      "constant": true,
      "inputs": [
        {
          "internalType": "address",
          "name": "_add",
          "type": "address"
        },
        {
          "internalType": "uint256",
          "name": "_ProposalID",
          "type": "uint256"
        }
      ],
      "name": "checkIfVoted",
      "outputs": [
        {
          "internalType": "bool",
          "name": "",
          "type": "bool"
        }
      ],
      "payable": false,
      "stateMutability": "view",
      "type": "function"
    }
  ],
  "bytecode": "0x608060405261359d806100136000396000f3fe608060405234801561001057600080fd5b50600436106101e55760003560e01c80637a511f1a1161010f578063aaa746bb116100a2578063dce8600311610071578063dce8600314610a58578063e3cb093214610a76578063eccc32f214610a94578063f2fde38b14610ade576101e5565b8063aaa746bb146108e6578063c0c53b8b14610942578063c4d66de8146109c6578063c9d27afe14610a0a576101e5565b80638da5cb5b116100de5780638da5cb5b1461073f5780638f32d59b1461078957806391c0bc28146107ab57806399a5d747146108a4576101e5565b80637a511f1a146106065780637cca3b06146106d55780637f386b6c146107035780638af6375f14610721576101e5565b806335a0c8ac116101875780635c581119116101565780635c58111914610564578063639905b41461056e57806364db444a146105b8578063715018a6146105fc576101e5565b806335a0c8ac1461045e5780633e7d4dbd146104965780634242bac0146104fc5780634c1a411514610546576101e5565b80630a9254e4116101c35780630a9254e41461034957806310734e431461035357806311aee380146104225780631f2dc5ef14610440576101e5565b8063013cf08b146101ea578063054f7d9c146102ef57806307df368a14610311575b600080fd5b6102166004803603602081101561020057600080fd5b8101908080359060200190929190505050610b22565b604051808873ffffffffffffffffffffffffffffffffffffffff1673ffffffffffffffffffffffffffffffffffffffff168152602001878152602001868152602001858152602001806020018415151515815260200183151515158152602001828103825285818151815260200191508051906020019080838360005b838110156102ae578082015181840152602081019050610293565b50505050905090810190601f1680156102db5780820380516001836020036101000a031916815260200191505b509850505050505050505060405180910390f35b6102f7610c43565b604051808215151515815260200191505060405180910390f35b6103476004803603604081101561032757600080fd5b810190808035906020019092919080359060200190929190505050610c56565b005b610351611031565b005b61040c6004803603602081101561036957600080fd5b810190808035906020019064010000000081111561038657600080fd5b82018360208201111561039857600080fd5b803590602001918460018302840111640100000000831117156103ba57600080fd5b91908080601f016020809104026020016040519081016040528093929190818152602001838380828437600081840152601f19601f8201169050808301925050505050505091929192905050506110ea565b6040518082815260200191505060405180910390f35b61042a61115d565b6040518082815260200191505060405180910390f35b610448611163565b6040518082815260200191505060405180910390f35b6104946004803603604081101561047457600080fd5b810190808035906020019092919080359060200190929190505050611169565b005b6104e2600480360360408110156104ac57600080fd5b81019080803573ffffffffffffffffffffffffffffffffffffffff1690602001909291908035906020019092919050505061167f565b604051808215151515815260200191505060405180910390f35b6105046116f7565b604051808273ffffffffffffffffffffffffffffffffffffffff1673ffffffffffffffffffffffffffffffffffffffff16815260200191505060405180910390f35b61054e61171d565b6040518082815260200191505060405180910390f35b61056c611723565b005b610576611997565b604051808273ffffffffffffffffffffffffffffffffffffffff1673ffffffffffffffffffffffffffffffffffffffff16815260200191505060405180910390f35b6105fa600480360360208110156105ce57600080fd5b81019080803573ffffffffffffffffffffffffffffffffffffffff1690602001909291905050506119bd565b005b610604611aa0565b005b6106bf6004803603602081101561061c57600080fd5b810190808035906020019064010000000081111561063957600080fd5b82018360208201111561064b57600080fd5b8035906020019184600183028401116401000000008311171561066d57600080fd5b91908080601f016020809104026020016040519081016040528093929190818152602001838380828437600081840152601f19601f820116905080830192505050505050509192919290505050611bdb565b6040518082815260200191505060405180910390f35b610701600480360360208110156106eb57600080fd5b8101908080359060200190929190505050611c4e565b005b61070b611d1d565b6040518082815260200191505060405180910390f35b610729611d23565b6040518082815260200191505060405180910390f35b610747611d29565b604051808273ffffffffffffffffffffffffffffffffffffffff1673ffffffffffffffffffffffffffffffffffffffff16815260200191505060405180910390f35b610791611d53565b604051808215151515815260200191505060405180910390f35b6108a2600480360360a08110156107c157600080fd5b81019080803573ffffffffffffffffffffffffffffffffffffffff169060200190929190803590602001909291908035906020019064010000000081111561080857600080fd5b82018360208201111561081a57600080fd5b8035906020019184600183028401116401000000008311171561083c57600080fd5b91908080601f016020809104026020016040519081016040528093929190818152602001838380828437600081840152601f19601f8201169050808301925050505050505091929192908035906020019092919080359060200190929190505050611db2565b005b6108d0600480360360208110156108ba57600080fd5b8101908080359060200190929190505050612023565b6040518082815260200191505060405180910390f35b610928600480360360208110156108fc57600080fd5b81019080803573ffffffffffffffffffffffffffffffffffffffff16906020019092919050505061205a565b604051808215151515815260200191505060405180910390f35b6109c46004803603606081101561095857600080fd5b81019080803573ffffffffffffffffffffffffffffffffffffffff169060200190929190803573ffffffffffffffffffffffffffffffffffffffff169060200190929190803573ffffffffffffffffffffffffffffffffffffffff1690602001909291905050506120bd565b005b610a08600480360360208110156109dc57600080fd5b81019080803573ffffffffffffffffffffffffffffffffffffffff169060200190929190505050612294565b005b610a4260048036036040811015610a2057600080fd5b8101908080359060200190929190803515159060200190929190505050612452565b6040518082815260200191505060405180910390f35b610a606126ec565b6040518082815260200191505060405180910390f35b610a7e6126f2565b6040518082815260200191505060405180910390f35b610a9c6126f8565b604051808273ffffffffffffffffffffffffffffffffffffffff1673ffffffffffffffffffffffffffffffffffffffff16815260200191505060405180910390f35b610b2060048036036020811015610af457600080fd5b81019080803573ffffffffffffffffffffffffffffffffffffffff16906020019092919050505061271e565b005b60758181548110610b2f57fe5b90600052602060002090600802016000915090508060000160009054906101000a900473ffffffffffffffffffffffffffffffffffffffff1690806001015490806002015490806003015490806004018054600181600116156101000203166002900480601f016020809104026020016040519081016040528092919081815260200182805460018160011615610100020316600290048015610c135780601f10610be857610100808354040283529160200191610c13565b820191906000526020600020905b815481529060010190602001808311610bf657829003601f168201915b5050505050908060050160009054906101000a900460ff16908060050160019054906101000a900460ff16905087565b606660009054906101000a900460ff1681565b6000606a60009054906101000a900473ffffffffffffffffffffffffffffffffffffffff1673ffffffffffffffffffffffffffffffffffffffff166318160ddd6040518163ffffffff1660e01b815260040160206040518083038186803b158015610cc057600080fd5b505afa158015610cd4573d6000803e3d6000fd5b505050506040513d6020811015610cea57600080fd5b810190808051906020019092919050505090506000606b60009054906101000a900473ffffffffffffffffffffffffffffffffffffffff1673ffffffffffffffffffffffffffffffffffffffff166329a00e7c83606c546207a120886040518563ffffffff1660e01b8152600401808581526020018481526020018363ffffffff16815260200182815260200194505050505060206040518083038186803b158015610d9557600080fd5b505afa158015610da9573d6000803e3d6000fd5b505050506040513d6020811015610dbf57600080fd5b8101908080519060200190929190505050905060006068600085815260200190815260200160002060009054906101000a900473ffffffffffffffffffffffffffffffffffffffff1690506000819050610e2486606c546127a490919063ffffffff16565b606c8190555060018514610e71576000610e3d87612023565b9050610e5281886127a490919063ffffffff16565b9650610e6981606d546127a490919063ffffffff16565b606d81905550505b8073ffffffffffffffffffffffffffffffffffffffff166323b872dd3330896040518463ffffffff1660e01b8152600401808473ffffffffffffffffffffffffffffffffffffffff1673ffffffffffffffffffffffffffffffffffffffff1681526020018373ffffffffffffffffffffffffffffffffffffffff1673ffffffffffffffffffffffffffffffffffffffff1681526020018281526020019350505050602060405180830381600087803b158015610f2c57600080fd5b505af1158015610f40573d6000803e3d6000fd5b505050506040513d6020811015610f5657600080fd5b810190808051906020019092919050505050606a60009054906101000a900473ffffffffffffffffffffffffffffffffffffffff1673ffffffffffffffffffffffffffffffffffffffff166319f7885e33856040518363ffffffff1660e01b8152600401808373ffffffffffffffffffffffffffffffffffffffff1673ffffffffffffffffffffffffffffffffffffffff16815260200182815260200192505050600060405180830381600087803b15801561101157600080fd5b505af1158015611025573d6000803e3d6000fd5b50505050505050505050565b611039611d53565b6110ab576040517f08c379a00000000000000000000000000000000000000000000000000000000081526004018080602001828103825260208152602001807f4f776e61626c653a2063616c6c6572206973206e6f7420746865206f776e657281525060200191505060405180910390fd5b6019606e81905550612710606f81905550678ac7230489e800006070819055506110d43361282c565b6110e83369021e19e0c9bab2400000612899565b565b60006073826040518082805190602001908083835b6020831061112257805182526020820191506020810190506020830392506110ff565b6001836020036101000a0380198251168184511680821785525050505050509050019150509081526020016040518091039020549050919050565b60715481565b606f5481565b60675481111561117857600080fd5b60006068600083815260200190815260200160002060009054906101000a900473ffffffffffffffffffffffffffffffffffffffff1690503073ffffffffffffffffffffffffffffffffffffffff168173ffffffffffffffffffffffffffffffffffffffff1614156111e957600080fd5b6000606a60009054906101000a900473ffffffffffffffffffffffffffffffffffffffff1673ffffffffffffffffffffffffffffffffffffffff166318160ddd6040518163ffffffff1660e01b815260040160206040518083038186803b15801561125357600080fd5b505afa158015611267573d6000803e3d6000fd5b505050506040513d602081101561127d57600080fd5b810190808051906020019092919050505090506000606b60009054906101000a900473ffffffffffffffffffffffffffffffffffffffff1673ffffffffffffffffffffffffffffffffffffffff166349f9b0f783606c546206ddd0896040518563ffffffff1660e01b8152600401808581526020018481526020018363ffffffff16815260200182815260200194505050505060206040518083038186803b15801561132857600080fd5b505afa15801561133c573d6000803e3d6000fd5b505050506040513d602081101561135257600080fd5b810190808051906020019092919050505090506000606b60009054906101000a900473ffffffffffffffffffffffffffffffffffffffff1673ffffffffffffffffffffffffffffffffffffffff166349f9b0f784606c546207a1208a6040518563ffffffff1660e01b8152600401808581526020018481526020018363ffffffff16815260200182815260200194505050505060206040518083038186803b1580156113fd57600080fd5b505afa158015611411573d6000803e3d6000fd5b505050506040513d602081101561142757600080fd5b81019080805190602001909291905050509050600061144f838361297e90919063ffffffff16565b905061146681606d546127a490919063ffffffff16565b606d81905550600085905061147b33896129c8565b60008173ffffffffffffffffffffffffffffffffffffffff166370a08231306040518263ffffffff1660e01b8152600401808273ffffffffffffffffffffffffffffffffffffffff1673ffffffffffffffffffffffffffffffffffffffff16815260200191505060206040518083038186803b1580156114fa57600080fd5b505afa15801561150e573d6000803e3d6000fd5b505050506040513d602081101561152457600080fd5b810190808051906020019092919050505090506001881461157e57600061154a86612023565b905061155f818761297e90919063ffffffff16565b955061157681606d546127a490919063ffffffff16565b606d81905550505b84811015611595576115903386612899565b611674565b8173ffffffffffffffffffffffffffffffffffffffff1663a9059cbb33876040518363ffffffff1660e01b8152600401808373ffffffffffffffffffffffffffffffffffffffff1673ffffffffffffffffffffffffffffffffffffffff16815260200182815260200192505050602060405180830381600087803b15801561161c57600080fd5b505af1158015611630573d6000803e3d6000fd5b505050506040513d602081101561164657600080fd5b81019080805190602001909291905050505061166d85606c5461297e90919063ffffffff16565b606c819055505b505050505050505050565b6000806075838154811061168f57fe5b906000526020600020906008020190508060070160008573ffffffffffffffffffffffffffffffffffffffff1673ffffffffffffffffffffffffffffffffffffffff16815260200190815260200160002060009054906101000a900460ff1691505092915050565b606a60009054906101000a900473ffffffffffffffffffffffffffffffffffffffff1681565b606e5481565b6000606a60009054906101000a900473ffffffffffffffffffffffffffffffffffffffff1673ffffffffffffffffffffffffffffffffffffffff166318160ddd6040518163ffffffff1660e01b815260040160206040518083038186803b15801561178d57600080fd5b505afa1580156117a1573d6000803e3d6000fd5b505050506040513d60208110156117b757600080fd5b810190808051906020019092919050505090506000606b60009054906101000a900473ffffffffffffffffffffffffffffffffffffffff1673ffffffffffffffffffffffffffffffffffffffff166349f9b0f783606d546207a1206070546040518563ffffffff1660e01b8152600401808581526020018481526020018363ffffffff16815260200182815260200194505050505060206040518083038186803b15801561186457600080fd5b505afa158015611878573d6000803e3d6000fd5b505050506040513d602081101561188e57600080fd5b810190808051906020019092919050505090506118ab3082612aad565b6118c081606d546127a490919063ffffffff16565b606d819055506071600081548092919060010191905055506001607260003373ffffffffffffffffffffffffffffffffffffffff1673ffffffffffffffffffffffffffffffffffffffff16815260200190815260200160002060006101000a81548160ff0219169083151502179055507fb4dcb6dd550f27b5917ebf674899ea7046ff91790c6f9f01431617ad39819db233604051808273ffffffffffffffffffffffffffffffffffffffff1673ffffffffffffffffffffffffffffffffffffffff16815260200191505060405180910390a15050565b606b60009054906101000a900473ffffffffffffffffffffffffffffffffffffffff1681565b6119c5611d53565b611a37576040517f08c379a00000000000000000000000000000000000000000000000000000000081526004018080602001828103825260208152602001807f4f776e61626c653a2063616c6c6572206973206e6f7420746865206f776e657281525060200191505060405180910390fd5b6067600081548092919060010191905055508060686000606754815260200190815260200160002060006101000a81548173ffffffffffffffffffffffffffffffffffffffff021916908373ffffffffffffffffffffffffffffffffffffffff16021790555050565b611aa8611d53565b611b1a576040517f08c379a00000000000000000000000000000000000000000000000000000000081526004018080602001828103825260208152602001807f4f776e61626c653a2063616c6c6572206973206e6f7420746865206f776e657281525060200191505060405180910390fd5b600073ffffffffffffffffffffffffffffffffffffffff16603360009054906101000a900473ffffffffffffffffffffffffffffffffffffffff1673ffffffffffffffffffffffffffffffffffffffff167f8be0079c531659141344cd1fd0a4f28419497f9722a3daafe3b4186f6b6457e060405160405180910390a36000603360006101000a81548173ffffffffffffffffffffffffffffffffffffffff021916908373ffffffffffffffffffffffffffffffffffffffff160217905550565b60006074826040518082805190602001908083835b60208310611c135780518252602082019150602081019050602083039250611bf0565b6001836020036101000a0380198251168184511680821785525050505050509050019150509081526020016040518091039020549050919050565b611c56611d53565b611cc8576040517f08c379a00000000000000000000000000000000000000000000000000000000081526004018080602001828103825260208152602001807f4f776e61626c653a2063616c6c6572206973206e6f7420746865206f776e657281525060200191505060405180910390fd5b306068600083815260200190815260200160002060006101000a81548173ffffffffffffffffffffffffffffffffffffffff021916908373ffffffffffffffffffffffffffffffffffffffff16021790555050565b60705481565b606c5481565b6000603360009054906101000a900473ffffffffffffffffffffffffffffffffffffffff16905090565b6000603360009054906101000a900473ffffffffffffffffffffffffffffffffffffffff1673ffffffffffffffffffffffffffffffffffffffff16611d96612b92565b73ffffffffffffffffffffffffffffffffffffffff1614905090565b600060758054809190600101611dc89190613287565b9050600060758281548110611dd957fe5b90600052602060002090600802019050868160000160006101000a81548173ffffffffffffffffffffffffffffffffffffffff021916908373ffffffffffffffffffffffffffffffffffffffff16021790555085816001018190555084816004019080519060200190611e4d9291906132b9565b50828160030181905550816073866040518082805190602001908083835b60208310611e8e5780518252602082019150602081019050602083039250611e6b565b6001836020036101000a038019825116818451168082178552505050505050905001915050908152602001604051809103902081905550856074866040518082805190602001908083835b60208310611efc5780518252602082019150602081019050602083039250611ed9565b6001836020036101000a03801982511681845116808217855250505050505090500191505090815260200160405180910390208190555083816002018190555060008160050160006101000a81548160ff02191690831515021790555060008160050160016101000a81548160ff0219169083151502179055507f68a3e694fa578ad362161771d7ccb8d633a72af1e982b64ed1bef4147e91eafb85876040518080602001838152602001828103825284818151815260200191508051906020019080838360005b83811015611fdf578082015181840152602081019050611fc4565b50505050905090810190601f16801561200c5780820380516001836020036101000a031916815260200191505b50935050505060405180910390a150505050505050565b60008061204f606f54612041606e5486612b9a90919063ffffffff16565b612c2090919063ffffffff16565b905080915050919050565b6000607260008373ffffffffffffffffffffffffffffffffffffffff1673ffffffffffffffffffffffffffffffffffffffff16815260200190815260200160002060009054906101000a900460ff16156120b757600190506120b8565b5b919050565b600060019054906101000a900460ff16806120dc57506120db612c6a565b5b806120f357506000809054906101000a900460ff16155b612148576040517f08c379a000000000000000000000000000000000000000000000000000000000815260040180806020018281038252602e81526020018061353b602e913960400191505060405180910390fd5b60008060019054906101000a900460ff161590508015612198576001600060016101000a81548160ff02191690831515021790555060016000806101000a81548160ff0219169083151502179055505b6121a133612294565b6121aa846119bd565b83606960006101000a81548173ffffffffffffffffffffffffffffffffffffffff021916908373ffffffffffffffffffffffffffffffffffffffff16021790555082606a60006101000a81548173ffffffffffffffffffffffffffffffffffffffff021916908373ffffffffffffffffffffffffffffffffffffffff16021790555081606b60006101000a81548173ffffffffffffffffffffffffffffffffffffffff021916908373ffffffffffffffffffffffffffffffffffffffff160217905550801561228e5760008060016101000a81548160ff0219169083151502179055505b50505050565b600060019054906101000a900460ff16806122b357506122b2612c6a565b5b806122ca57506000809054906101000a900460ff16155b61231f576040517f08c379a000000000000000000000000000000000000000000000000000000000815260040180806020018281038252602e81526020018061353b602e913960400191505060405180910390fd5b60008060019054906101000a900460ff16159050801561236f576001600060016101000a81548160ff02191690831515021790555060016000806101000a81548160ff0219169083151502179055505b81603360006101000a81548173ffffffffffffffffffffffffffffffffffffffff021916908373ffffffffffffffffffffffffffffffffffffffff160217905550603360009054906101000a900473ffffffffffffffffffffffffffffffffffffffff1673ffffffffffffffffffffffffffffffffffffffff16600073ffffffffffffffffffffffffffffffffffffffff167f8be0079c531659141344cd1fd0a4f28419497f9722a3daafe3b4186f6b6457e060405160405180910390a3801561244e5760008060016101000a81548160ff0219169083151502179055505b5050565b6000607260003373ffffffffffffffffffffffffffffffffffffffff1673ffffffffffffffffffffffffffffffffffffffff16815260200190815260200160002060009054906101000a900460ff166124aa57600080fd5b6000607584815481106124b957fe5b90600052602060002090600802019050600115158160070160003373ffffffffffffffffffffffffffffffffffffffff1673ffffffffffffffffffffffffffffffffffffffff16815260200190815260200160002060009054906101000a900460ff161515141561252957600080fd5b80600601805480919060010161253f9190613339565b9150604051806040016040528084151581526020013373ffffffffffffffffffffffffffffffffffffffff1681525081600601838154811061257d57fe5b9060005260206000200160008201518160000160006101000a81548160ff02191690831515021790555060208201518160000160016101000a81548173ffffffffffffffffffffffffffffffffffffffff021916908373ffffffffffffffffffffffffffffffffffffffff16021790555090505060018160070160003373ffffffffffffffffffffffffffffffffffffffff1673ffffffffffffffffffffffffffffffffffffffff16815260200190815260200160002060006101000a81548160ff0219169083151502179055507f8eb81cb806dbb3d8a2f94981614331a55dfd90e06a42fdc362ca3ca96981d92f3384604051808373ffffffffffffffffffffffffffffffffffffffff1673ffffffffffffffffffffffffffffffffffffffff168152602001821515151581526020019250505060405180910390a160008090506126cb83607154612c81565b90506001905080156126e1576126e085612cb0565b5b829250505092915050565b60675481565b606d5481565b606960009054906101000a900473ffffffffffffffffffffffffffffffffffffffff1681565b612726611d53565b612798576040517f08c379a00000000000000000000000000000000000000000000000000000000081526004018080602001828103825260208152602001807f4f776e61626c653a2063616c6c6572206973206e6f7420746865206f776e657281525060200191505060405180910390fd5b6127a181612f72565b50565b600080828401905083811015612822576040517f08c379a000000000000000000000000000000000000000000000000000000000815260040180806020018281038252601b8152602001807f536166654d6174683a206164646974696f6e206f766572666c6f77000000000081525060200191505060405180910390fd5b8091505092915050565b6071600081548092919060010191905055506001607260008373ffffffffffffffffffffffffffffffffffffffff1673ffffffffffffffffffffffffffffffffffffffff16815260200190815260200160002060006101000a81548160ff02191690831515021790555050565b60001515606660009054906101000a900460ff161515146128b957600080fd5b606960009054906101000a900473ffffffffffffffffffffffffffffffffffffffff1673ffffffffffffffffffffffffffffffffffffffff1663c90c2cf183836040518363ffffffff1660e01b8152600401808373ffffffffffffffffffffffffffffffffffffffff1673ffffffffffffffffffffffffffffffffffffffff16815260200182815260200192505050600060405180830381600087803b15801561296257600080fd5b505af1158015612976573d6000803e3d6000fd5b505050505050565b60006129c083836040518060400160405280601e81526020017f536166654d6174683a207375627472616374696f6e206f766572666c6f7700008152506130b8565b905092915050565b60001515606660009054906101000a900460ff161515146129e857600080fd5b606a60009054906101000a900473ffffffffffffffffffffffffffffffffffffffff1673ffffffffffffffffffffffffffffffffffffffff1663ac2be5c283836040518363ffffffff1660e01b8152600401808373ffffffffffffffffffffffffffffffffffffffff1673ffffffffffffffffffffffffffffffffffffffff16815260200182815260200192505050600060405180830381600087803b158015612a9157600080fd5b505af1158015612aa5573d6000803e3d6000fd5b505050505050565b60001515606660009054906101000a900460ff16151514612acd57600080fd5b606960009054906101000a900473ffffffffffffffffffffffffffffffffffffffff1673ffffffffffffffffffffffffffffffffffffffff1663d5b8c00983836040518363ffffffff1660e01b8152600401808373ffffffffffffffffffffffffffffffffffffffff1673ffffffffffffffffffffffffffffffffffffffff16815260200182815260200192505050600060405180830381600087803b158015612b7657600080fd5b505af1158015612b8a573d6000803e3d6000fd5b505050505050565b600033905090565b600080831415612bad5760009050612c1a565b6000828402905082848281612bbe57fe5b0414612c15576040517f08c379a000000000000000000000000000000000000000000000000000000000815260040180806020018281038252602181526020018061351a6021913960400191505060405180910390fd5b809150505b92915050565b6000612c6283836040518060400160405280601a81526020017f536166654d6174683a206469766973696f6e206279207a65726f000000000000815250613178565b905092915050565b6000803090506000813b9050600081149250505090565b600080612c908484600261323e565b9050603c8110612ca4576001915050612caa565b60009150505b92915050565b600060758281548110612cbf57fe5b906000526020600020906008020190508060050160009054906101000a900460ff1615612ceb57600080fd5b60008090506000809050600080905060008090505b8460060180549050811015612d94576000856006018281548110612d2057fe5b906000526020600020019050612d406001866127a490919063ffffffff16565b508060000160009054906101000a900460ff1615612d7257612d6c6001856127a490919063ffffffff16565b50612d88565b612d866001846127a490919063ffffffff16565b505b50806001019050612d00565b5080821115612f4d5760018460050160006101000a81548160ff02191690831515021790555060018460050160016101000a81548160ff021916908315150217905550600184600101541415612ed757612df2308560020154612aad565b612e248460000160009054906101000a900473ffffffffffffffffffffffffffffffffffffffff168560020154612899565b612e3d8460020154606d5461297e90919063ffffffff16565b606d819055507f44144dc63da619151b6c85b13f2679bf569e94a2dbd2c69fa1969f18e3b5a70a8460000160009054906101000a900473ffffffffffffffffffffffffffffffffffffffff168560020154604051808373ffffffffffffffffffffffffffffffffffffffff1673ffffffffffffffffffffffffffffffffffffffff1681526020018281526020019250505060405180910390a15b600284600101541415612f1257612f118460000160009054906101000a900473ffffffffffffffffffffffffffffffffffffffff1661282c565b5b600384600101541415612f2d57612f2c8460020154613273565b5b600484600101541415612f4857612f47846002015461327d565b5b612f6b565b60008460050160016101000a81548160ff0219169083151502179055505b5050505050565b600073ffffffffffffffffffffffffffffffffffffffff168173ffffffffffffffffffffffffffffffffffffffff161415612ff8576040517f08c379a00000000000000000000000000000000000000000000000000000000081526004018080602001828103825260268152602001806134f46026913960400191505060405180910390fd5b8073ffffffffffffffffffffffffffffffffffffffff16603360009054906101000a900473ffffffffffffffffffffffffffffffffffffffff1673ffffffffffffffffffffffffffffffffffffffff167f8be0079c531659141344cd1fd0a4f28419497f9722a3daafe3b4186f6b6457e060405160405180910390a380603360006101000a81548173ffffffffffffffffffffffffffffffffffffffff021916908373ffffffffffffffffffffffffffffffffffffffff16021790555050565b6000838311158290613165576040517f08c379a00000000000000000000000000000000000000000000000000000000081526004018080602001828103825283818151815260200191508051906020019080838360005b8381101561312a57808201518184015260208101905061310f565b50505050905090810190601f1680156131575780820380516001836020036101000a031916815260200191505b509250505060405180910390fd5b5060008385039050809150509392505050565b60008083118290613224576040517f08c379a00000000000000000000000000000000000000000000000000000000081526004018080602001828103825283818151815260200191508051906020019080838360005b838110156131e95780820151818401526020810190506131ce565b50505050905090810190601f1680156132165780820380516001836020036101000a031916815260200191505b509250505060405180910390fd5b50600083858161323057fe5b049050809150509392505050565b60008060018301600a0a850290506000600a600586848161325b57fe5b04018161326457fe5b04905080925050509392505050565b8060708190555050565b80606e8190555050565b8154818355818111156132b4576008028160080283600052602060002091820191016132b39190613365565b5b505050565b828054600181600116156101000203166002900490600052602060002090601f016020900481019282601f106132fa57805160ff1916838001178555613328565b82800160010185558215613328579182015b8281111561332757825182559160200191906001019061330c565b5b509050613335919061340b565b5090565b8154818355818111156133605781836000526020600020918201910161335f9190613430565b5b505050565b61340891905b8082111561340457600080820160006101000a81549073ffffffffffffffffffffffffffffffffffffffff02191690556001820160009055600282016000905560038201600090556004820160006133c3919061348a565b6005820160006101000a81549060ff02191690556005820160016101000a81549060ff02191690556006820160006133fb91906134d2565b5060080161336b565b5090565b90565b61342d91905b80821115613429576000816000905550600101613411565b5090565b90565b61348791905b8082111561348357600080820160006101000a81549060ff02191690556000820160016101000a81549073ffffffffffffffffffffffffffffffffffffffff021916905550600101613436565b5090565b90565b50805460018160011615610100020316600290046000825580601f106134b057506134cf565b601f0160209004906000526020600020908101906134ce919061340b565b5b50565b50805460008255906000526020600020908101906134f09190613430565b5056fe4f776e61626c653a206e6577206f776e657220697320746865207a65726f2061646472657373536166654d6174683a206d756c7469706c69636174696f6e206f766572666c6f77436f6e747261637420696e7374616e63652068617320616c7265616479206265656e20696e697469616c697a6564a265627a7a7231582046117880ac4fea5d0bd0f1f17c8f742e90a98ba9910c3ccf1d042b7140570de564736f6c63430005100032",
  "source": "pragma solidity ^0.5.0;\n\nimport './DCMember.sol';\n////////////////////////////////////////////////////////////////////////////////////////////\n/// @title DecentraCorp\n/// @dev All function calls are currently implement without side effects\n/// @author Christopher Dixon\n////////////////////////////////////////////////////////////////////////////////////////////\n contract DecentraCorp is DCMember{\n\n\n   mapping(string => uint) getHash;\n   mapping(string => uint) propCode;\n\n\n   Proposal[] public proposals;\n\n   event ProposalCreated(string VoteHash, uint PropCode);\n   event Voted(address _voter, bool inSupport);\n   event FundingApproved(address addToFund, uint amount);\n\n\n\n\n\n   struct  Proposal {\n        address Address;\n        uint PropCode;\n        uint Amount;\n        uint proposedInterest;\n        string voteHash;\n        bool executed;\n        bool proposalPassed;\n        Vote[] votes;\n        mapping (address => bool) voted;\n    }\n\n\n    struct Vote {\n            bool inSupport;\n            address voter;\n    }\n\n\n\n    function initialize(address _DD, address _DS, address _bancor) public initializer {\n      Ownable.initialize(msg.sender);\n      addNewToken(_DD);\n      DD = DecentraDollar(_DD);\n      DS = DecentraStock(_DS);\n      bancor = BancorFormulaI(_bancor);\n    }\n\n    function setUp() public onlyOwner {\n      percentFee = 25;\n      divisor = 10000;\n      minimumPrice = 10000000000000000000;\n      addMember(msg.sender);\n      proxyDDMint(msg.sender, 10000000000000000000000);\n    }\n\n\n/**\n**@notice Proposal Codes are used to fire specific code. each number represents a different action\n*** the following are is a list of prop codes and their actions\n** 1. Funding Proposal: the address entered is the address receiving funding\n** 2. Add Member: Allows the community to grant membership to someone who cant afford it\n** 3. Set Membership Price: Allows the community to set the price of a membership\n** 4. Set Fee: Allows the community to set the fee taken when using other tokens to purchase/sell DecentraStock\n\n//more options will be added to allow for contract upgrades in the future\n*/\n   function createProposal(\n     address _address,\n     uint _propCode,\n     string memory _voteHash,\n     uint _amount,\n     uint _interest\n   )\n   public\n   {\n           uint ProposalID = proposals.length++;\n           Proposal storage p = proposals[ProposalID];\n           p.Address = _address;\n           p.PropCode = _propCode;\n           p.voteHash = _voteHash;\n           p.proposedInterest = _interest;\n           getHash[_voteHash] = ProposalID;\n           propCode[_voteHash] = _propCode;\n           p.Amount = _amount;\n           p.executed = false;\n           p.proposalPassed = false;\n           emit ProposalCreated(_voteHash, _propCode);\n   }\n\n\n   function vote(\n          uint _ProposalID,\n          bool supportsProposal\n      )\n          public\n          onlyMember\n          returns (uint voteID)\n      {\n\n          Proposal storage p = proposals[_ProposalID];\n          require(p.voted[msg.sender] != true);\n          voteID = p.votes.length++;\n          p.votes[voteID] = Vote({inSupport: supportsProposal, voter: msg.sender});\n          p.voted[msg.sender] = true;\n          emit Voted(msg.sender, supportsProposal);\n          bool tally = false;\n\n           tally = set_Quorum(voteID, memberCount);\n\n           tally = true;\n\n          if(tally) {\n            executeVote(_ProposalID);\n          }\n          return voteID;\n      }\n\n\n      ///@notice ideaBlockVote counts the votes and executes and Idea Proposal, adding an idea to the cryptopatent Blockchain\n      ///@dev seperate but similiar structures will need to be implemented in the future to stream line voting on different subjects(beta)\n      function executeVote(uint _ProposalID) internal {\n              Proposal storage p = proposals[_ProposalID];\n                   // sets p equal to the specific proposalNumber\n              require(!p.executed);\n              uint quorum = 0;\n              uint yea = 0;\n              uint nay = 0;\n\n\n\n          for (uint i = 0; i <  p.votes.length; ++i) {\n              Vote storage v = p.votes[i];\n\n\n              quorum.add(1);\n              if (v.inSupport) {\n                yea.add(1);\n                   } else {\n                 nay.add(1);\n                       }\n                   }\n\n\n                   if (yea > nay ) {\n                       // Proposal passed; execute the transaction\n                     p.executed = true;\n                     p.proposalPassed = true;\n                     if(p.PropCode == 1) {\n                       proxyDDBurn(address(this),  p.Amount);\n                       proxyDDMint(p.Address, p.Amount);\n                       DecentraEarnings = DecentraEarnings.sub(p.Amount);\n                      emit FundingApproved(p.Address, p.Amount);\n                     }\n                     if(p.PropCode == 2) {\n                       addMember(p.Address);\n                     }\n                     if(p.PropCode == 3) {\n                       setPrice(p.Amount);\n                     }\n                     if(p.PropCode == 4) {\n                       setFee(p.Amount);\n                     }\n\n\n\n                 } else {\n                       // Proposal failed\n                     p.proposalPassed = false;\n                 }\n\n            }\n\n\n\n    function getPropID(string memory hash) public view returns(uint){\n      return getHash[hash];\n    }\n\n    function getPropCode(string memory hash) public view returns(uint){\n      return propCode[hash];\n    }\n\n    function checkIfVoted(address _add, uint _ProposalID) public view returns(bool) {\n      Proposal storage p = proposals[_ProposalID];\n      return p.voted[_add];\n    }\n\n\n\n\n }\n",
  "sourcePath": "/home/stan36/repos/DecentraCorpContracts/contracts/DecentraCorp.sol",
  "compiler": {
    "name": "solc",
    "version": "0.5.16+commit.9c3226ce.Emscripten.clang"
  },
  "schemaVersion": "3.0.23",
  "updatedAt": "2020-03-29T22:27:53.951Z",
  "devdoc": {
    "author": "Christopher Dixon /////////////////////////////////////////////////////////////////////////////////////////",
    "details": "All function calls are currently implement without side effects",
    "methods": {
      "calculateFee(uint256)": {
        "params": {
          "_payedAmount": "is a uint representing the full amount of ETH payed for an amount of meToken OR returned for the sale of meToken through the contract*"
        }
      },
      "initialize(address)": {
        "details": "Initializes the contract setting the deployer as the initial owner."
      },
      "isOwner()": {
        "details": "Returns true if the caller is the current owner."
      },
      "owner()": {
        "details": "Returns the address of the current owner."
      },
      "renounceOwnership()": {
        "details": "Leaves the contract without owner. It will not be possible to call `onlyOwner` functions anymore. Can only be called by the current owner.     * > Note: Renouncing ownership will leave the contract without an owner, thereby removing any functionality that is only available to the owner."
      },
      "transferOwnership(address)": {
        "details": "Transfers ownership of the contract to a new account (`newOwner`). Can only be called by the current owner."
      }
    },
    "title": "DecentraCorp"
  },
  "userdoc": {
    "methods": {
      "calculateFee(uint256)": {
        "notice": "calculateFee is used to calculate the fee earned by the StakeOnMe Development Team whenever a MeToken Purchase or sale occurs throught contract"
      },
      "createProposal(address,uint256,string,uint256,uint256)": {
        "notice": "Proposal Codes are used to fire specific code. each number represents a different action*** the following are is a list of prop codes and their actions** 1. Funding Proposal: the address entered is the address receiving funding** 2. Add Member: Allows the community to grant membership to someone who cant afford it** 3. Set Membership Price: Allows the community to set the price of a membership** 4. Set Fee: Allows the community to set the fee taken when using other tokens to purchase/sell DecentraStock //more options will be added to allow for contract upgrades in the future"
      }
    },
    "notice": "/////////////////////////////////////////////////////////////////////////////////////////"
  }
}