{
  "contractName": "DecentraCorpETH",
  "abi": [
    {
      "constant": true,
      "inputs": [],
      "name": "buyMemWindow",
      "outputs": [
        {
          "name": "",
          "type": "uint256"
        }
      ],
      "payable": false,
      "stateMutability": "view",
      "type": "function"
    },
    {
      "inputs": [],
      "payable": false,
      "stateMutability": "nonpayable",
      "type": "constructor"
    },
    {
      "anonymous": false,
      "inputs": [
        {
          "indexed": false,
          "name": "_newMem",
          "type": "address"
        },
        {
          "indexed": false,
          "name": "newMemFacility",
          "type": "address"
        },
        {
          "indexed": false,
          "name": "profHash",
          "type": "string"
        }
      ],
      "name": "NewMemberE",
      "type": "event"
    },
    {
      "anonymous": false,
      "inputs": [
        {
          "indexed": false,
          "name": "_AddFunded",
          "type": "address"
        }
      ],
      "name": "AddressFundedE",
      "type": "event"
    },
    {
      "anonymous": false,
      "inputs": [
        {
          "indexed": false,
          "name": "_newVal",
          "type": "address"
        },
        {
          "indexed": false,
          "name": "_validatedBy",
          "type": "address"
        }
      ],
      "name": "CIBLVL1E",
      "type": "event"
    },
    {
      "anonymous": false,
      "inputs": [
        {
          "indexed": false,
          "name": "_newVal",
          "type": "address"
        },
        {
          "indexed": false,
          "name": "_validatedBy",
          "type": "address"
        }
      ],
      "name": "CIBLVL2E",
      "type": "event"
    },
    {
      "constant": false,
      "inputs": [
        {
          "name": "_hash",
          "type": "string"
        },
        {
          "name": "_facility",
          "type": "address"
        }
      ],
      "name": "buyMembershipE",
      "outputs": [],
      "payable": true,
      "stateMutability": "payable",
      "type": "function"
    },
    {
      "constant": false,
      "inputs": [
        {
          "name": "addToFund",
          "type": "address"
        },
        {
          "name": "amount",
          "type": "uint256"
        }
      ],
      "name": "sendFunds",
      "outputs": [],
      "payable": false,
      "stateMutability": "nonpayable",
      "type": "function"
    },
    {
      "constant": false,
      "inputs": [
        {
          "name": "_newVal",
          "type": "address"
        }
      ],
      "name": "addNewCIBvalE",
      "outputs": [],
      "payable": false,
      "stateMutability": "nonpayable",
      "type": "function"
    },
    {
      "constant": false,
      "inputs": [
        {
          "name": "_newVal",
          "type": "address"
        }
      ],
      "name": "addNewCIBval2E",
      "outputs": [],
      "payable": false,
      "stateMutability": "nonpayable",
      "type": "function"
    }
  ],
  "bytecode": "0x608060405234801561001057600080fd5b504260008190555060018060003373ffffffffffffffffffffffffffffffffffffffff1673ffffffffffffffffffffffffffffffffffffffff16815260200190815260200160002060006101000a81548160ff0219169083151502179055506001600260003373ffffffffffffffffffffffffffffffffffffffff1673ffffffffffffffffffffffffffffffffffffffff16815260200190815260200160002060006101000a81548160ff021916908315150217905550610701806100d66000396000f30060806040526004361061006d576000357c0100000000000000000000000000000000000000000000000000000000900463ffffffff16806319b07e0d146100725780636f64234e146100ee57806384c9897c1461013b578063a8b524f71461017e578063ff336f5d146101c1575b600080fd5b6100ec600480360381019080803590602001908201803590602001908080601f0160208091040260200160405190810160405280939291908181526020018383808284378201915050505050509192919290803573ffffffffffffffffffffffffffffffffffffffff1690602001909291905050506101ec565b005b3480156100fa57600080fd5b50610139600480360381019080803573ffffffffffffffffffffffffffffffffffffffff16906020019092919080359060200190929190505050610321565b005b34801561014757600080fd5b5061017c600480360381019080803573ffffffffffffffffffffffffffffffffffffffff16906020019092919050505061042e565b005b34801561018a57600080fd5b506101bf600480360381019080803573ffffffffffffffffffffffffffffffffffffffff16906020019092919050505061057f565b005b3480156101cd57600080fd5b506101d66106cf565b6040518082815260200191505060405180910390f35b62f0c8a060005401421115151561020257600080fd5b670de0b6b3a7640000341015151561021957600080fd5b7f941816d70d7590824514f1219d608f6c9e4a0cbaf3e58ad50b94958702665be1338284604051808473ffffffffffffffffffffffffffffffffffffffff1673ffffffffffffffffffffffffffffffffffffffff1681526020018373ffffffffffffffffffffffffffffffffffffffff1673ffffffffffffffffffffffffffffffffffffffff16815260200180602001828103825283818151815260200191508051906020019080838360005b838110156102e15780820151818401526020810190506102c6565b50505050905090810190601f16801561030e5780820380516001836020036101000a031916815260200191505b5094505050505060405180910390a15050565b60011515600260003373ffffffffffffffffffffffffffffffffffffffff1673ffffffffffffffffffffffffffffffffffffffff16815260200190815260200160002060009054906101000a900460ff16151514151561038057600080fd5b8173ffffffffffffffffffffffffffffffffffffffff166108fc829081150290604051600060405180830381858888f193505050501580156103c6573d6000803e3d6000fd5b507fda57f7671b9807a56bbcd7c777d0667fa02d979ba3b56c99e2b39f5434a7a95182604051808273ffffffffffffffffffffffffffffffffffffffff1673ffffffffffffffffffffffffffffffffffffffff16815260200191505060405180910390a15050565b60011515600260003373ffffffffffffffffffffffffffffffffffffffff1673ffffffffffffffffffffffffffffffffffffffff16815260200190815260200160002060009054906101000a900460ff16151514151561048d57600080fd5b6001600260008373ffffffffffffffffffffffffffffffffffffffff1673ffffffffffffffffffffffffffffffffffffffff16815260200190815260200160002060006101000a81548160ff0219169083151502179055507f69b8f9bf6314590000c7bc7e22433208ed787db5a0388f79ec292b7d86b7f46c8133604051808373ffffffffffffffffffffffffffffffffffffffff1673ffffffffffffffffffffffffffffffffffffffff1681526020018273ffffffffffffffffffffffffffffffffffffffff1673ffffffffffffffffffffffffffffffffffffffff1681526020019250505060405180910390a150565b60011515600260003373ffffffffffffffffffffffffffffffffffffffff1673ffffffffffffffffffffffffffffffffffffffff16815260200190815260200160002060009054906101000a900460ff1615151415156105de57600080fd5b60018060008373ffffffffffffffffffffffffffffffffffffffff1673ffffffffffffffffffffffffffffffffffffffff16815260200190815260200160002060006101000a81548160ff0219169083151502179055507f69b8f9bf6314590000c7bc7e22433208ed787db5a0388f79ec292b7d86b7f46c8133604051808373ffffffffffffffffffffffffffffffffffffffff1673ffffffffffffffffffffffffffffffffffffffff1681526020018273ffffffffffffffffffffffffffffffffffffffff1673ffffffffffffffffffffffffffffffffffffffff1681526020019250505060405180910390a150565b600054815600a165627a7a7230582078ee537caaa5bfe6dfe6088690619f8428593dffa79722d185d3bedf4908b4f20029",
  "source": "pragma solidity ^0.4.21;\n////////////////////////////////////////////////////////////////////////////////////////////\n/// @title DecentraCorpPoA\n/// @author DecentraCorp\n/// @notice this contract will serve as a bridge between the main ethereum\n///   network and the DecntraCorp PoA allowing DecentraCorp to hold ETH\n/// @dev All function calls are currently implement without side effects\n////////////////////////////////////////////////////////////////////////////////////////////\n/// @author Christopher Dixon\n/////////////////////////////////////////////////////////////////////////////////////////////\ncontract DecentraCorpETH  {\n\n///@param NTC is used to make calls to the Notio Contract\n\n  uint public buyMemWindow;\n  mapping(address => bool) CIBvalLVL1E;\n  mapping(address => bool) CIBvalLVL2E;\n\n\n  event NewMemberE(address _newMem, address newMemFacility, string profHash);\n  event AddressFundedE(address _AddFunded);\n  event CIBLVL1E(address _newVal, address _validatedBy);\n  event CIBLVL2E(address _newVal, address _validatedBy);\n    //@modifier requires that the address calling a function is a contract information bridge level 1\n    modifier onlyCIB1E() {\n      require(CIBvalLVL1E[msg.sender] == true);\n      _;\n    }\n\n    //@modifier requires that the address calling a function is a contract information bridge level 2\n      modifier onlyCIB2E() {\n        require(CIBvalLVL2E[msg.sender] == true);\n        _;\n      }\n\n\n  constructor() public {\n    buyMemWindow = now;\n    CIBvalLVL1E[msg.sender] = true;\n    CIBvalLVL2E[msg.sender] = true;\n  }\n\n\n\n  function buyMembershipE(string _hash, address _facility) public payable{\n    require(now <= buyMemWindow + 15780000 seconds);\n    require(msg.value >= 1 ether);\n    emit NewMemberE(msg.sender, _facility, _hash);\n    }\n\n    function sendFunds(address addToFund, uint amount) public onlyCIB2E {\n      addToFund.transfer(amount);\n      emit AddressFundedE(addToFund);\n    }\n\n    function addNewCIBvalE(address _newVal) public onlyCIB2E {\n      CIBvalLVL1E[_newVal] = true;\n      emit CIBLVL1E(_newVal, msg.sender);\n    }\n\n     function addNewCIBval2E(address _newVal) public onlyCIB2E {\n         CIBvalLVL2E[_newVal] = true;\n         emit CIBLVL1E(_newVal, msg.sender);\n     }\n\n}\n",
  "sourcePath": "/home/stan36/repos/DecentraCorpContracts/contracts/DecentraCorp/DecentraCorpETH.sol",
  "compiler": {
    "name": "solc",
    "version": "0.4.24+commit.e67f0147.Emscripten.clang"
  },
  "schemaVersion": "2.0.1",
  "updatedAt": "2019-03-27T02:46:54.019Z"
}