{
  "contractName": "Entropy21",
  "abi": [
    {
      "constant": true,
      "inputs": [],
      "name": "round",
      "outputs": [
        {
          "name": "",
          "type": "uint256"
        }
      ],
      "payable": false,
      "stateMutability": "view",
      "type": "function"
    },
    {
      "constant": true,
      "inputs": [],
      "name": "roundTimer",
      "outputs": [
        {
          "name": "",
          "type": "uint256"
        }
      ],
      "payable": false,
      "stateMutability": "view",
      "type": "function"
    },
    {
      "constant": true,
      "inputs": [],
      "name": "CC",
      "outputs": [
        {
          "name": "",
          "type": "address"
        }
      ],
      "payable": false,
      "stateMutability": "view",
      "type": "function"
    },
    {
      "constant": false,
      "inputs": [],
      "name": "renounceOwnership",
      "outputs": [],
      "payable": false,
      "stateMutability": "nonpayable",
      "type": "function"
    },
    {
      "constant": true,
      "inputs": [
        {
          "name": "",
          "type": "uint256"
        }
      ],
      "name": "rounds",
      "outputs": [
        {
          "name": "NumberOfPlayers",
          "type": "uint256"
        },
        {
          "name": "RoundId",
          "type": "uint256"
        },
        {
          "name": "PoolAmount",
          "type": "uint256"
        },
        {
          "name": "CurrentHighest",
          "type": "uint256"
        },
        {
          "name": "CurrentWinner",
          "type": "address"
        }
      ],
      "payable": false,
      "stateMutability": "view",
      "type": "function"
    },
    {
      "constant": true,
      "inputs": [],
      "name": "owner",
      "outputs": [
        {
          "name": "",
          "type": "address"
        }
      ],
      "payable": false,
      "stateMutability": "view",
      "type": "function"
    },
    {
      "constant": true,
      "inputs": [],
      "name": "isOwner",
      "outputs": [
        {
          "name": "",
          "type": "bool"
        }
      ],
      "payable": false,
      "stateMutability": "view",
      "type": "function"
    },
    {
      "constant": false,
      "inputs": [
        {
          "name": "newOwner",
          "type": "address"
        }
      ],
      "name": "transferOwnership",
      "outputs": [],
      "payable": false,
      "stateMutability": "nonpayable",
      "type": "function"
    },
    {
      "anonymous": false,
      "inputs": [
        {
          "indexed": true,
          "name": "previousOwner",
          "type": "address"
        },
        {
          "indexed": true,
          "name": "newOwner",
          "type": "address"
        }
      ],
      "name": "OwnershipTransferred",
      "type": "event"
    },
    {
      "constant": false,
      "inputs": [],
      "name": "initialize",
      "outputs": [],
      "payable": false,
      "stateMutability": "nonpayable",
      "type": "function"
    },
    {
      "constant": false,
      "inputs": [
        {
          "name": "sender",
          "type": "address"
        }
      ],
      "name": "initialize",
      "outputs": [],
      "payable": false,
      "stateMutability": "nonpayable",
      "type": "function"
    },
    {
      "constant": false,
      "inputs": [
        {
          "name": "_add",
          "type": "address"
        }
      ],
      "name": "setCAdd",
      "outputs": [],
      "payable": false,
      "stateMutability": "nonpayable",
      "type": "function"
    },
    {
      "constant": false,
      "inputs": [],
      "name": "joinCurrentRound",
      "outputs": [],
      "payable": false,
      "stateMutability": "nonpayable",
      "type": "function"
    },
    {
      "constant": false,
      "inputs": [
        {
          "name": "_ipfsHash",
          "type": "string"
        },
        {
          "name": "_score",
          "type": "uint256"
        }
      ],
      "name": "endGame",
      "outputs": [],
      "payable": false,
      "stateMutability": "nonpayable",
      "type": "function"
    }
  ],
  "bytecode": "0x608060405234801561001057600080fd5b506115c4806100206000396000f3fe6080604052600436106100c5576000357c0100000000000000000000000000000000000000000000000000000000900463ffffffff168063146ca531146100ca5780633426acc3146100f55780633862efbe14610120578063548d29ea146101f25780636509e776146102095780636d7377d414610260578063715018a6146102b15780638129fc1c146102c85780638c65c81f146102df5780638da5cb5b146103765780638f32d59b146103cd578063c4d66de8146103fc578063f2fde38b1461044d575b600080fd5b3480156100d657600080fd5b506100df61049e565b6040518082815260200191505060405180910390f35b34801561010157600080fd5b5061010a6104a4565b6040518082815260200191505060405180910390f35b34801561012c57600080fd5b506101f06004803603604081101561014357600080fd5b810190808035906020019064010000000081111561016057600080fd5b82018360208201111561017257600080fd5b8035906020019184600183028401116401000000008311171561019457600080fd5b91908080601f016020809104026020016040519081016040528093929190818152602001838380828437600081840152601f19601f820116905080830192505050505050509192919290803590602001909291905050506104aa565b005b3480156101fe57600080fd5b5061020761079a565b005b34801561021557600080fd5b5061021e610e5d565b604051808273ffffffffffffffffffffffffffffffffffffffff1673ffffffffffffffffffffffffffffffffffffffff16815260200191505060405180910390f35b34801561026c57600080fd5b506102af6004803603602081101561028357600080fd5b81019080803573ffffffffffffffffffffffffffffffffffffffff169060200190929190505050610e83565b005b3480156102bd57600080fd5b506102c6610eda565b005b3480156102d457600080fd5b506102dd610fae565b005b3480156102eb57600080fd5b506103186004803603602081101561030257600080fd5b81019080803590602001909291905050506110ec565b604051808681526020018581526020018481526020018381526020018273ffffffffffffffffffffffffffffffffffffffff1673ffffffffffffffffffffffffffffffffffffffff1681526020019550505050505060405180910390f35b34801561038257600080fd5b5061038b611151565b604051808273ffffffffffffffffffffffffffffffffffffffff1673ffffffffffffffffffffffffffffffffffffffff16815260200191505060405180910390f35b3480156103d957600080fd5b506103e261117b565b604051808215151515815260200191505060405180910390f35b34801561040857600080fd5b5061044b6004803603602081101561041f57600080fd5b81019080803573ffffffffffffffffffffffffffffffffffffffff1690602001909291905050506111d3565b005b34801561045957600080fd5b5061049c6004803603602081101561047057600080fd5b81019080803573ffffffffffffffffffffffffffffffffffffffff1690602001909291905050506113c7565b005b60675481565b60685481565b600060696067548154811015156104bd57fe5b906000526020600020906008020190508060050160003373ffffffffffffffffffffffffffffffffffffffff1673ffffffffffffffffffffffffffffffffffffffff16815260200190815260200160002060009054906101000a900460ff16151561052757600080fd5b806003015482141561061157828160060160003373ffffffffffffffffffffffffffffffffffffffff1673ffffffffffffffffffffffffffffffffffffffff16815260200190815260200160002090805190602001906105889291906114f3565b50600081600301819055508060070160008381526020019081526020016000203390806001815401808255809150509060018203906000526020600020016000909192909190916101000a81548173ffffffffffffffffffffffffffffffffffffffff021916908373ffffffffffffffffffffffffffffffffffffffff16021790555050610795565b80600301548211156106c457818160030181905550338160040160006101000a81548173ffffffffffffffffffffffffffffffffffffffff021916908373ffffffffffffffffffffffffffffffffffffffff160217905550828160060160003373ffffffffffffffffffffffffffffffffffffffff1673ffffffffffffffffffffffffffffffffffffffff16815260200190815260200160002090805190602001906106be9291906114f3565b50610794565b828160060160003373ffffffffffffffffffffffffffffffffffffffff1673ffffffffffffffffffffffffffffffffffffffff16815260200190815260200160002090805190602001906107199291906114f3565b508060070160008381526020019081526020016000203390806001815401808255809150509060018203906000526020600020016000909192909190916101000a81548173ffffffffffffffffffffffffffffffffffffffff021916908373ffffffffffffffffffffffffffffffffffffffff160217905550505b5b505050565b606854421015156109a757600060696067548154811015156107b857fe5b9060005260206000209060080201905060008160030154141561088357606660009054906101000a900473ffffffffffffffffffffffffffffffffffffffff1673ffffffffffffffffffffffffffffffffffffffff166321a2159e82600201546040518263ffffffff167c010000000000000000000000000000000000000000000000000000000002815260040180828152602001915050600060405180830381600087803b15801561086a57600080fd5b505af115801561087e573d6000803e3d6000fd5b505050505b606660009054906101000a900473ffffffffffffffffffffffffffffffffffffffff1673ffffffffffffffffffffffffffffffffffffffff1663efcbd8d38260040160009054906101000a900473ffffffffffffffffffffffffffffffffffffffff1683600201546040518363ffffffff167c0100000000000000000000000000000000000000000000000000000000028152600401808373ffffffffffffffffffffffffffffffffffffffff1673ffffffffffffffffffffffffffffffffffffffff16815260200182815260200192505050600060405180830381600087803b15801561097057600080fd5b505af1158015610984573d6000803e3d6000fd5b505050506067600081548092919060010191905055506102584201606881905550505b600060696067548154811015156109ba57fe5b9060005260206000209060080201905060c881600001600081548092919060010191905055111515610c0957606660009054906101000a900473ffffffffffffffffffffffffffffffffffffffff1673ffffffffffffffffffffffffffffffffffffffff1663e9e2b98633678ac7230489e800006040518363ffffffff167c0100000000000000000000000000000000000000000000000000000000028152600401808373ffffffffffffffffffffffffffffffffffffffff1673ffffffffffffffffffffffffffffffffffffffff16815260200182815260200192505050600060405180830381600087803b158015610ab357600080fd5b505af1158015610ac7573d6000803e3d6000fd5b505050508060000160008154809291906001019190505550677ce66c50e28400008160020160008282540192505081905550606660009054906101000a900473ffffffffffffffffffffffffffffffffffffffff1673ffffffffffffffffffffffffffffffffffffffff166321a2159e670de0b6b3a76400006040518263ffffffff167c010000000000000000000000000000000000000000000000000000000002815260040180828152602001915050600060405180830381600087803b158015610b9257600080fd5b505af1158015610ba6573d6000803e3d6000fd5b5050505060018160050160003373ffffffffffffffffffffffffffffffffffffffff1673ffffffffffffffffffffffffffffffffffffffff16815260200190815260200160002060006101000a81548160ff021916908315150217905550610e5a565b600060696067600081548092919060010191905055815481101515610c2a57fe5b90600052602060002090600802019050606660009054906101000a900473ffffffffffffffffffffffffffffffffffffffff1673ffffffffffffffffffffffffffffffffffffffff1663e9e2b98633678ac7230489e800006040518363ffffffff167c0100000000000000000000000000000000000000000000000000000000028152600401808373ffffffffffffffffffffffffffffffffffffffff1673ffffffffffffffffffffffffffffffffffffffff16815260200182815260200192505050600060405180830381600087803b158015610d0757600080fd5b505af1158015610d1b573d6000803e3d6000fd5b505050508060000160008154809291906001019190505550677ce66c50e28400008160020160008282540192505081905550606660009054906101000a900473ffffffffffffffffffffffffffffffffffffffff1673ffffffffffffffffffffffffffffffffffffffff166321a2159e670de0b6b3a76400006040518263ffffffff167c010000000000000000000000000000000000000000000000000000000002815260040180828152602001915050600060405180830381600087803b158015610de657600080fd5b505af1158015610dfa573d6000803e3d6000fd5b5050505060018160050160003373ffffffffffffffffffffffffffffffffffffffff1673ffffffffffffffffffffffffffffffffffffffff16815260200190815260200160002060006101000a81548160ff021916908315150217905550505b50565b606660009054906101000a900473ffffffffffffffffffffffffffffffffffffffff1681565b610e8b61117b565b1515610e9657600080fd5b80606660006101000a81548173ffffffffffffffffffffffffffffffffffffffff021916908373ffffffffffffffffffffffffffffffffffffffff16021790555050565b610ee261117b565b1515610eed57600080fd5b600073ffffffffffffffffffffffffffffffffffffffff16603360009054906101000a900473ffffffffffffffffffffffffffffffffffffffff1673ffffffffffffffffffffffffffffffffffffffff167f8be0079c531659141344cd1fd0a4f28419497f9722a3daafe3b4186f6b6457e060405160405180910390a36000603360006101000a81548173ffffffffffffffffffffffffffffffffffffffff021916908373ffffffffffffffffffffffffffffffffffffffff160217905550565b600060019054906101000a900460ff1680610fcd5750610fcc6113e6565b5b80610fe457506000809054906101000a900460ff16155b151561107e576040517f08c379a000000000000000000000000000000000000000000000000000000000815260040180806020018281038252602e8152602001807f436f6e747261637420696e7374616e63652068617320616c726561647920626581526020017f656e20696e697469616c697a656400000000000000000000000000000000000081525060400191505060405180910390fd5b60008060019054906101000a900460ff1690506001600060016101000a81548160ff02191690831515021790555060016000806101000a81548160ff0219169083151502179055506110cf336111d3565b80600060016101000a81548160ff02191690831515021790555050565b6069818154811015156110fb57fe5b90600052602060002090600802016000915090508060000154908060010154908060020154908060030154908060040160009054906101000a900473ffffffffffffffffffffffffffffffffffffffff16905085565b6000603360009054906101000a900473ffffffffffffffffffffffffffffffffffffffff16905090565b6000603360009054906101000a900473ffffffffffffffffffffffffffffffffffffffff1673ffffffffffffffffffffffffffffffffffffffff163373ffffffffffffffffffffffffffffffffffffffff1614905090565b600060019054906101000a900460ff16806111f257506111f16113e6565b5b8061120957506000809054906101000a900460ff16155b15156112a3576040517f08c379a000000000000000000000000000000000000000000000000000000000815260040180806020018281038252602e8152602001807f436f6e747261637420696e7374616e63652068617320616c726561647920626581526020017f656e20696e697469616c697a656400000000000000000000000000000000000081525060400191505060405180910390fd5b60008060019054906101000a900460ff1690506001600060016101000a81548160ff02191690831515021790555060016000806101000a81548160ff02191690831515021790555081603360006101000a81548173ffffffffffffffffffffffffffffffffffffffff021916908373ffffffffffffffffffffffffffffffffffffffff160217905550603360009054906101000a900473ffffffffffffffffffffffffffffffffffffffff1673ffffffffffffffffffffffffffffffffffffffff16600073ffffffffffffffffffffffffffffffffffffffff167f8be0079c531659141344cd1fd0a4f28419497f9722a3daafe3b4186f6b6457e060405160405180910390a380600060016101000a81548160ff0219169083151502179055505050565b6113cf61117b565b15156113da57600080fd5b6113e3816113f7565b50565b600080303b90506000811491505090565b600073ffffffffffffffffffffffffffffffffffffffff168173ffffffffffffffffffffffffffffffffffffffff161415151561143357600080fd5b8073ffffffffffffffffffffffffffffffffffffffff16603360009054906101000a900473ffffffffffffffffffffffffffffffffffffffff1673ffffffffffffffffffffffffffffffffffffffff167f8be0079c531659141344cd1fd0a4f28419497f9722a3daafe3b4186f6b6457e060405160405180910390a380603360006101000a81548173ffffffffffffffffffffffffffffffffffffffff021916908373ffffffffffffffffffffffffffffffffffffffff16021790555050565b828054600181600116156101000203166002900490600052602060002090601f016020900481019282601f1061153457805160ff1916838001178555611562565b82800160010185558215611562579182015b82811115611561578251825591602001919060010190611546565b5b50905061156f9190611573565b5090565b61159591905b80821115611591576000816000905550600101611579565b5090565b9056fea165627a7a72305820512fcce6eb5fd47c8086947d17ca4a4cfbf757b0060c7ca8ae0de1fbb204a7690029",
  "source": "pragma solidity ^0.5.0;\nimport \"zos-lib/contracts/Initializable.sol\";\nimport \"openzeppelin-eth/contracts/ownership/Ownable.sol\";\nimport 'openzeppelin-eth/contracts/math/SafeMath.sol';\nimport './ChaosCasino.sol';\n\n\ncontract Entropy21 is Initializable, Ownable {\n\n  using SafeMath for uint256;\n///@params below are used to import the contracts as usable objects\n  ChaosCasino public CC;\n\n\n  uint public round;\n  uint public roundTimer;\n\n\n  NewRound[] public rounds;\n\nstruct NewRound {\n  uint NumberOfPlayers;\n  uint RoundId;\n  uint PoolAmount;\n  uint CurrentHighest;\n  address CurrentWinner;\n  mapping(address => bool) InTheGame;\n  mapping(address => string) PlayerHashs;\n  mapping(uint => address[])  AnnihilatedPlayers;\n}\n\n///@notice constructor sets up Notio address through truffle wizardry\n  function initialize() public initializer {\n     Ownable.initialize(msg.sender);\n   }\n\n  function setCAdd(address _add) public onlyOwner {\n    CC = ChaosCasino(_add);\n  }\n\n\nfunction joinCurrentRound() public {\n  if(now >= roundTimer){\n    NewRound storage r = rounds[round];\n    if(r.CurrentHighest == 0){\n      CC.housesCut(r.PoolAmount);\n    }\n\n    CC.proxyCCMint(r.CurrentWinner, r.PoolAmount);\n    round++;\n    roundTimer = now + 600;\n  }\n NewRound storage r = rounds[round];\n  if(r.NumberOfPlayers++ <= 200){\n  CC.proxyCCBurn(msg.sender, 10000000000000000000);\n  r.NumberOfPlayers++;\n  r.PoolAmount += 9000000000000000000;\n  CC.housesCut(1000000000000000000);\n  r.InTheGame[msg.sender] = true;\n}else{\n  NewRound storage n = rounds[round++];\n  CC.proxyCCBurn(msg.sender, 10000000000000000000);\n  n.NumberOfPlayers++;\n  n.PoolAmount += 9000000000000000000;\n  CC.housesCut(1000000000000000000);\n  n.InTheGame[msg.sender] = true;\n\n}\n}\n\nfunction endGame(string memory _ipfsHash, uint _score) public {\n  NewRound storage r = rounds[round];\n  require(r.InTheGame[msg.sender]);\n  if(_score == r.CurrentHighest){\n    r.PlayerHashs[msg.sender] = _ipfsHash;\n    r.CurrentHighest = 0;\n    r.AnnihilatedPlayers[_score].push(msg.sender);\n  }else if(_score > r.CurrentHighest){\n    r.CurrentHighest = _score;\n    r.CurrentWinner = msg.sender;\n    r.PlayerHashs[msg.sender] = _ipfsHash;\n  }else{\n    r.PlayerHashs[msg.sender] = _ipfsHash;\n    r.AnnihilatedPlayers[_score].push(msg.sender);\n  }\n}\n\n\n\n\n\n\n}\n/////////////////////////////////////////////////////////////////////////////////////////////\n",
  "sourcePath": "/home/stan36/repos/DecentraCorpContracts/contracts/ChaosCasino/Entropy21.sol",
  "compiler": {
    "name": "solc",
    "version": "0.5.0+commit.1d4f565a.Emscripten.clang"
  },
  "schemaVersion": "3.0.2",
  "updatedAt": "2019-05-01T23:20:39.225Z",
  "devdoc": {
    "methods": {
      "initialize(address)": {
        "details": "The Ownable constructor sets the original `owner` of the contract to the sender account."
      },
      "isOwner()": {
        "return": "true if `msg.sender` is the owner of the contract."
      },
      "owner()": {
        "return": "the address of the owner."
      },
      "renounceOwnership()": {
        "details": "Allows the current owner to relinquish control of the contract."
      },
      "transferOwnership(address)": {
        "details": "Allows the current owner to transfer control of the contract to a newOwner.",
        "params": {
          "newOwner": "The address to transfer ownership to."
        }
      }
    }
  },
  "userdoc": {
    "methods": {
      "initialize()": {
        "notice": "constructor sets up Notio address through truffle wizardry"
      },
      "renounceOwnership()": {
        "notice": "Renouncing to ownership will leave the contract without an owner. It will not be possible to call the functions with the `onlyOwner` modifier anymore."
      }
    }
  }
}