{
  "contractName": "Entropy21",
  "abi": [
    {
      "constant": true,
      "inputs": [],
      "name": "round",
      "outputs": [
        {
          "name": "",
          "type": "uint256"
        }
      ],
      "payable": false,
      "stateMutability": "view",
      "type": "function"
    },
    {
      "constant": true,
      "inputs": [],
      "name": "roundTimer",
      "outputs": [
        {
          "name": "",
          "type": "uint256"
        }
      ],
      "payable": false,
      "stateMutability": "view",
      "type": "function"
    },
    {
      "constant": true,
      "inputs": [],
      "name": "CC",
      "outputs": [
        {
          "name": "",
          "type": "address"
        }
      ],
      "payable": false,
      "stateMutability": "view",
      "type": "function"
    },
    {
      "constant": false,
      "inputs": [],
      "name": "renounceOwnership",
      "outputs": [],
      "payable": false,
      "stateMutability": "nonpayable",
      "type": "function"
    },
    {
      "constant": true,
      "inputs": [
        {
          "name": "",
          "type": "uint256"
        }
      ],
      "name": "rounds",
      "outputs": [
        {
          "name": "NumberOfPlayers",
          "type": "uint256"
        },
        {
          "name": "PoolAmount",
          "type": "uint256"
        },
        {
          "name": "CurrentHighest",
          "type": "uint256"
        },
        {
          "name": "CurrentWinner",
          "type": "address"
        }
      ],
      "payable": false,
      "stateMutability": "view",
      "type": "function"
    },
    {
      "constant": true,
      "inputs": [],
      "name": "owner",
      "outputs": [
        {
          "name": "",
          "type": "address"
        }
      ],
      "payable": false,
      "stateMutability": "view",
      "type": "function"
    },
    {
      "constant": true,
      "inputs": [],
      "name": "isOwner",
      "outputs": [
        {
          "name": "",
          "type": "bool"
        }
      ],
      "payable": false,
      "stateMutability": "view",
      "type": "function"
    },
    {
      "constant": false,
      "inputs": [
        {
          "name": "newOwner",
          "type": "address"
        }
      ],
      "name": "transferOwnership",
      "outputs": [],
      "payable": false,
      "stateMutability": "nonpayable",
      "type": "function"
    },
    {
      "anonymous": false,
      "inputs": [
        {
          "indexed": true,
          "name": "previousOwner",
          "type": "address"
        },
        {
          "indexed": true,
          "name": "newOwner",
          "type": "address"
        }
      ],
      "name": "OwnershipTransferred",
      "type": "event"
    },
    {
      "constant": false,
      "inputs": [],
      "name": "initialize",
      "outputs": [],
      "payable": false,
      "stateMutability": "nonpayable",
      "type": "function"
    },
    {
      "constant": false,
      "inputs": [
        {
          "name": "sender",
          "type": "address"
        }
      ],
      "name": "initialize",
      "outputs": [],
      "payable": false,
      "stateMutability": "nonpayable",
      "type": "function"
    },
    {
      "constant": false,
      "inputs": [
        {
          "name": "_add",
          "type": "address"
        }
      ],
      "name": "setCAdd",
      "outputs": [],
      "payable": false,
      "stateMutability": "nonpayable",
      "type": "function"
    },
    {
      "constant": false,
      "inputs": [],
      "name": "joinCurrentRound",
      "outputs": [],
      "payable": false,
      "stateMutability": "nonpayable",
      "type": "function"
    },
    {
      "constant": false,
      "inputs": [
        {
          "name": "_ipfsHash",
          "type": "string"
        },
        {
          "name": "_score",
          "type": "uint256"
        }
      ],
      "name": "endGame",
      "outputs": [],
      "payable": false,
      "stateMutability": "nonpayable",
      "type": "function"
    },
    {
      "constant": true,
      "inputs": [],
      "name": "timeLeft",
      "outputs": [
        {
          "name": "",
          "type": "uint256"
        }
      ],
      "payable": false,
      "stateMutability": "view",
      "type": "function"
    }
  ],
  "bytecode": "0x6080604052611131806100136000396000f3fe608060405234801561001057600080fd5b50600436106100ea5760003560e01c8063715018a61161008c5780638da5cb5b116100665780638da5cb5b1461033d5780638f32d59b14610387578063c4d66de8146103a9578063f2fde38b146103ed576100ea565b8063715018a6146102a65780638129fc1c146102b05780638c65c81f146102ba576100ea565b80633862efbe116100c85780633862efbe14610149578063548d29ea1461020e5780636509e776146102185780636d7377d414610262576100ea565b80631300a6d1146100ef578063146ca5311461010d5780633426acc31461012b575b600080fd5b6100f7610431565b6040518082815260200191505060405180910390f35b61011561043d565b6040518082815260200191505060405180910390f35b610133610443565b6040518082815260200191505060405180910390f35b61020c6004803603604081101561015f57600080fd5b810190808035906020019064010000000081111561017c57600080fd5b82018360208201111561018e57600080fd5b803590602001918460018302840111640100000000831117156101b057600080fd5b91908080601f016020809104026020016040519081016040528093929190818152602001838380828437600081840152601f19601f82011690508083019250505050505050919291929080359060200190929190505050610449565b005b610216610691565b005b6102206109ca565b604051808273ffffffffffffffffffffffffffffffffffffffff1673ffffffffffffffffffffffffffffffffffffffff16815260200191505060405180910390f35b6102a46004803603602081101561027857600080fd5b81019080803573ffffffffffffffffffffffffffffffffffffffff1690602001909291905050506109f0565b005b6102ae610a45565b005b6102b8610b17565b005b6102e6600480360360208110156102d057600080fd5b8101908080359060200190929190505050610c4c565b604051808581526020018481526020018381526020018273ffffffffffffffffffffffffffffffffffffffff1673ffffffffffffffffffffffffffffffffffffffff16815260200194505050505060405180910390f35b610345610c9c565b604051808273ffffffffffffffffffffffffffffffffffffffff1673ffffffffffffffffffffffffffffffffffffffff16815260200191505060405180910390f35b61038f610cc6565b604051808215151515815260200191505060405180910390f35b6103eb600480360360208110156103bf57600080fd5b81019080803573ffffffffffffffffffffffffffffffffffffffff169060200190929190505050610d25565b005b61042f6004803603602081101561040357600080fd5b81019080803573ffffffffffffffffffffffffffffffffffffffff169060200190929190505050610ee3565b005b60004260685403905090565b60675481565b60685481565b600060675490506000606960008381526020019081526020016000209050606a60003373ffffffffffffffffffffffffffffffffffffffff1673ffffffffffffffffffffffffffffffffffffffff16815260200190815260200160002060009054906101000a900460ff166104bd57600080fd5b806002015483141561052c5783606b60003373ffffffffffffffffffffffffffffffffffffffff1673ffffffffffffffffffffffffffffffffffffffff168152602001908152602001600020908051906020019061051c929190611032565b5060008160020181905550610633565b80600201548311156105dd57828160020181905550338160030160006101000a81548173ffffffffffffffffffffffffffffffffffffffff021916908373ffffffffffffffffffffffffffffffffffffffff16021790555083606b60003373ffffffffffffffffffffffffffffffffffffffff1673ffffffffffffffffffffffffffffffffffffffff16815260200190815260200160002090805190602001906105d7929190611032565b50610632565b83606b60003373ffffffffffffffffffffffffffffffffffffffff1673ffffffffffffffffffffffffffffffffffffffff1681526020019081526020016000209080519060200190610630929190611032565b505b5b6000606a60003373ffffffffffffffffffffffffffffffffffffffff1673ffffffffffffffffffffffffffffffffffffffff16815260200190815260200160002060006101000a81548160ff02191690831515021790555050505050565b60006067549050600060696000838152602001908152602001600020905060685442101580156106c657506002816000015410155b156107e257606660009054906101000a900473ffffffffffffffffffffffffffffffffffffffff1673ffffffffffffffffffffffffffffffffffffffff1663efcbd8d38260030160009054906101000a900473ffffffffffffffffffffffffffffffffffffffff1683600101546040518363ffffffff1660e01b8152600401808373ffffffffffffffffffffffffffffffffffffffff1673ffffffffffffffffffffffffffffffffffffffff16815260200182815260200192505050600060405180830381600087803b15801561079c57600080fd5b505af11580156107b0573d6000803e3d6000fd5b505050506067600081548092919060010191905055506107db61025842610f0090919063ffffffff16565b6068819055505b606660009054906101000a900473ffffffffffffffffffffffffffffffffffffffff1673ffffffffffffffffffffffffffffffffffffffff1663e9e2b98633678ac7230489e800006040518363ffffffff1660e01b8152600401808373ffffffffffffffffffffffffffffffffffffffff1673ffffffffffffffffffffffffffffffffffffffff16815260200182815260200192505050600060405180830381600087803b15801561089357600080fd5b505af11580156108a7573d6000803e3d6000fd5b505050508060000160008154809291906001019190505550677ce66c50e28400008160010160008282540192505081905550606660009054906101000a900473ffffffffffffffffffffffffffffffffffffffff1673ffffffffffffffffffffffffffffffffffffffff166321a2159e670de0b6b3a76400006040518263ffffffff1660e01b815260040180828152602001915050600060405180830381600087803b15801561095657600080fd5b505af115801561096a573d6000803e3d6000fd5b505050506001606a60003373ffffffffffffffffffffffffffffffffffffffff1673ffffffffffffffffffffffffffffffffffffffff16815260200190815260200160002060006101000a81548160ff0219169083151502179055505050565b606660009054906101000a900473ffffffffffffffffffffffffffffffffffffffff1681565b6109f8610cc6565b610a0157600080fd5b80606660006101000a81548173ffffffffffffffffffffffffffffffffffffffff021916908373ffffffffffffffffffffffffffffffffffffffff16021790555050565b610a4d610cc6565b610a5657600080fd5b600073ffffffffffffffffffffffffffffffffffffffff16603360009054906101000a900473ffffffffffffffffffffffffffffffffffffffff1673ffffffffffffffffffffffffffffffffffffffff167f8be0079c531659141344cd1fd0a4f28419497f9722a3daafe3b4186f6b6457e060405160405180910390a36000603360006101000a81548173ffffffffffffffffffffffffffffffffffffffff021916908373ffffffffffffffffffffffffffffffffffffffff160217905550565b600060019054906101000a900460ff1680610b365750610b35610f1f565b5b80610b4d57506000809054906101000a900460ff16155b610ba2576040517f08c379a000000000000000000000000000000000000000000000000000000000815260040180806020018281038252602e8152602001806110d8602e913960400191505060405180910390fd5b60008060019054906101000a900460ff161590508015610bf2576001600060016101000a81548160ff02191690831515021790555060016000806101000a81548160ff0219169083151502179055505b610bfb33610d25565b606760008154809291906001019190505550610c2261025842610f0090919063ffffffff16565b6068819055508015610c495760008060016101000a81548160ff0219169083151502179055505b50565b60696020528060005260406000206000915090508060000154908060010154908060020154908060030160009054906101000a900473ffffffffffffffffffffffffffffffffffffffff16905084565b6000603360009054906101000a900473ffffffffffffffffffffffffffffffffffffffff16905090565b6000603360009054906101000a900473ffffffffffffffffffffffffffffffffffffffff1673ffffffffffffffffffffffffffffffffffffffff16610d09610f30565b73ffffffffffffffffffffffffffffffffffffffff1614905090565b600060019054906101000a900460ff1680610d445750610d43610f1f565b5b80610d5b57506000809054906101000a900460ff16155b610db0576040517f08c379a000000000000000000000000000000000000000000000000000000000815260040180806020018281038252602e8152602001806110d8602e913960400191505060405180910390fd5b60008060019054906101000a900460ff161590508015610e00576001600060016101000a81548160ff02191690831515021790555060016000806101000a81548160ff0219169083151502179055505b81603360006101000a81548173ffffffffffffffffffffffffffffffffffffffff021916908373ffffffffffffffffffffffffffffffffffffffff160217905550603360009054906101000a900473ffffffffffffffffffffffffffffffffffffffff1673ffffffffffffffffffffffffffffffffffffffff16600073ffffffffffffffffffffffffffffffffffffffff167f8be0079c531659141344cd1fd0a4f28419497f9722a3daafe3b4186f6b6457e060405160405180910390a38015610edf5760008060016101000a81548160ff0219169083151502179055505b5050565b610eeb610cc6565b610ef457600080fd5b610efd81610f38565b50565b600080828401905083811015610f1557600080fd5b8091505092915050565b600080303b90506000811491505090565b600033905090565b600073ffffffffffffffffffffffffffffffffffffffff168173ffffffffffffffffffffffffffffffffffffffff161415610f7257600080fd5b8073ffffffffffffffffffffffffffffffffffffffff16603360009054906101000a900473ffffffffffffffffffffffffffffffffffffffff1673ffffffffffffffffffffffffffffffffffffffff167f8be0079c531659141344cd1fd0a4f28419497f9722a3daafe3b4186f6b6457e060405160405180910390a380603360006101000a81548173ffffffffffffffffffffffffffffffffffffffff021916908373ffffffffffffffffffffffffffffffffffffffff16021790555050565b828054600181600116156101000203166002900490600052602060002090601f016020900481019282601f1061107357805160ff19168380011785556110a1565b828001600101855582156110a1579182015b828111156110a0578251825591602001919060010190611085565b5b5090506110ae91906110b2565b5090565b6110d491905b808211156110d05760008160009055506001016110b8565b5090565b9056fe436f6e747261637420696e7374616e63652068617320616c7265616479206265656e20696e697469616c697a6564a165627a7a72305820aecc901c5aa16fd17c0c25f448ad3c77f081dd037d5bc9e29686aa7158a05e850029",
  "source": "pragma solidity ^0.5.0;\nimport \"@openzeppelin/upgrades/contracts/Initializable.sol\";\nimport \"@openzeppelin/contracts-ethereum-package/contracts/ownership/Ownable.sol\";\nimport '@openzeppelin/contracts-ethereum-package/contracts/math/SafeMath.sol';\nimport './ChaosCasino.sol';\n\n\ncontract Entropy21 is Initializable, Ownable {\n\n  using SafeMath for uint256;\n///@params below are used to import the contracts as usable objects\n  ChaosCasino public CC;\n\n\n  uint public round;\n  uint public roundTimer;\n  mapping(uint => NewRound) public rounds;\n  mapping(address => bool) inTheGame;\n  mapping(address => string) playerHashs;\n\nstruct NewRound {\n  uint NumberOfPlayers;\n  uint PoolAmount;\n  uint CurrentHighest;\n  address CurrentWinner;\n}\n\n///@notice constructor sets up NotioCoin address through truffle wizardry\n  function initialize() public initializer {\n     Ownable.initialize(msg.sender);\n     round++;\n     roundTimer = now.add(600);\n   }\n\n  function setCAdd(address _add) public onlyOwner {\n    CC = ChaosCasino(_add);\n  }\n\n\nfunction joinCurrentRound() public {\n  uint roundId = round;\n  NewRound storage r = rounds[roundId];\n\n  if(now >= roundTimer && r.NumberOfPlayers >= 2 ){\n    CC.proxyCCMint(r.CurrentWinner, r.PoolAmount);\n    round++;\n    roundTimer = now.add(600);\n  }\n\n  CC.proxyCCBurn(msg.sender, 10000000000000000000);\n  r.NumberOfPlayers++;\n  r.PoolAmount += 9000000000000000000;\n  CC.housesCut(1000000000000000000);\n  inTheGame[msg.sender] = true;\n}\n\n\nfunction endGame(string memory _ipfsHash, uint _score) public {\n    uint roundId = round;\n  NewRound storage r = rounds[roundId];\n\n  require(inTheGame[msg.sender]);\n\n  if(_score == r.CurrentHighest){\n    playerHashs[msg.sender] = _ipfsHash;\n    r.CurrentHighest = 0;\n  }else if(_score > r.CurrentHighest){\n    r.CurrentHighest = _score;\n    r.CurrentWinner = msg.sender;\n    playerHashs[msg.sender] = _ipfsHash;\n  }else{\n    playerHashs[msg.sender] = _ipfsHash;\n  }\n\n  inTheGame[msg.sender] = false;\n}\n\n\nfunction timeLeft() public view returns(uint) {\n  return roundTimer - now;\n}\n\n\n\n}\n/////////////////////////////////////////////////////////////////////////////////////////////\n",
  "sourcePath": "/home/stan36/repos/DecentraCorpContracts/contracts/ChaosCasino/Entropy21.sol",
  "compiler": {
    "name": "solc",
    "version": "0.5.8+commit.23d335f2.Emscripten.clang"
  },
  "schemaVersion": "3.0.11",
  "updatedAt": "2019-09-12T20:55:18.232Z",
  "devdoc": {
    "methods": {
      "initialize(address)": {
        "details": "The Ownable constructor sets the original `owner` of the contract to the sender account."
      },
      "isOwner()": {
        "return": "true if `msg.sender` is the owner of the contract."
      },
      "owner()": {
        "return": "the address of the owner."
      },
      "renounceOwnership()": {
        "details": "Allows the current owner to relinquish control of the contract. It will not be possible to call the functions with the `onlyOwner` modifier anymore."
      },
      "transferOwnership(address)": {
        "details": "Allows the current owner to transfer control of the contract to a newOwner.",
        "params": {
          "newOwner": "The address to transfer ownership to."
        }
      }
    }
  },
  "userdoc": {
    "methods": {
      "initialize()": {
        "notice": "constructor sets up NotioCoin address through truffle wizardry"
      },
      "renounceOwnership()": {
        "notice": "Renouncing ownership will leave the contract without an owner, thereby removing any functionality that is only available to the owner."
      }
    }
  }
}