{
  "contractName": "Entropy21",
  "abi": [
    {
      "constant": true,
      "inputs": [],
      "name": "round",
      "outputs": [
        {
          "name": "",
          "type": "uint256"
        }
      ],
      "payable": false,
      "stateMutability": "view",
      "type": "function"
    },
    {
      "constant": true,
      "inputs": [],
      "name": "roundTimer",
      "outputs": [
        {
          "name": "",
          "type": "uint256"
        }
      ],
      "payable": false,
      "stateMutability": "view",
      "type": "function"
    },
    {
      "constant": true,
      "inputs": [],
      "name": "CC",
      "outputs": [
        {
          "name": "",
          "type": "address"
        }
      ],
      "payable": false,
      "stateMutability": "view",
      "type": "function"
    },
    {
      "constant": false,
      "inputs": [],
      "name": "renounceOwnership",
      "outputs": [],
      "payable": false,
      "stateMutability": "nonpayable",
      "type": "function"
    },
    {
      "constant": true,
      "inputs": [
        {
          "name": "",
          "type": "uint256"
        }
      ],
      "name": "rounds",
      "outputs": [
        {
          "name": "NumberOfPlayers",
          "type": "uint256"
        },
        {
          "name": "PoolAmount",
          "type": "uint256"
        },
        {
          "name": "CurrentHighest",
          "type": "uint256"
        },
        {
          "name": "CurrentWinner",
          "type": "address"
        }
      ],
      "payable": false,
      "stateMutability": "view",
      "type": "function"
    },
    {
      "constant": true,
      "inputs": [],
      "name": "owner",
      "outputs": [
        {
          "name": "",
          "type": "address"
        }
      ],
      "payable": false,
      "stateMutability": "view",
      "type": "function"
    },
    {
      "constant": true,
      "inputs": [],
      "name": "isOwner",
      "outputs": [
        {
          "name": "",
          "type": "bool"
        }
      ],
      "payable": false,
      "stateMutability": "view",
      "type": "function"
    },
    {
      "constant": false,
      "inputs": [
        {
          "name": "newOwner",
          "type": "address"
        }
      ],
      "name": "transferOwnership",
      "outputs": [],
      "payable": false,
      "stateMutability": "nonpayable",
      "type": "function"
    },
    {
      "anonymous": false,
      "inputs": [
        {
          "indexed": true,
          "name": "previousOwner",
          "type": "address"
        },
        {
          "indexed": true,
          "name": "newOwner",
          "type": "address"
        }
      ],
      "name": "OwnershipTransferred",
      "type": "event"
    },
    {
      "constant": false,
      "inputs": [],
      "name": "initialize",
      "outputs": [],
      "payable": false,
      "stateMutability": "nonpayable",
      "type": "function"
    },
    {
      "constant": false,
      "inputs": [
        {
          "name": "sender",
          "type": "address"
        }
      ],
      "name": "initialize",
      "outputs": [],
      "payable": false,
      "stateMutability": "nonpayable",
      "type": "function"
    },
    {
      "constant": false,
      "inputs": [
        {
          "name": "_add",
          "type": "address"
        }
      ],
      "name": "setCAdd",
      "outputs": [],
      "payable": false,
      "stateMutability": "nonpayable",
      "type": "function"
    },
    {
      "constant": false,
      "inputs": [],
      "name": "joinCurrentRound",
      "outputs": [],
      "payable": false,
      "stateMutability": "nonpayable",
      "type": "function"
    },
    {
      "constant": false,
      "inputs": [
        {
          "name": "_ipfsHash",
          "type": "string"
        },
        {
          "name": "_score",
          "type": "uint256"
        }
      ],
      "name": "endGame",
      "outputs": [],
      "payable": false,
      "stateMutability": "nonpayable",
      "type": "function"
    },
    {
      "constant": true,
      "inputs": [],
      "name": "timeLeft",
      "outputs": [
        {
          "name": "",
          "type": "uint256"
        }
      ],
      "payable": false,
      "stateMutability": "view",
      "type": "function"
    }
  ],
  "bytecode": "0x608060405234801561001057600080fd5b5061125c806100206000396000f3fe6080604052600436106100d0576000357c0100000000000000000000000000000000000000000000000000000000900463ffffffff1680631300a6d1146100d5578063146ca531146101005780633426acc31461012b5780633862efbe14610156578063548d29ea146102285780636509e7761461023f5780636d7377d414610296578063715018a6146102e75780638129fc1c146102fe5780638c65c81f146103155780638da5cb5b146103a55780638f32d59b146103fc578063c4d66de81461042b578063f2fde38b1461047c575b600080fd5b3480156100e157600080fd5b506100ea6104cd565b6040518082815260200191505060405180910390f35b34801561010c57600080fd5b506101156104d9565b6040518082815260200191505060405180910390f35b34801561013757600080fd5b506101406104df565b6040518082815260200191505060405180910390f35b34801561016257600080fd5b506102266004803603604081101561017957600080fd5b810190808035906020019064010000000081111561019657600080fd5b8201836020820111156101a857600080fd5b803590602001918460018302840111640100000000831117156101ca57600080fd5b91908080601f016020809104026020016040519081016040528093929190818152602001838380828437600081840152601f19601f820116905080830192505050505050509192919290803590602001909291905050506104e5565b005b34801561023457600080fd5b5061023d61072f565b005b34801561024b57600080fd5b50610254610abc565b604051808273ffffffffffffffffffffffffffffffffffffffff1673ffffffffffffffffffffffffffffffffffffffff16815260200191505060405180910390f35b3480156102a257600080fd5b506102e5600480360360208110156102b957600080fd5b81019080803573ffffffffffffffffffffffffffffffffffffffff169060200190929190505050610ae2565b005b3480156102f357600080fd5b506102fc610b39565b005b34801561030a57600080fd5b50610313610c0d565b005b34801561032157600080fd5b5061034e6004803603602081101561033857600080fd5b8101908080359060200190929190505050610d78565b604051808581526020018481526020018381526020018273ffffffffffffffffffffffffffffffffffffffff1673ffffffffffffffffffffffffffffffffffffffff16815260200194505050505060405180910390f35b3480156103b157600080fd5b506103ba610dc8565b604051808273ffffffffffffffffffffffffffffffffffffffff1673ffffffffffffffffffffffffffffffffffffffff16815260200191505060405180910390f35b34801561040857600080fd5b50610411610df2565b604051808215151515815260200191505060405180910390f35b34801561043757600080fd5b5061047a6004803603602081101561044e57600080fd5b81019080803573ffffffffffffffffffffffffffffffffffffffff169060200190929190505050610e4a565b005b34801561048857600080fd5b506104cb6004803603602081101561049f57600080fd5b81019080803573ffffffffffffffffffffffffffffffffffffffff16906020019092919050505061103e565b005b60004260685403905090565b60675481565b60685481565b600060675490506000606960008381526020019081526020016000209050606a60003373ffffffffffffffffffffffffffffffffffffffff1673ffffffffffffffffffffffffffffffffffffffff16815260200190815260200160002060009054906101000a900460ff16151561055b57600080fd5b80600201548314156105ca5783606b60003373ffffffffffffffffffffffffffffffffffffffff1673ffffffffffffffffffffffffffffffffffffffff16815260200190815260200160002090805190602001906105ba92919061118b565b50600081600201819055506106d1565b806002015483111561067b57828160020181905550338160030160006101000a81548173ffffffffffffffffffffffffffffffffffffffff021916908373ffffffffffffffffffffffffffffffffffffffff16021790555083606b60003373ffffffffffffffffffffffffffffffffffffffff1673ffffffffffffffffffffffffffffffffffffffff168152602001908152602001600020908051906020019061067592919061118b565b506106d0565b83606b60003373ffffffffffffffffffffffffffffffffffffffff1673ffffffffffffffffffffffffffffffffffffffff16815260200190815260200160002090805190602001906106ce92919061118b565b505b5b6000606a60003373ffffffffffffffffffffffffffffffffffffffff1673ffffffffffffffffffffffffffffffffffffffff16815260200190815260200160002060006101000a81548160ff02191690831515021790555050505050565b600060675490506000606960008381526020019081526020016000209050606854421015801561076457506002816000015410155b1561089c57606660009054906101000a900473ffffffffffffffffffffffffffffffffffffffff1673ffffffffffffffffffffffffffffffffffffffff1663efcbd8d38260030160009054906101000a900473ffffffffffffffffffffffffffffffffffffffff1683600101546040518363ffffffff167c0100000000000000000000000000000000000000000000000000000000028152600401808373ffffffffffffffffffffffffffffffffffffffff1673ffffffffffffffffffffffffffffffffffffffff16815260200182815260200192505050600060405180830381600087803b15801561085657600080fd5b505af115801561086a573d6000803e3d6000fd5b505050506067600081548092919060010191905055506108956102584261105d90919063ffffffff16565b6068819055505b606660009054906101000a900473ffffffffffffffffffffffffffffffffffffffff1673ffffffffffffffffffffffffffffffffffffffff1663e9e2b98633678ac7230489e800006040518363ffffffff167c0100000000000000000000000000000000000000000000000000000000028152600401808373ffffffffffffffffffffffffffffffffffffffff1673ffffffffffffffffffffffffffffffffffffffff16815260200182815260200192505050600060405180830381600087803b15801561096957600080fd5b505af115801561097d573d6000803e3d6000fd5b505050508060000160008154809291906001019190505550677ce66c50e28400008160010160008282540192505081905550606660009054906101000a900473ffffffffffffffffffffffffffffffffffffffff1673ffffffffffffffffffffffffffffffffffffffff166321a2159e670de0b6b3a76400006040518263ffffffff167c010000000000000000000000000000000000000000000000000000000002815260040180828152602001915050600060405180830381600087803b158015610a4857600080fd5b505af1158015610a5c573d6000803e3d6000fd5b505050506001606a60003373ffffffffffffffffffffffffffffffffffffffff1673ffffffffffffffffffffffffffffffffffffffff16815260200190815260200160002060006101000a81548160ff0219169083151502179055505050565b606660009054906101000a900473ffffffffffffffffffffffffffffffffffffffff1681565b610aea610df2565b1515610af557600080fd5b80606660006101000a81548173ffffffffffffffffffffffffffffffffffffffff021916908373ffffffffffffffffffffffffffffffffffffffff16021790555050565b610b41610df2565b1515610b4c57600080fd5b600073ffffffffffffffffffffffffffffffffffffffff16603360009054906101000a900473ffffffffffffffffffffffffffffffffffffffff1673ffffffffffffffffffffffffffffffffffffffff167f8be0079c531659141344cd1fd0a4f28419497f9722a3daafe3b4186f6b6457e060405160405180910390a36000603360006101000a81548173ffffffffffffffffffffffffffffffffffffffff021916908373ffffffffffffffffffffffffffffffffffffffff160217905550565b600060019054906101000a900460ff1680610c2c5750610c2b61107e565b5b80610c4357506000809054906101000a900460ff16155b1515610cdd576040517f08c379a000000000000000000000000000000000000000000000000000000000815260040180806020018281038252602e8152602001807f436f6e747261637420696e7374616e63652068617320616c726561647920626581526020017f656e20696e697469616c697a656400000000000000000000000000000000000081525060400191505060405180910390fd5b60008060019054906101000a900460ff1690506001600060016101000a81548160ff02191690831515021790555060016000806101000a81548160ff021916908315150217905550610d2e33610e4a565b606760008154809291906001019190505550610d556102584261105d90919063ffffffff16565b60688190555080600060016101000a81548160ff02191690831515021790555050565b60696020528060005260406000206000915090508060000154908060010154908060020154908060030160009054906101000a900473ffffffffffffffffffffffffffffffffffffffff16905084565b6000603360009054906101000a900473ffffffffffffffffffffffffffffffffffffffff16905090565b6000603360009054906101000a900473ffffffffffffffffffffffffffffffffffffffff1673ffffffffffffffffffffffffffffffffffffffff163373ffffffffffffffffffffffffffffffffffffffff1614905090565b600060019054906101000a900460ff1680610e695750610e6861107e565b5b80610e8057506000809054906101000a900460ff16155b1515610f1a576040517f08c379a000000000000000000000000000000000000000000000000000000000815260040180806020018281038252602e8152602001807f436f6e747261637420696e7374616e63652068617320616c726561647920626581526020017f656e20696e697469616c697a656400000000000000000000000000000000000081525060400191505060405180910390fd5b60008060019054906101000a900460ff1690506001600060016101000a81548160ff02191690831515021790555060016000806101000a81548160ff02191690831515021790555081603360006101000a81548173ffffffffffffffffffffffffffffffffffffffff021916908373ffffffffffffffffffffffffffffffffffffffff160217905550603360009054906101000a900473ffffffffffffffffffffffffffffffffffffffff1673ffffffffffffffffffffffffffffffffffffffff16600073ffffffffffffffffffffffffffffffffffffffff167f8be0079c531659141344cd1fd0a4f28419497f9722a3daafe3b4186f6b6457e060405160405180910390a380600060016101000a81548160ff0219169083151502179055505050565b611046610df2565b151561105157600080fd5b61105a8161108f565b50565b600080828401905083811015151561107457600080fd5b8091505092915050565b600080303b90506000811491505090565b600073ffffffffffffffffffffffffffffffffffffffff168173ffffffffffffffffffffffffffffffffffffffff16141515156110cb57600080fd5b8073ffffffffffffffffffffffffffffffffffffffff16603360009054906101000a900473ffffffffffffffffffffffffffffffffffffffff1673ffffffffffffffffffffffffffffffffffffffff167f8be0079c531659141344cd1fd0a4f28419497f9722a3daafe3b4186f6b6457e060405160405180910390a380603360006101000a81548173ffffffffffffffffffffffffffffffffffffffff021916908373ffffffffffffffffffffffffffffffffffffffff16021790555050565b828054600181600116156101000203166002900490600052602060002090601f016020900481019282601f106111cc57805160ff19168380011785556111fa565b828001600101855582156111fa579182015b828111156111f95782518255916020019190600101906111de565b5b509050611207919061120b565b5090565b61122d91905b80821115611229576000816000905550600101611211565b5090565b9056fea165627a7a72305820998f3140651410ba870692fe519a3875fb959697e97ec17a87c9a9015d9e08f50029",
  "source": "pragma solidity ^0.5.0;\nimport \"zos-lib/contracts/Initializable.sol\";\nimport \"openzeppelin-eth/contracts/ownership/Ownable.sol\";\nimport 'openzeppelin-eth/contracts/math/SafeMath.sol';\nimport './ChaosCasino.sol';\n\n\ncontract Entropy21 is Initializable, Ownable {\n\n  using SafeMath for uint256;\n///@params below are used to import the contracts as usable objects\n  ChaosCasino public CC;\n\n\n  uint public round;\n  uint public roundTimer;\n  mapping(uint => NewRound) public rounds;\n  mapping(address => bool) inTheGame;\n  mapping(address => string) playerHashs;\n\nstruct NewRound {\n  uint NumberOfPlayers;\n  uint PoolAmount;\n  uint CurrentHighest;\n  address CurrentWinner;\n}\n\n///@notice constructor sets up Notio address through truffle wizardry\n  function initialize() public initializer {\n     Ownable.initialize(msg.sender);\n     round++;\n     roundTimer = now.add(600);\n   }\n\n  function setCAdd(address _add) public onlyOwner {\n    CC = ChaosCasino(_add);\n  }\n\n\nfunction joinCurrentRound() public {\n  uint roundId = round;\n  NewRound storage r = rounds[roundId];\n\n  if(now >= roundTimer && r.NumberOfPlayers >= 2 ){\n    CC.proxyCCMint(r.CurrentWinner, r.PoolAmount);\n    round++;\n    roundTimer = now.add(600);\n  }\n\n  CC.proxyCCBurn(msg.sender, 10000000000000000000);\n  r.NumberOfPlayers++;\n  r.PoolAmount += 9000000000000000000;\n  CC.housesCut(1000000000000000000);\n  inTheGame[msg.sender] = true;\n}\n\n\nfunction endGame(string memory _ipfsHash, uint _score) public {\n    uint roundId = round;\n  NewRound storage r = rounds[roundId];\n\n  require(inTheGame[msg.sender]);\n\n  if(_score == r.CurrentHighest){\n    playerHashs[msg.sender] = _ipfsHash;\n    r.CurrentHighest = 0;\n  }else if(_score > r.CurrentHighest){\n    r.CurrentHighest = _score;\n    r.CurrentWinner = msg.sender;\n    playerHashs[msg.sender] = _ipfsHash;\n  }else{\n    playerHashs[msg.sender] = _ipfsHash;\n  }\n\n  inTheGame[msg.sender] = false;\n}\n\n\nfunction timeLeft() public view returns(uint) {\n  return roundTimer - now;\n}\n\n\n\n}\n/////////////////////////////////////////////////////////////////////////////////////////////\n",
  "sourcePath": "/home/stan36/repos/DecentraCorpContracts/contracts/ChaosCasino/Entropy21.sol",
  "compiler": {
    "name": "solc",
    "version": "0.5.0+commit.1d4f565a.Emscripten.clang"
  },
  "schemaVersion": "3.0.2",
  "updatedAt": "2019-08-30T22:03:59.610Z",
  "devdoc": {
    "methods": {
      "initialize(address)": {
        "details": "The Ownable constructor sets the original `owner` of the contract to the sender account."
      },
      "isOwner()": {
        "return": "true if `msg.sender` is the owner of the contract."
      },
      "owner()": {
        "return": "the address of the owner."
      },
      "renounceOwnership()": {
        "details": "Allows the current owner to relinquish control of the contract."
      },
      "transferOwnership(address)": {
        "details": "Allows the current owner to transfer control of the contract to a newOwner.",
        "params": {
          "newOwner": "The address to transfer ownership to."
        }
      }
    }
  },
  "userdoc": {
    "methods": {
      "initialize()": {
        "notice": "constructor sets up Notio address through truffle wizardry"
      },
      "renounceOwnership()": {
        "notice": "Renouncing to ownership will leave the contract without an owner. It will not be possible to call the functions with the `onlyOwner` modifier anymore."
      }
    }
  }
}