{
  "contractName": "IdeaBlockLogic",
  "abi": [
    {
      "constant": true,
      "inputs": [
        {
          "name": "",
          "type": "address"
        }
      ],
      "name": "localMiningtimeTracker",
      "outputs": [
        {
          "name": "",
          "type": "uint256"
        }
      ],
      "payable": false,
      "stateMutability": "view",
      "type": "function"
    },
    {
      "constant": true,
      "inputs": [
        {
          "name": "",
          "type": "uint256"
        }
      ],
      "name": "ideaProposals",
      "outputs": [
        {
          "name": "IdeaIPFS",
          "type": "string"
        },
        {
          "name": "executed",
          "type": "bool"
        },
        {
          "name": "proposalPassed",
          "type": "bool"
        },
        {
          "name": "globalUseBlockAmount",
          "type": "uint256"
        },
        {
          "name": "royalty",
          "type": "uint256"
        },
        {
          "name": "miningTime",
          "type": "uint256"
        },
        {
          "name": "stakeAmount",
          "type": "uint256"
        },
        {
          "name": "levelRequirement",
          "type": "uint256"
        },
        {
          "name": "inventorAddress",
          "type": "address"
        },
        {
          "name": "inventionAddress",
          "type": "address"
        }
      ],
      "payable": false,
      "stateMutability": "view",
      "type": "function"
    },
    {
      "constant": true,
      "inputs": [],
      "name": "ideaBlockReward",
      "outputs": [
        {
          "name": "",
          "type": "uint256"
        }
      ],
      "payable": false,
      "stateMutability": "view",
      "type": "function"
    },
    {
      "constant": true,
      "inputs": [],
      "name": "globalBlockHalfTime",
      "outputs": [
        {
          "name": "",
          "type": "uint256"
        }
      ],
      "payable": false,
      "stateMutability": "view",
      "type": "function"
    },
    {
      "constant": true,
      "inputs": [
        {
          "name": "",
          "type": "address"
        },
        {
          "name": "",
          "type": "uint256"
        }
      ],
      "name": "repOwnes",
      "outputs": [
        {
          "name": "",
          "type": "uint256"
        }
      ],
      "payable": false,
      "stateMutability": "view",
      "type": "function"
    },
    {
      "constant": true,
      "inputs": [
        {
          "name": "",
          "type": "uint256"
        }
      ],
      "name": "ideaVariables",
      "outputs": [
        {
          "name": "globalUseBlockAmount",
          "type": "uint256"
        },
        {
          "name": "royalty",
          "type": "uint256"
        },
        {
          "name": "miningTime",
          "type": "uint256"
        },
        {
          "name": "stakeAmount",
          "type": "uint256"
        },
        {
          "name": "levelRequirement",
          "type": "uint256"
        },
        {
          "name": "inventorAddress",
          "type": "address"
        },
        {
          "name": "inventionAddress",
          "type": "address"
        },
        {
          "name": "IPFShash",
          "type": "string"
        }
      ],
      "payable": false,
      "stateMutability": "view",
      "type": "function"
    },
    {
      "constant": true,
      "inputs": [],
      "name": "globalIdeaCount",
      "outputs": [
        {
          "name": "",
          "type": "uint256"
        }
      ],
      "payable": false,
      "stateMutability": "view",
      "type": "function"
    },
    {
      "constant": true,
      "inputs": [
        {
          "name": "",
          "type": "address"
        }
      ],
      "name": "IdeaAddToId",
      "outputs": [
        {
          "name": "",
          "type": "uint256"
        }
      ],
      "payable": false,
      "stateMutability": "view",
      "type": "function"
    },
    {
      "constant": true,
      "inputs": [
        {
          "name": "",
          "type": "address"
        }
      ],
      "name": "repInfo",
      "outputs": [
        {
          "name": "BlockReward",
          "type": "uint256"
        },
        {
          "name": "IdeaID",
          "type": "uint256"
        },
        {
          "name": "Royalty",
          "type": "uint256"
        },
        {
          "name": "RepID",
          "type": "uint256"
        },
        {
          "name": "InventorsAddress",
          "type": "address"
        },
        {
          "name": "ReplicationAddress",
          "type": "address"
        },
        {
          "name": "OwnersAddress",
          "type": "address"
        },
        {
          "name": "DeviceLockHash",
          "type": "string"
        }
      ],
      "payable": false,
      "stateMutability": "view",
      "type": "function"
    },
    {
      "constant": false,
      "inputs": [],
      "name": "renounceOwnership",
      "outputs": [],
      "payable": false,
      "stateMutability": "nonpayable",
      "type": "function"
    },
    {
      "constant": true,
      "inputs": [],
      "name": "globalUseBlock",
      "outputs": [
        {
          "name": "",
          "type": "uint256"
        }
      ],
      "payable": false,
      "stateMutability": "view",
      "type": "function"
    },
    {
      "constant": true,
      "inputs": [
        {
          "name": "",
          "type": "uint256"
        }
      ],
      "name": "weightTracker",
      "outputs": [
        {
          "name": "",
          "type": "uint256"
        }
      ],
      "payable": false,
      "stateMutability": "view",
      "type": "function"
    },
    {
      "constant": true,
      "inputs": [],
      "name": "owner",
      "outputs": [
        {
          "name": "",
          "type": "address"
        }
      ],
      "payable": false,
      "stateMutability": "view",
      "type": "function"
    },
    {
      "constant": true,
      "inputs": [],
      "name": "isOwner",
      "outputs": [
        {
          "name": "",
          "type": "bool"
        }
      ],
      "payable": false,
      "stateMutability": "view",
      "type": "function"
    },
    {
      "constant": true,
      "inputs": [],
      "name": "globalRepCount",
      "outputs": [
        {
          "name": "",
          "type": "uint256"
        }
      ],
      "payable": false,
      "stateMutability": "view",
      "type": "function"
    },
    {
      "constant": false,
      "inputs": [
        {
          "name": "sender",
          "type": "address"
        }
      ],
      "name": "initialize",
      "outputs": [],
      "payable": false,
      "stateMutability": "nonpayable",
      "type": "function"
    },
    {
      "constant": true,
      "inputs": [
        {
          "name": "",
          "type": "address"
        }
      ],
      "name": "localWeightTracker",
      "outputs": [
        {
          "name": "",
          "type": "uint256"
        }
      ],
      "payable": false,
      "stateMutability": "view",
      "type": "function"
    },
    {
      "constant": true,
      "inputs": [
        {
          "name": "",
          "type": "address"
        }
      ],
      "name": "replications",
      "outputs": [
        {
          "name": "",
          "type": "bool"
        }
      ],
      "payable": false,
      "stateMutability": "view",
      "type": "function"
    },
    {
      "constant": true,
      "inputs": [],
      "name": "DCPoA",
      "outputs": [
        {
          "name": "",
          "type": "address"
        }
      ],
      "payable": false,
      "stateMutability": "view",
      "type": "function"
    },
    {
      "constant": false,
      "inputs": [
        {
          "name": "newOwner",
          "type": "address"
        }
      ],
      "name": "transferOwnership",
      "outputs": [],
      "payable": false,
      "stateMutability": "nonpayable",
      "type": "function"
    },
    {
      "constant": true,
      "inputs": [
        {
          "name": "",
          "type": "uint256"
        }
      ],
      "name": "ideaRepCounter",
      "outputs": [
        {
          "name": "",
          "type": "uint256"
        }
      ],
      "payable": false,
      "stateMutability": "view",
      "type": "function"
    },
    {
      "constant": true,
      "inputs": [],
      "name": "Validators",
      "outputs": [
        {
          "name": "",
          "type": "address"
        }
      ],
      "payable": false,
      "stateMutability": "view",
      "type": "function"
    },
    {
      "constant": true,
      "inputs": [],
      "name": "globalIdeaPropCount",
      "outputs": [
        {
          "name": "",
          "type": "uint256"
        }
      ],
      "payable": false,
      "stateMutability": "view",
      "type": "function"
    },
    {
      "anonymous": false,
      "inputs": [
        {
          "indexed": false,
          "name": "IPFS",
          "type": "string"
        }
      ],
      "name": "IdeaProposed",
      "type": "event"
    },
    {
      "anonymous": false,
      "inputs": [
        {
          "indexed": false,
          "name": "member",
          "type": "address"
        }
      ],
      "name": "NewMember",
      "type": "event"
    },
    {
      "anonymous": false,
      "inputs": [
        {
          "indexed": false,
          "name": "IPFS",
          "type": "string"
        },
        {
          "indexed": false,
          "name": "Inventor",
          "type": "address"
        }
      ],
      "name": "IdeaApproved",
      "type": "event"
    },
    {
      "anonymous": false,
      "inputs": [
        {
          "indexed": false,
          "name": "_voter",
          "type": "address"
        },
        {
          "indexed": false,
          "name": "inSupport",
          "type": "bool"
        }
      ],
      "name": "Voted",
      "type": "event"
    },
    {
      "anonymous": false,
      "inputs": [
        {
          "indexed": false,
          "name": "_repAdd",
          "type": "address"
        },
        {
          "indexed": false,
          "name": "repOwner",
          "type": "address"
        }
      ],
      "name": "NewReplication",
      "type": "event"
    },
    {
      "anonymous": false,
      "inputs": [
        {
          "indexed": false,
          "name": "repAdd",
          "type": "address"
        },
        {
          "indexed": false,
          "name": "reOwner",
          "type": "address"
        },
        {
          "indexed": false,
          "name": "repWeight",
          "type": "uint256"
        }
      ],
      "name": "LocalUseWeight",
      "type": "event"
    },
    {
      "anonymous": false,
      "inputs": [
        {
          "indexed": false,
          "name": "repAdd",
          "type": "address"
        },
        {
          "indexed": false,
          "name": "reOwner",
          "type": "address"
        },
        {
          "indexed": false,
          "name": "ideaId",
          "type": "uint256"
        }
      ],
      "name": "GlobalUseBlock",
      "type": "event"
    },
    {
      "anonymous": false,
      "inputs": [
        {
          "indexed": true,
          "name": "previousOwner",
          "type": "address"
        },
        {
          "indexed": true,
          "name": "newOwner",
          "type": "address"
        }
      ],
      "name": "OwnershipTransferred",
      "type": "event"
    }
  ],
  "bytecode": "0x608060405234801561001057600080fd5b50611450806100206000396000f3fe608060405260043610610133576000357c0100000000000000000000000000000000000000000000000000000000900463ffffffff16806311e65844146101385780631855efa61461019d5780631ddc883b146102f057806328a6e47c1461031b5780632e858cce146103465780634242779f146103b55780634cfa2409146104f25780634f214e841461051d5780636849e79514610582578063715018a614610701578063758249741461071857806381cbb677146107435780638da5cb5b146107925780638f32d59b146107e9578063be6cbbcf14610818578063c4d66de814610843578063ce87d3ee14610894578063d436b5e9146108f9578063e026daa114610962578063f2fde38b146109b9578063f54a012914610a0a578063f691977414610a59578063f7e1e4f014610ab0575b600080fd5b34801561014457600080fd5b506101876004803603602081101561015b57600080fd5b81019080803573ffffffffffffffffffffffffffffffffffffffff169060200190929190505050610adb565b6040518082815260200191505060405180910390f35b3480156101a957600080fd5b506101d6600480360360208110156101c057600080fd5b8101908080359060200190929190505050610af3565b60405180806020018b1515151581526020018a1515151581526020018981526020018881526020018781526020018681526020018581526020018473ffffffffffffffffffffffffffffffffffffffff1673ffffffffffffffffffffffffffffffffffffffff1681526020018373ffffffffffffffffffffffffffffffffffffffff1673ffffffffffffffffffffffffffffffffffffffff16815260200182810382528c818151815260200191508051906020019080838360005b838110156102ac578082015181840152602081019050610291565b50505050905090810190601f1680156102d95780820380516001836020036101000a031916815260200191505b509b50505050505050505050505060405180910390f35b3480156102fc57600080fd5b50610305610c39565b6040518082815260200191505060405180910390f35b34801561032757600080fd5b50610330610c3f565b6040518082815260200191505060405180910390f35b34801561035257600080fd5b5061039f6004803603604081101561036957600080fd5b81019080803573ffffffffffffffffffffffffffffffffffffffff16906020019092919080359060200190929190505050610c45565b6040518082815260200191505060405180910390f35b3480156103c157600080fd5b506103ee600480360360208110156103d857600080fd5b8101908080359060200190929190505050610c6a565b604051808981526020018881526020018781526020018681526020018581526020018473ffffffffffffffffffffffffffffffffffffffff1673ffffffffffffffffffffffffffffffffffffffff1681526020018373ffffffffffffffffffffffffffffffffffffffff1673ffffffffffffffffffffffffffffffffffffffff16815260200180602001828103825283818151815260200191508051906020019080838360005b838110156104b0578082015181840152602081019050610495565b50505050905090810190601f1680156104dd5780820380516001836020036101000a031916815260200191505b50995050505050505050505060405180910390f35b3480156104fe57600080fd5b50610507610d8a565b6040518082815260200191505060405180910390f35b34801561052957600080fd5b5061056c6004803603602081101561054057600080fd5b81019080803573ffffffffffffffffffffffffffffffffffffffff169060200190929190505050610d90565b6040518082815260200191505060405180910390f35b34801561058e57600080fd5b506105d1600480360360208110156105a557600080fd5b81019080803573ffffffffffffffffffffffffffffffffffffffff169060200190929190505050610da8565b604051808981526020018881526020018781526020018681526020018573ffffffffffffffffffffffffffffffffffffffff1673ffffffffffffffffffffffffffffffffffffffff1681526020018473ffffffffffffffffffffffffffffffffffffffff1673ffffffffffffffffffffffffffffffffffffffff1681526020018373ffffffffffffffffffffffffffffffffffffffff1673ffffffffffffffffffffffffffffffffffffffff16815260200180602001828103825283818151815260200191508051906020019080838360005b838110156106bf5780820151818401526020810190506106a4565b50505050905090810190601f1680156106ec5780820380516001836020036101000a031916815260200191505b50995050505050505050505060405180910390f35b34801561070d57600080fd5b50610716610ee8565b005b34801561072457600080fd5b5061072d610fbc565b6040518082815260200191505060405180910390f35b34801561074f57600080fd5b5061077c6004803603602081101561076657600080fd5b8101908080359060200190929190505050610fc2565b6040518082815260200191505060405180910390f35b34801561079e57600080fd5b506107a7610fda565b604051808273ffffffffffffffffffffffffffffffffffffffff1673ffffffffffffffffffffffffffffffffffffffff16815260200191505060405180910390f35b3480156107f557600080fd5b506107fe611004565b604051808215151515815260200191505060405180910390f35b34801561082457600080fd5b5061082d61105c565b6040518082815260200191505060405180910390f35b34801561084f57600080fd5b506108926004803603602081101561086657600080fd5b81019080803573ffffffffffffffffffffffffffffffffffffffff169060200190929190505050611062565b005b3480156108a057600080fd5b506108e3600480360360208110156108b757600080fd5b81019080803573ffffffffffffffffffffffffffffffffffffffff169060200190929190505050611256565b6040518082815260200191505060405180910390f35b34801561090557600080fd5b506109486004803603602081101561091c57600080fd5b81019080803573ffffffffffffffffffffffffffffffffffffffff16906020019092919050505061126e565b604051808215151515815260200191505060405180910390f35b34801561096e57600080fd5b5061097761128e565b604051808273ffffffffffffffffffffffffffffffffffffffff1673ffffffffffffffffffffffffffffffffffffffff16815260200191505060405180910390f35b3480156109c557600080fd5b50610a08600480360360208110156109dc57600080fd5b81019080803573ffffffffffffffffffffffffffffffffffffffff1690602001909291905050506112b4565b005b348015610a1657600080fd5b50610a4360048036036020811015610a2d57600080fd5b81019080803590602001909291905050506112d3565b6040518082815260200191505060405180910390f35b348015610a6557600080fd5b50610a6e6112eb565b604051808273ffffffffffffffffffffffffffffffffffffffff1673ffffffffffffffffffffffffffffffffffffffff16815260200191505060405180910390f35b348015610abc57600080fd5b50610ac5611311565b6040518082815260200191505060405180910390f35b60746020528060005260406000206000915090505481565b6070602052806000526040600020600091509050806000018054600181600116156101000203166002900480601f016020809104026020016040519081016040528092919081815260200182805460018160011615610100020316600290048015610b9f5780601f10610b7457610100808354040283529160200191610b9f565b820191906000526020600020905b815481529060010190602001808311610b8257829003601f168201915b5050505050908060010160009054906101000a900460ff16908060010160019054906101000a900460ff16908060020154908060030154908060040154908060050154908060060154908060070160009054906101000a900473ffffffffffffffffffffffffffffffffffffffff16908060080160009054906101000a900473ffffffffffffffffffffffffffffffffffffffff1690508a565b606a5481565b60695481565b6077602052816000526040600020602052806000526040600020600091509150505481565b606e6020528060005260406000206000915090508060000154908060010154908060020154908060030154908060040154908060050160009054906101000a900473ffffffffffffffffffffffffffffffffffffffff16908060060160009054906101000a900473ffffffffffffffffffffffffffffffffffffffff1690806007018054600181600116156101000203166002900480601f016020809104026020016040519081016040528092919081815260200182805460018160011615610100020316600290048015610d805780601f10610d5557610100808354040283529160200191610d80565b820191906000526020600020905b815481529060010190602001808311610d6357829003601f168201915b5050505050905088565b60685481565b606f6020528060005260406000206000915090505481565b60766020528060005260406000206000915090508060000154908060010154908060020154908060030154908060040160009054906101000a900473ffffffffffffffffffffffffffffffffffffffff16908060050160009054906101000a900473ffffffffffffffffffffffffffffffffffffffff16908060060160009054906101000a900473ffffffffffffffffffffffffffffffffffffffff1690806007018054600181600116156101000203166002900480601f016020809104026020016040519081016040528092919081815260200182805460018160011615610100020316600290048015610ede5780601f10610eb357610100808354040283529160200191610ede565b820191906000526020600020905b815481529060010190602001808311610ec157829003601f168201915b5050505050905088565b610ef0611004565b1515610efb57600080fd5b600073ffffffffffffffffffffffffffffffffffffffff16603360009054906101000a900473ffffffffffffffffffffffffffffffffffffffff1673ffffffffffffffffffffffffffffffffffffffff167f8be0079c531659141344cd1fd0a4f28419497f9722a3daafe3b4186f6b6457e060405160405180910390a36000603360006101000a81548173ffffffffffffffffffffffffffffffffffffffff021916908373ffffffffffffffffffffffffffffffffffffffff160217905550565b606d5481565b60716020528060005260406000206000915090505481565b6000603360009054906101000a900473ffffffffffffffffffffffffffffffffffffffff16905090565b6000603360009054906101000a900473ffffffffffffffffffffffffffffffffffffffff1673ffffffffffffffffffffffffffffffffffffffff163373ffffffffffffffffffffffffffffffffffffffff1614905090565b606c5481565b600060019054906101000a900460ff16806110815750611080611317565b5b8061109857506000809054906101000a900460ff16155b1515611132576040517f08c379a000000000000000000000000000000000000000000000000000000000815260040180806020018281038252602e8152602001807f436f6e747261637420696e7374616e63652068617320616c726561647920626581526020017f656e20696e697469616c697a656400000000000000000000000000000000000081525060400191505060405180910390fd5b60008060019054906101000a900460ff1690506001600060016101000a81548160ff02191690831515021790555060016000806101000a81548160ff02191690831515021790555081603360006101000a81548173ffffffffffffffffffffffffffffffffffffffff021916908373ffffffffffffffffffffffffffffffffffffffff160217905550603360009054906101000a900473ffffffffffffffffffffffffffffffffffffffff1673ffffffffffffffffffffffffffffffffffffffff16600073ffffffffffffffffffffffffffffffffffffffff167f8be0079c531659141344cd1fd0a4f28419497f9722a3daafe3b4186f6b6457e060405160405180910390a380600060016101000a81548160ff0219169083151502179055505050565b60726020528060005260406000206000915090505481565b60756020528060005260406000206000915054906101000a900460ff1681565b606660009054906101000a900473ffffffffffffffffffffffffffffffffffffffff1681565b6112bc611004565b15156112c757600080fd5b6112d081611328565b50565b60736020528060005260406000206000915090505481565b606760009054906101000a900473ffffffffffffffffffffffffffffffffffffffff1681565b606b5481565b600080303b90506000811491505090565b600073ffffffffffffffffffffffffffffffffffffffff168173ffffffffffffffffffffffffffffffffffffffff161415151561136457600080fd5b8073ffffffffffffffffffffffffffffffffffffffff16603360009054906101000a900473ffffffffffffffffffffffffffffffffffffffff1673ffffffffffffffffffffffffffffffffffffffff167f8be0079c531659141344cd1fd0a4f28419497f9722a3daafe3b4186f6b6457e060405160405180910390a380603360006101000a81548173ffffffffffffffffffffffffffffffffffffffff021916908373ffffffffffffffffffffffffffffffffffffffff1602179055505056fea165627a7a723058207cc96c99c19d10c163ddbfe207802a0cda2adfdadeff564b6bb2e403e5b18b1b0029",
  "source": "pragma solidity ^0.5.0;\nimport \"zos-lib/contracts/Initializable.sol\";\nimport \"openzeppelin-eth/contracts/ownership/Ownable.sol\";\n////////////////////////////////////////////////////////////////////////////////////////////\n/// @title Interface Contract for the CryptoPatent Blockchain\n/// @author DecentraCorp\n/// @notice this contract is built using the Ownership contract from the zeppelin-solidity library\n/// @dev All function calls are currently implement without side effects\n////////////////////////////////////////////////////////////////////////////////////////////\ncontract DecentraCorp {\n  function proxyNTCMint(address _add, uint _amount) external;\n  function proxyNTCBurn(address _add, uint _amount) external;\n  function _addMember(address _mem, string calldata _userId) external;\n  function _checkIfMember(address _member) public view returns(bool);\n  function increaseMemLev(address _add) external;\n  function setProfileHash(address _add, string memory _hash) public;\n  function getMemberCount() public view returns(uint);\n  function getAddFromPass(string memory _userId) public view returns(address);\n  function getLevel(address _add) public view returns(uint);\n}\n/// DecentraCorp PoA inteface\n////////////////////////////////////////////////////////////////////////////////////////////\n  contract RelayedOwnedSet {\n    \tfunction addValidator(address _validator) external;\n  }\n/// Validator contract interface\n/////////////////////////////////////////////////////////////////////////////////////////////\ncontract IdeaBlockLogic is Initializable, Ownable {\n\n  DecentraCorp public DCPoA;\n  RelayedOwnedSet public Validators;\n\n  ///@param globalIdeaCount tracks amount of ideas on the CryptoPatent Blockchain\n  ///@param globalBlockHalfTime used to track when the ideaBlockReward should be halved\n  ///@param ideaBlockReward set to 1000 DCPoA\n  ///@param repStake set to 100 DCPoA\n  uint public globalIdeaCount;\n  uint public globalBlockHalfTime;\n  uint public ideaBlockReward;\n  uint public globalIdeaPropCount;\n  ///@param globalRepCount tracks the total number of replications on the CryptoPatent Blockchain\n  uint public globalRepCount;\n  uint public globalUseBlock;\n\n  ///@param ideaVariables maps a token number to an ideas variables\n  ///@param IdeaAddToId maps an Ideas address to its ID number\n  mapping(uint => IdeaBlock) public ideaVariables;\n  mapping(address => uint) public IdeaAddToId;\n  mapping(uint => IdeaProposal) public ideaProposals;\n  mapping(uint => uint) public weightTracker;\n  mapping(address => uint) public localWeightTracker;\n\n  ///@param ideaRepCounter tracks the total number of replications for a specific idea\n  ///@param repInfo maps a reps address to its information\n  ///@param repOwnes tracks how many of a specific type of replication a replicator owns(this is for pool mining)\n  mapping(uint => uint) public ideaRepCounter;\n  mapping(address => uint) public localMiningtimeTracker;\n  mapping(address => bool) public replications;\n  mapping(address => ReplicationInfo) public repInfo;\n  mapping(address => mapping(uint => uint)) public repOwnes;\n  mapping(string => uint) getHash;\n  mapping(address => uint[]) ideaBlocksOwned;\n\n\n  event IdeaProposed(string IPFS);\n  event NewMember(address member);\n  event IdeaApproved(string IPFS, address Inventor);\n  event Voted(address _voter, bool inSupport);\n  event NewReplication(address _repAdd, address repOwner);\n  event LocalUseWeight(address repAdd, address reOwner, uint repWeight);\n  event GlobalUseBlock(address repAdd, address reOwner, uint ideaId);\n\n\n  ///@struct IdeaProposal stores info of a proposal\n  struct IdeaProposal {\n       string IdeaIPFS;\n       bool executed;\n       bool proposalPassed;\n       uint globalUseBlockAmount;\n       uint royalty;\n       uint miningTime;\n       uint stakeAmount;\n       uint levelRequirement;\n       address inventorAddress;\n       address inventionAddress;\n       Vote[] votes;\n       mapping (address => bool) voted;\n   }\n\n  struct Vote {\n          bool inSupport;\n          address voter;\n  }\n\n\n  ///@struct IdeaBlock is built to store only needed variables to the blockchain, IPFS handles the rest\n  struct IdeaBlock {\n    uint globalUseBlockAmount;\n    uint royalty;\n    uint miningTime;\n    uint stakeAmount;\n    uint levelRequirement;\n    address inventorAddress;\n    address inventionAddress;\n    string IPFShash;\n  }\n  //@struct ReplicationInfo stores replication information\n  struct ReplicationInfo {\n    uint BlockReward;\n    uint IdeaID;\n    uint Royalty;\n    uint RepID;\n    address InventorsAddress;\n    address ReplicationAddress;\n    address OwnersAddress;\n    string DeviceLockHash;\n  }\n\n\n  ///@notice generateIdeaBlock is used to generate and ideablock after a community vote\n  ///@dev this function is onlyOwner as atm the CPB is owning itself. In the future\n  ///     this will likely be set to an account that will have special privlidges between this contracts and\n  ///     the ethereum Based DecentraCorp contracts to facilitate crosschain communication\n\n  function generateIdeaBlock(\n    string memory _ideaIPFS,\n    uint  _globalUseBlockAmount,\n    uint _miningTime,\n    uint _royalty,\n    uint _stakeAmount,\n    uint _levelRequirement,\n    address _inventor,\n    address _invention\n    )\ninternal\n    {\n      globalIdeaCount++;\n      uint _ideaId = globalIdeaCount;\n\n      IdeaBlock memory _info = IdeaBlock({\n        globalUseBlockAmount: uint(_globalUseBlockAmount),\n        royalty: uint(_royalty),\n        miningTime: uint(_miningTime),\n        stakeAmount: uint(_stakeAmount),\n        levelRequirement: uint(_levelRequirement),\n        inventorAddress: address(_inventor),\n        inventionAddress: address(_invention),\n        IPFShash: string(_ideaIPFS)\n        });\n\n        IdeaAddToId[_invention] = _ideaId;\n        ideaVariables[_ideaId] = _info;\n        Validators.addValidator(_invention);\n        ideaBlockTimeLord();\n        DCPoA.proxyNTCMint( _inventor, ideaBlockReward);\n        //mints 1000 DCPoA and sends it to the inventor\n        DCPoA.increaseMemLev(_inventor);\n        ideaBlocksOwned[_inventor].push(_ideaId);\n    }\n\n  ///@notice ideaBlockTimeLord is called to half an ideablock reward every two years\n  ///@dev this time may need to be adjusted to 4 years depending on predicted inflation patterns of DCPoA\n    function ideaBlockTimeLord() internal returns(uint){\n      if(now >= globalBlockHalfTime + 94670778) {\n        ideaBlockReward = ideaBlockReward / 2;\n        globalBlockHalfTime = now;\n        return ideaBlockReward;\n        }else{\n        return ideaBlockReward;\n      }\n    }\n    ///@notice set_Quorum is an internal function used by proposal vote counts to see if the community approves\n    ///@dev quorum is set to 60%\n      function percent(uint numerator, uint denominator, uint precision) internal pure returns(uint quotient) {\n             // caution, check safe-to-multiply here\n              uint _numerator  = numerator * 10 ** (precision+1);\n            // with rounding of last digit\n              uint _quotient =  ((_numerator / denominator) + 5) / 10;\n              return ( _quotient);\n            }\n\n      function set_Quorum(uint numOfvotes, uint numOfmem) internal pure returns(bool) {\n                uint percOfMemVoted = percent(numOfvotes, numOfmem, 2 );\n                 if(percOfMemVoted >= 60) {\n                     return true;\n                 } else {\n                     return false;\n                 }\n              }\n\n}\n",
  "sourcePath": "/home/stan36/repos/DecentraCorpContracts/contracts/CryptoPatent/IdeaBlockLogic.sol",
  "compiler": {
    "name": "solc",
    "version": "0.5.0+commit.1d4f565a.Emscripten.clang"
  },
  "schemaVersion": "3.0.2",
  "updatedAt": "2019-06-13T00:47:39.931Z",
  "devdoc": {
    "methods": {
      "initialize(address)": {
        "details": "The Ownable constructor sets the original `owner` of the contract to the sender account."
      },
      "isOwner()": {
        "return": "true if `msg.sender` is the owner of the contract."
      },
      "owner()": {
        "return": "the address of the owner."
      },
      "renounceOwnership()": {
        "details": "Allows the current owner to relinquish control of the contract."
      },
      "transferOwnership(address)": {
        "details": "Allows the current owner to transfer control of the contract to a newOwner.",
        "params": {
          "newOwner": "The address to transfer ownership to."
        }
      }
    }
  },
  "userdoc": {
    "methods": {
      "renounceOwnership()": {
        "notice": "Renouncing to ownership will leave the contract without an owner. It will not be possible to call the functions with the `onlyOwner` modifier anymore."
      }
    },
    "notice": "Validator contract interface //////////////////////////////////////////////////////////////////////////////////////////"
  }
}