{
  "contractName": "IdeaBlockLogic",
  "abi": [
    {
      "constant": true,
      "inputs": [
        {
          "name": "",
          "type": "address"
        }
      ],
      "name": "localMiningtimeTracker",
      "outputs": [
        {
          "name": "",
          "type": "uint256"
        }
      ],
      "payable": false,
      "stateMutability": "view",
      "type": "function"
    },
    {
      "constant": true,
      "inputs": [
        {
          "name": "",
          "type": "uint256"
        }
      ],
      "name": "ideaProposals",
      "outputs": [
        {
          "name": "IdeaIPFS",
          "type": "string"
        },
        {
          "name": "IdeaBlock",
          "type": "bool"
        },
        {
          "name": "executed",
          "type": "bool"
        },
        {
          "name": "globalUseBlockAmount",
          "type": "uint256"
        },
        {
          "name": "royalty",
          "type": "uint256"
        },
        {
          "name": "miningTime",
          "type": "uint256"
        },
        {
          "name": "stakeAmount",
          "type": "uint256"
        },
        {
          "name": "levelRequirement",
          "type": "uint256"
        },
        {
          "name": "inventorAddress",
          "type": "address"
        },
        {
          "name": "inventionAddress",
          "type": "address"
        }
      ],
      "payable": false,
      "stateMutability": "view",
      "type": "function"
    },
    {
      "constant": true,
      "inputs": [],
      "name": "ideaBlockReward",
      "outputs": [
        {
          "name": "",
          "type": "uint256"
        }
      ],
      "payable": false,
      "stateMutability": "view",
      "type": "function"
    },
    {
      "constant": true,
      "inputs": [],
      "name": "globalBlockHalfTime",
      "outputs": [
        {
          "name": "",
          "type": "uint256"
        }
      ],
      "payable": false,
      "stateMutability": "view",
      "type": "function"
    },
    {
      "constant": true,
      "inputs": [
        {
          "name": "",
          "type": "address"
        },
        {
          "name": "",
          "type": "uint256"
        }
      ],
      "name": "repOwnes",
      "outputs": [
        {
          "name": "",
          "type": "uint256"
        }
      ],
      "payable": false,
      "stateMutability": "view",
      "type": "function"
    },
    {
      "constant": true,
      "inputs": [
        {
          "name": "",
          "type": "address"
        }
      ],
      "name": "IdeaAddToId",
      "outputs": [
        {
          "name": "",
          "type": "uint256"
        }
      ],
      "payable": false,
      "stateMutability": "view",
      "type": "function"
    },
    {
      "constant": true,
      "inputs": [
        {
          "name": "",
          "type": "address"
        }
      ],
      "name": "repInfo",
      "outputs": [
        {
          "name": "BlockReward",
          "type": "uint256"
        },
        {
          "name": "IdeaID",
          "type": "uint256"
        },
        {
          "name": "Royalty",
          "type": "uint256"
        },
        {
          "name": "InventorsAddress",
          "type": "address"
        },
        {
          "name": "ReplicationAddress",
          "type": "address"
        },
        {
          "name": "ReplicationMember",
          "type": "address"
        },
        {
          "name": "OwnersAddress",
          "type": "address"
        },
        {
          "name": "DeviceLockHash",
          "type": "string"
        }
      ],
      "payable": false,
      "stateMutability": "view",
      "type": "function"
    },
    {
      "constant": false,
      "inputs": [],
      "name": "renounceOwnership",
      "outputs": [],
      "payable": false,
      "stateMutability": "nonpayable",
      "type": "function"
    },
    {
      "constant": true,
      "inputs": [],
      "name": "globalUseBlock",
      "outputs": [
        {
          "name": "",
          "type": "uint256"
        }
      ],
      "payable": false,
      "stateMutability": "view",
      "type": "function"
    },
    {
      "constant": true,
      "inputs": [
        {
          "name": "",
          "type": "uint256"
        }
      ],
      "name": "weightTracker",
      "outputs": [
        {
          "name": "",
          "type": "uint256"
        }
      ],
      "payable": false,
      "stateMutability": "view",
      "type": "function"
    },
    {
      "constant": true,
      "inputs": [],
      "name": "owner",
      "outputs": [
        {
          "name": "",
          "type": "address"
        }
      ],
      "payable": false,
      "stateMutability": "view",
      "type": "function"
    },
    {
      "constant": true,
      "inputs": [],
      "name": "isOwner",
      "outputs": [
        {
          "name": "",
          "type": "bool"
        }
      ],
      "payable": false,
      "stateMutability": "view",
      "type": "function"
    },
    {
      "constant": false,
      "inputs": [
        {
          "name": "sender",
          "type": "address"
        }
      ],
      "name": "initialize",
      "outputs": [],
      "payable": false,
      "stateMutability": "nonpayable",
      "type": "function"
    },
    {
      "constant": true,
      "inputs": [
        {
          "name": "",
          "type": "address"
        }
      ],
      "name": "localWeightTracker",
      "outputs": [
        {
          "name": "",
          "type": "uint256"
        }
      ],
      "payable": false,
      "stateMutability": "view",
      "type": "function"
    },
    {
      "constant": true,
      "inputs": [
        {
          "name": "",
          "type": "address"
        }
      ],
      "name": "replications",
      "outputs": [
        {
          "name": "",
          "type": "bool"
        }
      ],
      "payable": false,
      "stateMutability": "view",
      "type": "function"
    },
    {
      "constant": true,
      "inputs": [],
      "name": "DCPoA",
      "outputs": [
        {
          "name": "",
          "type": "address"
        }
      ],
      "payable": false,
      "stateMutability": "view",
      "type": "function"
    },
    {
      "constant": true,
      "inputs": [
        {
          "name": "",
          "type": "uint256"
        }
      ],
      "name": "ideaUpgradeProposals",
      "outputs": [
        {
          "name": "uIdeaIPFS",
          "type": "string"
        },
        {
          "name": "uexecuted",
          "type": "bool"
        },
        {
          "name": "uglobalUseBlockAmount",
          "type": "uint256"
        },
        {
          "name": "uroyalty",
          "type": "uint256"
        },
        {
          "name": "uminingTime",
          "type": "uint256"
        },
        {
          "name": "ustakeAmount",
          "type": "uint256"
        },
        {
          "name": "ulevelRequirement",
          "type": "uint256"
        },
        {
          "name": "uinventorAddress",
          "type": "address"
        },
        {
          "name": "uinventionAddress",
          "type": "address"
        }
      ],
      "payable": false,
      "stateMutability": "view",
      "type": "function"
    },
    {
      "constant": false,
      "inputs": [
        {
          "name": "newOwner",
          "type": "address"
        }
      ],
      "name": "transferOwnership",
      "outputs": [],
      "payable": false,
      "stateMutability": "nonpayable",
      "type": "function"
    },
    {
      "constant": true,
      "inputs": [
        {
          "name": "",
          "type": "uint256"
        }
      ],
      "name": "ideaRepCounter",
      "outputs": [
        {
          "name": "",
          "type": "uint256"
        }
      ],
      "payable": false,
      "stateMutability": "view",
      "type": "function"
    },
    {
      "constant": true,
      "inputs": [],
      "name": "Validators",
      "outputs": [
        {
          "name": "",
          "type": "address"
        }
      ],
      "payable": false,
      "stateMutability": "view",
      "type": "function"
    },
    {
      "constant": true,
      "inputs": [],
      "name": "globalIdeaPropCount",
      "outputs": [
        {
          "name": "",
          "type": "uint256"
        }
      ],
      "payable": false,
      "stateMutability": "view",
      "type": "function"
    },
    {
      "anonymous": false,
      "inputs": [
        {
          "indexed": false,
          "name": "IPFS",
          "type": "string"
        }
      ],
      "name": "IdeaProposed",
      "type": "event"
    },
    {
      "anonymous": false,
      "inputs": [
        {
          "indexed": false,
          "name": "member",
          "type": "address"
        }
      ],
      "name": "NewMember",
      "type": "event"
    },
    {
      "anonymous": false,
      "inputs": [
        {
          "indexed": false,
          "name": "IPFS",
          "type": "string"
        },
        {
          "indexed": false,
          "name": "Inventor",
          "type": "address"
        }
      ],
      "name": "IdeaApproved",
      "type": "event"
    },
    {
      "anonymous": false,
      "inputs": [
        {
          "indexed": false,
          "name": "_voter",
          "type": "address"
        },
        {
          "indexed": false,
          "name": "inSupport",
          "type": "bool"
        }
      ],
      "name": "Voted",
      "type": "event"
    },
    {
      "anonymous": false,
      "inputs": [
        {
          "indexed": false,
          "name": "_repAdd",
          "type": "address"
        },
        {
          "indexed": false,
          "name": "repOwner",
          "type": "address"
        }
      ],
      "name": "NewReplication",
      "type": "event"
    },
    {
      "anonymous": false,
      "inputs": [
        {
          "indexed": false,
          "name": "repAdd",
          "type": "address"
        },
        {
          "indexed": false,
          "name": "reOwner",
          "type": "address"
        },
        {
          "indexed": false,
          "name": "repWeight",
          "type": "uint256"
        }
      ],
      "name": "LocalUseWeight",
      "type": "event"
    },
    {
      "anonymous": false,
      "inputs": [
        {
          "indexed": false,
          "name": "repAdd",
          "type": "address"
        },
        {
          "indexed": false,
          "name": "reOwner",
          "type": "address"
        },
        {
          "indexed": false,
          "name": "ideaId",
          "type": "uint256"
        }
      ],
      "name": "GlobalUseBlock",
      "type": "event"
    },
    {
      "anonymous": false,
      "inputs": [
        {
          "indexed": true,
          "name": "previousOwner",
          "type": "address"
        },
        {
          "indexed": true,
          "name": "newOwner",
          "type": "address"
        }
      ],
      "name": "OwnershipTransferred",
      "type": "event"
    },
    {
      "constant": false,
      "inputs": [
        {
          "name": "_ideaIPFS",
          "type": "string"
        },
        {
          "name": "_globalUseBlockAmount",
          "type": "uint256"
        },
        {
          "name": "_miningTime",
          "type": "uint256"
        },
        {
          "name": "_royalty",
          "type": "uint256"
        },
        {
          "name": "_stakeAmount",
          "type": "uint256"
        },
        {
          "name": "_levelRequirement",
          "type": "uint256"
        },
        {
          "name": "_inventor",
          "type": "address"
        },
        {
          "name": "_invention",
          "type": "address"
        }
      ],
      "name": "proposeIdea",
      "outputs": [],
      "payable": false,
      "stateMutability": "nonpayable",
      "type": "function"
    },
    {
      "constant": true,
      "inputs": [
        {
          "name": "numerator",
          "type": "uint256"
        },
        {
          "name": "denominator",
          "type": "uint256"
        },
        {
          "name": "precision",
          "type": "uint256"
        }
      ],
      "name": "percent",
      "outputs": [
        {
          "name": "quotient",
          "type": "uint256"
        }
      ],
      "payable": false,
      "stateMutability": "pure",
      "type": "function"
    },
    {
      "constant": true,
      "inputs": [
        {
          "name": "numOfvotes",
          "type": "uint256"
        },
        {
          "name": "numOfmem",
          "type": "uint256"
        }
      ],
      "name": "setVoteQuorum",
      "outputs": [
        {
          "name": "",
          "type": "bool"
        }
      ],
      "payable": false,
      "stateMutability": "pure",
      "type": "function"
    },
    {
      "constant": true,
      "inputs": [
        {
          "name": "numOfvotes",
          "type": "uint256"
        },
        {
          "name": "numOfmem",
          "type": "uint256"
        }
      ],
      "name": "setVoteNumberQuorum",
      "outputs": [
        {
          "name": "",
          "type": "bool"
        }
      ],
      "payable": false,
      "stateMutability": "pure",
      "type": "function"
    },
    {
      "constant": false,
      "inputs": [
        {
          "name": "_ideaProposalID",
          "type": "uint256"
        },
        {
          "name": "supportsProposal",
          "type": "bool"
        }
      ],
      "name": "ideaVote",
      "outputs": [],
      "payable": false,
      "stateMutability": "nonpayable",
      "type": "function"
    },
    {
      "constant": true,
      "inputs": [
        {
          "name": "_add",
          "type": "address"
        },
        {
          "name": "_ideaProposalID",
          "type": "uint256"
        }
      ],
      "name": "checkIfVotedIdea",
      "outputs": [
        {
          "name": "",
          "type": "bool"
        }
      ],
      "payable": false,
      "stateMutability": "view",
      "type": "function"
    },
    {
      "constant": true,
      "inputs": [
        {
          "name": "hash",
          "type": "string"
        }
      ],
      "name": "getPropID",
      "outputs": [
        {
          "name": "",
          "type": "uint256"
        }
      ],
      "payable": false,
      "stateMutability": "view",
      "type": "function"
    },
    {
      "constant": true,
      "inputs": [
        {
          "name": "_mem",
          "type": "address"
        }
      ],
      "name": "getOwnedIB",
      "outputs": [
        {
          "name": "",
          "type": "uint256[]"
        }
      ],
      "payable": false,
      "stateMutability": "view",
      "type": "function"
    },
    {
      "constant": false,
      "inputs": [
        {
          "name": "_newOwner",
          "type": "address"
        },
        {
          "name": "_ideaProposalID",
          "type": "uint256"
        }
      ],
      "name": "transferIdeaBlock",
      "outputs": [],
      "payable": false,
      "stateMutability": "nonpayable",
      "type": "function"
    }
  ],
  "bytecode": "0x6080604052612959806100136000396000f3fe608060405234801561001057600080fd5b50600436106101d95760003560e01c80637582497411610104578063cec58644116100a2578063f2fde38b11610071578063f2fde38b14610ddd578063f54a012914610e21578063f691977414610e63578063f7e1e4f014610ead576101d9565b8063cec5864414610bac578063d436b5e914610bfc578063e026daa114610c58578063ee01309614610ca2576101d9565b80638da9c0b6116100de5780638da9c0b614610aa05780638f32d59b14610aee578063c4d66de814610b10578063ce87d3ee14610b54576101d9565b806375824974146109f657806381cbb67714610a145780638da5cb5b14610a56576101d9565b80632240d03b1161017c5780634f214e841161014b5780634f214e84146106c8578063649298b4146107205780636849e7951461084e578063715018a6146109ec576101d9565b80632240d03b1461059257806328a6e47c146105e25780632e858cce146106005780634e6a363014610662576101d9565b806314111141116101b8578063141111411461035b5780631855efa6146103955780631ad8a201146104db5780631ddc883b14610574576101d9565b80622c1a9e146101de57806310734e431461023457806311e6584414610303575b600080fd5b61021e600480360360608110156101f457600080fd5b81019080803590602001909291908035906020019092919080359060200190929190505050610ecb565b6040518082815260200191505060405180910390f35b6102ed6004803603602081101561024a57600080fd5b810190808035906020019064010000000081111561026757600080fd5b82018360208201111561027957600080fd5b8035906020019184600183028401116401000000008311171561029b57600080fd5b91908080601f016020809104026020016040519081016040528093929190818152602001838380828437600081840152601f19601f820116905080830192505050505050509192919290505050610f00565b6040518082815260200191505060405180910390f35b6103456004803603602081101561031957600080fd5b81019080803573ffffffffffffffffffffffffffffffffffffffff169060200190929190505050610f73565b6040518082815260200191505060405180910390f35b6103936004803603604081101561037157600080fd5b8101908080359060200190929190803515159060200190929190505050610f8b565b005b6103c1600480360360208110156103ab57600080fd5b8101908080359060200190929190505050611430565b60405180806020018b1515151581526020018a1515151581526020018981526020018881526020018781526020018681526020018581526020018473ffffffffffffffffffffffffffffffffffffffff1673ffffffffffffffffffffffffffffffffffffffff1681526020018373ffffffffffffffffffffffffffffffffffffffff1673ffffffffffffffffffffffffffffffffffffffff16815260200182810382528c818151815260200191508051906020019080838360005b8381101561049757808201518184015260208101905061047c565b50505050905090810190601f1680156104c45780820380516001836020036101000a031916815260200191505b509b50505050505050505050505060405180910390f35b61051d600480360360208110156104f157600080fd5b81019080803573ffffffffffffffffffffffffffffffffffffffff169060200190929190505050611576565b6040518080602001828103825283818151815260200191508051906020019060200280838360005b83811015610560578082015181840152602081019050610545565b505050509050019250505060405180910390f35b61057c61160d565b6040518082815260200191505060405180910390f35b6105c8600480360360408110156105a857600080fd5b810190808035906020019092919080359060200190929190505050611613565b604051808215151515815260200191505060405180910390f35b6105ea611642565b6040518082815260200191505060405180910390f35b61064c6004803603604081101561061657600080fd5b81019080803573ffffffffffffffffffffffffffffffffffffffff16906020019092919080359060200190929190505050611648565b6040518082815260200191505060405180910390f35b6106ae6004803603604081101561067857600080fd5b81019080803573ffffffffffffffffffffffffffffffffffffffff1690602001909291908035906020019092919050505061166d565b604051808215151515815260200191505060405180910390f35b61070a600480360360208110156106de57600080fd5b81019080803573ffffffffffffffffffffffffffffffffffffffff1690602001909291905050506116dd565b6040518082815260200191505060405180910390f35b61084c600480360361010081101561073757600080fd5b810190808035906020019064010000000081111561075457600080fd5b82018360208201111561076657600080fd5b8035906020019184600183028401116401000000008311171561078857600080fd5b91908080601f016020809104026020016040519081016040528093929190818152602001838380828437600081840152601f19601f8201169050808301925050505050505091929192908035906020019092919080359060200190929190803590602001909291908035906020019092919080359060200190929190803573ffffffffffffffffffffffffffffffffffffffff169060200190929190803573ffffffffffffffffffffffffffffffffffffffff1690602001909291905050506116f5565b005b6108906004803603602081101561086457600080fd5b81019080803573ffffffffffffffffffffffffffffffffffffffff16906020019092919050505061194f565b604051808981526020018881526020018781526020018673ffffffffffffffffffffffffffffffffffffffff1673ffffffffffffffffffffffffffffffffffffffff1681526020018573ffffffffffffffffffffffffffffffffffffffff1673ffffffffffffffffffffffffffffffffffffffff1681526020018473ffffffffffffffffffffffffffffffffffffffff1673ffffffffffffffffffffffffffffffffffffffff1681526020018373ffffffffffffffffffffffffffffffffffffffff1673ffffffffffffffffffffffffffffffffffffffff16815260200180602001828103825283818151815260200191508051906020019080838360005b838110156109aa57808201518184015260208101905061098f565b50505050905090810190601f1680156109d75780820380516001836020036101000a031916815260200191505b50995050505050505050505060405180910390f35b6109f4611aaf565b005b6109fe611b81565b6040518082815260200191505060405180910390f35b610a4060048036036020811015610a2a57600080fd5b8101908080359060200190929190505050611b87565b6040518082815260200191505060405180910390f35b610a5e611b9f565b604051808273ffffffffffffffffffffffffffffffffffffffff1673ffffffffffffffffffffffffffffffffffffffff16815260200191505060405180910390f35b610aec60048036036040811015610ab657600080fd5b81019080803573ffffffffffffffffffffffffffffffffffffffff16906020019092919080359060200190929190505050611bc9565b005b610af6611c84565b604051808215151515815260200191505060405180910390f35b610b5260048036036020811015610b2657600080fd5b81019080803573ffffffffffffffffffffffffffffffffffffffff169060200190929190505050611ce3565b005b610b9660048036036020811015610b6a57600080fd5b81019080803573ffffffffffffffffffffffffffffffffffffffff169060200190929190505050611ea1565b6040518082815260200191505060405180910390f35b610be260048036036040811015610bc257600080fd5b810190808035906020019092919080359060200190929190505050611eb9565b604051808215151515815260200191505060405180910390f35b610c3e60048036036020811015610c1257600080fd5b81019080803573ffffffffffffffffffffffffffffffffffffffff169060200190929190505050611ee8565b604051808215151515815260200191505060405180910390f35b610c60611f08565b604051808273ffffffffffffffffffffffffffffffffffffffff1673ffffffffffffffffffffffffffffffffffffffff16815260200191505060405180910390f35b610cce60048036036020811015610cb857600080fd5b8101908080359060200190929190505050611f2e565b60405180806020018a1515151581526020018981526020018881526020018781526020018681526020018581526020018473ffffffffffffffffffffffffffffffffffffffff1673ffffffffffffffffffffffffffffffffffffffff1681526020018373ffffffffffffffffffffffffffffffffffffffff1673ffffffffffffffffffffffffffffffffffffffff16815260200182810382528b818151815260200191508051906020019080838360005b83811015610d9a578082015181840152602081019050610d7f565b50505050905090810190601f168015610dc75780820380516001836020036101000a031916815260200191505b509a505050505050505050505060405180910390f35b610e1f60048036036020811015610df357600080fd5b81019080803573ffffffffffffffffffffffffffffffffffffffff169060200190929190505050612061565b005b610e4d60048036036020811015610e3757600080fd5b810190808035906020019092919050505061207e565b6040518082815260200191505060405180910390f35b610e6b612096565b604051808273ffffffffffffffffffffffffffffffffffffffff1673ffffffffffffffffffffffffffffffffffffffff16815260200191505060405180910390f35b610eb56120bc565b6040518082815260200191505060405180910390f35b60008060018301600a0a850290506000600a6005868481610ee857fe5b040181610ef157fe5b04905080925050509392505050565b60006076826040518082805190602001908083835b60208310610f385780518252602082019150602081019050602083039250610f15565b6001836020036101000a0380198251168184511680821785525050505050509050019150509081526020016040518091039020549050919050565b60726020528060005260406000206000915090505481565b60011515606660009054906101000a900473ffffffffffffffffffffffffffffffffffffffff1673ffffffffffffffffffffffffffffffffffffffff1663aaa746bb336040518263ffffffff1660e01b8152600401808273ffffffffffffffffffffffffffffffffffffffff1673ffffffffffffffffffffffffffffffffffffffff16815260200191505060206040518083038186803b15801561102e57600080fd5b505afa158015611042573d6000803e3d6000fd5b505050506040513d602081101561105857600080fd5b810190808051906020019092919050505015151461107557600080fd5b6000606d600084815260200190815260200160002090506001151581600a0160003373ffffffffffffffffffffffffffffffffffffffff1673ffffffffffffffffffffffffffffffffffffffff16815260200190815260200160002060009054906101000a900460ff16151514156110ec57600080fd5b600115158160010160019054906101000a900460ff161515141561110f57600080fd5b600081600901805480919060010161112791906127d4565b9050604051806040016040528084151581526020013373ffffffffffffffffffffffffffffffffffffffff1681525082600901828154811061116557fe5b9060005260206000200160008201518160000160006101000a81548160ff02191690831515021790555060208201518160000160016101000a81548173ffffffffffffffffffffffffffffffffffffffff021916908373ffffffffffffffffffffffffffffffffffffffff160217905550905050600182600a0160003373ffffffffffffffffffffffffffffffffffffffff1673ffffffffffffffffffffffffffffffffffffffff16815260200190815260200160002060006101000a81548160ff021916908315150217905550606660009054906101000a900473ffffffffffffffffffffffffffffffffffffffff1673ffffffffffffffffffffffffffffffffffffffff16634777e8ea336040518263ffffffff1660e01b8152600401808273ffffffffffffffffffffffffffffffffffffffff1673ffffffffffffffffffffffffffffffffffffffff168152602001915050600060405180830381600087803b1580156112d457600080fd5b505af11580156112e8573d6000803e3d6000fd5b505050507f8eb81cb806dbb3d8a2f94981614331a55dfd90e06a42fdc362ca3ca96981d92f3384604051808373ffffffffffffffffffffffffffffffffffffffff1673ffffffffffffffffffffffffffffffffffffffff168152602001821515151581526020019250505060405180910390a16000606660009054906101000a900473ffffffffffffffffffffffffffffffffffffffff1673ffffffffffffffffffffffffffffffffffffffff1663997072f76040518163ffffffff1660e01b815260040160206040518083038186803b1580156113c557600080fd5b505afa1580156113d9573d6000803e3d6000fd5b505050506040513d60208110156113ef57600080fd5b810190808051906020019092919050505090506000611415846009018054905083611eb9565b905080156114285761142786836120c2565b5b505050505050565b606d602052806000526040600020600091509050806000018054600181600116156101000203166002900480601f0160208091040260200160405190810160405280929190818152602001828054600181600116156101000203166002900480156114dc5780601f106114b1576101008083540402835291602001916114dc565b820191906000526020600020905b8154815290600101906020018083116114bf57829003601f168201915b5050505050908060010160009054906101000a900460ff16908060010160019054906101000a900460ff16908060020154908060030154908060040154908060050154908060060154908060070160009054906101000a900473ffffffffffffffffffffffffffffffffffffffff16908060080160009054906101000a900473ffffffffffffffffffffffffffffffffffffffff1690508a565b6060607760008373ffffffffffffffffffffffffffffffffffffffff1673ffffffffffffffffffffffffffffffffffffffff16815260200190815260200160002080548060200260200160405190810160405280929190818152602001828054801561160157602002820191906000526020600020905b8154815260200190600101908083116115ed575b50505050509050919050565b60695481565b60008061162284846002610ecb565b9050603c811061163657600191505061163c565b60009150505b92915050565b60685481565b6075602052816000526040600020602052806000526040600020600091509150505481565b600080606d6000848152602001908152602001600020905080600a0160008573ffffffffffffffffffffffffffffffffffffffff1673ffffffffffffffffffffffffffffffffffffffff16815260200190815260200160002060009054906101000a900460ff1691505092915050565b606c6020528060005260406000206000915090505481565b606a60008154809291906001019190505550606a546076896040518082805190602001908083835b60208310611740578051825260208201915060208101905060208303925061171d565b6001836020036101000a038019825116818451168082178552505050505050905001915050908152602001604051809103902081905550600060648689028161178557fe5b0490506000606d6000606a5481526020019081526020016000209050898160000190805190602001906117b9929190612800565b5060008160010160006101000a81548160ff02191690831515021790555060008160010160016101000a81548160ff021916908315150217905550888160020181905550818160030181905550858160050181905550848160060181905550878160040181905550838160070160006101000a81548173ffffffffffffffffffffffffffffffffffffffff021916908373ffffffffffffffffffffffffffffffffffffffff160217905550828160080160006101000a81548173ffffffffffffffffffffffffffffffffffffffff021916908373ffffffffffffffffffffffffffffffffffffffff1602179055507f544a88757adcb29711e2e12a617fb44221880d5013615cf2dbbdb37f5d5059738a6040518080602001828103825283818151815260200191508051906020019080838360005b838110156119095780820151818401526020810190506118ee565b50505050905090810190601f1680156119365780820380516001836020036101000a031916815260200191505b509250505060405180910390a150505050505050505050565b60746020528060005260406000206000915090508060000154908060010154908060020154908060030160009054906101000a900473ffffffffffffffffffffffffffffffffffffffff16908060040160009054906101000a900473ffffffffffffffffffffffffffffffffffffffff16908060050160009054906101000a900473ffffffffffffffffffffffffffffffffffffffff16908060060160009054906101000a900473ffffffffffffffffffffffffffffffffffffffff1690806007018054600181600116156101000203166002900480601f016020809104026020016040519081016040528092919081815260200182805460018160011615610100020316600290048015611aa55780601f10611a7a57610100808354040283529160200191611aa5565b820191906000526020600020905b815481529060010190602001808311611a8857829003601f168201915b5050505050905088565b611ab7611c84565b611ac057600080fd5b600073ffffffffffffffffffffffffffffffffffffffff16603360009054906101000a900473ffffffffffffffffffffffffffffffffffffffff1673ffffffffffffffffffffffffffffffffffffffff167f8be0079c531659141344cd1fd0a4f28419497f9722a3daafe3b4186f6b6457e060405160405180910390a36000603360006101000a81548173ffffffffffffffffffffffffffffffffffffffff021916908373ffffffffffffffffffffffffffffffffffffffff160217905550565b606b5481565b606f6020528060005260406000206000915090505481565b6000603360009054906101000a900473ffffffffffffffffffffffffffffffffffffffff16905090565b6000606d600083815260200190815260200160002090508060070160009054906101000a900473ffffffffffffffffffffffffffffffffffffffff1673ffffffffffffffffffffffffffffffffffffffff163373ffffffffffffffffffffffffffffffffffffffff1614611c3c57600080fd5b828160070160006101000a81548173ffffffffffffffffffffffffffffffffffffffff021916908373ffffffffffffffffffffffffffffffffffffffff160217905550505050565b6000603360009054906101000a900473ffffffffffffffffffffffffffffffffffffffff1673ffffffffffffffffffffffffffffffffffffffff16611cc7612683565b73ffffffffffffffffffffffffffffffffffffffff1614905090565b600060019054906101000a900460ff1680611d025750611d0161268b565b5b80611d1957506000809054906101000a900460ff16155b611d6e576040517f08c379a000000000000000000000000000000000000000000000000000000000815260040180806020018281038252602e815260200180612900602e913960400191505060405180910390fd5b60008060019054906101000a900460ff161590508015611dbe576001600060016101000a81548160ff02191690831515021790555060016000806101000a81548160ff0219169083151502179055505b81603360006101000a81548173ffffffffffffffffffffffffffffffffffffffff021916908373ffffffffffffffffffffffffffffffffffffffff160217905550603360009054906101000a900473ffffffffffffffffffffffffffffffffffffffff1673ffffffffffffffffffffffffffffffffffffffff16600073ffffffffffffffffffffffffffffffffffffffff167f8be0079c531659141344cd1fd0a4f28419497f9722a3daafe3b4186f6b6457e060405160405180910390a38015611e9d5760008060016101000a81548160ff0219169083151502179055505b5050565b60706020528060005260406000206000915090505481565b600080611ec884846002610ecb565b905060508110611edc576001915050611ee2565b60009150505b92915050565b60736020528060005260406000206000915054906101000a900460ff1681565b606660009054906101000a900473ffffffffffffffffffffffffffffffffffffffff1681565b606e602052806000526040600020600091509050806000018054600181600116156101000203166002900480601f016020809104026020016040519081016040528092919081815260200182805460018160011615610100020316600290048015611fda5780601f10611faf57610100808354040283529160200191611fda565b820191906000526020600020905b815481529060010190602001808311611fbd57829003601f168201915b5050505050908060010160009054906101000a900460ff16908060020154908060030154908060040154908060050154908060060154908060070160009054906101000a900473ffffffffffffffffffffffffffffffffffffffff16908060080160009054906101000a900473ffffffffffffffffffffffffffffffffffffffff16905089565b612069611c84565b61207257600080fd5b61207b8161269c565b50565b60716020528060005260406000206000915090505481565b606760009054906101000a900473ffffffffffffffffffffffffffffffffffffffff1681565b606a5481565b6000606d60008481526020019081526020016000209050600080905060008090505b826009018054905081101561213a57600083600901828154811061210457fe5b9060005260206000200190508060000160009054906101000a900460ff161561212e576001830192505b508060010190506120e4565b5060006121478285611613565b905080156126415760018360010160006101000a81548160ff02191690831515021790555060018360010160016101000a81548160ff02191690831515021790555084606c60008560080160009054906101000a900473ffffffffffffffffffffffffffffffffffffffff1673ffffffffffffffffffffffffffffffffffffffff1673ffffffffffffffffffffffffffffffffffffffff168152602001908152602001600020819055506121f9612796565b50606760009054906101000a900473ffffffffffffffffffffffffffffffffffffffff1673ffffffffffffffffffffffffffffffffffffffff16634d238c8e8460080160009054906101000a900473ffffffffffffffffffffffffffffffffffffffff166040518263ffffffff1660e01b8152600401808273ffffffffffffffffffffffffffffffffffffffff1673ffffffffffffffffffffffffffffffffffffffff168152602001915050600060405180830381600087803b1580156122bf57600080fd5b505af11580156122d3573d6000803e3d6000fd5b50505050606660009054906101000a900473ffffffffffffffffffffffffffffffffffffffff1673ffffffffffffffffffffffffffffffffffffffff16636326e4ce8460070160009054906101000a900473ffffffffffffffffffffffffffffffffffffffff166069546040518363ffffffff1660e01b8152600401808373ffffffffffffffffffffffffffffffffffffffff1673ffffffffffffffffffffffffffffffffffffffff16815260200182815260200192505050600060405180830381600087803b1580156123a657600080fd5b505af11580156123ba573d6000803e3d6000fd5b50505050606660009054906101000a900473ffffffffffffffffffffffffffffffffffffffff1673ffffffffffffffffffffffffffffffffffffffff16634777e8ea8460070160009054906101000a900473ffffffffffffffffffffffffffffffffffffffff166040518263ffffffff1660e01b8152600401808273ffffffffffffffffffffffffffffffffffffffff1673ffffffffffffffffffffffffffffffffffffffff168152602001915050600060405180830381600087803b15801561248357600080fd5b505af1158015612497573d6000803e3d6000fd5b50505050607760008460070160009054906101000a900473ffffffffffffffffffffffffffffffffffffffff1673ffffffffffffffffffffffffffffffffffffffff1673ffffffffffffffffffffffffffffffffffffffff1681526020019081526020016000208590806001815401808255809150509060018203906000526020600020016000909192909190915055507f8e83e1ec5969ae12ba675f003533b12076070b84710d8e23b9d1aee5b48b02e1836000018460070160009054906101000a900473ffffffffffffffffffffffffffffffffffffffff1660405180806020018373ffffffffffffffffffffffffffffffffffffffff1673ffffffffffffffffffffffffffffffffffffffff16815260200182810382528481815460018160011615610100020316600290048152602001915080546001816001161561010002031660029004801561262d5780601f106126025761010080835404028352916020019161262d565b820191906000526020600020905b81548152906001019060200180831161261057829003601f168201915b5050935050505060405180910390a161267c565b60008360010160016101000a81548160ff02191690831515021790555060018360010160006101000a81548160ff0219169083151502179055505b5050505050565b600033905090565b600080303b90506000811491505090565b600073ffffffffffffffffffffffffffffffffffffffff168173ffffffffffffffffffffffffffffffffffffffff1614156126d657600080fd5b8073ffffffffffffffffffffffffffffffffffffffff16603360009054906101000a900473ffffffffffffffffffffffffffffffffffffffff1673ffffffffffffffffffffffffffffffffffffffff167f8be0079c531659141344cd1fd0a4f28419497f9722a3daafe3b4186f6b6457e060405160405180910390a380603360006101000a81548173ffffffffffffffffffffffffffffffffffffffff021916908373ffffffffffffffffffffffffffffffffffffffff16021790555050565b60006305a48fba6068540142106127cb576002606954816127b357fe5b046069819055504260688190555060695490506127d1565b60695490505b90565b8154818355818111156127fb578183600052602060002091820191016127fa9190612880565b5b505050565b828054600181600116156101000203166002900490600052602060002090601f016020900481019282601f1061284157805160ff191683800117855561286f565b8280016001018555821561286f579182015b8281111561286e578251825591602001919060010190612853565b5b50905061287c91906128da565b5090565b6128d791905b808211156128d357600080820160006101000a81549060ff02191690556000820160016101000a81549073ffffffffffffffffffffffffffffffffffffffff021916905550600101612886565b5090565b90565b6128fc91905b808211156128f85760008160009055506001016128e0565b5090565b9056fe436f6e747261637420696e7374616e63652068617320616c7265616479206265656e20696e697469616c697a6564a165627a7a7230582042af0325292c7327d782d49c5f7a20ab5c147228b61e5aad4f435a100117df640029",
  "source": "pragma solidity ^0.5.0;\nimport \"@openzeppelin/upgrades/contracts/Initializable.sol\";\nimport \"@openzeppelin/contracts-ethereum-package/contracts/ownership/Ownable.sol\";\n////////////////////////////////////////////////////////////////////////////////////////////\n/// @title Interface Contract for the CryptoPatent Blockchain\n/// @author DecentraCorp\n/// @notice this contract is built using the Ownership contract from the zeppelin-solidity library\n/// @dev All function calls are currently implement without side effects\n////////////////////////////////////////////////////////////////////////////////////////////\ncontract DecentraCorp {\n  function proxyNTCMint(address _add, uint _amount) external;\n  function proxyNTCBurn(address _add, uint _amount) external;\n  function _addMember(address _mem, string calldata _userId) external;\n  function _checkIfMember(address _member) public view returns(bool);\n  function increaseMemLev(address _add) external;\n  function setProfileHash(address _add, string memory _hash) public;\n  function getMemberCount() public view returns(uint);\n  function getAddFromPass(string memory _userId) public view returns(address);\n  function getLevel(address _add) public view returns(uint);\n}\n/// DecentraCorp PoA inteface\n////////////////////////////////////////////////////////////////////////////////////////////\n  contract RelayedOwnedSet {\n    \tfunction addValidator(address _validator) external;\n  }\n/// Validator contract interface\n/////////////////////////////////////////////////////////////////////////////////////////////\ncontract IdeaBlockLogic is Initializable, Ownable {\n\n  DecentraCorp public DCPoA;\n  RelayedOwnedSet public Validators;\n\n\n  ///@param globalBlockHalfTime used to track when the ideaBlockReward should be halved\n  ///@param ideaBlockReward set to 1000 DCPoA\n  ///@param repStake set to 100 DCPoA\n\n  uint public globalBlockHalfTime;\n  uint public ideaBlockReward;\n  uint public globalIdeaPropCount;\n  uint public globalUseBlock;\n\n  ///@param ideaVariables maps a token number to an ideas variables\n  ///@param IdeaAddToId maps an Ideas address to its ID number\n\n  mapping(address => uint) public IdeaAddToId;\n  mapping(uint => IdeaProposal) public ideaProposals;\n  mapping(uint => IdeaUpgradeProposal) public ideaUpgradeProposals;\n  mapping(uint => uint) public weightTracker;\n  mapping(address => uint) public localWeightTracker;\n\n  ///@param ideaRepCounter tracks the total number of replications for a specific idea\n  ///@param repInfo maps a reps address to its information\n  ///@param repOwnes tracks how many of a specific type of replication a replicator owns(this is for pool mining)\n  mapping(uint => uint) public ideaRepCounter;\n  mapping(address => uint) public localMiningtimeTracker;\n  mapping(address => bool) public replications;\n  mapping(address => ReplicationInfo) public repInfo;\n  mapping(address => mapping(uint => uint)) public repOwnes;\n  mapping(string => uint) getHash;\n  mapping(address => uint[]) ideaBlocksOwned;\n\n\n  event IdeaProposed(string IPFS);\n  event NewMember(address member);\n  event IdeaApproved(string IPFS, address Inventor);\n  event Voted(address _voter, bool inSupport);\n  event NewReplication(address _repAdd, address repOwner);\n  event LocalUseWeight(address repAdd, address reOwner, uint repWeight);\n  event GlobalUseBlock(address repAdd, address reOwner, uint ideaId);\n\n\n  ///@struct IdeaProposal stores info of a proposal\n  struct IdeaProposal {\n       string IdeaIPFS;\n       bool IdeaBlock;\n       bool executed;\n       uint globalUseBlockAmount;\n       uint royalty;\n       uint miningTime;\n       uint stakeAmount;\n       uint levelRequirement;\n       address inventorAddress;\n       address inventionAddress;\n       Vote[] votes;\n       mapping (address => bool) voted;\n   }\n\n\n   struct IdeaUpgradeProposal {\n        string uIdeaIPFS;\n        bool uexecuted;\n        uint uglobalUseBlockAmount;\n        uint uroyalty;\n        uint uminingTime;\n        uint ustakeAmount;\n        uint ulevelRequirement;\n        address uinventorAddress;\n        address uinventionAddress;\n        Vote[] uvotes;\n        mapping (address => bool) uvoted;\n    }\n\n\n  struct Vote {\n          bool inSupport;\n          address voter;\n  }\n\n\n\n  //@struct ReplicationInfo stores replication information\n  struct ReplicationInfo {\n    uint BlockReward;\n    uint IdeaID;\n    uint Royalty;\n    address InventorsAddress;\n    address ReplicationAddress;\n    address ReplicationMember;\n    address OwnersAddress;\n    string DeviceLockHash;\n  }\n\n\n  ///@notice proposeIdea is used to allow ANYONE to petition the community for idea approval\n  ///@dev the struct for this is set in interface.solidity\n  ///@dev idea proposals are put up for community approval\n  function proposeIdea(\n    string memory _ideaIPFS,\n    uint _globalUseBlockAmount,\n    uint _miningTime,\n    uint _royalty,\n    uint _stakeAmount,\n    uint _levelRequirement,\n    address _inventor,\n    address _invention\n  ) public {\n          globalIdeaPropCount++;\n\n          getHash[_ideaIPFS] = globalIdeaPropCount;\n\n          uint royalty = _globalUseBlockAmount * _royalty / 100;\n\n          IdeaProposal storage p = ideaProposals[globalIdeaPropCount];\n          p.IdeaIPFS = _ideaIPFS;\n          p.IdeaBlock = false;\n          p.executed = false;\n          p.globalUseBlockAmount = _globalUseBlockAmount;\n          p.royalty = royalty;\n          p.stakeAmount = _stakeAmount;\n          p.levelRequirement = _levelRequirement;\n          p.miningTime = _miningTime;\n          p.inventorAddress = _inventor;\n          p.inventionAddress = _invention;\n          emit IdeaProposed(_ideaIPFS);\n  }\n\n  ///@notice ideaBlockTimeLord is called to half an ideablock reward every two years\n  ///@dev this time may need to be adjusted to 4 years depending on predicted inflation patterns of DCPoA\n    function ideaBlockTimeLord() internal returns(uint){\n      if(now >= globalBlockHalfTime + 94670778) {\n        ideaBlockReward = ideaBlockReward / 2;\n        globalBlockHalfTime = now;\n        return ideaBlockReward;\n        }else{\n        return ideaBlockReward;\n      }\n    }\n    ///@notice set_Quorum is an internal function used by proposal vote counts to see if the community approves\n    ///@dev quorum is set to 60%\n        function percent(uint numerator, uint denominator, uint precision) public pure returns(uint quotient) {\n               // caution, check safe-to-multiply here\n                uint _numerator  = numerator * 10 ** (precision+1);\n              // with rounding of last digit\n                uint _quotient =  ((_numerator / denominator) + 5) / 10;\n                return ( _quotient);\n              }\n\n        function setVoteQuorum(uint numOfvotes, uint numOfmem) public pure returns(bool) {\n                  uint percOfMemVoted = percent(numOfvotes, numOfmem, 2 );\n                   if(percOfMemVoted >= 80) {\n                       return true;\n                   } else {\n                       return false;\n                   }\n                }\n\n        function setVoteNumberQuorum(uint numOfvotes, uint numOfmem) public pure returns(bool) {\n                  uint percOfMemVoted = percent(numOfvotes, numOfmem, 2 );\n                     if(percOfMemVoted >= 60) {\n                           return true;\n                       } else {\n                           return false;\n                           }\n                        }\n\n\n                        ///@notice vote is a member only function which allows DecentraCorp members to vote on proposalPassed\n\n        function ideaVote(\n              uint _ideaProposalID,\n              bool supportsProposal\n              )\n                public\n\n                {\n                    require(DCPoA._checkIfMember(msg.sender) == true);\n                    IdeaProposal storage p = ideaProposals[_ideaProposalID];\n                  //makes the proposal an object, p\n                    require(p.voted[msg.sender] != true);\n                  //requires that the person calling the function hasnt voted yet\n                    require(p.executed != true);\n                  //requires the proposal hasnt been executed yet\n                    uint voteID = p.votes.length++;\n                  //sets voteID to the length of the votes array for that proposal\n                    p.votes[voteID] = Vote({inSupport: supportsProposal, voter: msg.sender});\n                  //sets the individual Vote struct  properties to a voteID within votes struct array\n                    p.voted[msg.sender] = true;\n                  //sets the voter to true so they cant vote twice\n                    DCPoA.increaseMemLev(msg.sender);\n                  //increases the members level for voting\n                    emit Voted(msg.sender, supportsProposal);\n                  //emits Voted event\n                    uint maxQuorum = DCPoA.getMemberCount();\n                  //sets maxQuorum equal to total # of members\n                    bool tally = setVoteQuorum(p.votes.length, maxQuorum);\n                                //sets tally to either true of false depending if the # of members that have voted\n                                //must be greater than 80% of the total # of members\n                                if(tally) {\n                                  ideaBlockVote(_ideaProposalID, maxQuorum);\n                                  //fires of the vote tally function\n                                }\n                            }\n\n\n    // allows members to vote on proposals\n      ///@notice ideaBlockVote counts the votes and executes and Idea Proposal, adding an idea to the cryptopatent Blockchain\n      ///@dev seperate but similiar structures will need to be implemented in the future to stream line voting on different subjects(beta)\n          function ideaBlockVote(uint _ideaProposalID, uint maxQuorum) internal {\n                    IdeaProposal storage p = ideaProposals[_ideaProposalID];\n                     // sets p equal to the specific proposalNumbers struct\n                      uint yea = 0;\n\n\n                            for (uint i = 0; i <  p.votes.length; ++i) {\n                                Vote storage v = p.votes[i];\n\n                                if (v.inSupport) {\n                                  yea += 1;\n                                     }\n                                  }\n\n                    bool passes = setVoteNumberQuorum(yea, maxQuorum);\n                              //checks if the number of yea votes is 60% or more of the total number of members\n                              if (passes) {\n                                     // Proposal passed; execute the transaction\n                                       p.IdeaBlock = true;\n                                       p.executed = true;\n                                       IdeaAddToId[p.inventionAddress] = _ideaProposalID;\n                                       ideaBlockTimeLord();\n                                       Validators.addValidator(p.inventionAddress);\n                                       DCPoA.proxyNTCMint( p.inventorAddress, ideaBlockReward);\n                                       DCPoA.increaseMemLev(p.inventorAddress);\n                                       ideaBlocksOwned[p.inventorAddress].push(_ideaProposalID);\n                                       emit IdeaApproved( p.IdeaIPFS, p.inventorAddress);\n                                   } else {\n                                         // Proposal failed\n                                       p.executed = false;\n                                       p.IdeaBlock = true;\n                                   }\n                              }\n\n\n        function checkIfVotedIdea(address _add, uint _ideaProposalID) public view returns(bool) {\n                    IdeaProposal storage p = ideaProposals[_ideaProposalID];\n                    return p.voted[_add];\n                }\n\n///@notice getPropID function allows one to rerieve a proposal ID by its ipfs hash\n///@dev getPropID is made for easier front end interaction\n        function getPropID(string memory hash) public view returns(uint){\n                  return getHash[hash];\n              }\n\n        function getOwnedIB(address _mem) public view returns(uint[] memory){\n              return ideaBlocksOwned[_mem];\n              }\n\n        function transferIdeaBlock(address _newOwner, uint _ideaProposalID) public  {\n                IdeaProposal storage p = ideaProposals[_ideaProposalID];\n                require(msg.sender == p.inventorAddress);\n                p.inventorAddress = _newOwner;\n              }\n}\n",
  "sourcePath": "/home/stan36/repos/DecentraCorpContracts/contracts/CryptoPatent/IdeaBlockLogic.sol",
  "compiler": {
    "name": "solc",
    "version": "0.5.8+commit.23d335f2.Emscripten.clang"
  },
  "schemaVersion": "3.0.11",
  "updatedAt": "2019-09-13T18:41:29.197Z",
  "devdoc": {
    "methods": {
      "getPropID(string)": {
        "details": "getPropID is made for easier front end interaction"
      },
      "initialize(address)": {
        "details": "The Ownable constructor sets the original `owner` of the contract to the sender account."
      },
      "isOwner()": {
        "return": "true if `msg.sender` is the owner of the contract."
      },
      "owner()": {
        "return": "the address of the owner."
      },
      "percent(uint256,uint256,uint256)": {
        "details": "quorum is set to 60%"
      },
      "proposeIdea(string,uint256,uint256,uint256,uint256,uint256,address,address)": {
        "details": "the struct for this is set in interface.solidityidea proposals are put up for community approval"
      },
      "renounceOwnership()": {
        "details": "Allows the current owner to relinquish control of the contract. It will not be possible to call the functions with the `onlyOwner` modifier anymore."
      },
      "transferOwnership(address)": {
        "details": "Allows the current owner to transfer control of the contract to a newOwner.",
        "params": {
          "newOwner": "The address to transfer ownership to."
        }
      }
    }
  },
  "userdoc": {
    "methods": {
      "getPropID(string)": {
        "notice": "getPropID function allows one to rerieve a proposal ID by its ipfs hash"
      },
      "ideaVote(uint256,bool)": {
        "notice": "vote is a member only function which allows DecentraCorp members to vote on proposalPassed"
      },
      "percent(uint256,uint256,uint256)": {
        "notice": "set_Quorum is an internal function used by proposal vote counts to see if the community approves"
      },
      "proposeIdea(string,uint256,uint256,uint256,uint256,uint256,address,address)": {
        "notice": "proposeIdea is used to allow ANYONE to petition the community for idea approval"
      },
      "renounceOwnership()": {
        "notice": "Renouncing ownership will leave the contract without an owner, thereby removing any functionality that is only available to the owner."
      }
    },
    "notice": "Validator contract interface //////////////////////////////////////////////////////////////////////////////////////////"
  }
}