{
  "contractName": "RepBlockLogic",
  "abi": [
    {
      "constant": true,
      "inputs": [
        {
          "name": "numerator",
          "type": "uint256"
        },
        {
          "name": "denominator",
          "type": "uint256"
        },
        {
          "name": "precision",
          "type": "uint256"
        }
      ],
      "name": "percent",
      "outputs": [
        {
          "name": "quotient",
          "type": "uint256"
        }
      ],
      "payable": false,
      "stateMutability": "pure",
      "type": "function"
    },
    {
      "constant": true,
      "inputs": [
        {
          "name": "hash",
          "type": "string"
        }
      ],
      "name": "getPropID",
      "outputs": [
        {
          "name": "",
          "type": "uint256"
        }
      ],
      "payable": false,
      "stateMutability": "view",
      "type": "function"
    },
    {
      "constant": true,
      "inputs": [
        {
          "name": "",
          "type": "address"
        }
      ],
      "name": "localMiningtimeTracker",
      "outputs": [
        {
          "name": "",
          "type": "uint256"
        }
      ],
      "payable": false,
      "stateMutability": "view",
      "type": "function"
    },
    {
      "constant": false,
      "inputs": [
        {
          "name": "_ideaProposalID",
          "type": "uint256"
        },
        {
          "name": "supportsProposal",
          "type": "bool"
        }
      ],
      "name": "ideaVote",
      "outputs": [],
      "payable": false,
      "stateMutability": "nonpayable",
      "type": "function"
    },
    {
      "constant": true,
      "inputs": [
        {
          "name": "",
          "type": "uint256"
        }
      ],
      "name": "ideaProposals",
      "outputs": [
        {
          "name": "IdeaIPFS",
          "type": "string"
        },
        {
          "name": "IdeaBlock",
          "type": "bool"
        },
        {
          "name": "executed",
          "type": "bool"
        },
        {
          "name": "globalUseBlockAmount",
          "type": "uint256"
        },
        {
          "name": "royalty",
          "type": "uint256"
        },
        {
          "name": "miningTime",
          "type": "uint256"
        },
        {
          "name": "stakeAmount",
          "type": "uint256"
        },
        {
          "name": "levelRequirement",
          "type": "uint256"
        },
        {
          "name": "inventorAddress",
          "type": "address"
        },
        {
          "name": "inventionAddress",
          "type": "address"
        }
      ],
      "payable": false,
      "stateMutability": "view",
      "type": "function"
    },
    {
      "constant": true,
      "inputs": [
        {
          "name": "_mem",
          "type": "address"
        }
      ],
      "name": "getOwnedIB",
      "outputs": [
        {
          "name": "",
          "type": "uint256[]"
        }
      ],
      "payable": false,
      "stateMutability": "view",
      "type": "function"
    },
    {
      "constant": true,
      "inputs": [],
      "name": "ideaBlockReward",
      "outputs": [
        {
          "name": "",
          "type": "uint256"
        }
      ],
      "payable": false,
      "stateMutability": "view",
      "type": "function"
    },
    {
      "constant": true,
      "inputs": [
        {
          "name": "numOfvotes",
          "type": "uint256"
        },
        {
          "name": "numOfmem",
          "type": "uint256"
        }
      ],
      "name": "setVoteNumberQuorum",
      "outputs": [
        {
          "name": "",
          "type": "bool"
        }
      ],
      "payable": false,
      "stateMutability": "pure",
      "type": "function"
    },
    {
      "constant": true,
      "inputs": [],
      "name": "globalBlockHalfTime",
      "outputs": [
        {
          "name": "",
          "type": "uint256"
        }
      ],
      "payable": false,
      "stateMutability": "view",
      "type": "function"
    },
    {
      "constant": true,
      "inputs": [
        {
          "name": "",
          "type": "address"
        },
        {
          "name": "",
          "type": "uint256"
        }
      ],
      "name": "repOwnes",
      "outputs": [
        {
          "name": "",
          "type": "uint256"
        }
      ],
      "payable": false,
      "stateMutability": "view",
      "type": "function"
    },
    {
      "constant": true,
      "inputs": [
        {
          "name": "_add",
          "type": "address"
        },
        {
          "name": "_ideaProposalID",
          "type": "uint256"
        }
      ],
      "name": "checkIfVotedIdea",
      "outputs": [
        {
          "name": "",
          "type": "bool"
        }
      ],
      "payable": false,
      "stateMutability": "view",
      "type": "function"
    },
    {
      "constant": true,
      "inputs": [
        {
          "name": "",
          "type": "address"
        }
      ],
      "name": "IdeaAddToId",
      "outputs": [
        {
          "name": "",
          "type": "uint256"
        }
      ],
      "payable": false,
      "stateMutability": "view",
      "type": "function"
    },
    {
      "constant": false,
      "inputs": [
        {
          "name": "_ideaIPFS",
          "type": "string"
        },
        {
          "name": "_globalUseBlockAmount",
          "type": "uint256"
        },
        {
          "name": "_miningTime",
          "type": "uint256"
        },
        {
          "name": "_royalty",
          "type": "uint256"
        },
        {
          "name": "_stakeAmount",
          "type": "uint256"
        },
        {
          "name": "_levelRequirement",
          "type": "uint256"
        },
        {
          "name": "_inventor",
          "type": "address"
        },
        {
          "name": "_invention",
          "type": "address"
        }
      ],
      "name": "proposeIdea",
      "outputs": [],
      "payable": false,
      "stateMutability": "nonpayable",
      "type": "function"
    },
    {
      "constant": true,
      "inputs": [
        {
          "name": "",
          "type": "address"
        }
      ],
      "name": "repInfo",
      "outputs": [
        {
          "name": "BlockReward",
          "type": "uint256"
        },
        {
          "name": "IdeaID",
          "type": "uint256"
        },
        {
          "name": "Royalty",
          "type": "uint256"
        },
        {
          "name": "InventorsAddress",
          "type": "address"
        },
        {
          "name": "ReplicationAddress",
          "type": "address"
        },
        {
          "name": "ReplicationMember",
          "type": "address"
        },
        {
          "name": "OwnersAddress",
          "type": "address"
        },
        {
          "name": "DeviceLockHash",
          "type": "string"
        }
      ],
      "payable": false,
      "stateMutability": "view",
      "type": "function"
    },
    {
      "constant": false,
      "inputs": [],
      "name": "renounceOwnership",
      "outputs": [],
      "payable": false,
      "stateMutability": "nonpayable",
      "type": "function"
    },
    {
      "constant": true,
      "inputs": [],
      "name": "globalUseBlock",
      "outputs": [
        {
          "name": "",
          "type": "uint256"
        }
      ],
      "payable": false,
      "stateMutability": "view",
      "type": "function"
    },
    {
      "constant": true,
      "inputs": [
        {
          "name": "",
          "type": "uint256"
        }
      ],
      "name": "weightTracker",
      "outputs": [
        {
          "name": "",
          "type": "uint256"
        }
      ],
      "payable": false,
      "stateMutability": "view",
      "type": "function"
    },
    {
      "constant": true,
      "inputs": [],
      "name": "owner",
      "outputs": [
        {
          "name": "",
          "type": "address"
        }
      ],
      "payable": false,
      "stateMutability": "view",
      "type": "function"
    },
    {
      "constant": false,
      "inputs": [
        {
          "name": "_newOwner",
          "type": "address"
        },
        {
          "name": "_ideaProposalID",
          "type": "uint256"
        }
      ],
      "name": "transferIdeaBlock",
      "outputs": [],
      "payable": false,
      "stateMutability": "nonpayable",
      "type": "function"
    },
    {
      "constant": true,
      "inputs": [],
      "name": "isOwner",
      "outputs": [
        {
          "name": "",
          "type": "bool"
        }
      ],
      "payable": false,
      "stateMutability": "view",
      "type": "function"
    },
    {
      "constant": false,
      "inputs": [
        {
          "name": "sender",
          "type": "address"
        }
      ],
      "name": "initialize",
      "outputs": [],
      "payable": false,
      "stateMutability": "nonpayable",
      "type": "function"
    },
    {
      "constant": true,
      "inputs": [
        {
          "name": "",
          "type": "address"
        }
      ],
      "name": "localWeightTracker",
      "outputs": [
        {
          "name": "",
          "type": "uint256"
        }
      ],
      "payable": false,
      "stateMutability": "view",
      "type": "function"
    },
    {
      "constant": true,
      "inputs": [
        {
          "name": "numOfvotes",
          "type": "uint256"
        },
        {
          "name": "numOfmem",
          "type": "uint256"
        }
      ],
      "name": "setVoteQuorum",
      "outputs": [
        {
          "name": "",
          "type": "bool"
        }
      ],
      "payable": false,
      "stateMutability": "pure",
      "type": "function"
    },
    {
      "constant": true,
      "inputs": [
        {
          "name": "",
          "type": "address"
        }
      ],
      "name": "replications",
      "outputs": [
        {
          "name": "",
          "type": "bool"
        }
      ],
      "payable": false,
      "stateMutability": "view",
      "type": "function"
    },
    {
      "constant": true,
      "inputs": [],
      "name": "DCPoA",
      "outputs": [
        {
          "name": "",
          "type": "address"
        }
      ],
      "payable": false,
      "stateMutability": "view",
      "type": "function"
    },
    {
      "constant": true,
      "inputs": [
        {
          "name": "",
          "type": "uint256"
        }
      ],
      "name": "ideaUpgradeProposals",
      "outputs": [
        {
          "name": "uIdeaIPFS",
          "type": "string"
        },
        {
          "name": "uexecuted",
          "type": "bool"
        },
        {
          "name": "uglobalUseBlockAmount",
          "type": "uint256"
        },
        {
          "name": "uroyalty",
          "type": "uint256"
        },
        {
          "name": "uminingTime",
          "type": "uint256"
        },
        {
          "name": "ustakeAmount",
          "type": "uint256"
        },
        {
          "name": "ulevelRequirement",
          "type": "uint256"
        },
        {
          "name": "uinventorAddress",
          "type": "address"
        },
        {
          "name": "uinventionAddress",
          "type": "address"
        }
      ],
      "payable": false,
      "stateMutability": "view",
      "type": "function"
    },
    {
      "constant": false,
      "inputs": [
        {
          "name": "newOwner",
          "type": "address"
        }
      ],
      "name": "transferOwnership",
      "outputs": [],
      "payable": false,
      "stateMutability": "nonpayable",
      "type": "function"
    },
    {
      "constant": true,
      "inputs": [
        {
          "name": "",
          "type": "uint256"
        }
      ],
      "name": "ideaRepCounter",
      "outputs": [
        {
          "name": "",
          "type": "uint256"
        }
      ],
      "payable": false,
      "stateMutability": "view",
      "type": "function"
    },
    {
      "constant": true,
      "inputs": [],
      "name": "Validators",
      "outputs": [
        {
          "name": "",
          "type": "address"
        }
      ],
      "payable": false,
      "stateMutability": "view",
      "type": "function"
    },
    {
      "constant": true,
      "inputs": [],
      "name": "globalIdeaPropCount",
      "outputs": [
        {
          "name": "",
          "type": "uint256"
        }
      ],
      "payable": false,
      "stateMutability": "view",
      "type": "function"
    },
    {
      "anonymous": false,
      "inputs": [
        {
          "indexed": false,
          "name": "IPFS",
          "type": "string"
        }
      ],
      "name": "IdeaProposed",
      "type": "event"
    },
    {
      "anonymous": false,
      "inputs": [
        {
          "indexed": false,
          "name": "member",
          "type": "address"
        }
      ],
      "name": "NewMember",
      "type": "event"
    },
    {
      "anonymous": false,
      "inputs": [
        {
          "indexed": false,
          "name": "IPFS",
          "type": "string"
        },
        {
          "indexed": false,
          "name": "Inventor",
          "type": "address"
        }
      ],
      "name": "IdeaApproved",
      "type": "event"
    },
    {
      "anonymous": false,
      "inputs": [
        {
          "indexed": false,
          "name": "_voter",
          "type": "address"
        },
        {
          "indexed": false,
          "name": "inSupport",
          "type": "bool"
        }
      ],
      "name": "Voted",
      "type": "event"
    },
    {
      "anonymous": false,
      "inputs": [
        {
          "indexed": false,
          "name": "_repAdd",
          "type": "address"
        },
        {
          "indexed": false,
          "name": "repOwner",
          "type": "address"
        }
      ],
      "name": "NewReplication",
      "type": "event"
    },
    {
      "anonymous": false,
      "inputs": [
        {
          "indexed": false,
          "name": "repAdd",
          "type": "address"
        },
        {
          "indexed": false,
          "name": "reOwner",
          "type": "address"
        },
        {
          "indexed": false,
          "name": "repWeight",
          "type": "uint256"
        }
      ],
      "name": "LocalUseWeight",
      "type": "event"
    },
    {
      "anonymous": false,
      "inputs": [
        {
          "indexed": false,
          "name": "repAdd",
          "type": "address"
        },
        {
          "indexed": false,
          "name": "reOwner",
          "type": "address"
        },
        {
          "indexed": false,
          "name": "ideaId",
          "type": "uint256"
        }
      ],
      "name": "GlobalUseBlock",
      "type": "event"
    },
    {
      "anonymous": false,
      "inputs": [
        {
          "indexed": true,
          "name": "previousOwner",
          "type": "address"
        },
        {
          "indexed": true,
          "name": "newOwner",
          "type": "address"
        }
      ],
      "name": "OwnershipTransferred",
      "type": "event"
    },
    {
      "constant": false,
      "inputs": [
        {
          "name": "_ideaId",
          "type": "uint256"
        },
        {
          "name": "_repAdd",
          "type": "address"
        },
        {
          "name": "_repOwner",
          "type": "address"
        },
        {
          "name": "_userId",
          "type": "string"
        },
        {
          "name": "_DLhash",
          "type": "string"
        }
      ],
      "name": "generateReplicationBlock",
      "outputs": [],
      "payable": false,
      "stateMutability": "nonpayable",
      "type": "function"
    }
  ],
  "bytecode": "0x6080604052613421806100136000396000f3fe608060405234801561001057600080fd5b50600436106101e45760003560e01c8063758249741161010f578063cec58644116100a2578063f2fde38b11610071578063f2fde38b14610f84578063f54a012914610fc8578063f69197741461100a578063f7e1e4f014611054576101e4565b8063cec5864414610d53578063d436b5e914610da3578063e026daa114610dff578063ee01309614610e49576101e4565b80638f32d59b116100de5780638f32d59b14610af9578063aa59fea414610b1b578063c4d66de814610cb7578063ce87d3ee14610cfb576101e4565b80637582497414610a0157806381cbb67714610a1f5780638da5cb5b14610a615780638da9c0b614610aab576101e4565b80632240d03b116101875780634f214e84116101565780634f214e84146106d3578063649298b41461072b5780636849e79514610859578063715018a6146109f7576101e4565b80632240d03b1461059d57806328a6e47c146105ed5780632e858cce1461060b5780634e6a36301461066d576101e4565b806314111141116101c357806314111141146103665780631855efa6146103a05780631ad8a201146104e65780631ddc883b1461057f576101e4565b80622c1a9e146101e957806310734e431461023f57806311e658441461030e575b600080fd5b610229600480360360608110156101ff57600080fd5b81019080803590602001909291908035906020019092919080359060200190929190505050611072565b6040518082815260200191505060405180910390f35b6102f86004803603602081101561025557600080fd5b810190808035906020019064010000000081111561027257600080fd5b82018360208201111561028457600080fd5b803590602001918460018302840111640100000000831117156102a657600080fd5b91908080601f016020809104026020016040519081016040528093929190818152602001838380828437600081840152601f19601f8201169050808301925050505050505091929192905050506110a7565b6040518082815260200191505060405180910390f35b6103506004803603602081101561032457600080fd5b81019080803573ffffffffffffffffffffffffffffffffffffffff16906020019092919050505061111a565b6040518082815260200191505060405180910390f35b61039e6004803603604081101561037c57600080fd5b8101908080359060200190929190803515159060200190929190505050611132565b005b6103cc600480360360208110156103b657600080fd5b81019080803590602001909291905050506115d7565b60405180806020018b1515151581526020018a1515151581526020018981526020018881526020018781526020018681526020018581526020018473ffffffffffffffffffffffffffffffffffffffff1673ffffffffffffffffffffffffffffffffffffffff1681526020018373ffffffffffffffffffffffffffffffffffffffff1673ffffffffffffffffffffffffffffffffffffffff16815260200182810382528c818151815260200191508051906020019080838360005b838110156104a2578082015181840152602081019050610487565b50505050905090810190601f1680156104cf5780820380516001836020036101000a031916815260200191505b509b50505050505050505050505060405180910390f35b610528600480360360208110156104fc57600080fd5b81019080803573ffffffffffffffffffffffffffffffffffffffff16906020019092919050505061171d565b6040518080602001828103825283818151815260200191508051906020019060200280838360005b8381101561056b578082015181840152602081019050610550565b505050509050019250505060405180910390f35b6105876117b4565b6040518082815260200191505060405180910390f35b6105d3600480360360408110156105b357600080fd5b8101908080359060200190929190803590602001909291905050506117ba565b604051808215151515815260200191505060405180910390f35b6105f56117e9565b6040518082815260200191505060405180910390f35b6106576004803603604081101561062157600080fd5b81019080803573ffffffffffffffffffffffffffffffffffffffff169060200190929190803590602001909291905050506117ef565b6040518082815260200191505060405180910390f35b6106b96004803603604081101561068357600080fd5b81019080803573ffffffffffffffffffffffffffffffffffffffff16906020019092919080359060200190929190505050611814565b604051808215151515815260200191505060405180910390f35b610715600480360360208110156106e957600080fd5b81019080803573ffffffffffffffffffffffffffffffffffffffff169060200190929190505050611884565b6040518082815260200191505060405180910390f35b610857600480360361010081101561074257600080fd5b810190808035906020019064010000000081111561075f57600080fd5b82018360208201111561077157600080fd5b8035906020019184600183028401116401000000008311171561079357600080fd5b91908080601f016020809104026020016040519081016040528093929190818152602001838380828437600081840152601f19601f8201169050808301925050505050505091929192908035906020019092919080359060200190929190803590602001909291908035906020019092919080359060200190929190803573ffffffffffffffffffffffffffffffffffffffff169060200190929190803573ffffffffffffffffffffffffffffffffffffffff16906020019092919050505061189c565b005b61089b6004803603602081101561086f57600080fd5b81019080803573ffffffffffffffffffffffffffffffffffffffff169060200190929190505050611af6565b604051808981526020018881526020018781526020018673ffffffffffffffffffffffffffffffffffffffff1673ffffffffffffffffffffffffffffffffffffffff1681526020018573ffffffffffffffffffffffffffffffffffffffff1673ffffffffffffffffffffffffffffffffffffffff1681526020018473ffffffffffffffffffffffffffffffffffffffff1673ffffffffffffffffffffffffffffffffffffffff1681526020018373ffffffffffffffffffffffffffffffffffffffff1673ffffffffffffffffffffffffffffffffffffffff16815260200180602001828103825283818151815260200191508051906020019080838360005b838110156109b557808201518184015260208101905061099a565b50505050905090810190601f1680156109e25780820380516001836020036101000a031916815260200191505b50995050505050505050505060405180910390f35b6109ff611c56565b005b610a09611d28565b6040518082815260200191505060405180910390f35b610a4b60048036036020811015610a3557600080fd5b8101908080359060200190929190505050611d2e565b6040518082815260200191505060405180910390f35b610a69611d46565b604051808273ffffffffffffffffffffffffffffffffffffffff1673ffffffffffffffffffffffffffffffffffffffff16815260200191505060405180910390f35b610af760048036036040811015610ac157600080fd5b81019080803573ffffffffffffffffffffffffffffffffffffffff16906020019092919080359060200190929190505050611d70565b005b610b01611e2b565b604051808215151515815260200191505060405180910390f35b610cb5600480360360a0811015610b3157600080fd5b8101908080359060200190929190803573ffffffffffffffffffffffffffffffffffffffff169060200190929190803573ffffffffffffffffffffffffffffffffffffffff16906020019092919080359060200190640100000000811115610b9857600080fd5b820183602082011115610baa57600080fd5b80359060200191846001830284011164010000000083111715610bcc57600080fd5b91908080601f016020809104026020016040519081016040528093929190818152602001838380828437600081840152601f19601f82011690508083019250505050505050919291929080359060200190640100000000811115610c2f57600080fd5b820183602082011115610c4157600080fd5b80359060200191846001830284011164010000000083111715610c6357600080fd5b91908080601f016020809104026020016040519081016040528093929190818152602001838380828437600081840152601f19601f820116905080830192505050505050509192919290505050611e8a565b005b610cf960048036036020811015610ccd57600080fd5b81019080803573ffffffffffffffffffffffffffffffffffffffff1690602001909291905050506127ab565b005b610d3d60048036036020811015610d1157600080fd5b81019080803573ffffffffffffffffffffffffffffffffffffffff169060200190929190505050612969565b6040518082815260200191505060405180910390f35b610d8960048036036040811015610d6957600080fd5b810190808035906020019092919080359060200190929190505050612981565b604051808215151515815260200191505060405180910390f35b610de560048036036020811015610db957600080fd5b81019080803573ffffffffffffffffffffffffffffffffffffffff1690602001909291905050506129b0565b604051808215151515815260200191505060405180910390f35b610e076129d0565b604051808273ffffffffffffffffffffffffffffffffffffffff1673ffffffffffffffffffffffffffffffffffffffff16815260200191505060405180910390f35b610e7560048036036020811015610e5f57600080fd5b81019080803590602001909291905050506129f6565b60405180806020018a1515151581526020018981526020018881526020018781526020018681526020018581526020018473ffffffffffffffffffffffffffffffffffffffff1673ffffffffffffffffffffffffffffffffffffffff1681526020018373ffffffffffffffffffffffffffffffffffffffff1673ffffffffffffffffffffffffffffffffffffffff16815260200182810382528b818151815260200191508051906020019080838360005b83811015610f41578082015181840152602081019050610f26565b50505050905090810190601f168015610f6e5780820380516001836020036101000a031916815260200191505b509a505050505050505050505060405180910390f35b610fc660048036036020811015610f9a57600080fd5b81019080803573ffffffffffffffffffffffffffffffffffffffff169060200190929190505050612b29565b005b610ff460048036036020811015610fde57600080fd5b8101908080359060200190929190505050612b46565b6040518082815260200191505060405180910390f35b611012612b5e565b604051808273ffffffffffffffffffffffffffffffffffffffff1673ffffffffffffffffffffffffffffffffffffffff16815260200191505060405180910390f35b61105c612b84565b6040518082815260200191505060405180910390f35b60008060018301600a0a850290506000600a600586848161108f57fe5b04018161109857fe5b04905080925050509392505050565b60006076826040518082805190602001908083835b602083106110df57805182526020820191506020810190506020830392506110bc565b6001836020036101000a0380198251168184511680821785525050505050509050019150509081526020016040518091039020549050919050565b60726020528060005260406000206000915090505481565b60011515606660009054906101000a900473ffffffffffffffffffffffffffffffffffffffff1673ffffffffffffffffffffffffffffffffffffffff1663aaa746bb336040518263ffffffff1660e01b8152600401808273ffffffffffffffffffffffffffffffffffffffff1673ffffffffffffffffffffffffffffffffffffffff16815260200191505060206040518083038186803b1580156111d557600080fd5b505afa1580156111e9573d6000803e3d6000fd5b505050506040513d60208110156111ff57600080fd5b810190808051906020019092919050505015151461121c57600080fd5b6000606d600084815260200190815260200160002090506001151581600a0160003373ffffffffffffffffffffffffffffffffffffffff1673ffffffffffffffffffffffffffffffffffffffff16815260200190815260200160002060009054906101000a900460ff161515141561129357600080fd5b600115158160010160019054906101000a900460ff16151514156112b657600080fd5b60008160090180548091906001016112ce919061329c565b9050604051806040016040528084151581526020013373ffffffffffffffffffffffffffffffffffffffff1681525082600901828154811061130c57fe5b9060005260206000200160008201518160000160006101000a81548160ff02191690831515021790555060208201518160000160016101000a81548173ffffffffffffffffffffffffffffffffffffffff021916908373ffffffffffffffffffffffffffffffffffffffff160217905550905050600182600a0160003373ffffffffffffffffffffffffffffffffffffffff1673ffffffffffffffffffffffffffffffffffffffff16815260200190815260200160002060006101000a81548160ff021916908315150217905550606660009054906101000a900473ffffffffffffffffffffffffffffffffffffffff1673ffffffffffffffffffffffffffffffffffffffff16634777e8ea336040518263ffffffff1660e01b8152600401808273ffffffffffffffffffffffffffffffffffffffff1673ffffffffffffffffffffffffffffffffffffffff168152602001915050600060405180830381600087803b15801561147b57600080fd5b505af115801561148f573d6000803e3d6000fd5b505050507f8eb81cb806dbb3d8a2f94981614331a55dfd90e06a42fdc362ca3ca96981d92f3384604051808373ffffffffffffffffffffffffffffffffffffffff1673ffffffffffffffffffffffffffffffffffffffff168152602001821515151581526020019250505060405180910390a16000606660009054906101000a900473ffffffffffffffffffffffffffffffffffffffff1673ffffffffffffffffffffffffffffffffffffffff1663997072f76040518163ffffffff1660e01b815260040160206040518083038186803b15801561156c57600080fd5b505afa158015611580573d6000803e3d6000fd5b505050506040513d602081101561159657600080fd5b8101908080519060200190929190505050905060006115bc846009018054905083612981565b905080156115cf576115ce8683612b8a565b5b505050505050565b606d602052806000526040600020600091509050806000018054600181600116156101000203166002900480601f0160208091040260200160405190810160405280929190818152602001828054600181600116156101000203166002900480156116835780601f1061165857610100808354040283529160200191611683565b820191906000526020600020905b81548152906001019060200180831161166657829003601f168201915b5050505050908060010160009054906101000a900460ff16908060010160019054906101000a900460ff16908060020154908060030154908060040154908060050154908060060154908060070160009054906101000a900473ffffffffffffffffffffffffffffffffffffffff16908060080160009054906101000a900473ffffffffffffffffffffffffffffffffffffffff1690508a565b6060607760008373ffffffffffffffffffffffffffffffffffffffff1673ffffffffffffffffffffffffffffffffffffffff1681526020019081526020016000208054806020026020016040519081016040528092919081815260200182805480156117a857602002820191906000526020600020905b815481526020019060010190808311611794575b50505050509050919050565b60695481565b6000806117c984846002611072565b9050603c81106117dd5760019150506117e3565b60009150505b92915050565b60685481565b6075602052816000526040600020602052806000526040600020600091509150505481565b600080606d6000848152602001908152602001600020905080600a0160008573ffffffffffffffffffffffffffffffffffffffff1673ffffffffffffffffffffffffffffffffffffffff16815260200190815260200160002060009054906101000a900460ff1691505092915050565b606c6020528060005260406000206000915090505481565b606a60008154809291906001019190505550606a546076896040518082805190602001908083835b602083106118e757805182526020820191506020810190506020830392506118c4565b6001836020036101000a038019825116818451168082178552505050505050905001915050908152602001604051809103902081905550600060648689028161192c57fe5b0490506000606d6000606a5481526020019081526020016000209050898160000190805190602001906119609291906132c8565b5060008160010160006101000a81548160ff02191690831515021790555060008160010160016101000a81548160ff021916908315150217905550888160020181905550818160030181905550858160050181905550848160060181905550878160040181905550838160070160006101000a81548173ffffffffffffffffffffffffffffffffffffffff021916908373ffffffffffffffffffffffffffffffffffffffff160217905550828160080160006101000a81548173ffffffffffffffffffffffffffffffffffffffff021916908373ffffffffffffffffffffffffffffffffffffffff1602179055507f544a88757adcb29711e2e12a617fb44221880d5013615cf2dbbdb37f5d5059738a6040518080602001828103825283818151815260200191508051906020019080838360005b83811015611ab0578082015181840152602081019050611a95565b50505050905090810190601f168015611add5780820380516001836020036101000a031916815260200191505b509250505060405180910390a150505050505050505050565b60746020528060005260406000206000915090508060000154908060010154908060020154908060030160009054906101000a900473ffffffffffffffffffffffffffffffffffffffff16908060040160009054906101000a900473ffffffffffffffffffffffffffffffffffffffff16908060050160009054906101000a900473ffffffffffffffffffffffffffffffffffffffff16908060060160009054906101000a900473ffffffffffffffffffffffffffffffffffffffff1690806007018054600181600116156101000203166002900480601f016020809104026020016040519081016040528092919081815260200182805460018160011615610100020316600290048015611c4c5780601f10611c2157610100808354040283529160200191611c4c565b820191906000526020600020905b815481529060010190602001808311611c2f57829003601f168201915b5050505050905088565b611c5e611e2b565b611c6757600080fd5b600073ffffffffffffffffffffffffffffffffffffffff16603360009054906101000a900473ffffffffffffffffffffffffffffffffffffffff1673ffffffffffffffffffffffffffffffffffffffff167f8be0079c531659141344cd1fd0a4f28419497f9722a3daafe3b4186f6b6457e060405160405180910390a36000603360006101000a81548173ffffffffffffffffffffffffffffffffffffffff021916908373ffffffffffffffffffffffffffffffffffffffff160217905550565b606b5481565b606f6020528060005260406000206000915090505481565b6000603360009054906101000a900473ffffffffffffffffffffffffffffffffffffffff16905090565b6000606d600083815260200190815260200160002090508060070160009054906101000a900473ffffffffffffffffffffffffffffffffffffffff1673ffffffffffffffffffffffffffffffffffffffff163373ffffffffffffffffffffffffffffffffffffffff1614611de357600080fd5b828160070160006101000a81548173ffffffffffffffffffffffffffffffffffffffff021916908373ffffffffffffffffffffffffffffffffffffffff160217905550505050565b6000603360009054906101000a900473ffffffffffffffffffffffffffffffffffffffff1673ffffffffffffffffffffffffffffffffffffffff16611e6e61314b565b73ffffffffffffffffffffffffffffffffffffffff1614905090565b6000606660009054906101000a900473ffffffffffffffffffffffffffffffffffffffff1673ffffffffffffffffffffffffffffffffffffffff1663dc8e79fb846040518263ffffffff1660e01b81526004018080602001828103825283818151815260200191508051906020019080838360005b83811015611f1a578082015181840152602081019050611eff565b50505050905090810190601f168015611f475780820380516001836020036101000a031916815260200191505b509250505060206040518083038186803b158015611f6457600080fd5b505afa158015611f78573d6000803e3d6000fd5b505050506040513d6020811015611f8e57600080fd5b810190808051906020019092919050505090506000606660009054906101000a900473ffffffffffffffffffffffffffffffffffffffff1673ffffffffffffffffffffffffffffffffffffffff1663817c8966836040518263ffffffff1660e01b8152600401808273ffffffffffffffffffffffffffffffffffffffff1673ffffffffffffffffffffffffffffffffffffffff16815260200191505060206040518083038186803b15801561204257600080fd5b505afa158015612056573d6000803e3d6000fd5b505050506040513d602081101561206c57600080fd5b810190808051906020019092919050505090506000606d60008981526020019081526020016000209050606660009054906101000a900473ffffffffffffffffffffffffffffffffffffffff1673ffffffffffffffffffffffffffffffffffffffff1663aaa746bb846040518263ffffffff1660e01b8152600401808273ffffffffffffffffffffffffffffffffffffffff1673ffffffffffffffffffffffffffffffffffffffff16815260200191505060206040518083038186803b15801561213557600080fd5b505afa158015612149573d6000803e3d6000fd5b505050506040513d602081101561215f57600080fd5b810190808051906020019092919050505061217957600080fd5b806006015482101561218a57600080fd5b8060010160009054906101000a900460ff166121a557600080fd5b606660009054906101000a900473ffffffffffffffffffffffffffffffffffffffff1673ffffffffffffffffffffffffffffffffffffffff1663c812a6018483600501546040518363ffffffff1660e01b8152600401808373ffffffffffffffffffffffffffffffffffffffff1673ffffffffffffffffffffffffffffffffffffffff16815260200182815260200192505050600060405180830381600087803b15801561225257600080fd5b505af1158015612266573d6000803e3d6000fd5b5050505060008160030154826002015403905060008260070160009054906101000a900473ffffffffffffffffffffffffffffffffffffffff1690506000607460008b73ffffffffffffffffffffffffffffffffffffffff1673ffffffffffffffffffffffffffffffffffffffff16815260200190815260200160002090508281600001819055508a816001018190555083600301548160020181905550818160030160006101000a81548173ffffffffffffffffffffffffffffffffffffffff021916908373ffffffffffffffffffffffffffffffffffffffff160217905550898160040160006101000a81548173ffffffffffffffffffffffffffffffffffffffff021916908373ffffffffffffffffffffffffffffffffffffffff160217905550858160050160006101000a81548173ffffffffffffffffffffffffffffffffffffffff021916908373ffffffffffffffffffffffffffffffffffffffff160217905550888160060160006101000a81548173ffffffffffffffffffffffffffffffffffffffff021916908373ffffffffffffffffffffffffffffffffffffffff160217905550868160070190805190602001906124289291906132c8565b50600073ffffffffffffffffffffffffffffffffffffffff168160060160009054906101000a900473ffffffffffffffffffffffffffffffffffffffff1673ffffffffffffffffffffffffffffffffffffffff1614156124c657858160060160006101000a81548173ffffffffffffffffffffffffffffffffffffffff021916908373ffffffffffffffffffffffffffffffffffffffff1602179055505b607160008c8152602001908152602001600020600081548092919060010191905055607160008d8152602001908152602001600020819055506001607360008c73ffffffffffffffffffffffffffffffffffffffff1673ffffffffffffffffffffffffffffffffffffffff16815260200190815260200160002060006101000a81548160ff021916908315150217905550607560008773ffffffffffffffffffffffffffffffffffffffff1673ffffffffffffffffffffffffffffffffffffffff16815260200190815260200160002060008c8152602001908152602001600020600081548092919060010191905055607560008873ffffffffffffffffffffffffffffffffffffffff1673ffffffffffffffffffffffffffffffffffffffff16815260200190815260200160002060008d815260200190815260200160002081905550606660009054906101000a900473ffffffffffffffffffffffffffffffffffffffff1673ffffffffffffffffffffffffffffffffffffffff16634777e8ea876040518263ffffffff1660e01b8152600401808273ffffffffffffffffffffffffffffffffffffffff1673ffffffffffffffffffffffffffffffffffffffff168152602001915050600060405180830381600087803b1580156126ab57600080fd5b505af11580156126bf573d6000803e3d6000fd5b5050505042607260008c73ffffffffffffffffffffffffffffffffffffffff1673ffffffffffffffffffffffffffffffffffffffff168152602001908152602001600020819055507f5f3846e5f661cdab5e659252fcf86d485b1390b32b8445afbc165881296513338a87604051808373ffffffffffffffffffffffffffffffffffffffff1673ffffffffffffffffffffffffffffffffffffffff1681526020018273ffffffffffffffffffffffffffffffffffffffff1673ffffffffffffffffffffffffffffffffffffffff1681526020019250505060405180910390a15050505050505050505050565b600060019054906101000a900460ff16806127ca57506127c9613153565b5b806127e157506000809054906101000a900460ff16155b612836576040517f08c379a000000000000000000000000000000000000000000000000000000000815260040180806020018281038252602e8152602001806133c8602e913960400191505060405180910390fd5b60008060019054906101000a900460ff161590508015612886576001600060016101000a81548160ff02191690831515021790555060016000806101000a81548160ff0219169083151502179055505b81603360006101000a81548173ffffffffffffffffffffffffffffffffffffffff021916908373ffffffffffffffffffffffffffffffffffffffff160217905550603360009054906101000a900473ffffffffffffffffffffffffffffffffffffffff1673ffffffffffffffffffffffffffffffffffffffff16600073ffffffffffffffffffffffffffffffffffffffff167f8be0079c531659141344cd1fd0a4f28419497f9722a3daafe3b4186f6b6457e060405160405180910390a380156129655760008060016101000a81548160ff0219169083151502179055505b5050565b60706020528060005260406000206000915090505481565b60008061299084846002611072565b9050605081106129a45760019150506129aa565b60009150505b92915050565b60736020528060005260406000206000915054906101000a900460ff1681565b606660009054906101000a900473ffffffffffffffffffffffffffffffffffffffff1681565b606e602052806000526040600020600091509050806000018054600181600116156101000203166002900480601f016020809104026020016040519081016040528092919081815260200182805460018160011615610100020316600290048015612aa25780601f10612a7757610100808354040283529160200191612aa2565b820191906000526020600020905b815481529060010190602001808311612a8557829003601f168201915b5050505050908060010160009054906101000a900460ff16908060020154908060030154908060040154908060050154908060060154908060070160009054906101000a900473ffffffffffffffffffffffffffffffffffffffff16908060080160009054906101000a900473ffffffffffffffffffffffffffffffffffffffff16905089565b612b31611e2b565b612b3a57600080fd5b612b4381613164565b50565b60716020528060005260406000206000915090505481565b606760009054906101000a900473ffffffffffffffffffffffffffffffffffffffff1681565b606a5481565b6000606d60008481526020019081526020016000209050600080905060008090505b8260090180549050811015612c02576000836009018281548110612bcc57fe5b9060005260206000200190508060000160009054906101000a900460ff1615612bf6576001830192505b50806001019050612bac565b506000612c0f82856117ba565b905080156131095760018360010160006101000a81548160ff02191690831515021790555060018360010160016101000a81548160ff02191690831515021790555084606c60008560080160009054906101000a900473ffffffffffffffffffffffffffffffffffffffff1673ffffffffffffffffffffffffffffffffffffffff1673ffffffffffffffffffffffffffffffffffffffff16815260200190815260200160002081905550612cc161325e565b50606760009054906101000a900473ffffffffffffffffffffffffffffffffffffffff1673ffffffffffffffffffffffffffffffffffffffff16634d238c8e8460080160009054906101000a900473ffffffffffffffffffffffffffffffffffffffff166040518263ffffffff1660e01b8152600401808273ffffffffffffffffffffffffffffffffffffffff1673ffffffffffffffffffffffffffffffffffffffff168152602001915050600060405180830381600087803b158015612d8757600080fd5b505af1158015612d9b573d6000803e3d6000fd5b50505050606660009054906101000a900473ffffffffffffffffffffffffffffffffffffffff1673ffffffffffffffffffffffffffffffffffffffff16636326e4ce8460070160009054906101000a900473ffffffffffffffffffffffffffffffffffffffff166069546040518363ffffffff1660e01b8152600401808373ffffffffffffffffffffffffffffffffffffffff1673ffffffffffffffffffffffffffffffffffffffff16815260200182815260200192505050600060405180830381600087803b158015612e6e57600080fd5b505af1158015612e82573d6000803e3d6000fd5b50505050606660009054906101000a900473ffffffffffffffffffffffffffffffffffffffff1673ffffffffffffffffffffffffffffffffffffffff16634777e8ea8460070160009054906101000a900473ffffffffffffffffffffffffffffffffffffffff166040518263ffffffff1660e01b8152600401808273ffffffffffffffffffffffffffffffffffffffff1673ffffffffffffffffffffffffffffffffffffffff168152602001915050600060405180830381600087803b158015612f4b57600080fd5b505af1158015612f5f573d6000803e3d6000fd5b50505050607760008460070160009054906101000a900473ffffffffffffffffffffffffffffffffffffffff1673ffffffffffffffffffffffffffffffffffffffff1673ffffffffffffffffffffffffffffffffffffffff1681526020019081526020016000208590806001815401808255809150509060018203906000526020600020016000909192909190915055507f8e83e1ec5969ae12ba675f003533b12076070b84710d8e23b9d1aee5b48b02e1836000018460070160009054906101000a900473ffffffffffffffffffffffffffffffffffffffff1660405180806020018373ffffffffffffffffffffffffffffffffffffffff1673ffffffffffffffffffffffffffffffffffffffff1681526020018281038252848181546001816001161561010002031660029004815260200191508054600181600116156101000203166002900480156130f55780601f106130ca576101008083540402835291602001916130f5565b820191906000526020600020905b8154815290600101906020018083116130d857829003601f168201915b5050935050505060405180910390a1613144565b60008360010160016101000a81548160ff02191690831515021790555060018360010160006101000a81548160ff0219169083151502179055505b5050505050565b600033905090565b600080303b90506000811491505090565b600073ffffffffffffffffffffffffffffffffffffffff168173ffffffffffffffffffffffffffffffffffffffff16141561319e57600080fd5b8073ffffffffffffffffffffffffffffffffffffffff16603360009054906101000a900473ffffffffffffffffffffffffffffffffffffffff1673ffffffffffffffffffffffffffffffffffffffff167f8be0079c531659141344cd1fd0a4f28419497f9722a3daafe3b4186f6b6457e060405160405180910390a380603360006101000a81548173ffffffffffffffffffffffffffffffffffffffff021916908373ffffffffffffffffffffffffffffffffffffffff16021790555050565b60006305a48fba6068540142106132935760026069548161327b57fe5b04606981905550426068819055506069549050613299565b60695490505b90565b8154818355818111156132c3578183600052602060002091820191016132c29190613348565b5b505050565b828054600181600116156101000203166002900490600052602060002090601f016020900481019282601f1061330957805160ff1916838001178555613337565b82800160010185558215613337579182015b8281111561333657825182559160200191906001019061331b565b5b50905061334491906133a2565b5090565b61339f91905b8082111561339b57600080820160006101000a81549060ff02191690556000820160016101000a81549073ffffffffffffffffffffffffffffffffffffffff02191690555060010161334e565b5090565b90565b6133c491905b808211156133c05760008160009055506001016133a8565b5090565b9056fe436f6e747261637420696e7374616e63652068617320616c7265616479206265656e20696e697469616c697a6564a165627a7a723058200e92685ee1e0b8c0000ab47f51c6a9393c761ac7abfc1a428cffd35bd7dcee080029",
  "source": "pragma solidity ^0.5.0;\nimport  './IdeaBlockLogic.sol';\n\n\ncontract RepBlockLogic is IdeaBlockLogic {\n\n\n  ///@notice generateReplicationBlock is used to generate a replication block when someone sucessfully replicates an Idea\n  ///@dev this requires the replicator has enough Notio to meet the stake amount and burns it from existence\n  ///@dev it also adds the replicator as a member of DecentraCorp\n  ///@dev finally, this contract calls the Proof of Replication Ownership contract and mints a PoRO token to the msg.sender\n  function generateReplicationBlock(uint _ideaId, address _repAdd, address _repOwner, string memory _userId, string memory _DLhash) public  {\n    address member = DCPoA.getAddFromPass(_userId);\n//pulls the members address in from his username\n  uint level = DCPoA.getLevel(member);\n//gets the members level\n  IdeaProposal storage info = ideaProposals[_ideaId];\n//pulls the ideas variables in as info\n  require(DCPoA._checkIfMember(member));\n//requires the address of the member is an active member\n  require(level >= info.levelRequirement);\n//requires the members level be equal to or greater than the level required to stake the idea\n  require(info.IdeaBlock);\n//requires the selected idea is an IdeaBlock\n  DCPoA.proxyNTCBurn(member, info.stakeAmount);\n//burns the stake amount for the specific Idea from the members account\n  uint blockReward = info.globalUseBlockAmount - info.royalty;\n  //subtracts the royalty amount from the block reward\n  address inventor = info.inventorAddress;\n  //sets inventor as the specific inventor for an idea\n\n\n\n\n  ReplicationInfo storage i = repInfo[_repAdd];\n    i.BlockReward = blockReward;\n    i.IdeaID = _ideaId;\n    i.Royalty = info.royalty;\n    i.InventorsAddress = inventor;\n    i.ReplicationAddress = _repAdd;\n    i.ReplicationMember = member;\n    i.OwnersAddress = _repOwner;\n    i.DeviceLockHash = _DLhash;\n\n  //creates replication struct for new rep\n  if(i.OwnersAddress == 0x0000000000000000000000000000000000000000) {\n    i.OwnersAddress = member;\n  }\n\n    ideaRepCounter[_ideaId] = ideaRepCounter[_ideaId]++;\n    //increments the global rep count for a specific idea\n    replications[_repAdd] = true;\n    //stores replications address as a replicator\n    repOwnes[member][_ideaId] = repOwnes[member][_ideaId]++;\n    //increments the amount of replications for an idea a replicator owns\n    DCPoA.increaseMemLev(member);\n    localMiningtimeTracker[_repAdd] = now;\n    emit NewReplication(_repAdd, member);\n    }\n\n}\n",
  "sourcePath": "/home/stan36/repos/DecentraCorpContracts/contracts/CryptoPatent/RepBlockLogic.sol",
  "compiler": {
    "name": "solc",
    "version": "0.5.8+commit.23d335f2.Emscripten.clang"
  },
  "schemaVersion": "3.0.11",
  "updatedAt": "2019-09-13T18:41:29.221Z",
  "devdoc": {
    "methods": {
      "generateReplicationBlock(uint256,address,address,string,string)": {
        "details": "this requires the replicator has enough Notio to meet the stake amount and burns it from existenceit also adds the replicator as a member of DecentraCorpfinally, this contract calls the Proof of Replication Ownership contract and mints a PoRO token to the msg.sender"
      },
      "getPropID(string)": {
        "details": "getPropID is made for easier front end interaction"
      },
      "initialize(address)": {
        "details": "The Ownable constructor sets the original `owner` of the contract to the sender account."
      },
      "isOwner()": {
        "return": "true if `msg.sender` is the owner of the contract."
      },
      "owner()": {
        "return": "the address of the owner."
      },
      "percent(uint256,uint256,uint256)": {
        "details": "quorum is set to 60%"
      },
      "proposeIdea(string,uint256,uint256,uint256,uint256,uint256,address,address)": {
        "details": "the struct for this is set in interface.solidityidea proposals are put up for community approval"
      },
      "renounceOwnership()": {
        "details": "Allows the current owner to relinquish control of the contract. It will not be possible to call the functions with the `onlyOwner` modifier anymore."
      },
      "transferOwnership(address)": {
        "details": "Allows the current owner to transfer control of the contract to a newOwner.",
        "params": {
          "newOwner": "The address to transfer ownership to."
        }
      }
    }
  },
  "userdoc": {
    "methods": {
      "generateReplicationBlock(uint256,address,address,string,string)": {
        "notice": "generateReplicationBlock is used to generate a replication block when someone sucessfully replicates an Idea"
      },
      "getPropID(string)": {
        "notice": "getPropID function allows one to rerieve a proposal ID by its ipfs hash"
      },
      "ideaVote(uint256,bool)": {
        "notice": "vote is a member only function which allows DecentraCorp members to vote on proposalPassed"
      },
      "percent(uint256,uint256,uint256)": {
        "notice": "set_Quorum is an internal function used by proposal vote counts to see if the community approves"
      },
      "proposeIdea(string,uint256,uint256,uint256,uint256,uint256,address,address)": {
        "notice": "proposeIdea is used to allow ANYONE to petition the community for idea approval"
      },
      "renounceOwnership()": {
        "notice": "Renouncing ownership will leave the contract without an owner, thereby removing any functionality that is only available to the owner."
      }
    }
  }
}