{
  "contractName": "UseBlockLogic",
  "abi": [
    {
      "constant": true,
      "inputs": [
        {
          "name": "numerator",
          "type": "uint256"
        },
        {
          "name": "denominator",
          "type": "uint256"
        },
        {
          "name": "precision",
          "type": "uint256"
        }
      ],
      "name": "percent",
      "outputs": [
        {
          "name": "quotient",
          "type": "uint256"
        }
      ],
      "payable": false,
      "stateMutability": "pure",
      "type": "function"
    },
    {
      "constant": true,
      "inputs": [
        {
          "name": "",
          "type": "address"
        }
      ],
      "name": "localMiningtimeTracker",
      "outputs": [
        {
          "name": "",
          "type": "uint256"
        }
      ],
      "payable": false,
      "stateMutability": "view",
      "type": "function"
    },
    {
      "constant": true,
      "inputs": [
        {
          "name": "",
          "type": "uint256"
        }
      ],
      "name": "ideaProposals",
      "outputs": [
        {
          "name": "IdeaIPFS",
          "type": "string"
        },
        {
          "name": "IdeaBlock",
          "type": "bool"
        },
        {
          "name": "executed",
          "type": "bool"
        },
        {
          "name": "globalUseBlockAmount",
          "type": "uint256"
        },
        {
          "name": "royalty",
          "type": "uint256"
        },
        {
          "name": "miningTime",
          "type": "uint256"
        },
        {
          "name": "stakeAmount",
          "type": "uint256"
        },
        {
          "name": "levelRequirement",
          "type": "uint256"
        },
        {
          "name": "inventorAddress",
          "type": "address"
        },
        {
          "name": "inventionAddress",
          "type": "address"
        }
      ],
      "payable": false,
      "stateMutability": "view",
      "type": "function"
    },
    {
      "constant": true,
      "inputs": [],
      "name": "ideaBlockReward",
      "outputs": [
        {
          "name": "",
          "type": "uint256"
        }
      ],
      "payable": false,
      "stateMutability": "view",
      "type": "function"
    },
    {
      "constant": true,
      "inputs": [
        {
          "name": "numOfvotes",
          "type": "uint256"
        },
        {
          "name": "numOfmem",
          "type": "uint256"
        }
      ],
      "name": "setVoteNumberQuorum",
      "outputs": [
        {
          "name": "",
          "type": "bool"
        }
      ],
      "payable": false,
      "stateMutability": "pure",
      "type": "function"
    },
    {
      "constant": true,
      "inputs": [],
      "name": "globalBlockHalfTime",
      "outputs": [
        {
          "name": "",
          "type": "uint256"
        }
      ],
      "payable": false,
      "stateMutability": "view",
      "type": "function"
    },
    {
      "constant": true,
      "inputs": [
        {
          "name": "",
          "type": "address"
        },
        {
          "name": "",
          "type": "uint256"
        }
      ],
      "name": "repOwnes",
      "outputs": [
        {
          "name": "",
          "type": "uint256"
        }
      ],
      "payable": false,
      "stateMutability": "view",
      "type": "function"
    },
    {
      "constant": true,
      "inputs": [
        {
          "name": "",
          "type": "address"
        }
      ],
      "name": "IdeaAddToId",
      "outputs": [
        {
          "name": "",
          "type": "uint256"
        }
      ],
      "payable": false,
      "stateMutability": "view",
      "type": "function"
    },
    {
      "constant": false,
      "inputs": [
        {
          "name": "_ideaIPFS",
          "type": "string"
        },
        {
          "name": "_globalUseBlockAmount",
          "type": "uint256"
        },
        {
          "name": "_miningTime",
          "type": "uint256"
        },
        {
          "name": "_royalty",
          "type": "uint256"
        },
        {
          "name": "_stakeAmount",
          "type": "uint256"
        },
        {
          "name": "_levelRequirement",
          "type": "uint256"
        },
        {
          "name": "_inventor",
          "type": "address"
        },
        {
          "name": "_invention",
          "type": "address"
        }
      ],
      "name": "proposeIdea",
      "outputs": [],
      "payable": false,
      "stateMutability": "nonpayable",
      "type": "function"
    },
    {
      "constant": true,
      "inputs": [
        {
          "name": "",
          "type": "address"
        }
      ],
      "name": "repInfo",
      "outputs": [
        {
          "name": "BlockReward",
          "type": "uint256"
        },
        {
          "name": "IdeaID",
          "type": "uint256"
        },
        {
          "name": "Royalty",
          "type": "uint256"
        },
        {
          "name": "InventorsAddress",
          "type": "address"
        },
        {
          "name": "ReplicationAddress",
          "type": "address"
        },
        {
          "name": "ReplicationMember",
          "type": "address"
        },
        {
          "name": "OwnersAddress",
          "type": "address"
        },
        {
          "name": "DeviceLockHash",
          "type": "string"
        }
      ],
      "payable": false,
      "stateMutability": "view",
      "type": "function"
    },
    {
      "constant": false,
      "inputs": [],
      "name": "renounceOwnership",
      "outputs": [],
      "payable": false,
      "stateMutability": "nonpayable",
      "type": "function"
    },
    {
      "constant": true,
      "inputs": [],
      "name": "globalUseBlock",
      "outputs": [
        {
          "name": "",
          "type": "uint256"
        }
      ],
      "payable": false,
      "stateMutability": "view",
      "type": "function"
    },
    {
      "constant": true,
      "inputs": [
        {
          "name": "",
          "type": "uint256"
        }
      ],
      "name": "weightTracker",
      "outputs": [
        {
          "name": "",
          "type": "uint256"
        }
      ],
      "payable": false,
      "stateMutability": "view",
      "type": "function"
    },
    {
      "constant": true,
      "inputs": [],
      "name": "owner",
      "outputs": [
        {
          "name": "",
          "type": "address"
        }
      ],
      "payable": false,
      "stateMutability": "view",
      "type": "function"
    },
    {
      "constant": true,
      "inputs": [],
      "name": "isOwner",
      "outputs": [
        {
          "name": "",
          "type": "bool"
        }
      ],
      "payable": false,
      "stateMutability": "view",
      "type": "function"
    },
    {
      "constant": false,
      "inputs": [
        {
          "name": "_ideaId",
          "type": "uint256"
        },
        {
          "name": "_repAdd",
          "type": "address"
        },
        {
          "name": "_repOwner",
          "type": "address"
        },
        {
          "name": "_userId",
          "type": "string"
        },
        {
          "name": "_DLhash",
          "type": "string"
        }
      ],
      "name": "generateReplicationBlock",
      "outputs": [],
      "payable": false,
      "stateMutability": "nonpayable",
      "type": "function"
    },
    {
      "constant": false,
      "inputs": [
        {
          "name": "sender",
          "type": "address"
        }
      ],
      "name": "initialize",
      "outputs": [],
      "payable": false,
      "stateMutability": "nonpayable",
      "type": "function"
    },
    {
      "constant": true,
      "inputs": [
        {
          "name": "",
          "type": "address"
        }
      ],
      "name": "localWeightTracker",
      "outputs": [
        {
          "name": "",
          "type": "uint256"
        }
      ],
      "payable": false,
      "stateMutability": "view",
      "type": "function"
    },
    {
      "constant": true,
      "inputs": [
        {
          "name": "numOfvotes",
          "type": "uint256"
        },
        {
          "name": "numOfmem",
          "type": "uint256"
        }
      ],
      "name": "setVoteQuorum",
      "outputs": [
        {
          "name": "",
          "type": "bool"
        }
      ],
      "payable": false,
      "stateMutability": "pure",
      "type": "function"
    },
    {
      "constant": true,
      "inputs": [
        {
          "name": "",
          "type": "address"
        }
      ],
      "name": "replications",
      "outputs": [
        {
          "name": "",
          "type": "bool"
        }
      ],
      "payable": false,
      "stateMutability": "view",
      "type": "function"
    },
    {
      "constant": true,
      "inputs": [],
      "name": "DCPoA",
      "outputs": [
        {
          "name": "",
          "type": "address"
        }
      ],
      "payable": false,
      "stateMutability": "view",
      "type": "function"
    },
    {
      "constant": false,
      "inputs": [
        {
          "name": "newOwner",
          "type": "address"
        }
      ],
      "name": "transferOwnership",
      "outputs": [],
      "payable": false,
      "stateMutability": "nonpayable",
      "type": "function"
    },
    {
      "constant": true,
      "inputs": [
        {
          "name": "",
          "type": "uint256"
        }
      ],
      "name": "ideaRepCounter",
      "outputs": [
        {
          "name": "",
          "type": "uint256"
        }
      ],
      "payable": false,
      "stateMutability": "view",
      "type": "function"
    },
    {
      "constant": true,
      "inputs": [],
      "name": "Validators",
      "outputs": [
        {
          "name": "",
          "type": "address"
        }
      ],
      "payable": false,
      "stateMutability": "view",
      "type": "function"
    },
    {
      "constant": true,
      "inputs": [],
      "name": "globalIdeaPropCount",
      "outputs": [
        {
          "name": "",
          "type": "uint256"
        }
      ],
      "payable": false,
      "stateMutability": "view",
      "type": "function"
    },
    {
      "anonymous": false,
      "inputs": [
        {
          "indexed": false,
          "name": "IPFS",
          "type": "string"
        }
      ],
      "name": "IdeaProposed",
      "type": "event"
    },
    {
      "anonymous": false,
      "inputs": [
        {
          "indexed": false,
          "name": "member",
          "type": "address"
        }
      ],
      "name": "NewMember",
      "type": "event"
    },
    {
      "anonymous": false,
      "inputs": [
        {
          "indexed": false,
          "name": "IPFS",
          "type": "string"
        },
        {
          "indexed": false,
          "name": "Inventor",
          "type": "address"
        }
      ],
      "name": "IdeaApproved",
      "type": "event"
    },
    {
      "anonymous": false,
      "inputs": [
        {
          "indexed": false,
          "name": "_voter",
          "type": "address"
        },
        {
          "indexed": false,
          "name": "inSupport",
          "type": "bool"
        }
      ],
      "name": "Voted",
      "type": "event"
    },
    {
      "anonymous": false,
      "inputs": [
        {
          "indexed": false,
          "name": "_repAdd",
          "type": "address"
        },
        {
          "indexed": false,
          "name": "repOwner",
          "type": "address"
        }
      ],
      "name": "NewReplication",
      "type": "event"
    },
    {
      "anonymous": false,
      "inputs": [
        {
          "indexed": false,
          "name": "repAdd",
          "type": "address"
        },
        {
          "indexed": false,
          "name": "reOwner",
          "type": "address"
        },
        {
          "indexed": false,
          "name": "repWeight",
          "type": "uint256"
        }
      ],
      "name": "LocalUseWeight",
      "type": "event"
    },
    {
      "anonymous": false,
      "inputs": [
        {
          "indexed": false,
          "name": "repAdd",
          "type": "address"
        },
        {
          "indexed": false,
          "name": "reOwner",
          "type": "address"
        },
        {
          "indexed": false,
          "name": "ideaId",
          "type": "uint256"
        }
      ],
      "name": "GlobalUseBlock",
      "type": "event"
    },
    {
      "anonymous": false,
      "inputs": [
        {
          "indexed": true,
          "name": "previousOwner",
          "type": "address"
        },
        {
          "indexed": true,
          "name": "newOwner",
          "type": "address"
        }
      ],
      "name": "OwnershipTransferred",
      "type": "event"
    },
    {
      "constant": false,
      "inputs": [
        {
          "name": "_DLhash",
          "type": "string"
        }
      ],
      "name": "generateUseBlockWeight",
      "outputs": [],
      "payable": false,
      "stateMutability": "nonpayable",
      "type": "function"
    }
  ],
  "bytecode": "0x608060405234801561001057600080fd5b506131d9806100206000396000f3fe608060405260043610610153576000357c0100000000000000000000000000000000000000000000000000000000900463ffffffff1680622c1a9e1461015857806311e65844146101bb5780631855efa6146102205780631ddc883b146103735780632240d03b1461039e57806328a6e47c146103fb5780632e858cce146104265780634f214e8414610495578063649298b4146104fa5780636849e79514610635578063715018a6146107e057806375824974146107f757806381cbb677146108225780638da5cb5b146108715780638f32d59b146108c8578063aa59fea4146108f7578063c4d66de814610aa0578063ce87d3ee14610af1578063cec5864414610b56578063d436b5e914610bb3578063e026daa114610c1c578063f2bedeff14610c73578063f2fde38b14610d3b578063f54a012914610d8c578063f691977414610ddb578063f7e1e4f014610e32575b600080fd5b34801561016457600080fd5b506101a56004803603606081101561017b57600080fd5b81019080803590602001909291908035906020019092919080359060200190929190505050610e5d565b6040518082815260200191505060405180910390f35b3480156101c757600080fd5b5061020a600480360360208110156101de57600080fd5b81019080803573ffffffffffffffffffffffffffffffffffffffff169060200190929190505050610e96565b6040518082815260200191505060405180910390f35b34801561022c57600080fd5b506102596004803603602081101561024357600080fd5b8101908080359060200190929190505050610eae565b60405180806020018b1515151581526020018a1515151581526020018981526020018881526020018781526020018681526020018581526020018473ffffffffffffffffffffffffffffffffffffffff1673ffffffffffffffffffffffffffffffffffffffff1681526020018373ffffffffffffffffffffffffffffffffffffffff1673ffffffffffffffffffffffffffffffffffffffff16815260200182810382528c818151815260200191508051906020019080838360005b8381101561032f578082015181840152602081019050610314565b50505050905090810190601f16801561035c5780820380516001836020036101000a031916815260200191505b509b50505050505050505050505060405180910390f35b34801561037f57600080fd5b50610388610ff4565b6040518082815260200191505060405180910390f35b3480156103aa57600080fd5b506103e1600480360360408110156103c157600080fd5b810190808035906020019092919080359060200190929190505050610ffa565b604051808215151515815260200191505060405180910390f35b34801561040757600080fd5b5061041061102b565b6040518082815260200191505060405180910390f35b34801561043257600080fd5b5061047f6004803603604081101561044957600080fd5b81019080803573ffffffffffffffffffffffffffffffffffffffff16906020019092919080359060200190929190505050611031565b6040518082815260200191505060405180910390f35b3480156104a157600080fd5b506104e4600480360360208110156104b857600080fd5b81019080803573ffffffffffffffffffffffffffffffffffffffff169060200190929190505050611056565b6040518082815260200191505060405180910390f35b34801561050657600080fd5b50610633600480360361010081101561051e57600080fd5b810190808035906020019064010000000081111561053b57600080fd5b82018360208201111561054d57600080fd5b8035906020019184600183028401116401000000008311171561056f57600080fd5b91908080601f016020809104026020016040519081016040528093929190818152602001838380828437600081840152601f19601f8201169050808301925050505050505091929192908035906020019092919080359060200190929190803590602001909291908035906020019092919080359060200190929190803573ffffffffffffffffffffffffffffffffffffffff169060200190929190803573ffffffffffffffffffffffffffffffffffffffff16906020019092919050505061106e565b005b34801561064157600080fd5b506106846004803603602081101561065857600080fd5b81019080803573ffffffffffffffffffffffffffffffffffffffff1690602001909291905050506112bc565b604051808981526020018881526020018781526020018673ffffffffffffffffffffffffffffffffffffffff1673ffffffffffffffffffffffffffffffffffffffff1681526020018573ffffffffffffffffffffffffffffffffffffffff1673ffffffffffffffffffffffffffffffffffffffff1681526020018473ffffffffffffffffffffffffffffffffffffffff1673ffffffffffffffffffffffffffffffffffffffff1681526020018373ffffffffffffffffffffffffffffffffffffffff1673ffffffffffffffffffffffffffffffffffffffff16815260200180602001828103825283818151815260200191508051906020019080838360005b8381101561079e578082015181840152602081019050610783565b50505050905090810190601f1680156107cb5780820380516001836020036101000a031916815260200191505b50995050505050505050505060405180910390f35b3480156107ec57600080fd5b506107f561141c565b005b34801561080357600080fd5b5061080c6114f0565b6040518082815260200191505060405180910390f35b34801561082e57600080fd5b5061085b6004803603602081101561084557600080fd5b81019080803590602001909291905050506114f6565b6040518082815260200191505060405180910390f35b34801561087d57600080fd5b5061088661150e565b604051808273ffffffffffffffffffffffffffffffffffffffff1673ffffffffffffffffffffffffffffffffffffffff16815260200191505060405180910390f35b3480156108d457600080fd5b506108dd611538565b604051808215151515815260200191505060405180910390f35b34801561090357600080fd5b50610a9e600480360360a081101561091a57600080fd5b8101908080359060200190929190803573ffffffffffffffffffffffffffffffffffffffff169060200190929190803573ffffffffffffffffffffffffffffffffffffffff1690602001909291908035906020019064010000000081111561098157600080fd5b82018360208201111561099357600080fd5b803590602001918460018302840111640100000000831117156109b557600080fd5b91908080601f016020809104026020016040519081016040528093929190818152602001838380828437600081840152601f19601f82011690508083019250505050505050919291929080359060200190640100000000811115610a1857600080fd5b820183602082011115610a2a57600080fd5b80359060200191846001830284011164010000000083111715610a4c57600080fd5b91908080601f016020809104026020016040519081016040528093929190818152602001838380828437600081840152601f19601f820116905080830192505050505050509192919290505050611590565b005b348015610aac57600080fd5b50610aef60048036036020811015610ac357600080fd5b81019080803573ffffffffffffffffffffffffffffffffffffffff169060200190929190505050611f93565b005b348015610afd57600080fd5b50610b4060048036036020811015610b1457600080fd5b81019080803573ffffffffffffffffffffffffffffffffffffffff169060200190929190505050612187565b6040518082815260200191505060405180910390f35b348015610b6257600080fd5b50610b9960048036036040811015610b7957600080fd5b81019080803590602001909291908035906020019092919050505061219f565b604051808215151515815260200191505060405180910390f35b348015610bbf57600080fd5b50610c0260048036036020811015610bd657600080fd5b81019080803573ffffffffffffffffffffffffffffffffffffffff1690602001909291905050506121d0565b604051808215151515815260200191505060405180910390f35b348015610c2857600080fd5b50610c316121f0565b604051808273ffffffffffffffffffffffffffffffffffffffff1673ffffffffffffffffffffffffffffffffffffffff16815260200191505060405180910390f35b348015610c7f57600080fd5b50610d3960048036036020811015610c9657600080fd5b8101908080359060200190640100000000811115610cb357600080fd5b820183602082011115610cc557600080fd5b80359060200191846001830284011164010000000083111715610ce757600080fd5b91908080601f016020809104026020016040519081016040528093929190818152602001838380828437600081840152601f19601f820116905080830192505050505050509192919290505050612216565b005b348015610d4757600080fd5b50610d8a60048036036020811015610d5e57600080fd5b81019080803573ffffffffffffffffffffffffffffffffffffffff169060200190929190505050612892565b005b348015610d9857600080fd5b50610dc560048036036020811015610daf57600080fd5b81019080803590602001909291905050506128b1565b6040518082815260200191505060405180910390f35b348015610de757600080fd5b50610df06128c9565b604051808273ffffffffffffffffffffffffffffffffffffffff1673ffffffffffffffffffffffffffffffffffffffff16815260200191505060405180910390f35b348015610e3e57600080fd5b50610e476128ef565b6040518082815260200191505060405180910390f35b60008060018301600a0a850290506000600a60058684811515610e7c57fe5b0401811515610e8757fe5b04905080925050509392505050565b60716020528060005260406000206000915090505481565b606d602052806000526040600020600091509050806000018054600181600116156101000203166002900480601f016020809104026020016040519081016040528092919081815260200182805460018160011615610100020316600290048015610f5a5780601f10610f2f57610100808354040283529160200191610f5a565b820191906000526020600020905b815481529060010190602001808311610f3d57829003601f168201915b5050505050908060010160009054906101000a900460ff16908060010160019054906101000a900460ff16908060020154908060030154908060040154908060050154908060060154908060070160009054906101000a900473ffffffffffffffffffffffffffffffffffffffff16908060080160009054906101000a900473ffffffffffffffffffffffffffffffffffffffff1690508a565b60695481565b60008061100984846002610e5d565b9050603c8110151561101f576001915050611025565b60009150505b92915050565b60685481565b6074602052816000526040600020602052806000526040600020600091509150505481565b606c6020528060005260406000206000915090505481565b606a600081548092919060010191905055506000606a5490508060758a6040518082805190602001908083835b6020831015156110c0578051825260208201915060208101905060208303925061109b565b6001836020036101000a0380198251168184511680821785525050505050509050019150509081526020016040518091039020819055506000606d6000838152602001908152602001600020905089816000019080519060200190611126929190612fea565b5060008160010160006101000a81548160ff02191690831515021790555060008160010160016101000a81548160ff021916908315150217905550888160020181905550868160030181905550858160050181905550848160060181905550878160040181905550838160070160006101000a81548173ffffffffffffffffffffffffffffffffffffffff021916908373ffffffffffffffffffffffffffffffffffffffff160217905550828160080160006101000a81548173ffffffffffffffffffffffffffffffffffffffff021916908373ffffffffffffffffffffffffffffffffffffffff1602179055507f544a88757adcb29711e2e12a617fb44221880d5013615cf2dbbdb37f5d5059738a6040518080602001828103825283818151815260200191508051906020019080838360005b8381101561127657808201518184015260208101905061125b565b50505050905090810190601f1680156112a35780820380516001836020036101000a031916815260200191505b509250505060405180910390a150505050505050505050565b60736020528060005260406000206000915090508060000154908060010154908060020154908060030160009054906101000a900473ffffffffffffffffffffffffffffffffffffffff16908060040160009054906101000a900473ffffffffffffffffffffffffffffffffffffffff16908060050160009054906101000a900473ffffffffffffffffffffffffffffffffffffffff16908060060160009054906101000a900473ffffffffffffffffffffffffffffffffffffffff1690806007018054600181600116156101000203166002900480601f0160208091040260200160405190810160405280929190818152602001828054600181600116156101000203166002900480156114125780601f106113e757610100808354040283529160200191611412565b820191906000526020600020905b8154815290600101906020018083116113f557829003601f168201915b5050505050905088565b611424611538565b151561142f57600080fd5b600073ffffffffffffffffffffffffffffffffffffffff16603360009054906101000a900473ffffffffffffffffffffffffffffffffffffffff1673ffffffffffffffffffffffffffffffffffffffff167f8be0079c531659141344cd1fd0a4f28419497f9722a3daafe3b4186f6b6457e060405160405180910390a36000603360006101000a81548173ffffffffffffffffffffffffffffffffffffffff021916908373ffffffffffffffffffffffffffffffffffffffff160217905550565b606b5481565b606e6020528060005260406000206000915090505481565b6000603360009054906101000a900473ffffffffffffffffffffffffffffffffffffffff16905090565b6000603360009054906101000a900473ffffffffffffffffffffffffffffffffffffffff1673ffffffffffffffffffffffffffffffffffffffff163373ffffffffffffffffffffffffffffffffffffffff1614905090565b6000606660009054906101000a900473ffffffffffffffffffffffffffffffffffffffff1673ffffffffffffffffffffffffffffffffffffffff1663dc8e79fb846040518263ffffffff167c01000000000000000000000000000000000000000000000000000000000281526004018080602001828103825283818151815260200191508051906020019080838360005b8381101561163c578082015181840152602081019050611621565b50505050905090810190601f1680156116695780820380516001836020036101000a031916815260200191505b509250505060206040518083038186803b15801561168657600080fd5b505afa15801561169a573d6000803e3d6000fd5b505050506040513d60208110156116b057600080fd5b810190808051906020019092919050505090506000606660009054906101000a900473ffffffffffffffffffffffffffffffffffffffff1673ffffffffffffffffffffffffffffffffffffffff1663817c8966836040518263ffffffff167c0100000000000000000000000000000000000000000000000000000000028152600401808273ffffffffffffffffffffffffffffffffffffffff1673ffffffffffffffffffffffffffffffffffffffff16815260200191505060206040518083038186803b15801561178057600080fd5b505afa158015611794573d6000803e3d6000fd5b505050506040513d60208110156117aa57600080fd5b810190808051906020019092919050505090506000606d60008981526020019081526020016000209050606660009054906101000a900473ffffffffffffffffffffffffffffffffffffffff1673ffffffffffffffffffffffffffffffffffffffff1663aaa746bb846040518263ffffffff167c0100000000000000000000000000000000000000000000000000000000028152600401808273ffffffffffffffffffffffffffffffffffffffff1673ffffffffffffffffffffffffffffffffffffffff16815260200191505060206040518083038186803b15801561188f57600080fd5b505afa1580156118a3573d6000803e3d6000fd5b505050506040513d60208110156118b957600080fd5b810190808051906020019092919050505015156118d557600080fd5b806006015482101515156118e857600080fd5b8060010160009054906101000a900460ff16151561190557600080fd5b606660009054906101000a900473ffffffffffffffffffffffffffffffffffffffff1673ffffffffffffffffffffffffffffffffffffffff1663c812a6018483600501546040518363ffffffff167c0100000000000000000000000000000000000000000000000000000000028152600401808373ffffffffffffffffffffffffffffffffffffffff1673ffffffffffffffffffffffffffffffffffffffff16815260200182815260200192505050600060405180830381600087803b1580156119ce57600080fd5b505af11580156119e2573d6000803e3d6000fd5b5050505060008160030154826002015403905060008260070160009054906101000a900473ffffffffffffffffffffffffffffffffffffffff169050600073ffffffffffffffffffffffffffffffffffffffff168873ffffffffffffffffffffffffffffffffffffffff161415611a57578497505b611a5f61306a565b610100604051908101604052808481526020018c8152602001856003015481526020018373ffffffffffffffffffffffffffffffffffffffff1681526020018b73ffffffffffffffffffffffffffffffffffffffff1681526020018773ffffffffffffffffffffffffffffffffffffffff1681526020018a73ffffffffffffffffffffffffffffffffffffffff16815260200188815250905080607360008c73ffffffffffffffffffffffffffffffffffffffff1673ffffffffffffffffffffffffffffffffffffffff16815260200190815260200160002060008201518160000155602082015181600101556040820151816002015560608201518160030160006101000a81548173ffffffffffffffffffffffffffffffffffffffff021916908373ffffffffffffffffffffffffffffffffffffffff16021790555060808201518160040160006101000a81548173ffffffffffffffffffffffffffffffffffffffff021916908373ffffffffffffffffffffffffffffffffffffffff16021790555060a08201518160050160006101000a81548173ffffffffffffffffffffffffffffffffffffffff021916908373ffffffffffffffffffffffffffffffffffffffff16021790555060c08201518160060160006101000a81548173ffffffffffffffffffffffffffffffffffffffff021916908373ffffffffffffffffffffffffffffffffffffffff16021790555060e0820151816007019080519060200190611c8e929190613108565b50905050607060008c8152602001908152602001600020600081548092919060010191905055607060008d8152602001908152602001600020819055506001607260008c73ffffffffffffffffffffffffffffffffffffffff1673ffffffffffffffffffffffffffffffffffffffff16815260200190815260200160002060006101000a81548160ff021916908315150217905550607460008773ffffffffffffffffffffffffffffffffffffffff1673ffffffffffffffffffffffffffffffffffffffff16815260200190815260200160002060008c8152602001908152602001600020600081548092919060010191905055607460008873ffffffffffffffffffffffffffffffffffffffff1673ffffffffffffffffffffffffffffffffffffffff16815260200190815260200160002060008d815260200190815260200160002081905550606660009054906101000a900473ffffffffffffffffffffffffffffffffffffffff1673ffffffffffffffffffffffffffffffffffffffff16634777e8ea876040518263ffffffff167c0100000000000000000000000000000000000000000000000000000000028152600401808273ffffffffffffffffffffffffffffffffffffffff1673ffffffffffffffffffffffffffffffffffffffff168152602001915050600060405180830381600087803b158015611e9357600080fd5b505af1158015611ea7573d6000803e3d6000fd5b5050505042607160008c73ffffffffffffffffffffffffffffffffffffffff1673ffffffffffffffffffffffffffffffffffffffff168152602001908152602001600020819055507f5f3846e5f661cdab5e659252fcf86d485b1390b32b8445afbc165881296513338a87604051808373ffffffffffffffffffffffffffffffffffffffff1673ffffffffffffffffffffffffffffffffffffffff1681526020018273ffffffffffffffffffffffffffffffffffffffff1673ffffffffffffffffffffffffffffffffffffffff1681526020019250505060405180910390a15050505050505050505050565b600060019054906101000a900460ff1680611fb25750611fb16128f5565b5b80611fc957506000809054906101000a900460ff16155b1515612063576040517f08c379a000000000000000000000000000000000000000000000000000000000815260040180806020018281038252602e8152602001807f436f6e747261637420696e7374616e63652068617320616c726561647920626581526020017f656e20696e697469616c697a656400000000000000000000000000000000000081525060400191505060405180910390fd5b60008060019054906101000a900460ff1690506001600060016101000a81548160ff02191690831515021790555060016000806101000a81548160ff02191690831515021790555081603360006101000a81548173ffffffffffffffffffffffffffffffffffffffff021916908373ffffffffffffffffffffffffffffffffffffffff160217905550603360009054906101000a900473ffffffffffffffffffffffffffffffffffffffff1673ffffffffffffffffffffffffffffffffffffffff16600073ffffffffffffffffffffffffffffffffffffffff167f8be0079c531659141344cd1fd0a4f28419497f9722a3daafe3b4186f6b6457e060405160405180910390a380600060016101000a81548160ff0219169083151502179055505050565b606f6020528060005260406000206000915090505481565b6000806121ae84846002610e5d565b90506050811015156121c45760019150506121ca565b60009150505b92915050565b60726020528060005260406000206000915054906101000a900460ff1681565b606660009054906101000a900473ffffffffffffffffffffffffffffffffffffffff1681565b607260003373ffffffffffffffffffffffffffffffffffffffff1673ffffffffffffffffffffffffffffffffffffffff16815260200190815260200160002060009054906101000a900460ff16151561226e57600080fd5b600033905061227b61306a565b607360008373ffffffffffffffffffffffffffffffffffffffff1673ffffffffffffffffffffffffffffffffffffffff16815260200190815260200160002061010060405190810160405290816000820154815260200160018201548152602001600282015481526020016003820160009054906101000a900473ffffffffffffffffffffffffffffffffffffffff1673ffffffffffffffffffffffffffffffffffffffff1673ffffffffffffffffffffffffffffffffffffffff1681526020016004820160009054906101000a900473ffffffffffffffffffffffffffffffffffffffff1673ffffffffffffffffffffffffffffffffffffffff1673ffffffffffffffffffffffffffffffffffffffff1681526020016005820160009054906101000a900473ffffffffffffffffffffffffffffffffffffffff1673ffffffffffffffffffffffffffffffffffffffff1673ffffffffffffffffffffffffffffffffffffffff1681526020016006820160009054906101000a900473ffffffffffffffffffffffffffffffffffffffff1673ffffffffffffffffffffffffffffffffffffffff1673ffffffffffffffffffffffffffffffffffffffff168152602001600782018054600181600116156101000203166002900480601f0160208091040260200160405190810160405280929190818152602001828054600181600116156101000203166002900480156124d65780601f106124ab576101008083540402835291602001916124d6565b820191906000526020600020905b8154815290600101906020018083116124b957829003601f168201915b50505050508152505090508060e001516040516020018082805190602001908083835b60208310151561251e57805182526020820191506020810190506020830392506124f9565b6001836020036101000a03801982511681845116808217855250505050505090500191505060405160208183030381529060405280519060200120836040516020018082805190602001908083835b602083101515612592578051825260208201915060208101905060208303925061256d565b6001836020036101000a038019825116818451168082178552505050505050905001915050604051602081830303815290604052805190602001201415156125d957600080fd5b6000816020015190506000606d6000838152602001908152602001600020905060006001606f60008773ffffffffffffffffffffffffffffffffffffffff1673ffffffffffffffffffffffffffffffffffffffff168152602001908152602001600020540190508160040154607160008773ffffffffffffffffffffffffffffffffffffffff1673ffffffffffffffffffffffffffffffffffffffff1681526020019081526020016000205401421015151561269457600080fd5b606e60008481526020019081526020016000205481111561275e576126b885612906565b42607160008773ffffffffffffffffffffffffffffffffffffffff1673ffffffffffffffffffffffffffffffffffffffff1681526020019081526020016000208190555080606e6000858152602001908152602001600020819055506000606f60008773ffffffffffffffffffffffffffffffffffffffff1673ffffffffffffffffffffffffffffffffffffffff1681526020019081526020016000208190555061288a565b42607160008773ffffffffffffffffffffffffffffffffffffffff1673ffffffffffffffffffffffffffffffffffffffff1681526020019081526020016000208190555080606f60008773ffffffffffffffffffffffffffffffffffffffff1673ffffffffffffffffffffffffffffffffffffffff168152602001908152602001600020819055507f7e0163293172761353775ed5413c5650c56917cf163cbd6293a4636b6a87a6e6858560c0015183604051808473ffffffffffffffffffffffffffffffffffffffff1673ffffffffffffffffffffffffffffffffffffffff1681526020018373ffffffffffffffffffffffffffffffffffffffff1673ffffffffffffffffffffffffffffffffffffffff168152602001828152602001935050505060405180910390a15b505050505050565b61289a611538565b15156128a557600080fd5b6128ae81612eee565b50565b60706020528060005260406000206000915090505481565b606760009054906101000a900473ffffffffffffffffffffffffffffffffffffffff1681565b606a5481565b600080303b90506000811491505090565b61290e61306a565b607360008373ffffffffffffffffffffffffffffffffffffffff1673ffffffffffffffffffffffffffffffffffffffff16815260200190815260200160002061010060405190810160405290816000820154815260200160018201548152602001600282015481526020016003820160009054906101000a900473ffffffffffffffffffffffffffffffffffffffff1673ffffffffffffffffffffffffffffffffffffffff1673ffffffffffffffffffffffffffffffffffffffff1681526020016004820160009054906101000a900473ffffffffffffffffffffffffffffffffffffffff1673ffffffffffffffffffffffffffffffffffffffff1673ffffffffffffffffffffffffffffffffffffffff1681526020016005820160009054906101000a900473ffffffffffffffffffffffffffffffffffffffff1673ffffffffffffffffffffffffffffffffffffffff1673ffffffffffffffffffffffffffffffffffffffff1681526020016006820160009054906101000a900473ffffffffffffffffffffffffffffffffffffffff1673ffffffffffffffffffffffffffffffffffffffff1673ffffffffffffffffffffffffffffffffffffffff168152602001600782018054600181600116156101000203166002900480601f016020809104026020016040519081016040528092919081815260200182805460018160011615610100020316600290048015612b695780601f10612b3e57610100808354040283529160200191612b69565b820191906000526020600020905b815481529060010190602001808311612b4c57829003601f168201915b5050505050815250509050606b60008154809291906001019190505550600060028260000151811515612b9857fe5b049050606660009054906101000a900473ffffffffffffffffffffffffffffffffffffffff1673ffffffffffffffffffffffffffffffffffffffff16636326e4ce8360a00151836040518363ffffffff167c0100000000000000000000000000000000000000000000000000000000028152600401808373ffffffffffffffffffffffffffffffffffffffff1673ffffffffffffffffffffffffffffffffffffffff16815260200182815260200192505050600060405180830381600087803b158015612c6457600080fd5b505af1158015612c78573d6000803e3d6000fd5b50505050606660009054906101000a900473ffffffffffffffffffffffffffffffffffffffff1673ffffffffffffffffffffffffffffffffffffffff16636326e4ce8360c00151836040518363ffffffff167c0100000000000000000000000000000000000000000000000000000000028152600401808373ffffffffffffffffffffffffffffffffffffffff1673ffffffffffffffffffffffffffffffffffffffff16815260200182815260200192505050600060405180830381600087803b158015612d4557600080fd5b505af1158015612d59573d6000803e3d6000fd5b50505050606660009054906101000a900473ffffffffffffffffffffffffffffffffffffffff1673ffffffffffffffffffffffffffffffffffffffff16636326e4ce836060015184604001516040518363ffffffff167c0100000000000000000000000000000000000000000000000000000000028152600401808373ffffffffffffffffffffffffffffffffffffffff1673ffffffffffffffffffffffffffffffffffffffff16815260200182815260200192505050600060405180830381600087803b158015612e2a57600080fd5b505af1158015612e3e573d6000803e3d6000fd5b505050507f8a950e000c348dbaa89e6f160262461c978e369ad1596e8697d08cd54d851540838360c001518460200151604051808473ffffffffffffffffffffffffffffffffffffffff1673ffffffffffffffffffffffffffffffffffffffff1681526020018373ffffffffffffffffffffffffffffffffffffffff1673ffffffffffffffffffffffffffffffffffffffff168152602001828152602001935050505060405180910390a1505050565b600073ffffffffffffffffffffffffffffffffffffffff168173ffffffffffffffffffffffffffffffffffffffff1614151515612f2a57600080fd5b8073ffffffffffffffffffffffffffffffffffffffff16603360009054906101000a900473ffffffffffffffffffffffffffffffffffffffff1673ffffffffffffffffffffffffffffffffffffffff167f8be0079c531659141344cd1fd0a4f28419497f9722a3daafe3b4186f6b6457e060405160405180910390a380603360006101000a81548173ffffffffffffffffffffffffffffffffffffffff021916908373ffffffffffffffffffffffffffffffffffffffff16021790555050565b828054600181600116156101000203166002900490600052602060002090601f016020900481019282601f1061302b57805160ff1916838001178555613059565b82800160010185558215613059579182015b8281111561305857825182559160200191906001019061303d565b5b5090506130669190613188565b5090565b61010060405190810160405280600081526020016000815260200160008152602001600073ffffffffffffffffffffffffffffffffffffffff168152602001600073ffffffffffffffffffffffffffffffffffffffff168152602001600073ffffffffffffffffffffffffffffffffffffffff168152602001600073ffffffffffffffffffffffffffffffffffffffff168152602001606081525090565b828054600181600116156101000203166002900490600052602060002090601f016020900481019282601f1061314957805160ff1916838001178555613177565b82800160010185558215613177579182015b8281111561317657825182559160200191906001019061315b565b5b5090506131849190613188565b5090565b6131aa91905b808211156131a657600081600090555060010161318e565b5090565b9056fea165627a7a723058201219e5ccb6512f10a1203353059e457dae606b4dbe3ebf3fea80cfb464447f690029",
  "source": "pragma solidity ^0.5.0;\nimport './RepBlockLogic.sol';\n\ncontract UseBlockLogic is RepBlockLogic {\n  ///@notice generateGlobalUseBlock is an internal function called when the cryptopatent blockchain has determined\n  ///        that a replication has mined a global use block.\n  function generateGlobalUseBlock(address _rep) internal {\n  ReplicationInfo memory infoR = repInfo[_rep];\n  //pulls a specific replications information in to be used as the variable infoR\n  // sets poolModedBlockReward equal to the block reward for a specific replications\n  // and multiplies it by how many replications a member owns. this is the pool mining bonus\n    globalUseBlock++;\n  //increases the Global UseBlock count\n   uint halfsies = infoR.BlockReward / 2;\n  //cuts block reward in half to be split between the rep maker and rep owner\n    DCPoA.proxyNTCMint(infoR.ReplicationMember, halfsies);\n  //mints the replicating member his modded block reward\n    DCPoA.proxyNTCMint(infoR.OwnersAddress, halfsies);\n  //mints the replication Owner his modded block reward\n    DCPoA.proxyNTCMint(infoR.InventorsAddress, infoR.Royalty);\n  //mints royalties to the idea inventor\n    emit GlobalUseBlock(_rep, infoR.OwnersAddress, infoR.IdeaID);\n  }\n\n  ///@notice UseBlockWeight is an internal function that tracks loacal use weightTracker\n  ///@dev this is called by generateUseBlockWeight\n  function generateUseBlockWeight(string memory _DLhash) public {\n  //requires the msg.sender's address is an activated replication\n    require(replications[msg.sender]);\n    address _rep = msg.sender;\n  //pulls the specific replications replication block into memory\n    ReplicationInfo memory infoR = repInfo[_rep];\n  //requires that the DeviceLock IPFS hash sent from the MineUseBlock function of the EPMS matches\n  //the one stored in the devices Replication Block...\n  //this encodes both strings as == doesnt work with strings in solidity directly\n    require(keccak256(abi.encodePacked((_DLhash))) == keccak256(abi.encodePacked((infoR.DeviceLockHash))));\n  //pulls a specific replications information in to be used as the variable infoR\n    uint ideaID = infoR.IdeaID;\n  //sets ideaID as a specific ideaID from the replications struct\n      IdeaProposal storage info = ideaProposals[ideaID];\n  //pulls a specific idea struct int to be used as the variable info\n    uint newWeight = localWeightTracker[_rep] + 1;\n  // increases the weight of a specific replication\n    require(now >= localMiningtimeTracker[_rep] +  info.miningTime);\n  //requires the time the function is called to be later than the combined total of its last call\n  //and the specific ideas mining time resraint\n  //this require fails if the rep is calling to frequently\n    if(newWeight > weightTracker[ideaID]) {\n  //checks if the replication has the heaviest weight\n    generateGlobalUseBlock(_rep);\n  //if it does it generates a global use block\n     localMiningtimeTracker[_rep] = now;\n  //resets the global mining time for a specific idea after a useBlock is mined\n     weightTracker[ideaID] = newWeight;\n  //sets the global block height to the weight of the mining replication\n     localWeightTracker[_rep] = 0;\n  //resets the local weight tracker for the mining replication\n  } else {\n    //if the replications weight is not heavy enough to mine a new block\n      localMiningtimeTracker[_rep] = now;\n    //set its local mining time tracker to the current time so it cant abuse the mining function\n      localWeightTracker[_rep] = newWeight;\n    //setts the local weight tracker for the rep to its new weight\n      emit LocalUseWeight(_rep, infoR.OwnersAddress, newWeight);\n    //emit event signaling that a replication mined a local weight without a global Useblock\n    }\n  }\n\n}\n",
  "sourcePath": "/home/stan36/repos/DecentraCorpContracts/contracts/CryptoPatent/UseBlockLogic.sol",
  "compiler": {
    "name": "solc",
    "version": "0.5.0+commit.1d4f565a.Emscripten.clang"
  },
  "schemaVersion": "3.0.2",
  "updatedAt": "2019-07-08T17:22:33.666Z",
  "devdoc": {
    "methods": {
      "generateReplicationBlock(uint256,address,address,string,string)": {
        "details": "this requires the replicator has enough Notio to meet the stake amount and burns it from existenceit also adds the replicator as a member of DecentraCorpfinally, this contract calls the Proof of Replication Ownership contract and mints a PoRO token to the msg.sender"
      },
      "generateUseBlockWeight(string)": {
        "details": "this is called by generateUseBlockWeight"
      },
      "initialize(address)": {
        "details": "The Ownable constructor sets the original `owner` of the contract to the sender account."
      },
      "isOwner()": {
        "return": "true if `msg.sender` is the owner of the contract."
      },
      "owner()": {
        "return": "the address of the owner."
      },
      "percent(uint256,uint256,uint256)": {
        "details": "quorum is set to 60%"
      },
      "proposeIdea(string,uint256,uint256,uint256,uint256,uint256,address,address)": {
        "details": "the struct for this is set in interface.solidityidea proposals are put up for community approval"
      },
      "renounceOwnership()": {
        "details": "Allows the current owner to relinquish control of the contract."
      },
      "transferOwnership(address)": {
        "details": "Allows the current owner to transfer control of the contract to a newOwner.",
        "params": {
          "newOwner": "The address to transfer ownership to."
        }
      }
    }
  },
  "userdoc": {
    "methods": {
      "generateReplicationBlock(uint256,address,address,string,string)": {
        "notice": "generateReplicationBlock is used to generate a replication block when someone sucessfully replicates an Idea"
      },
      "generateUseBlockWeight(string)": {
        "notice": "UseBlockWeight is an internal function that tracks loacal use weightTracker"
      },
      "percent(uint256,uint256,uint256)": {
        "notice": "set_Quorum is an internal function used by proposal vote counts to see if the community approves"
      },
      "proposeIdea(string,uint256,uint256,uint256,uint256,uint256,address,address)": {
        "notice": "proposeIdea is used to allow ANYONE to petition the community for idea approval"
      },
      "renounceOwnership()": {
        "notice": "Renouncing to ownership will leave the contract without an owner. It will not be possible to call the functions with the `onlyOwner` modifier anymore."
      }
    }
  }
}