{
  "contractName": "UseBlockLogic",
  "abi": [
    {
      "constant": true,
      "inputs": [
        {
          "name": "numerator",
          "type": "uint256"
        },
        {
          "name": "denominator",
          "type": "uint256"
        },
        {
          "name": "precision",
          "type": "uint256"
        }
      ],
      "name": "percent",
      "outputs": [
        {
          "name": "quotient",
          "type": "uint256"
        }
      ],
      "payable": false,
      "stateMutability": "pure",
      "type": "function"
    },
    {
      "constant": true,
      "inputs": [
        {
          "name": "hash",
          "type": "string"
        }
      ],
      "name": "getPropID",
      "outputs": [
        {
          "name": "",
          "type": "uint256"
        }
      ],
      "payable": false,
      "stateMutability": "view",
      "type": "function"
    },
    {
      "constant": true,
      "inputs": [
        {
          "name": "",
          "type": "address"
        }
      ],
      "name": "localMiningtimeTracker",
      "outputs": [
        {
          "name": "",
          "type": "uint256"
        }
      ],
      "payable": false,
      "stateMutability": "view",
      "type": "function"
    },
    {
      "constant": false,
      "inputs": [
        {
          "name": "_ideaProposalID",
          "type": "uint256"
        },
        {
          "name": "supportsProposal",
          "type": "bool"
        }
      ],
      "name": "ideaVote",
      "outputs": [],
      "payable": false,
      "stateMutability": "nonpayable",
      "type": "function"
    },
    {
      "constant": true,
      "inputs": [
        {
          "name": "",
          "type": "uint256"
        }
      ],
      "name": "ideaProposals",
      "outputs": [
        {
          "name": "IdeaIPFS",
          "type": "string"
        },
        {
          "name": "IdeaBlock",
          "type": "bool"
        },
        {
          "name": "executed",
          "type": "bool"
        },
        {
          "name": "globalUseBlockAmount",
          "type": "uint256"
        },
        {
          "name": "royalty",
          "type": "uint256"
        },
        {
          "name": "miningTime",
          "type": "uint256"
        },
        {
          "name": "stakeAmount",
          "type": "uint256"
        },
        {
          "name": "levelRequirement",
          "type": "uint256"
        },
        {
          "name": "inventorAddress",
          "type": "address"
        },
        {
          "name": "inventionAddress",
          "type": "address"
        }
      ],
      "payable": false,
      "stateMutability": "view",
      "type": "function"
    },
    {
      "constant": true,
      "inputs": [
        {
          "name": "_mem",
          "type": "address"
        }
      ],
      "name": "getOwnedIB",
      "outputs": [
        {
          "name": "",
          "type": "uint256[]"
        }
      ],
      "payable": false,
      "stateMutability": "view",
      "type": "function"
    },
    {
      "constant": true,
      "inputs": [],
      "name": "ideaBlockReward",
      "outputs": [
        {
          "name": "",
          "type": "uint256"
        }
      ],
      "payable": false,
      "stateMutability": "view",
      "type": "function"
    },
    {
      "constant": true,
      "inputs": [
        {
          "name": "numOfvotes",
          "type": "uint256"
        },
        {
          "name": "numOfmem",
          "type": "uint256"
        }
      ],
      "name": "setVoteNumberQuorum",
      "outputs": [
        {
          "name": "",
          "type": "bool"
        }
      ],
      "payable": false,
      "stateMutability": "pure",
      "type": "function"
    },
    {
      "constant": true,
      "inputs": [],
      "name": "globalBlockHalfTime",
      "outputs": [
        {
          "name": "",
          "type": "uint256"
        }
      ],
      "payable": false,
      "stateMutability": "view",
      "type": "function"
    },
    {
      "constant": true,
      "inputs": [
        {
          "name": "",
          "type": "address"
        },
        {
          "name": "",
          "type": "uint256"
        }
      ],
      "name": "repOwnes",
      "outputs": [
        {
          "name": "",
          "type": "uint256"
        }
      ],
      "payable": false,
      "stateMutability": "view",
      "type": "function"
    },
    {
      "constant": true,
      "inputs": [
        {
          "name": "_add",
          "type": "address"
        },
        {
          "name": "_ideaProposalID",
          "type": "uint256"
        }
      ],
      "name": "checkIfVotedIdea",
      "outputs": [
        {
          "name": "",
          "type": "bool"
        }
      ],
      "payable": false,
      "stateMutability": "view",
      "type": "function"
    },
    {
      "constant": true,
      "inputs": [
        {
          "name": "",
          "type": "address"
        }
      ],
      "name": "IdeaAddToId",
      "outputs": [
        {
          "name": "",
          "type": "uint256"
        }
      ],
      "payable": false,
      "stateMutability": "view",
      "type": "function"
    },
    {
      "constant": false,
      "inputs": [
        {
          "name": "_ideaIPFS",
          "type": "string"
        },
        {
          "name": "_globalUseBlockAmount",
          "type": "uint256"
        },
        {
          "name": "_miningTime",
          "type": "uint256"
        },
        {
          "name": "_royalty",
          "type": "uint256"
        },
        {
          "name": "_stakeAmount",
          "type": "uint256"
        },
        {
          "name": "_levelRequirement",
          "type": "uint256"
        },
        {
          "name": "_inventor",
          "type": "address"
        },
        {
          "name": "_invention",
          "type": "address"
        }
      ],
      "name": "proposeIdea",
      "outputs": [],
      "payable": false,
      "stateMutability": "nonpayable",
      "type": "function"
    },
    {
      "constant": true,
      "inputs": [
        {
          "name": "",
          "type": "address"
        }
      ],
      "name": "repInfo",
      "outputs": [
        {
          "name": "BlockReward",
          "type": "uint256"
        },
        {
          "name": "IdeaID",
          "type": "uint256"
        },
        {
          "name": "Royalty",
          "type": "uint256"
        },
        {
          "name": "InventorsAddress",
          "type": "address"
        },
        {
          "name": "ReplicationAddress",
          "type": "address"
        },
        {
          "name": "ReplicationMember",
          "type": "address"
        },
        {
          "name": "OwnersAddress",
          "type": "address"
        },
        {
          "name": "DeviceLockHash",
          "type": "string"
        }
      ],
      "payable": false,
      "stateMutability": "view",
      "type": "function"
    },
    {
      "constant": false,
      "inputs": [],
      "name": "renounceOwnership",
      "outputs": [],
      "payable": false,
      "stateMutability": "nonpayable",
      "type": "function"
    },
    {
      "constant": true,
      "inputs": [],
      "name": "globalUseBlock",
      "outputs": [
        {
          "name": "",
          "type": "uint256"
        }
      ],
      "payable": false,
      "stateMutability": "view",
      "type": "function"
    },
    {
      "constant": true,
      "inputs": [
        {
          "name": "",
          "type": "uint256"
        }
      ],
      "name": "weightTracker",
      "outputs": [
        {
          "name": "",
          "type": "uint256"
        }
      ],
      "payable": false,
      "stateMutability": "view",
      "type": "function"
    },
    {
      "constant": true,
      "inputs": [],
      "name": "owner",
      "outputs": [
        {
          "name": "",
          "type": "address"
        }
      ],
      "payable": false,
      "stateMutability": "view",
      "type": "function"
    },
    {
      "constant": false,
      "inputs": [
        {
          "name": "_newOwner",
          "type": "address"
        },
        {
          "name": "_ideaProposalID",
          "type": "uint256"
        }
      ],
      "name": "transferIdeaBlock",
      "outputs": [],
      "payable": false,
      "stateMutability": "nonpayable",
      "type": "function"
    },
    {
      "constant": true,
      "inputs": [],
      "name": "isOwner",
      "outputs": [
        {
          "name": "",
          "type": "bool"
        }
      ],
      "payable": false,
      "stateMutability": "view",
      "type": "function"
    },
    {
      "constant": false,
      "inputs": [
        {
          "name": "_ideaId",
          "type": "uint256"
        },
        {
          "name": "_repAdd",
          "type": "address"
        },
        {
          "name": "_repOwner",
          "type": "address"
        },
        {
          "name": "_userId",
          "type": "string"
        },
        {
          "name": "_DLhash",
          "type": "string"
        }
      ],
      "name": "generateReplicationBlock",
      "outputs": [],
      "payable": false,
      "stateMutability": "nonpayable",
      "type": "function"
    },
    {
      "constant": false,
      "inputs": [
        {
          "name": "sender",
          "type": "address"
        }
      ],
      "name": "initialize",
      "outputs": [],
      "payable": false,
      "stateMutability": "nonpayable",
      "type": "function"
    },
    {
      "constant": true,
      "inputs": [
        {
          "name": "",
          "type": "address"
        }
      ],
      "name": "localWeightTracker",
      "outputs": [
        {
          "name": "",
          "type": "uint256"
        }
      ],
      "payable": false,
      "stateMutability": "view",
      "type": "function"
    },
    {
      "constant": true,
      "inputs": [
        {
          "name": "numOfvotes",
          "type": "uint256"
        },
        {
          "name": "numOfmem",
          "type": "uint256"
        }
      ],
      "name": "setVoteQuorum",
      "outputs": [
        {
          "name": "",
          "type": "bool"
        }
      ],
      "payable": false,
      "stateMutability": "pure",
      "type": "function"
    },
    {
      "constant": true,
      "inputs": [
        {
          "name": "",
          "type": "address"
        }
      ],
      "name": "replications",
      "outputs": [
        {
          "name": "",
          "type": "bool"
        }
      ],
      "payable": false,
      "stateMutability": "view",
      "type": "function"
    },
    {
      "constant": true,
      "inputs": [],
      "name": "DCPoA",
      "outputs": [
        {
          "name": "",
          "type": "address"
        }
      ],
      "payable": false,
      "stateMutability": "view",
      "type": "function"
    },
    {
      "constant": true,
      "inputs": [
        {
          "name": "",
          "type": "uint256"
        }
      ],
      "name": "ideaUpgradeProposals",
      "outputs": [
        {
          "name": "uIdeaIPFS",
          "type": "string"
        },
        {
          "name": "uexecuted",
          "type": "bool"
        },
        {
          "name": "uglobalUseBlockAmount",
          "type": "uint256"
        },
        {
          "name": "uroyalty",
          "type": "uint256"
        },
        {
          "name": "uminingTime",
          "type": "uint256"
        },
        {
          "name": "ustakeAmount",
          "type": "uint256"
        },
        {
          "name": "ulevelRequirement",
          "type": "uint256"
        },
        {
          "name": "uinventorAddress",
          "type": "address"
        },
        {
          "name": "uinventionAddress",
          "type": "address"
        }
      ],
      "payable": false,
      "stateMutability": "view",
      "type": "function"
    },
    {
      "constant": false,
      "inputs": [
        {
          "name": "newOwner",
          "type": "address"
        }
      ],
      "name": "transferOwnership",
      "outputs": [],
      "payable": false,
      "stateMutability": "nonpayable",
      "type": "function"
    },
    {
      "constant": true,
      "inputs": [
        {
          "name": "",
          "type": "uint256"
        }
      ],
      "name": "ideaRepCounter",
      "outputs": [
        {
          "name": "",
          "type": "uint256"
        }
      ],
      "payable": false,
      "stateMutability": "view",
      "type": "function"
    },
    {
      "constant": true,
      "inputs": [],
      "name": "Validators",
      "outputs": [
        {
          "name": "",
          "type": "address"
        }
      ],
      "payable": false,
      "stateMutability": "view",
      "type": "function"
    },
    {
      "constant": true,
      "inputs": [],
      "name": "globalIdeaPropCount",
      "outputs": [
        {
          "name": "",
          "type": "uint256"
        }
      ],
      "payable": false,
      "stateMutability": "view",
      "type": "function"
    },
    {
      "anonymous": false,
      "inputs": [
        {
          "indexed": false,
          "name": "IPFS",
          "type": "string"
        }
      ],
      "name": "IdeaProposed",
      "type": "event"
    },
    {
      "anonymous": false,
      "inputs": [
        {
          "indexed": false,
          "name": "member",
          "type": "address"
        }
      ],
      "name": "NewMember",
      "type": "event"
    },
    {
      "anonymous": false,
      "inputs": [
        {
          "indexed": false,
          "name": "IPFS",
          "type": "string"
        },
        {
          "indexed": false,
          "name": "Inventor",
          "type": "address"
        }
      ],
      "name": "IdeaApproved",
      "type": "event"
    },
    {
      "anonymous": false,
      "inputs": [
        {
          "indexed": false,
          "name": "_voter",
          "type": "address"
        },
        {
          "indexed": false,
          "name": "inSupport",
          "type": "bool"
        }
      ],
      "name": "Voted",
      "type": "event"
    },
    {
      "anonymous": false,
      "inputs": [
        {
          "indexed": false,
          "name": "_repAdd",
          "type": "address"
        },
        {
          "indexed": false,
          "name": "repOwner",
          "type": "address"
        }
      ],
      "name": "NewReplication",
      "type": "event"
    },
    {
      "anonymous": false,
      "inputs": [
        {
          "indexed": false,
          "name": "repAdd",
          "type": "address"
        },
        {
          "indexed": false,
          "name": "reOwner",
          "type": "address"
        },
        {
          "indexed": false,
          "name": "repWeight",
          "type": "uint256"
        }
      ],
      "name": "LocalUseWeight",
      "type": "event"
    },
    {
      "anonymous": false,
      "inputs": [
        {
          "indexed": false,
          "name": "repAdd",
          "type": "address"
        },
        {
          "indexed": false,
          "name": "reOwner",
          "type": "address"
        },
        {
          "indexed": false,
          "name": "ideaId",
          "type": "uint256"
        }
      ],
      "name": "GlobalUseBlock",
      "type": "event"
    },
    {
      "anonymous": false,
      "inputs": [
        {
          "indexed": true,
          "name": "previousOwner",
          "type": "address"
        },
        {
          "indexed": true,
          "name": "newOwner",
          "type": "address"
        }
      ],
      "name": "OwnershipTransferred",
      "type": "event"
    },
    {
      "constant": false,
      "inputs": [
        {
          "name": "_DLhash",
          "type": "string"
        }
      ],
      "name": "generateUseBlockWeight",
      "outputs": [],
      "payable": false,
      "stateMutability": "nonpayable",
      "type": "function"
    }
  ],
  "bytecode": "0x6080604052614186806100136000396000f3fe608060405234801561001057600080fd5b50600436106101ef5760003560e01c806381cbb6771161010f578063d436b5e9116100a2578063f2fde38b11610071578063f2fde38b1461104a578063f54a01291461108e578063f6919774146110d0578063f7e1e4f01461111a576101ef565b8063d436b5e914610dae578063e026daa114610e0a578063ee01309614610e54578063f2bedeff14610f8f576101ef565b8063aa59fea4116100de578063aa59fea414610b26578063c4d66de814610cc2578063ce87d3ee14610d06578063cec5864414610d5e576101ef565b806381cbb67714610a2a5780638da5cb5b14610a6c5780638da9c0b614610ab65780638f32d59b14610b04576101ef565b806328a6e47c11610187578063649298b411610156578063649298b4146107365780636849e79514610864578063715018a614610a025780637582497414610a0c576101ef565b806328a6e47c146105f85780632e858cce146106165780634e6a3630146106785780634f214e84146106de576101ef565b80631855efa6116101c35780631855efa6146103ab5780631ad8a201146104f15780631ddc883b1461058a5780632240d03b146105a8576101ef565b80622c1a9e146101f457806310734e431461024a57806311e65844146103195780631411114114610371575b600080fd5b6102346004803603606081101561020a57600080fd5b81019080803590602001909291908035906020019092919080359060200190929190505050611138565b6040518082815260200191505060405180910390f35b6103036004803603602081101561026057600080fd5b810190808035906020019064010000000081111561027d57600080fd5b82018360208201111561028f57600080fd5b803590602001918460018302840111640100000000831117156102b157600080fd5b91908080601f016020809104026020016040519081016040528093929190818152602001838380828437600081840152601f19601f82011690508083019250505050505050919291929050505061116d565b6040518082815260200191505060405180910390f35b61035b6004803603602081101561032f57600080fd5b81019080803573ffffffffffffffffffffffffffffffffffffffff1690602001909291905050506111e0565b6040518082815260200191505060405180910390f35b6103a96004803603604081101561038757600080fd5b81019080803590602001909291908035151590602001909291905050506111f8565b005b6103d7600480360360208110156103c157600080fd5b810190808035906020019092919050505061169d565b60405180806020018b1515151581526020018a1515151581526020018981526020018881526020018781526020018681526020018581526020018473ffffffffffffffffffffffffffffffffffffffff1673ffffffffffffffffffffffffffffffffffffffff1681526020018373ffffffffffffffffffffffffffffffffffffffff1673ffffffffffffffffffffffffffffffffffffffff16815260200182810382528c818151815260200191508051906020019080838360005b838110156104ad578082015181840152602081019050610492565b50505050905090810190601f1680156104da5780820380516001836020036101000a031916815260200191505b509b50505050505050505050505060405180910390f35b6105336004803603602081101561050757600080fd5b81019080803573ffffffffffffffffffffffffffffffffffffffff1690602001909291905050506117e3565b6040518080602001828103825283818151815260200191508051906020019060200280838360005b8381101561057657808201518184015260208101905061055b565b505050509050019250505060405180910390f35b61059261187a565b6040518082815260200191505060405180910390f35b6105de600480360360408110156105be57600080fd5b810190808035906020019092919080359060200190929190505050611880565b604051808215151515815260200191505060405180910390f35b6106006118af565b6040518082815260200191505060405180910390f35b6106626004803603604081101561062c57600080fd5b81019080803573ffffffffffffffffffffffffffffffffffffffff169060200190929190803590602001909291905050506118b5565b6040518082815260200191505060405180910390f35b6106c46004803603604081101561068e57600080fd5b81019080803573ffffffffffffffffffffffffffffffffffffffff169060200190929190803590602001909291905050506118da565b604051808215151515815260200191505060405180910390f35b610720600480360360208110156106f457600080fd5b81019080803573ffffffffffffffffffffffffffffffffffffffff16906020019092919050505061194a565b6040518082815260200191505060405180910390f35b610862600480360361010081101561074d57600080fd5b810190808035906020019064010000000081111561076a57600080fd5b82018360208201111561077c57600080fd5b8035906020019184600183028401116401000000008311171561079e57600080fd5b91908080601f016020809104026020016040519081016040528093929190818152602001838380828437600081840152601f19601f8201169050808301925050505050505091929192908035906020019092919080359060200190929190803590602001909291908035906020019092919080359060200190929190803573ffffffffffffffffffffffffffffffffffffffff169060200190929190803573ffffffffffffffffffffffffffffffffffffffff169060200190929190505050611962565b005b6108a66004803603602081101561087a57600080fd5b81019080803573ffffffffffffffffffffffffffffffffffffffff169060200190929190505050611bbc565b604051808981526020018881526020018781526020018673ffffffffffffffffffffffffffffffffffffffff1673ffffffffffffffffffffffffffffffffffffffff1681526020018573ffffffffffffffffffffffffffffffffffffffff1673ffffffffffffffffffffffffffffffffffffffff1681526020018473ffffffffffffffffffffffffffffffffffffffff1673ffffffffffffffffffffffffffffffffffffffff1681526020018373ffffffffffffffffffffffffffffffffffffffff1673ffffffffffffffffffffffffffffffffffffffff16815260200180602001828103825283818151815260200191508051906020019080838360005b838110156109c05780820151818401526020810190506109a5565b50505050905090810190601f1680156109ed5780820380516001836020036101000a031916815260200191505b50995050505050505050505060405180910390f35b610a0a611d1c565b005b610a14611dee565b6040518082815260200191505060405180910390f35b610a5660048036036020811015610a4057600080fd5b8101908080359060200190929190505050611df4565b6040518082815260200191505060405180910390f35b610a74611e0c565b604051808273ffffffffffffffffffffffffffffffffffffffff1673ffffffffffffffffffffffffffffffffffffffff16815260200191505060405180910390f35b610b0260048036036040811015610acc57600080fd5b81019080803573ffffffffffffffffffffffffffffffffffffffff16906020019092919080359060200190929190505050611e36565b005b610b0c611ef1565b604051808215151515815260200191505060405180910390f35b610cc0600480360360a0811015610b3c57600080fd5b8101908080359060200190929190803573ffffffffffffffffffffffffffffffffffffffff169060200190929190803573ffffffffffffffffffffffffffffffffffffffff16906020019092919080359060200190640100000000811115610ba357600080fd5b820183602082011115610bb557600080fd5b80359060200191846001830284011164010000000083111715610bd757600080fd5b91908080601f016020809104026020016040519081016040528093929190818152602001838380828437600081840152601f19601f82011690508083019250505050505050919291929080359060200190640100000000811115610c3a57600080fd5b820183602082011115610c4c57600080fd5b80359060200191846001830284011164010000000083111715610c6e57600080fd5b91908080601f016020809104026020016040519081016040528093929190818152602001838380828437600081840152601f19601f820116905080830192505050505050509192919290505050611f50565b005b610d0460048036036020811015610cd857600080fd5b81019080803573ffffffffffffffffffffffffffffffffffffffff169060200190929190505050612871565b005b610d4860048036036020811015610d1c57600080fd5b81019080803573ffffffffffffffffffffffffffffffffffffffff169060200190929190505050612a2f565b6040518082815260200191505060405180910390f35b610d9460048036036040811015610d7457600080fd5b810190808035906020019092919080359060200190929190505050612a47565b604051808215151515815260200191505060405180910390f35b610df060048036036020811015610dc457600080fd5b81019080803573ffffffffffffffffffffffffffffffffffffffff169060200190929190505050612a76565b604051808215151515815260200191505060405180910390f35b610e12612a96565b604051808273ffffffffffffffffffffffffffffffffffffffff1673ffffffffffffffffffffffffffffffffffffffff16815260200191505060405180910390f35b610e8060048036036020811015610e6a57600080fd5b8101908080359060200190929190505050612abc565b60405180806020018a1515151581526020018981526020018881526020018781526020018681526020018581526020018473ffffffffffffffffffffffffffffffffffffffff1673ffffffffffffffffffffffffffffffffffffffff1681526020018373ffffffffffffffffffffffffffffffffffffffff1673ffffffffffffffffffffffffffffffffffffffff16815260200182810382528b818151815260200191508051906020019080838360005b83811015610f4c578082015181840152602081019050610f31565b50505050905090810190601f168015610f795780820380516001836020036101000a031916815260200191505b509a505050505050505050505060405180910390f35b61104860048036036020811015610fa557600080fd5b8101908080359060200190640100000000811115610fc257600080fd5b820183602082011115610fd457600080fd5b80359060200191846001830284011164010000000083111715610ff657600080fd5b91908080601f016020809104026020016040519081016040528093929190818152602001838380828437600081840152601f19601f820116905080830192505050505050509192919290505050612bef565b005b61108c6004803603602081101561106057600080fd5b81019080803573ffffffffffffffffffffffffffffffffffffffff169060200190929190505050613260565b005b6110ba600480360360208110156110a457600080fd5b810190808035906020019092919050505061327d565b6040518082815260200191505060405180910390f35b6110d8613295565b604051808273ffffffffffffffffffffffffffffffffffffffff1673ffffffffffffffffffffffffffffffffffffffff16815260200191505060405180910390f35b6111226132bb565b6040518082815260200191505060405180910390f35b60008060018301600a0a850290506000600a600586848161115557fe5b04018161115e57fe5b04905080925050509392505050565b60006076826040518082805190602001908083835b602083106111a55780518252602082019150602081019050602083039250611182565b6001836020036101000a0380198251168184511680821785525050505050509050019150509081526020016040518091039020549050919050565b60726020528060005260406000206000915090505481565b60011515606660009054906101000a900473ffffffffffffffffffffffffffffffffffffffff1673ffffffffffffffffffffffffffffffffffffffff1663aaa746bb336040518263ffffffff1660e01b8152600401808273ffffffffffffffffffffffffffffffffffffffff1673ffffffffffffffffffffffffffffffffffffffff16815260200191505060206040518083038186803b15801561129b57600080fd5b505afa1580156112af573d6000803e3d6000fd5b505050506040513d60208110156112c557600080fd5b81019080805190602001909291905050501515146112e257600080fd5b6000606d600084815260200190815260200160002090506001151581600a0160003373ffffffffffffffffffffffffffffffffffffffff1673ffffffffffffffffffffffffffffffffffffffff16815260200190815260200160002060009054906101000a900460ff161515141561135957600080fd5b600115158160010160019054906101000a900460ff161515141561137c57600080fd5b60008160090180548091906001016113949190613f64565b9050604051806040016040528084151581526020013373ffffffffffffffffffffffffffffffffffffffff168152508260090182815481106113d257fe5b9060005260206000200160008201518160000160006101000a81548160ff02191690831515021790555060208201518160000160016101000a81548173ffffffffffffffffffffffffffffffffffffffff021916908373ffffffffffffffffffffffffffffffffffffffff160217905550905050600182600a0160003373ffffffffffffffffffffffffffffffffffffffff1673ffffffffffffffffffffffffffffffffffffffff16815260200190815260200160002060006101000a81548160ff021916908315150217905550606660009054906101000a900473ffffffffffffffffffffffffffffffffffffffff1673ffffffffffffffffffffffffffffffffffffffff16634777e8ea336040518263ffffffff1660e01b8152600401808273ffffffffffffffffffffffffffffffffffffffff1673ffffffffffffffffffffffffffffffffffffffff168152602001915050600060405180830381600087803b15801561154157600080fd5b505af1158015611555573d6000803e3d6000fd5b505050507f8eb81cb806dbb3d8a2f94981614331a55dfd90e06a42fdc362ca3ca96981d92f3384604051808373ffffffffffffffffffffffffffffffffffffffff1673ffffffffffffffffffffffffffffffffffffffff168152602001821515151581526020019250505060405180910390a16000606660009054906101000a900473ffffffffffffffffffffffffffffffffffffffff1673ffffffffffffffffffffffffffffffffffffffff1663997072f76040518163ffffffff1660e01b815260040160206040518083038186803b15801561163257600080fd5b505afa158015611646573d6000803e3d6000fd5b505050506040513d602081101561165c57600080fd5b810190808051906020019092919050505090506000611682846009018054905083612a47565b905080156116955761169486836132c1565b5b505050505050565b606d602052806000526040600020600091509050806000018054600181600116156101000203166002900480601f0160208091040260200160405190810160405280929190818152602001828054600181600116156101000203166002900480156117495780601f1061171e57610100808354040283529160200191611749565b820191906000526020600020905b81548152906001019060200180831161172c57829003601f168201915b5050505050908060010160009054906101000a900460ff16908060010160019054906101000a900460ff16908060020154908060030154908060040154908060050154908060060154908060070160009054906101000a900473ffffffffffffffffffffffffffffffffffffffff16908060080160009054906101000a900473ffffffffffffffffffffffffffffffffffffffff1690508a565b6060607760008373ffffffffffffffffffffffffffffffffffffffff1673ffffffffffffffffffffffffffffffffffffffff16815260200190815260200160002080548060200260200160405190810160405280929190818152602001828054801561186e57602002820191906000526020600020905b81548152602001906001019080831161185a575b50505050509050919050565b60695481565b60008061188f84846002611138565b9050603c81106118a35760019150506118a9565b60009150505b92915050565b60685481565b6075602052816000526040600020602052806000526040600020600091509150505481565b600080606d6000848152602001908152602001600020905080600a0160008573ffffffffffffffffffffffffffffffffffffffff1673ffffffffffffffffffffffffffffffffffffffff16815260200190815260200160002060009054906101000a900460ff1691505092915050565b606c6020528060005260406000206000915090505481565b606a60008154809291906001019190505550606a546076896040518082805190602001908083835b602083106119ad578051825260208201915060208101905060208303925061198a565b6001836020036101000a03801982511681845116808217855250505050505090500191505090815260200160405180910390208190555060006064868902816119f257fe5b0490506000606d6000606a548152602001908152602001600020905089816000019080519060200190611a26929190613f90565b5060008160010160006101000a81548160ff02191690831515021790555060008160010160016101000a81548160ff021916908315150217905550888160020181905550818160030181905550858160050181905550848160060181905550878160040181905550838160070160006101000a81548173ffffffffffffffffffffffffffffffffffffffff021916908373ffffffffffffffffffffffffffffffffffffffff160217905550828160080160006101000a81548173ffffffffffffffffffffffffffffffffffffffff021916908373ffffffffffffffffffffffffffffffffffffffff1602179055507f544a88757adcb29711e2e12a617fb44221880d5013615cf2dbbdb37f5d5059738a6040518080602001828103825283818151815260200191508051906020019080838360005b83811015611b76578082015181840152602081019050611b5b565b50505050905090810190601f168015611ba35780820380516001836020036101000a031916815260200191505b509250505060405180910390a150505050505050505050565b60746020528060005260406000206000915090508060000154908060010154908060020154908060030160009054906101000a900473ffffffffffffffffffffffffffffffffffffffff16908060040160009054906101000a900473ffffffffffffffffffffffffffffffffffffffff16908060050160009054906101000a900473ffffffffffffffffffffffffffffffffffffffff16908060060160009054906101000a900473ffffffffffffffffffffffffffffffffffffffff1690806007018054600181600116156101000203166002900480601f016020809104026020016040519081016040528092919081815260200182805460018160011615610100020316600290048015611d125780601f10611ce757610100808354040283529160200191611d12565b820191906000526020600020905b815481529060010190602001808311611cf557829003601f168201915b5050505050905088565b611d24611ef1565b611d2d57600080fd5b600073ffffffffffffffffffffffffffffffffffffffff16603360009054906101000a900473ffffffffffffffffffffffffffffffffffffffff1673ffffffffffffffffffffffffffffffffffffffff167f8be0079c531659141344cd1fd0a4f28419497f9722a3daafe3b4186f6b6457e060405160405180910390a36000603360006101000a81548173ffffffffffffffffffffffffffffffffffffffff021916908373ffffffffffffffffffffffffffffffffffffffff160217905550565b606b5481565b606f6020528060005260406000206000915090505481565b6000603360009054906101000a900473ffffffffffffffffffffffffffffffffffffffff16905090565b6000606d600083815260200190815260200160002090508060070160009054906101000a900473ffffffffffffffffffffffffffffffffffffffff1673ffffffffffffffffffffffffffffffffffffffff163373ffffffffffffffffffffffffffffffffffffffff1614611ea957600080fd5b828160070160006101000a81548173ffffffffffffffffffffffffffffffffffffffff021916908373ffffffffffffffffffffffffffffffffffffffff160217905550505050565b6000603360009054906101000a900473ffffffffffffffffffffffffffffffffffffffff1673ffffffffffffffffffffffffffffffffffffffff16611f34613882565b73ffffffffffffffffffffffffffffffffffffffff1614905090565b6000606660009054906101000a900473ffffffffffffffffffffffffffffffffffffffff1673ffffffffffffffffffffffffffffffffffffffff1663dc8e79fb846040518263ffffffff1660e01b81526004018080602001828103825283818151815260200191508051906020019080838360005b83811015611fe0578082015181840152602081019050611fc5565b50505050905090810190601f16801561200d5780820380516001836020036101000a031916815260200191505b509250505060206040518083038186803b15801561202a57600080fd5b505afa15801561203e573d6000803e3d6000fd5b505050506040513d602081101561205457600080fd5b810190808051906020019092919050505090506000606660009054906101000a900473ffffffffffffffffffffffffffffffffffffffff1673ffffffffffffffffffffffffffffffffffffffff1663817c8966836040518263ffffffff1660e01b8152600401808273ffffffffffffffffffffffffffffffffffffffff1673ffffffffffffffffffffffffffffffffffffffff16815260200191505060206040518083038186803b15801561210857600080fd5b505afa15801561211c573d6000803e3d6000fd5b505050506040513d602081101561213257600080fd5b810190808051906020019092919050505090506000606d60008981526020019081526020016000209050606660009054906101000a900473ffffffffffffffffffffffffffffffffffffffff1673ffffffffffffffffffffffffffffffffffffffff1663aaa746bb846040518263ffffffff1660e01b8152600401808273ffffffffffffffffffffffffffffffffffffffff1673ffffffffffffffffffffffffffffffffffffffff16815260200191505060206040518083038186803b1580156121fb57600080fd5b505afa15801561220f573d6000803e3d6000fd5b505050506040513d602081101561222557600080fd5b810190808051906020019092919050505061223f57600080fd5b806006015482101561225057600080fd5b8060010160009054906101000a900460ff1661226b57600080fd5b606660009054906101000a900473ffffffffffffffffffffffffffffffffffffffff1673ffffffffffffffffffffffffffffffffffffffff1663c812a6018483600501546040518363ffffffff1660e01b8152600401808373ffffffffffffffffffffffffffffffffffffffff1673ffffffffffffffffffffffffffffffffffffffff16815260200182815260200192505050600060405180830381600087803b15801561231857600080fd5b505af115801561232c573d6000803e3d6000fd5b5050505060008160030154826002015403905060008260070160009054906101000a900473ffffffffffffffffffffffffffffffffffffffff1690506000607460008b73ffffffffffffffffffffffffffffffffffffffff1673ffffffffffffffffffffffffffffffffffffffff16815260200190815260200160002090508281600001819055508a816001018190555083600301548160020181905550818160030160006101000a81548173ffffffffffffffffffffffffffffffffffffffff021916908373ffffffffffffffffffffffffffffffffffffffff160217905550898160040160006101000a81548173ffffffffffffffffffffffffffffffffffffffff021916908373ffffffffffffffffffffffffffffffffffffffff160217905550858160050160006101000a81548173ffffffffffffffffffffffffffffffffffffffff021916908373ffffffffffffffffffffffffffffffffffffffff160217905550888160060160006101000a81548173ffffffffffffffffffffffffffffffffffffffff021916908373ffffffffffffffffffffffffffffffffffffffff160217905550868160070190805190602001906124ee929190613f90565b50600073ffffffffffffffffffffffffffffffffffffffff168160060160009054906101000a900473ffffffffffffffffffffffffffffffffffffffff1673ffffffffffffffffffffffffffffffffffffffff16141561258c57858160060160006101000a81548173ffffffffffffffffffffffffffffffffffffffff021916908373ffffffffffffffffffffffffffffffffffffffff1602179055505b607160008c8152602001908152602001600020600081548092919060010191905055607160008d8152602001908152602001600020819055506001607360008c73ffffffffffffffffffffffffffffffffffffffff1673ffffffffffffffffffffffffffffffffffffffff16815260200190815260200160002060006101000a81548160ff021916908315150217905550607560008773ffffffffffffffffffffffffffffffffffffffff1673ffffffffffffffffffffffffffffffffffffffff16815260200190815260200160002060008c8152602001908152602001600020600081548092919060010191905055607560008873ffffffffffffffffffffffffffffffffffffffff1673ffffffffffffffffffffffffffffffffffffffff16815260200190815260200160002060008d815260200190815260200160002081905550606660009054906101000a900473ffffffffffffffffffffffffffffffffffffffff1673ffffffffffffffffffffffffffffffffffffffff16634777e8ea876040518263ffffffff1660e01b8152600401808273ffffffffffffffffffffffffffffffffffffffff1673ffffffffffffffffffffffffffffffffffffffff168152602001915050600060405180830381600087803b15801561277157600080fd5b505af1158015612785573d6000803e3d6000fd5b5050505042607260008c73ffffffffffffffffffffffffffffffffffffffff1673ffffffffffffffffffffffffffffffffffffffff168152602001908152602001600020819055507f5f3846e5f661cdab5e659252fcf86d485b1390b32b8445afbc165881296513338a87604051808373ffffffffffffffffffffffffffffffffffffffff1673ffffffffffffffffffffffffffffffffffffffff1681526020018273ffffffffffffffffffffffffffffffffffffffff1673ffffffffffffffffffffffffffffffffffffffff1681526020019250505060405180910390a15050505050505050505050565b600060019054906101000a900460ff1680612890575061288f61388a565b5b806128a757506000809054906101000a900460ff16155b6128fc576040517f08c379a000000000000000000000000000000000000000000000000000000000815260040180806020018281038252602e81526020018061412d602e913960400191505060405180910390fd5b60008060019054906101000a900460ff16159050801561294c576001600060016101000a81548160ff02191690831515021790555060016000806101000a81548160ff0219169083151502179055505b81603360006101000a81548173ffffffffffffffffffffffffffffffffffffffff021916908373ffffffffffffffffffffffffffffffffffffffff160217905550603360009054906101000a900473ffffffffffffffffffffffffffffffffffffffff1673ffffffffffffffffffffffffffffffffffffffff16600073ffffffffffffffffffffffffffffffffffffffff167f8be0079c531659141344cd1fd0a4f28419497f9722a3daafe3b4186f6b6457e060405160405180910390a38015612a2b5760008060016101000a81548160ff0219169083151502179055505b5050565b60706020528060005260406000206000915090505481565b600080612a5684846002611138565b905060508110612a6a576001915050612a70565b60009150505b92915050565b60736020528060005260406000206000915054906101000a900460ff1681565b606660009054906101000a900473ffffffffffffffffffffffffffffffffffffffff1681565b606e602052806000526040600020600091509050806000018054600181600116156101000203166002900480601f016020809104026020016040519081016040528092919081815260200182805460018160011615610100020316600290048015612b685780601f10612b3d57610100808354040283529160200191612b68565b820191906000526020600020905b815481529060010190602001808311612b4b57829003601f168201915b5050505050908060010160009054906101000a900460ff16908060020154908060030154908060040154908060050154908060060154908060070160009054906101000a900473ffffffffffffffffffffffffffffffffffffffff16908060080160009054906101000a900473ffffffffffffffffffffffffffffffffffffffff16905089565b607360003373ffffffffffffffffffffffffffffffffffffffff1673ffffffffffffffffffffffffffffffffffffffff16815260200190815260200160002060009054906101000a900460ff16612c4557600080fd5b6000339050612c52614010565b607460008373ffffffffffffffffffffffffffffffffffffffff1673ffffffffffffffffffffffffffffffffffffffff168152602001908152602001600020604051806101000160405290816000820154815260200160018201548152602001600282015481526020016003820160009054906101000a900473ffffffffffffffffffffffffffffffffffffffff1673ffffffffffffffffffffffffffffffffffffffff1673ffffffffffffffffffffffffffffffffffffffff1681526020016004820160009054906101000a900473ffffffffffffffffffffffffffffffffffffffff1673ffffffffffffffffffffffffffffffffffffffff1673ffffffffffffffffffffffffffffffffffffffff1681526020016005820160009054906101000a900473ffffffffffffffffffffffffffffffffffffffff1673ffffffffffffffffffffffffffffffffffffffff1673ffffffffffffffffffffffffffffffffffffffff1681526020016006820160009054906101000a900473ffffffffffffffffffffffffffffffffffffffff1673ffffffffffffffffffffffffffffffffffffffff1673ffffffffffffffffffffffffffffffffffffffff168152602001600782018054600181600116156101000203166002900480601f016020809104026020016040519081016040528092919081815260200182805460018160011615610100020316600290048015612eac5780601f10612e8157610100808354040283529160200191612eac565b820191906000526020600020905b815481529060010190602001808311612e8f57829003601f168201915b50505050508152505090508060e001516040516020018082805190602001908083835b60208310612ef25780518252602082019150602081019050602083039250612ecf565b6001836020036101000a03801982511681845116808217855250505050505090500191505060405160208183030381529060405280519060200120836040516020018082805190602001908083835b60208310612f645780518252602082019150602081019050602083039250612f41565b6001836020036101000a0380198251168184511680821785525050505050509050019150506040516020818303038152906040528051906020012014612fa957600080fd5b6000816020015190506000606d6000838152602001908152602001600020905060006001607060008773ffffffffffffffffffffffffffffffffffffffff1673ffffffffffffffffffffffffffffffffffffffff168152602001908152602001600020540190508160040154607260008773ffffffffffffffffffffffffffffffffffffffff1673ffffffffffffffffffffffffffffffffffffffff168152602001908152602001600020540142101561306257600080fd5b606f60008481526020019081526020016000205481111561312c576130868561389b565b42607260008773ffffffffffffffffffffffffffffffffffffffff1673ffffffffffffffffffffffffffffffffffffffff1681526020019081526020016000208190555080606f6000858152602001908152602001600020819055506000607060008773ffffffffffffffffffffffffffffffffffffffff1673ffffffffffffffffffffffffffffffffffffffff16815260200190815260200160002081905550613258565b42607260008773ffffffffffffffffffffffffffffffffffffffff1673ffffffffffffffffffffffffffffffffffffffff1681526020019081526020016000208190555080607060008773ffffffffffffffffffffffffffffffffffffffff1673ffffffffffffffffffffffffffffffffffffffff168152602001908152602001600020819055507f7e0163293172761353775ed5413c5650c56917cf163cbd6293a4636b6a87a6e6858560c0015183604051808473ffffffffffffffffffffffffffffffffffffffff1673ffffffffffffffffffffffffffffffffffffffff1681526020018373ffffffffffffffffffffffffffffffffffffffff1673ffffffffffffffffffffffffffffffffffffffff168152602001828152602001935050505060405180910390a15b505050505050565b613268611ef1565b61327157600080fd5b61327a81613e2c565b50565b60716020528060005260406000206000915090505481565b606760009054906101000a900473ffffffffffffffffffffffffffffffffffffffff1681565b606a5481565b6000606d60008481526020019081526020016000209050600080905060008090505b826009018054905081101561333957600083600901828154811061330357fe5b9060005260206000200190508060000160009054906101000a900460ff161561332d576001830192505b508060010190506132e3565b5060006133468285611880565b905080156138405760018360010160006101000a81548160ff02191690831515021790555060018360010160016101000a81548160ff02191690831515021790555084606c60008560080160009054906101000a900473ffffffffffffffffffffffffffffffffffffffff1673ffffffffffffffffffffffffffffffffffffffff1673ffffffffffffffffffffffffffffffffffffffff168152602001908152602001600020819055506133f8613f26565b50606760009054906101000a900473ffffffffffffffffffffffffffffffffffffffff1673ffffffffffffffffffffffffffffffffffffffff16634d238c8e8460080160009054906101000a900473ffffffffffffffffffffffffffffffffffffffff166040518263ffffffff1660e01b8152600401808273ffffffffffffffffffffffffffffffffffffffff1673ffffffffffffffffffffffffffffffffffffffff168152602001915050600060405180830381600087803b1580156134be57600080fd5b505af11580156134d2573d6000803e3d6000fd5b50505050606660009054906101000a900473ffffffffffffffffffffffffffffffffffffffff1673ffffffffffffffffffffffffffffffffffffffff16636326e4ce8460070160009054906101000a900473ffffffffffffffffffffffffffffffffffffffff166069546040518363ffffffff1660e01b8152600401808373ffffffffffffffffffffffffffffffffffffffff1673ffffffffffffffffffffffffffffffffffffffff16815260200182815260200192505050600060405180830381600087803b1580156135a557600080fd5b505af11580156135b9573d6000803e3d6000fd5b50505050606660009054906101000a900473ffffffffffffffffffffffffffffffffffffffff1673ffffffffffffffffffffffffffffffffffffffff16634777e8ea8460070160009054906101000a900473ffffffffffffffffffffffffffffffffffffffff166040518263ffffffff1660e01b8152600401808273ffffffffffffffffffffffffffffffffffffffff1673ffffffffffffffffffffffffffffffffffffffff168152602001915050600060405180830381600087803b15801561368257600080fd5b505af1158015613696573d6000803e3d6000fd5b50505050607760008460070160009054906101000a900473ffffffffffffffffffffffffffffffffffffffff1673ffffffffffffffffffffffffffffffffffffffff1673ffffffffffffffffffffffffffffffffffffffff1681526020019081526020016000208590806001815401808255809150509060018203906000526020600020016000909192909190915055507f8e83e1ec5969ae12ba675f003533b12076070b84710d8e23b9d1aee5b48b02e1836000018460070160009054906101000a900473ffffffffffffffffffffffffffffffffffffffff1660405180806020018373ffffffffffffffffffffffffffffffffffffffff1673ffffffffffffffffffffffffffffffffffffffff16815260200182810382528481815460018160011615610100020316600290048152602001915080546001816001161561010002031660029004801561382c5780601f106138015761010080835404028352916020019161382c565b820191906000526020600020905b81548152906001019060200180831161380f57829003601f168201915b5050935050505060405180910390a161387b565b60008360010160016101000a81548160ff02191690831515021790555060018360010160006101000a81548160ff0219169083151502179055505b5050505050565b600033905090565b600080303b90506000811491505090565b6138a3614010565b607460008373ffffffffffffffffffffffffffffffffffffffff1673ffffffffffffffffffffffffffffffffffffffff168152602001908152602001600020604051806101000160405290816000820154815260200160018201548152602001600282015481526020016003820160009054906101000a900473ffffffffffffffffffffffffffffffffffffffff1673ffffffffffffffffffffffffffffffffffffffff1673ffffffffffffffffffffffffffffffffffffffff1681526020016004820160009054906101000a900473ffffffffffffffffffffffffffffffffffffffff1673ffffffffffffffffffffffffffffffffffffffff1673ffffffffffffffffffffffffffffffffffffffff1681526020016005820160009054906101000a900473ffffffffffffffffffffffffffffffffffffffff1673ffffffffffffffffffffffffffffffffffffffff1673ffffffffffffffffffffffffffffffffffffffff1681526020016006820160009054906101000a900473ffffffffffffffffffffffffffffffffffffffff1673ffffffffffffffffffffffffffffffffffffffff1673ffffffffffffffffffffffffffffffffffffffff168152602001600782018054600181600116156101000203166002900480601f016020809104026020016040519081016040528092919081815260200182805460018160011615610100020316600290048015613afd5780601f10613ad257610100808354040283529160200191613afd565b820191906000526020600020905b815481529060010190602001808311613ae057829003601f168201915b5050505050815250509050606b6000815480929190600101919050555060006002826000015181613b2a57fe5b049050606660009054906101000a900473ffffffffffffffffffffffffffffffffffffffff1673ffffffffffffffffffffffffffffffffffffffff16636326e4ce8360a00151836040518363ffffffff1660e01b8152600401808373ffffffffffffffffffffffffffffffffffffffff1673ffffffffffffffffffffffffffffffffffffffff16815260200182815260200192505050600060405180830381600087803b158015613bda57600080fd5b505af1158015613bee573d6000803e3d6000fd5b50505050606660009054906101000a900473ffffffffffffffffffffffffffffffffffffffff1673ffffffffffffffffffffffffffffffffffffffff16636326e4ce8360c00151836040518363ffffffff1660e01b8152600401808373ffffffffffffffffffffffffffffffffffffffff1673ffffffffffffffffffffffffffffffffffffffff16815260200182815260200192505050600060405180830381600087803b158015613c9f57600080fd5b505af1158015613cb3573d6000803e3d6000fd5b50505050606660009054906101000a900473ffffffffffffffffffffffffffffffffffffffff1673ffffffffffffffffffffffffffffffffffffffff16636326e4ce836060015184604001516040518363ffffffff1660e01b8152600401808373ffffffffffffffffffffffffffffffffffffffff1673ffffffffffffffffffffffffffffffffffffffff16815260200182815260200192505050600060405180830381600087803b158015613d6857600080fd5b505af1158015613d7c573d6000803e3d6000fd5b505050507f8a950e000c348dbaa89e6f160262461c978e369ad1596e8697d08cd54d851540838360c001518460200151604051808473ffffffffffffffffffffffffffffffffffffffff1673ffffffffffffffffffffffffffffffffffffffff1681526020018373ffffffffffffffffffffffffffffffffffffffff1673ffffffffffffffffffffffffffffffffffffffff168152602001828152602001935050505060405180910390a1505050565b600073ffffffffffffffffffffffffffffffffffffffff168173ffffffffffffffffffffffffffffffffffffffff161415613e6657600080fd5b8073ffffffffffffffffffffffffffffffffffffffff16603360009054906101000a900473ffffffffffffffffffffffffffffffffffffffff1673ffffffffffffffffffffffffffffffffffffffff167f8be0079c531659141344cd1fd0a4f28419497f9722a3daafe3b4186f6b6457e060405160405180910390a380603360006101000a81548173ffffffffffffffffffffffffffffffffffffffff021916908373ffffffffffffffffffffffffffffffffffffffff16021790555050565b60006305a48fba606854014210613f5b57600260695481613f4357fe5b04606981905550426068819055506069549050613f61565b60695490505b90565b815481835581811115613f8b57818360005260206000209182019101613f8a91906140ad565b5b505050565b828054600181600116156101000203166002900490600052602060002090601f016020900481019282601f10613fd157805160ff1916838001178555613fff565b82800160010185558215613fff579182015b82811115613ffe578251825591602001919060010190613fe3565b5b50905061400c9190614107565b5090565b604051806101000160405280600081526020016000815260200160008152602001600073ffffffffffffffffffffffffffffffffffffffff168152602001600073ffffffffffffffffffffffffffffffffffffffff168152602001600073ffffffffffffffffffffffffffffffffffffffff168152602001600073ffffffffffffffffffffffffffffffffffffffff168152602001606081525090565b61410491905b8082111561410057600080820160006101000a81549060ff02191690556000820160016101000a81549073ffffffffffffffffffffffffffffffffffffffff0219169055506001016140b3565b5090565b90565b61412991905b8082111561412557600081600090555060010161410d565b5090565b9056fe436f6e747261637420696e7374616e63652068617320616c7265616479206265656e20696e697469616c697a6564a165627a7a7230582016f23610d9045a7e853760b45eba6ba9f5657384c2771738e2acfb5911678e4d0029",
  "source": "pragma solidity ^0.5.0;\nimport './RepBlockLogic.sol';\n\ncontract UseBlockLogic is RepBlockLogic {\n  ///@notice generateGlobalUseBlock is an internal function called when the cryptopatent blockchain has determined\n  ///        that a replication has mined a global use block.\n  function generateGlobalUseBlock(address _rep) internal {\n  ReplicationInfo memory infoR = repInfo[_rep];\n  //pulls a specific replications information in to be used as the variable infoR\n  // sets poolModedBlockReward equal to the block reward for a specific replications\n  // and multiplies it by how many replications a member owns. this is the pool mining bonus\n    globalUseBlock++;\n  //increases the Global UseBlock count\n   uint halfsies = infoR.BlockReward / 2;\n  //cuts block reward in half to be split between the rep maker and rep owner\n    DCPoA.proxyNTCMint(infoR.ReplicationMember, halfsies);\n  //mints the replicating member his modded block reward\n    DCPoA.proxyNTCMint(infoR.OwnersAddress, halfsies);\n  //mints the replication Owner his modded block reward\n    DCPoA.proxyNTCMint(infoR.InventorsAddress, infoR.Royalty);\n  //mints royalties to the idea inventor\n    emit GlobalUseBlock(_rep, infoR.OwnersAddress, infoR.IdeaID);\n  }\n\n  ///@notice UseBlockWeight is an internal function that tracks loacal use weightTracker\n  ///@dev this is called by generateUseBlockWeight\n  function generateUseBlockWeight(string memory _DLhash) public {\n  //requires the msg.sender's address is an activated replication\n    require(replications[msg.sender]);\n    address _rep = msg.sender;\n  //pulls the specific replications replication block into memory\n    ReplicationInfo memory infoR = repInfo[_rep];\n  //requires that the DeviceLock IPFS hash sent from the MineUseBlock function of the EPMS matches\n  //the one stored in the devices Replication Block...\n  //this encodes both strings as == doesnt work with strings in solidity directly\n    require(keccak256(abi.encodePacked((_DLhash))) == keccak256(abi.encodePacked((infoR.DeviceLockHash))));\n  //pulls a specific replications information in to be used as the variable infoR\n    uint ideaID = infoR.IdeaID;\n  //sets ideaID as a specific ideaID from the replications struct\n      IdeaProposal storage info = ideaProposals[ideaID];\n  //pulls a specific idea struct int to be used as the variable info\n    uint newWeight = localWeightTracker[_rep] + 1;\n  // increases the weight of a specific replication\n    require(now >= localMiningtimeTracker[_rep] +  info.miningTime);\n  //requires the time the function is called to be later than the combined total of its last call\n  //and the specific ideas mining time resraint\n  //this require fails if the rep is calling to frequently\n    if(newWeight > weightTracker[ideaID]) {\n  //checks if the replication has the heaviest weight\n    generateGlobalUseBlock(_rep);\n  //if it does it generates a global use block\n     localMiningtimeTracker[_rep] = now;\n  //resets the global mining time for a specific idea after a useBlock is mined\n     weightTracker[ideaID] = newWeight;\n  //sets the global block height to the weight of the mining replication\n     localWeightTracker[_rep] = 0;\n  //resets the local weight tracker for the mining replication\n  } else {\n    //if the replications weight is not heavy enough to mine a new block\n      localMiningtimeTracker[_rep] = now;\n    //set its local mining time tracker to the current time so it cant abuse the mining function\n      localWeightTracker[_rep] = newWeight;\n    //setts the local weight tracker for the rep to its new weight\n      emit LocalUseWeight(_rep, infoR.OwnersAddress, newWeight);\n    //emit event signaling that a replication mined a local weight without a global Useblock\n    }\n  }\n\n}\n",
  "sourcePath": "/home/stan36/repos/DecentraCorpContracts/contracts/CryptoPatent/UseBlockLogic.sol",
  "compiler": {
    "name": "solc",
    "version": "0.5.8+commit.23d335f2.Emscripten.clang"
  },
  "schemaVersion": "3.0.11",
  "updatedAt": "2019-09-13T18:41:29.227Z",
  "devdoc": {
    "methods": {
      "generateReplicationBlock(uint256,address,address,string,string)": {
        "details": "this requires the replicator has enough Notio to meet the stake amount and burns it from existenceit also adds the replicator as a member of DecentraCorpfinally, this contract calls the Proof of Replication Ownership contract and mints a PoRO token to the msg.sender"
      },
      "generateUseBlockWeight(string)": {
        "details": "this is called by generateUseBlockWeight"
      },
      "getPropID(string)": {
        "details": "getPropID is made for easier front end interaction"
      },
      "initialize(address)": {
        "details": "The Ownable constructor sets the original `owner` of the contract to the sender account."
      },
      "isOwner()": {
        "return": "true if `msg.sender` is the owner of the contract."
      },
      "owner()": {
        "return": "the address of the owner."
      },
      "percent(uint256,uint256,uint256)": {
        "details": "quorum is set to 60%"
      },
      "proposeIdea(string,uint256,uint256,uint256,uint256,uint256,address,address)": {
        "details": "the struct for this is set in interface.solidityidea proposals are put up for community approval"
      },
      "renounceOwnership()": {
        "details": "Allows the current owner to relinquish control of the contract. It will not be possible to call the functions with the `onlyOwner` modifier anymore."
      },
      "transferOwnership(address)": {
        "details": "Allows the current owner to transfer control of the contract to a newOwner.",
        "params": {
          "newOwner": "The address to transfer ownership to."
        }
      }
    }
  },
  "userdoc": {
    "methods": {
      "generateReplicationBlock(uint256,address,address,string,string)": {
        "notice": "generateReplicationBlock is used to generate a replication block when someone sucessfully replicates an Idea"
      },
      "generateUseBlockWeight(string)": {
        "notice": "UseBlockWeight is an internal function that tracks loacal use weightTracker"
      },
      "getPropID(string)": {
        "notice": "getPropID function allows one to rerieve a proposal ID by its ipfs hash"
      },
      "ideaVote(uint256,bool)": {
        "notice": "vote is a member only function which allows DecentraCorp members to vote on proposalPassed"
      },
      "percent(uint256,uint256,uint256)": {
        "notice": "set_Quorum is an internal function used by proposal vote counts to see if the community approves"
      },
      "proposeIdea(string,uint256,uint256,uint256,uint256,uint256,address,address)": {
        "notice": "proposeIdea is used to allow ANYONE to petition the community for idea approval"
      },
      "renounceOwnership()": {
        "notice": "Renouncing ownership will leave the contract without an owner, thereby removing any functionality that is only available to the owner."
      }
    }
  }
}