{
  "contractName": "UseBlockLogic",
  "abi": [
    {
      "constant": true,
      "inputs": [
        {
          "name": "",
          "type": "address"
        }
      ],
      "name": "localMiningtimeTracker",
      "outputs": [
        {
          "name": "",
          "type": "uint256"
        }
      ],
      "payable": false,
      "stateMutability": "view",
      "type": "function"
    },
    {
      "constant": true,
      "inputs": [
        {
          "name": "",
          "type": "uint256"
        }
      ],
      "name": "ideaProposals",
      "outputs": [
        {
          "name": "IdeaIPFS",
          "type": "string"
        },
        {
          "name": "executed",
          "type": "bool"
        },
        {
          "name": "proposalPassed",
          "type": "bool"
        },
        {
          "name": "globalUseBlockAmount",
          "type": "uint256"
        },
        {
          "name": "royalty",
          "type": "uint256"
        },
        {
          "name": "miningTime",
          "type": "uint256"
        },
        {
          "name": "stakeAmount",
          "type": "uint256"
        },
        {
          "name": "inventorAddress",
          "type": "address"
        },
        {
          "name": "inventionAddress",
          "type": "address"
        }
      ],
      "payable": false,
      "stateMutability": "view",
      "type": "function"
    },
    {
      "constant": true,
      "inputs": [],
      "name": "ideaBlockReward",
      "outputs": [
        {
          "name": "",
          "type": "uint256"
        }
      ],
      "payable": false,
      "stateMutability": "view",
      "type": "function"
    },
    {
      "constant": true,
      "inputs": [],
      "name": "globalBlockHalfTime",
      "outputs": [
        {
          "name": "",
          "type": "uint256"
        }
      ],
      "payable": false,
      "stateMutability": "view",
      "type": "function"
    },
    {
      "constant": true,
      "inputs": [
        {
          "name": "",
          "type": "address"
        },
        {
          "name": "",
          "type": "uint256"
        }
      ],
      "name": "repOwnes",
      "outputs": [
        {
          "name": "",
          "type": "uint256"
        }
      ],
      "payable": false,
      "stateMutability": "view",
      "type": "function"
    },
    {
      "constant": true,
      "inputs": [
        {
          "name": "",
          "type": "uint256"
        }
      ],
      "name": "ideaVariables",
      "outputs": [
        {
          "name": "globalUseBlockAmount",
          "type": "uint256"
        },
        {
          "name": "royalty",
          "type": "uint256"
        },
        {
          "name": "miningTime",
          "type": "uint256"
        },
        {
          "name": "stakeAmount",
          "type": "uint256"
        },
        {
          "name": "inventorAddress",
          "type": "address"
        },
        {
          "name": "inventionAddress",
          "type": "address"
        },
        {
          "name": "IPFShash",
          "type": "string"
        }
      ],
      "payable": false,
      "stateMutability": "view",
      "type": "function"
    },
    {
      "constant": true,
      "inputs": [],
      "name": "globalIdeaCount",
      "outputs": [
        {
          "name": "",
          "type": "uint256"
        }
      ],
      "payable": false,
      "stateMutability": "view",
      "type": "function"
    },
    {
      "constant": true,
      "inputs": [
        {
          "name": "",
          "type": "address"
        }
      ],
      "name": "IdeaAddToId",
      "outputs": [
        {
          "name": "",
          "type": "uint256"
        }
      ],
      "payable": false,
      "stateMutability": "view",
      "type": "function"
    },
    {
      "constant": true,
      "inputs": [
        {
          "name": "",
          "type": "address"
        }
      ],
      "name": "repInfo",
      "outputs": [
        {
          "name": "BlockReward",
          "type": "uint256"
        },
        {
          "name": "OwnersAddress",
          "type": "address"
        },
        {
          "name": "IdeaID",
          "type": "uint256"
        },
        {
          "name": "Royalty",
          "type": "uint256"
        },
        {
          "name": "RepID",
          "type": "uint256"
        },
        {
          "name": "InventorsAddress",
          "type": "address"
        },
        {
          "name": "ReplicationAddress",
          "type": "address"
        }
      ],
      "payable": false,
      "stateMutability": "view",
      "type": "function"
    },
    {
      "constant": false,
      "inputs": [],
      "name": "renounceOwnership",
      "outputs": [],
      "payable": false,
      "stateMutability": "nonpayable",
      "type": "function"
    },
    {
      "constant": true,
      "inputs": [],
      "name": "globalUseBlock",
      "outputs": [
        {
          "name": "",
          "type": "uint256"
        }
      ],
      "payable": false,
      "stateMutability": "view",
      "type": "function"
    },
    {
      "constant": true,
      "inputs": [
        {
          "name": "",
          "type": "uint256"
        }
      ],
      "name": "weightTracker",
      "outputs": [
        {
          "name": "",
          "type": "uint256"
        }
      ],
      "payable": false,
      "stateMutability": "view",
      "type": "function"
    },
    {
      "constant": true,
      "inputs": [],
      "name": "owner",
      "outputs": [
        {
          "name": "",
          "type": "address"
        }
      ],
      "payable": false,
      "stateMutability": "view",
      "type": "function"
    },
    {
      "constant": true,
      "inputs": [],
      "name": "isOwner",
      "outputs": [
        {
          "name": "",
          "type": "bool"
        }
      ],
      "payable": false,
      "stateMutability": "view",
      "type": "function"
    },
    {
      "constant": true,
      "inputs": [],
      "name": "globalRepCount",
      "outputs": [
        {
          "name": "",
          "type": "uint256"
        }
      ],
      "payable": false,
      "stateMutability": "view",
      "type": "function"
    },
    {
      "constant": false,
      "inputs": [
        {
          "name": "sender",
          "type": "address"
        }
      ],
      "name": "initialize",
      "outputs": [],
      "payable": false,
      "stateMutability": "nonpayable",
      "type": "function"
    },
    {
      "constant": true,
      "inputs": [
        {
          "name": "",
          "type": "address"
        }
      ],
      "name": "localWeightTracker",
      "outputs": [
        {
          "name": "",
          "type": "uint256"
        }
      ],
      "payable": false,
      "stateMutability": "view",
      "type": "function"
    },
    {
      "constant": true,
      "inputs": [
        {
          "name": "",
          "type": "address"
        }
      ],
      "name": "replications",
      "outputs": [
        {
          "name": "",
          "type": "bool"
        }
      ],
      "payable": false,
      "stateMutability": "view",
      "type": "function"
    },
    {
      "constant": true,
      "inputs": [],
      "name": "DCPoA",
      "outputs": [
        {
          "name": "",
          "type": "address"
        }
      ],
      "payable": false,
      "stateMutability": "view",
      "type": "function"
    },
    {
      "constant": false,
      "inputs": [
        {
          "name": "newOwner",
          "type": "address"
        }
      ],
      "name": "transferOwnership",
      "outputs": [],
      "payable": false,
      "stateMutability": "nonpayable",
      "type": "function"
    },
    {
      "constant": true,
      "inputs": [
        {
          "name": "",
          "type": "uint256"
        }
      ],
      "name": "ideaRepCounter",
      "outputs": [
        {
          "name": "",
          "type": "uint256"
        }
      ],
      "payable": false,
      "stateMutability": "view",
      "type": "function"
    },
    {
      "constant": true,
      "inputs": [],
      "name": "Validators",
      "outputs": [
        {
          "name": "",
          "type": "address"
        }
      ],
      "payable": false,
      "stateMutability": "view",
      "type": "function"
    },
    {
      "constant": true,
      "inputs": [],
      "name": "globalIdeaPropCount",
      "outputs": [
        {
          "name": "",
          "type": "uint256"
        }
      ],
      "payable": false,
      "stateMutability": "view",
      "type": "function"
    },
    {
      "constant": false,
      "inputs": [
        {
          "name": "_ideaId",
          "type": "uint256"
        },
        {
          "name": "_repAdd",
          "type": "address"
        }
      ],
      "name": "generateReplicationBlock",
      "outputs": [],
      "payable": false,
      "stateMutability": "nonpayable",
      "type": "function"
    },
    {
      "anonymous": false,
      "inputs": [
        {
          "indexed": false,
          "name": "IPFS",
          "type": "string"
        }
      ],
      "name": "IdeaProposed",
      "type": "event"
    },
    {
      "anonymous": false,
      "inputs": [
        {
          "indexed": false,
          "name": "member",
          "type": "address"
        }
      ],
      "name": "NewMember",
      "type": "event"
    },
    {
      "anonymous": false,
      "inputs": [
        {
          "indexed": false,
          "name": "IPFS",
          "type": "string"
        }
      ],
      "name": "IdeaApproved",
      "type": "event"
    },
    {
      "anonymous": false,
      "inputs": [
        {
          "indexed": false,
          "name": "_voter",
          "type": "address"
        },
        {
          "indexed": false,
          "name": "inSupport",
          "type": "bool"
        }
      ],
      "name": "Voted",
      "type": "event"
    },
    {
      "anonymous": false,
      "inputs": [
        {
          "indexed": false,
          "name": "_repAdd",
          "type": "address"
        }
      ],
      "name": "NewReplication",
      "type": "event"
    },
    {
      "anonymous": false,
      "inputs": [
        {
          "indexed": false,
          "name": "repAdd",
          "type": "address"
        },
        {
          "indexed": false,
          "name": "repWeight",
          "type": "uint256"
        }
      ],
      "name": "LocalUseWeight",
      "type": "event"
    },
    {
      "anonymous": false,
      "inputs": [
        {
          "indexed": false,
          "name": "repAdd",
          "type": "address"
        },
        {
          "indexed": false,
          "name": "ideaId",
          "type": "uint256"
        }
      ],
      "name": "GlobalUseBlock",
      "type": "event"
    },
    {
      "anonymous": false,
      "inputs": [
        {
          "indexed": true,
          "name": "previousOwner",
          "type": "address"
        },
        {
          "indexed": true,
          "name": "newOwner",
          "type": "address"
        }
      ],
      "name": "OwnershipTransferred",
      "type": "event"
    },
    {
      "constant": false,
      "inputs": [],
      "name": "generateUseBlockWeight",
      "outputs": [],
      "payable": false,
      "stateMutability": "nonpayable",
      "type": "function"
    }
  ],
  "bytecode": "0x608060405234801561001057600080fd5b506126eb806100206000396000f3fe608060405260043610610149576000357c0100000000000000000000000000000000000000000000000000000000900463ffffffff16806311e658441461014e5780631855efa6146101b35780631ddc883b146102ff57806328a6e47c1461032a5780632e858cce146103555780634242779f146103c45780634cfa2409146104fa5780634f214e84146105255780636849e7951461058a578063715018a61461069d57806375824974146106b457806381cbb677146106df5780638da5cb5b1461072e5780638f32d59b14610785578063a416ecd7146107b4578063be6cbbcf146107cb578063c4d66de8146107f6578063ce87d3ee14610847578063d436b5e9146108ac578063e026daa114610915578063f2fde38b1461096c578063f54a0129146109bd578063f691977414610a0c578063f7e1e4f014610a63578063f8c711fa14610a8e575b600080fd5b34801561015a57600080fd5b5061019d6004803603602081101561017157600080fd5b81019080803573ffffffffffffffffffffffffffffffffffffffff169060200190929190505050610ae9565b6040518082815260200191505060405180910390f35b3480156101bf57600080fd5b506101ec600480360360208110156101d657600080fd5b8101908080359060200190929190505050610b01565b60405180806020018a151515158152602001891515151581526020018881526020018781526020018681526020018581526020018473ffffffffffffffffffffffffffffffffffffffff1673ffffffffffffffffffffffffffffffffffffffff1681526020018373ffffffffffffffffffffffffffffffffffffffff1673ffffffffffffffffffffffffffffffffffffffff16815260200182810382528b818151815260200191508051906020019080838360005b838110156102bc5780820151818401526020810190506102a1565b50505050905090810190601f1680156102e95780820380516001836020036101000a031916815260200191505b509a505050505050505050505060405180910390f35b34801561030b57600080fd5b50610314610c41565b6040518082815260200191505060405180910390f35b34801561033657600080fd5b5061033f610c47565b6040518082815260200191505060405180910390f35b34801561036157600080fd5b506103ae6004803603604081101561037857600080fd5b81019080803573ffffffffffffffffffffffffffffffffffffffff16906020019092919080359060200190929190505050610c4d565b6040518082815260200191505060405180910390f35b3480156103d057600080fd5b506103fd600480360360208110156103e757600080fd5b8101908080359060200190929190505050610c72565b604051808881526020018781526020018681526020018581526020018473ffffffffffffffffffffffffffffffffffffffff1673ffffffffffffffffffffffffffffffffffffffff1681526020018373ffffffffffffffffffffffffffffffffffffffff1673ffffffffffffffffffffffffffffffffffffffff16815260200180602001828103825283818151815260200191508051906020019080838360005b838110156104b957808201518184015260208101905061049e565b50505050905090810190601f1680156104e65780820380516001836020036101000a031916815260200191505b509850505050505050505060405180910390f35b34801561050657600080fd5b5061050f610d8c565b6040518082815260200191505060405180910390f35b34801561053157600080fd5b506105746004803603602081101561054857600080fd5b81019080803573ffffffffffffffffffffffffffffffffffffffff169060200190929190505050610d92565b6040518082815260200191505060405180910390f35b34801561059657600080fd5b506105d9600480360360208110156105ad57600080fd5b81019080803573ffffffffffffffffffffffffffffffffffffffff169060200190929190505050610daa565b604051808881526020018773ffffffffffffffffffffffffffffffffffffffff1673ffffffffffffffffffffffffffffffffffffffff1681526020018681526020018581526020018481526020018373ffffffffffffffffffffffffffffffffffffffff1673ffffffffffffffffffffffffffffffffffffffff1681526020018273ffffffffffffffffffffffffffffffffffffffff1673ffffffffffffffffffffffffffffffffffffffff16815260200197505050505050505060405180910390f35b3480156106a957600080fd5b506106b2610e4c565b005b3480156106c057600080fd5b506106c9610f20565b6040518082815260200191505060405180910390f35b3480156106eb57600080fd5b506107186004803603602081101561070257600080fd5b8101908080359060200190929190505050610f26565b6040518082815260200191505060405180910390f35b34801561073a57600080fd5b50610743610f3e565b604051808273ffffffffffffffffffffffffffffffffffffffff1673ffffffffffffffffffffffffffffffffffffffff16815260200191505060405180910390f35b34801561079157600080fd5b5061079a610f68565b604051808215151515815260200191505060405180910390f35b3480156107c057600080fd5b506107c9610fc0565b005b3480156107d757600080fd5b506107e061156b565b6040518082815260200191505060405180910390f35b34801561080257600080fd5b506108456004803603602081101561081957600080fd5b81019080803573ffffffffffffffffffffffffffffffffffffffff169060200190929190505050611571565b005b34801561085357600080fd5b506108966004803603602081101561086a57600080fd5b81019080803573ffffffffffffffffffffffffffffffffffffffff169060200190929190505050611765565b6040518082815260200191505060405180910390f35b3480156108b857600080fd5b506108fb600480360360208110156108cf57600080fd5b81019080803573ffffffffffffffffffffffffffffffffffffffff16906020019092919050505061177d565b604051808215151515815260200191505060405180910390f35b34801561092157600080fd5b5061092a61179d565b604051808273ffffffffffffffffffffffffffffffffffffffff1673ffffffffffffffffffffffffffffffffffffffff16815260200191505060405180910390f35b34801561097857600080fd5b506109bb6004803603602081101561098f57600080fd5b81019080803573ffffffffffffffffffffffffffffffffffffffff1690602001909291905050506117c3565b005b3480156109c957600080fd5b506109f6600480360360208110156109e057600080fd5b81019080803590602001909291905050506117e2565b6040518082815260200191505060405180910390f35b348015610a1857600080fd5b50610a216117fa565b604051808273ffffffffffffffffffffffffffffffffffffffff1673ffffffffffffffffffffffffffffffffffffffff16815260200191505060405180910390f35b348015610a6f57600080fd5b50610a78611820565b6040518082815260200191505060405180910390f35b348015610a9a57600080fd5b50610ae760048036036040811015610ab157600080fd5b8101908080359060200190929190803573ffffffffffffffffffffffffffffffffffffffff169060200190929190505050611826565b005b60746020528060005260406000206000915090505481565b6070602052806000526040600020600091509050806000018054600181600116156101000203166002900480601f016020809104026020016040519081016040528092919081815260200182805460018160011615610100020316600290048015610bad5780601f10610b8257610100808354040283529160200191610bad565b820191906000526020600020905b815481529060010190602001808311610b9057829003601f168201915b5050505050908060010160009054906101000a900460ff16908060010160019054906101000a900460ff16908060020154908060030154908060040154908060050154908060060160009054906101000a900473ffffffffffffffffffffffffffffffffffffffff16908060070160009054906101000a900473ffffffffffffffffffffffffffffffffffffffff16905089565b606a5481565b60695481565b6077602052816000526040600020602052806000526040600020600091509150505481565b606e6020528060005260406000206000915090508060000154908060010154908060020154908060030154908060040160009054906101000a900473ffffffffffffffffffffffffffffffffffffffff16908060050160009054906101000a900473ffffffffffffffffffffffffffffffffffffffff1690806006018054600181600116156101000203166002900480601f016020809104026020016040519081016040528092919081815260200182805460018160011615610100020316600290048015610d825780601f10610d5757610100808354040283529160200191610d82565b820191906000526020600020905b815481529060010190602001808311610d6557829003601f168201915b5050505050905087565b60685481565b606f6020528060005260406000206000915090505481565b60766020528060005260406000206000915090508060000154908060010160009054906101000a900473ffffffffffffffffffffffffffffffffffffffff16908060020154908060030154908060040154908060050160009054906101000a900473ffffffffffffffffffffffffffffffffffffffff16908060060160009054906101000a900473ffffffffffffffffffffffffffffffffffffffff16905087565b610e54610f68565b1515610e5f57600080fd5b600073ffffffffffffffffffffffffffffffffffffffff16603360009054906101000a900473ffffffffffffffffffffffffffffffffffffffff1673ffffffffffffffffffffffffffffffffffffffff167f8be0079c531659141344cd1fd0a4f28419497f9722a3daafe3b4186f6b6457e060405160405180910390a36000603360006101000a81548173ffffffffffffffffffffffffffffffffffffffff021916908373ffffffffffffffffffffffffffffffffffffffff160217905550565b606d5481565b60716020528060005260406000206000915090505481565b6000603360009054906101000a900473ffffffffffffffffffffffffffffffffffffffff16905090565b6000603360009054906101000a900473ffffffffffffffffffffffffffffffffffffffff1673ffffffffffffffffffffffffffffffffffffffff163373ffffffffffffffffffffffffffffffffffffffff1614905090565b607560003373ffffffffffffffffffffffffffffffffffffffff1673ffffffffffffffffffffffffffffffffffffffff16815260200190815260200160002060009054906101000a900460ff16151561101857600080fd5b60003390506110256125d5565b607660008373ffffffffffffffffffffffffffffffffffffffff1673ffffffffffffffffffffffffffffffffffffffff16815260200190815260200160002060e06040519081016040529081600082015481526020016001820160009054906101000a900473ffffffffffffffffffffffffffffffffffffffff1673ffffffffffffffffffffffffffffffffffffffff1673ffffffffffffffffffffffffffffffffffffffff1681526020016002820154815260200160038201548152602001600482015481526020016005820160009054906101000a900473ffffffffffffffffffffffffffffffffffffffff1673ffffffffffffffffffffffffffffffffffffffff1673ffffffffffffffffffffffffffffffffffffffff1681526020016006820160009054906101000a900473ffffffffffffffffffffffffffffffffffffffff1673ffffffffffffffffffffffffffffffffffffffff1673ffffffffffffffffffffffffffffffffffffffff168152505090506000816040015190506111ad612655565b606e600083815260200190815260200160002060e06040519081016040529081600082015481526020016001820154815260200160028201548152602001600382015481526020016004820160009054906101000a900473ffffffffffffffffffffffffffffffffffffffff1673ffffffffffffffffffffffffffffffffffffffff1673ffffffffffffffffffffffffffffffffffffffff1681526020016005820160009054906101000a900473ffffffffffffffffffffffffffffffffffffffff1673ffffffffffffffffffffffffffffffffffffffff1673ffffffffffffffffffffffffffffffffffffffff168152602001600682018054600181600116156101000203166002900480601f0160208091040260200160405190810160405280929190818152602001828054600181600116156101000203166002900480156113395780601f1061130e57610100808354040283529160200191611339565b820191906000526020600020905b81548152906001019060200180831161131c57829003601f168201915b50505050508152505090506000607260008673ffffffffffffffffffffffffffffffffffffffff1673ffffffffffffffffffffffffffffffffffffffff16815260200190815260200160002054905060006001820190506000607160008681526020019081526020016000205490508360400151607460008973ffffffffffffffffffffffffffffffffffffffff1673ffffffffffffffffffffffffffffffffffffffff168152602001908152602001600020540142101515156113fc57600080fd5b81607260008973ffffffffffffffffffffffffffffffffffffffff1673ffffffffffffffffffffffffffffffffffffffff16815260200190815260200160002081905550808211156114b25761145187612069565b42607460008973ffffffffffffffffffffffffffffffffffffffff1673ffffffffffffffffffffffffffffffffffffffff16815260200190815260200160002081905550816071600087815260200190815260200160002081905550611562565b42607460008973ffffffffffffffffffffffffffffffffffffffff1673ffffffffffffffffffffffffffffffffffffffff168152602001908152602001600020819055507f6ad49266dd90c9bdf996a7d34e9516f55e0d641ac4b0e911baf7f730d683842a8783604051808373ffffffffffffffffffffffffffffffffffffffff1673ffffffffffffffffffffffffffffffffffffffff1681526020018281526020019250505060405180910390a15b50505050505050565b606c5481565b600060019054906101000a900460ff1680611590575061158f612465565b5b806115a757506000809054906101000a900460ff16155b1515611641576040517f08c379a000000000000000000000000000000000000000000000000000000000815260040180806020018281038252602e8152602001807f436f6e747261637420696e7374616e63652068617320616c726561647920626581526020017f656e20696e697469616c697a656400000000000000000000000000000000000081525060400191505060405180910390fd5b60008060019054906101000a900460ff1690506001600060016101000a81548160ff02191690831515021790555060016000806101000a81548160ff02191690831515021790555081603360006101000a81548173ffffffffffffffffffffffffffffffffffffffff021916908373ffffffffffffffffffffffffffffffffffffffff160217905550603360009054906101000a900473ffffffffffffffffffffffffffffffffffffffff1673ffffffffffffffffffffffffffffffffffffffff16600073ffffffffffffffffffffffffffffffffffffffff167f8be0079c531659141344cd1fd0a4f28419497f9722a3daafe3b4186f6b6457e060405160405180910390a380600060016101000a81548160ff0219169083151502179055505050565b60726020528060005260406000206000915090505481565b60756020528060005260406000206000915054906101000a900460ff1681565b606660009054906101000a900473ffffffffffffffffffffffffffffffffffffffff1681565b6117cb610f68565b15156117d657600080fd5b6117df81612476565b50565b60736020528060005260406000206000915090505481565b606760009054906101000a900473ffffffffffffffffffffffffffffffffffffffff1681565b606b5481565b61182e612655565b606e600084815260200190815260200160002060e06040519081016040529081600082015481526020016001820154815260200160028201548152602001600382015481526020016004820160009054906101000a900473ffffffffffffffffffffffffffffffffffffffff1673ffffffffffffffffffffffffffffffffffffffff1673ffffffffffffffffffffffffffffffffffffffff1681526020016005820160009054906101000a900473ffffffffffffffffffffffffffffffffffffffff1673ffffffffffffffffffffffffffffffffffffffff1673ffffffffffffffffffffffffffffffffffffffff168152602001600682018054600181600116156101000203166002900480601f0160208091040260200160405190810160405280929190818152602001828054600181600116156101000203166002900480156119ba5780601f1061198f576101008083540402835291602001916119ba565b820191906000526020600020905b81548152906001019060200180831161199d57829003601f168201915b5050505050815250509050606660009054906101000a900473ffffffffffffffffffffffffffffffffffffffff1673ffffffffffffffffffffffffffffffffffffffff1663aaa746bb336040518263ffffffff167c0100000000000000000000000000000000000000000000000000000000028152600401808273ffffffffffffffffffffffffffffffffffffffff1673ffffffffffffffffffffffffffffffffffffffff16815260200191505060206040518083038186803b158015611a8057600080fd5b505afa158015611a94573d6000803e3d6000fd5b505050506040513d6020811015611aaa57600080fd5b81019080805190602001909291905050501515611ac657600080fd5b606660009054906101000a900473ffffffffffffffffffffffffffffffffffffffff1673ffffffffffffffffffffffffffffffffffffffff1663c812a6013383606001516040518363ffffffff167c0100000000000000000000000000000000000000000000000000000000028152600401808373ffffffffffffffffffffffffffffffffffffffff1673ffffffffffffffffffffffffffffffffffffffff16815260200182815260200192505050600060405180830381600087803b158015611b8f57600080fd5b505af1158015611ba3573d6000803e3d6000fd5b50505050606c60008154809291906001019190505550600081600001519050600082602001519050600081830390506000846080015190506000606c549050611bea6125d5565b60e0604051908101604052808581526020013373ffffffffffffffffffffffffffffffffffffffff1681526020018a81526020018681526020018381526020018473ffffffffffffffffffffffffffffffffffffffff1681526020018973ffffffffffffffffffffffffffffffffffffffff16815250905080607660008a73ffffffffffffffffffffffffffffffffffffffff1673ffffffffffffffffffffffffffffffffffffffff1681526020019081526020016000206000820151816000015560208201518160010160006101000a81548173ffffffffffffffffffffffffffffffffffffffff021916908373ffffffffffffffffffffffffffffffffffffffff16021790555060408201518160020155606082015181600301556080820151816004015560a08201518160050160006101000a81548173ffffffffffffffffffffffffffffffffffffffff021916908373ffffffffffffffffffffffffffffffffffffffff16021790555060c08201518160060160006101000a81548173ffffffffffffffffffffffffffffffffffffffff021916908373ffffffffffffffffffffffffffffffffffffffff1602179055509050506000607360008b815260200190815260200160002054905080806001019150607360008c8152602001908152602001600020819055506001607560008b73ffffffffffffffffffffffffffffffffffffffff1673ffffffffffffffffffffffffffffffffffffffff16815260200190815260200160002060006101000a81548160ff0219169083151502179055506000607760003373ffffffffffffffffffffffffffffffffffffffff1673ffffffffffffffffffffffffffffffffffffffff16815260200190815260200160002060008c815260200190815260200160002054905080806001019150607760003373ffffffffffffffffffffffffffffffffffffffff1673ffffffffffffffffffffffffffffffffffffffff16815260200190815260200160002060008d815260200190815260200160002081905550606660009054906101000a900473ffffffffffffffffffffffffffffffffffffffff1673ffffffffffffffffffffffffffffffffffffffff16634777e8ea336040518263ffffffff167c0100000000000000000000000000000000000000000000000000000000028152600401808273ffffffffffffffffffffffffffffffffffffffff1673ffffffffffffffffffffffffffffffffffffffff168152602001915050600060405180830381600087803b158015611f9d57600080fd5b505af1158015611fb1573d6000803e3d6000fd5b5050505042607460008c73ffffffffffffffffffffffffffffffffffffffff1673ffffffffffffffffffffffffffffffffffffffff168152602001908152602001600020819055507fe949536157131e1de4cd7b981de0040f0fb98337330cdf262d0fed657681c2f08a604051808273ffffffffffffffffffffffffffffffffffffffff1673ffffffffffffffffffffffffffffffffffffffff16815260200191505060405180910390a15050505050505050505050565b6120716125d5565b607660008373ffffffffffffffffffffffffffffffffffffffff1673ffffffffffffffffffffffffffffffffffffffff16815260200190815260200160002060e06040519081016040529081600082015481526020016001820160009054906101000a900473ffffffffffffffffffffffffffffffffffffffff1673ffffffffffffffffffffffffffffffffffffffff1673ffffffffffffffffffffffffffffffffffffffff1681526020016002820154815260200160038201548152602001600482015481526020016005820160009054906101000a900473ffffffffffffffffffffffffffffffffffffffff1673ffffffffffffffffffffffffffffffffffffffff1673ffffffffffffffffffffffffffffffffffffffff1681526020016006820160009054906101000a900473ffffffffffffffffffffffffffffffffffffffff1673ffffffffffffffffffffffffffffffffffffffff1673ffffffffffffffffffffffffffffffffffffffff1681525050905060008160200151905060008260a0015190506000836040015190506000846060015190506000856000015190506000612222828588612572565b9050606d60008154809291906001019190505550606660009054906101000a900473ffffffffffffffffffffffffffffffffffffffff1673ffffffffffffffffffffffffffffffffffffffff16636326e4ce87836040518363ffffffff167c0100000000000000000000000000000000000000000000000000000000028152600401808373ffffffffffffffffffffffffffffffffffffffff1673ffffffffffffffffffffffffffffffffffffffff16815260200182815260200192505050600060405180830381600087803b1580156122fb57600080fd5b505af115801561230f573d6000803e3d6000fd5b50505050606660009054906101000a900473ffffffffffffffffffffffffffffffffffffffff1673ffffffffffffffffffffffffffffffffffffffff16636326e4ce86856040518363ffffffff167c0100000000000000000000000000000000000000000000000000000000028152600401808373ffffffffffffffffffffffffffffffffffffffff1673ffffffffffffffffffffffffffffffffffffffff16815260200182815260200192505050600060405180830381600087803b1580156123d857600080fd5b505af11580156123ec573d6000803e3d6000fd5b505050507fc35af376e21644286c5c8e35541e14cc67a7215c4a724810ed7e49a421c670a98885604051808373ffffffffffffffffffffffffffffffffffffffff1673ffffffffffffffffffffffffffffffffffffffff1681526020018281526020019250505060405180910390a15050505050505050565b600080303b90506000811491505090565b600073ffffffffffffffffffffffffffffffffffffffff168173ffffffffffffffffffffffffffffffffffffffff16141515156124b257600080fd5b8073ffffffffffffffffffffffffffffffffffffffff16603360009054906101000a900473ffffffffffffffffffffffffffffffffffffffff1673ffffffffffffffffffffffffffffffffffffffff167f8be0079c531659141344cd1fd0a4f28419497f9722a3daafe3b4186f6b6457e060405160405180910390a380603360006101000a81548173ffffffffffffffffffffffffffffffffffffffff021916908373ffffffffffffffffffffffffffffffffffffffff16021790555050565b600080607760008473ffffffffffffffffffffffffffffffffffffffff1673ffffffffffffffffffffffffffffffffffffffff16815260200190815260200160002060008581526020019081526020016000205490508085029150509392505050565b60e06040519081016040528060008152602001600073ffffffffffffffffffffffffffffffffffffffff168152602001600081526020016000815260200160008152602001600073ffffffffffffffffffffffffffffffffffffffff168152602001600073ffffffffffffffffffffffffffffffffffffffff1681525090565b60e06040519081016040528060008152602001600081526020016000815260200160008152602001600073ffffffffffffffffffffffffffffffffffffffff168152602001600073ffffffffffffffffffffffffffffffffffffffff16815260200160608152509056fea165627a7a72305820d82f336cd3f896b7acd84021db6b80406f9a1c3a28628be89df94dfdec922e9c0029",
  "source": "pragma solidity ^0.5.0;\nimport './RepBlockLogic.sol';\n\ncontract UseBlockLogic is RepBlockLogic {\n\n  ///@notice generateGlobalUseBlock is an internal function called when the cryptopatent blockchain has determined\n  ///        that a replication has mined a global use block.\n  function generateGlobalUseBlock(address _rep) internal {\n  ReplicationInfo memory infoR = repInfo[_rep];\n\n    address repOwnerAddress = infoR.OwnersAddress;\n  //sets repOwnerAddress as a specific replications owner from a rep struct\n    address inventor = infoR.InventorsAddress;\n  //sets inventor as a specific idea owner from a rep struct\n    uint ideaID = infoR.IdeaID;\n  //sets ideaID as a specific replications ideaID from a rep struct\n    uint royalty = infoR.Royalty;\n  //sets royalty as a specific replications royalty from a rep struct\n    uint blockReward =  infoR.BlockReward;\n  //sets BlockReward as the block reward for a specific idea\n\n    uint poolModedBlockReward = poolMiningCalculator(blockReward, ideaID, repOwnerAddress);\n\n    globalUseBlock++;\n    DCPoA.proxyNTCMint(repOwnerAddress, poolModedBlockReward);\n  //mints the replication Owner his block reward\n    DCPoA.proxyNTCMint(inventor, royalty);\n  //mints royalties to the idea inventor\n    emit GlobalUseBlock(_rep, ideaID);\n  }\n\n  ///@notice UseBlockWeight is an internal function that tracks loacal use weightTracker\n  ///@dev this is called by generateUseBlockWeight\n  function generateUseBlockWeight() public {\n    require(replications[msg.sender]);\n    address _rep = msg.sender;\n\n    ReplicationInfo memory infoR = repInfo[_rep];\n\n    uint ideaID = infoR.IdeaID;\n  //sets ideaID as a specific ideaID from the replications struct\n    IdeaBlock memory info = ideaVariables[ideaID];\n\n    uint weight = localWeightTracker[_rep];\n  // sets weight equal to the current weight of a specific replication\n    uint newWeight = weight + 1;\n  // increases the weight of a specific replication\n    uint globalWeight = weightTracker[ideaID];\n\n    require(now >= localMiningtimeTracker[_rep] +  info.miningTime);\n  //this require fails if the rep is calling to frequently\n    localWeightTracker[_rep] = newWeight;\n  //sets the newWeight for that specific replication\n    if(newWeight > globalWeight) {\n  //checks if the replication has the heaviest weight\n    generateGlobalUseBlock(_rep);\n  //if it does it generates a global use block\n      localMiningtimeTracker[_rep] = now;\n  //resets the global mining time for a specific idea after a useBlock is mined\n     weightTracker[ideaID] = newWeight;\n  }else {\n      localMiningtimeTracker[_rep] = now;\n      emit LocalUseWeight(_rep, newWeight);\n    }\n  }\n\nfunction poolMiningCalculator(uint _blockReward, uint _ideaId, address _owner) internal view returns(uint){\n  uint numberOfRepsOwned = repOwnes[_owner][_ideaId];\n  return _blockReward * numberOfRepsOwned;\n\n}\n\n}\n",
  "sourcePath": "/home/stan36/repos/DecentraCorpContracts/contracts/CryptoPatent/UseBlockLogic.sol",
  "compiler": {
    "name": "solc",
    "version": "0.5.0+commit.1d4f565a.Emscripten.clang"
  },
  "schemaVersion": "3.0.2",
  "updatedAt": "2019-04-13T18:33:34.014Z",
  "devdoc": {
    "methods": {
      "generateReplicationBlock(uint256,address)": {
        "details": "this requires the replicator has enough Notio to meet the stake amount and burns it from existenceit also adds the replicator as a member of DecentraCorpfinally, this contract calls the Proof of Replication Ownership contract and mints a PoRO token to the msg.sender"
      },
      "generateUseBlockWeight()": {
        "details": "this is called by generateUseBlockWeight"
      },
      "initialize(address)": {
        "details": "The Ownable constructor sets the original `owner` of the contract to the sender account."
      },
      "isOwner()": {
        "return": "true if `msg.sender` is the owner of the contract."
      },
      "owner()": {
        "return": "the address of the owner."
      },
      "renounceOwnership()": {
        "details": "Allows the current owner to relinquish control of the contract."
      },
      "transferOwnership(address)": {
        "details": "Allows the current owner to transfer control of the contract to a newOwner.",
        "params": {
          "newOwner": "The address to transfer ownership to."
        }
      }
    }
  },
  "userdoc": {
    "methods": {
      "generateReplicationBlock(uint256,address)": {
        "notice": "generateReplicationBlock is used to generate a replication block when someone sucessfully replicates an Idea"
      },
      "generateUseBlockWeight()": {
        "notice": "UseBlockWeight is an internal function that tracks loacal use weightTracker"
      },
      "renounceOwnership()": {
        "notice": "Renouncing to ownership will leave the contract without an owner. It will not be possible to call the functions with the `onlyOwner` modifier anymore."
      }
    }
  }
}